:020000040800F2
:100000000050002071100008C1100008C110000845
:10001000C1100008C1100008C11000080000000055
:10002000000000000000000000000000C1100008F7
:10003000C110000800000000C1100008C110000835
:10004000C1100008C1100008C1100008C11000084C
:10005000C1100008C1100008BD070008E107000832
:1000600005080008290800084D080008C11000080C
:10007000C1100008C1100008C1100008C11000081C
:10008000C1100008C1100008C1100008C11000080C
:10009000C1100008C1100008C11000087108000854
:1000A000C1100008C1100008C1100008C1100008EC
:1000B000510F0008C1100008C1100008A90C000869
:1000C000990D0008A50D0008B10D0008C110000829
:1000D000C1100008B90F0008CD0F0008E10F00089B
:1000E00019090008C110000800000000C110000834
:1000F000C1100008C1100008C1100008C11000089C
:10010000C1100008C1100008C1100008C11000088B
:10011000C1100008C1100008C1100008C11000087B
:10012000C1100008C1100008C1100008C11000086B
:1001300010B5054C237833B9044B13B10448AFF321
:1001400000800123237010BD10000020000000007B
:100150000C11000808B5034B1BB103490348AFF36A
:10016000008008BD00000000140000200C110008F1
:1001700080B58EB000AF7860012387F837307C4AB5
:100180007B6813607B68DB789BB23B86042387F82F
:100190003230022387F8333007F1300319467548AF
:1001A00000F0D4FC7B685B799BB2BB85042387F8A5
:1001B0002E30022387F82F3007F12C0319466D48A3
:1001C00000F0C4FC7B689B799BB23B85042387F8D5
:1001D0002A30022387F82B3007F128031946654897
:1001E00000F0B4FC7B68DB799BB2BB84042387F806
:1001F0002630022387F8273007F1240319465D488B
:1002000000F0A4FC7B681B7A9BB23B84042387F834
:100210002230022387F8233007F12003194655487E
:1002200000F094FC7B685B7A9BB2BB830423BB77B2
:100230000223FB7707F11C0319464E4800F086FCA9
:10024000082000F02BFE012220214A4800F014FD76
:10025000232000F066FE00222021464800F00CFD1D
:100260007B681B78042B0BD17B68DB789BB2002268
:100270001946414800F000FD282000F07FF846E0D4
:100280007B681B78082B42D17B68DB789BB200220D
:100290001946394800F0F0FC382000F06FF87B6810
:1002A0009B7A9BB23B830423BB760223FB7607F148
:1002B000180319462F4800F049FC7B68DB7A9BB293
:1002C000BB820423BB750223FB7507F11403194697
:1002D000284800F03BFC7B681B7B9BB23B820423DD
:1002E000BB740223FB7407F110031946214800F088
:1002F0002DFC7B685B7B9BB2BB810423BB73022319
:10030000FB7307F10C0319461A4800F01FFC01208B
:1003100000F007FE7B68DB789BB200221946164886
:1003200000F0AAFC0C2000F029F8012000F0F9FDF3
:100330007B68DB789BB2002219460F4800F09CFCDA
:10034000012000F01BF8032000F0EBFD7B68DB7858
:100350009BB200221946084800F08EFC062000F0EF
:100360000DF897F8373018463837BD4680BD00BFC6
:100370002C00002000080140000C014080B584B032
:1003800000AF0346FB710123FB73884B1B681B798D
:100390009BB200221946864800F06EFC834B1B6816
:1003A0005B799BB200221946814800F065FCFB791D
:1003B000282B59D17D4B1B68DB789BB219467C48B2
:1003C00000F043FC0346BB73BB7B002B4CD1774B47
:1003D0001B689B7999B2FB79DB09DBB21A4674483A
:1003E00000F04AFC714B1B68DB7999B2FB799B09E1
:1003F000DBB203F00103DBB21A466D4800F03CFCAF
:100400006A4B1B681B7A99B2FB795B09DBB203F07C
:100410000103DBB21A46664800F02EFC634B1B68F2
:100420005B7A99B2FB791B09DBB203F00103DBB203
:100430001A465F4800F020FC5C4B1B685B799BB25E
:10044000012219465A4800F017FC012000F069FD0E
:10045000564B1B685B799BB200221946544800F04A
:100460000BFC012000F05DFD504B1B681B78042B3A
:1004700040F0A0804D4B1B689B7999B2FB79DB095A
:10048000DBB21A464A4800F0F7FB484B1B68DB79A1
:1004900099B2FB799B09DBB203F00103DBB21A4688
:1004A000434800F0E9FB414B1B681B7A99B2FB798A
:1004B0005B09DBB203F00103DBB21A463C4800F0F3
:1004C000DBFB3A4B1B685B7A99B2FB791B09DBB209
:1004D00003F00103DBB21A46354800F0CDFB334B85
:1004E0001B685B799BB201221946314800F0C4FBBE
:1004F000012000F016FD2D4B1B685B799BB200229A
:1005000019462B4800F0B8FB012000F00AFD274BEC
:100510001B689B7999B2FB79DB08DBB203F001031E
:10052000DBB21A46224800F0A7FB204B1B68DB79A0
:1005300099B2FB799B08DBB203F00103DBB21A46E8
:100540001B4800F099FB194B1B681B7A99B2FB7989
:100550005B08DBB203F00103DBB21A46144800F07B
:100560008BFB124B1B685B7A99B2FB7903F001039A
:10057000DBB21A460E4800F07FFB0C4B1B685B7920
:100580009BB2012219460A4800F076FB012000F0D8
:10059000C8FC064B1B685B799BB2002219460448D5
:1005A00000F06AFB012000F0BCFC8CE02C00002075
:1005B000000C0140464B1B681B78082B40F08380E1
:1005C000434B1B689B7999B2FB79DB09DBB21A4676
:1005D000404800F051FB3E4B1B68DB7999B2FB7938
:1005E0009B09DBB203F00103DBB21A46394800F085
:1005F00043FB374B1B681B7A99B2FB795B09DBB273
:1006000003F00103DBB21A46324800F035FB304BF1
:100610001B685B7A99B2FB791B09DBB203F001031B
:10062000DBB21A462B4800F027FB294B1B689B7A4C
:1006300099B2FB79DB08DBB203F00103DBB21A46A7
:10064000244800F019FB224B1B68DB7A99B2FB7936
:100650009B08DBB203F00103DBB21A461D4800F031
:100660000BFB1B4B1B681B7B99B2FB795B08DBB256
:1006700003F00103DBB21A46164800F0FDFA144BF2
:100680001B685B7B99B2FB7903F00103DBB21A466E
:10069000104800F0F1FA0E4B1B685B799BB2012207
:1006A00019460C4800F0E8FA012000F03AFC084B2B
:1006B0001B685B799BB200221946064800F0DCFA01
:1006C000012000F02EFCFB7B18461037BD4680BD94
:1006D0002C000020000C014080B584B000AF786091
:1006E0000123FB730FE00C4B1B68DB789BB20122EC
:1006F00019460A4800F0C0FA7B685A1C7A601B78D9
:100700001846FFF73BFE7B681B78002BEBD1FB7B89
:1007100018461037BD4680BD2C000020000C01405B
:1007200080B584B000AF03460A46FB711346BB7127
:100730000123FB731F4B1B68DB789BB20022194619
:100740001D4800F099FAFB79012B08D1BB79803B59
:10075000DBB21846FFF712FE0023FB7325E0FB799E
:10076000022B08D1BB79403BDBB21846FFF706FEEF
:100770000023FB7319E0FB79032B08D1BB796C3B99
:10078000DBB21846FFF7FAFD0023FB730DE0FB799F
:10079000042B08D1BB792C3BDBB21846FFF7EEFDEA
:1007A0000023FB7301E00123FB73FB7B184610372A
:1007B000BD4680BD2C000020000C014080B500AF7C
:1007C000054B5B69044A43F001035361034B1B680B
:1007D000984700BF80BD00BF0004014030000020EA
:1007E00080B500AF054B5B69044A43F002035361D7
:1007F000034B5B68984700BF80BD00BF0004014009
:100800003000002080B500AF054B5B69044A43F01F
:1008100004035361034B9B68984700BF80BD00BF32
:10082000000401403000002080B500AF054B5B693B
:10083000044A43F008035361034BDB68984700BF49
:1008400080BD00BF000401403000002080B500AF33
:10085000054B5B69044A43F010035361034B1B696A
:10086000984700BF80BD00BF000401403000002059
:1008700080B500AF264B5B6903F02003002B08D046
:10088000234B5B69224A43F020035361214B5B6990
:1008900098471F4B5B6903F04003002B08D01C4BAB
:1008A0005B691B4A43F0400353611A4B9B699847AD
:1008B000174B5B6903F08003002B08D0144B5B6976
:1008C000134A43F080035361124BDB699847104B86
:1008D0005B6903F48073002B08D00D4B5B690C4AF5
:1008E00043F4807353610B4B1B6A9847084B5B6959
:1008F00003F40073002B08D0054B5B69044A43F4F2
:1009000000735361034B5B6A984700BF80BD00BF13
:10091000000401403000002080B500AF2D4B5B6922
:1009200003F48063002B08D02A4B5B69294A43F407
:1009300080635361284B9B6A9847264B5B6903F49D
:100940000063002B08D0234B5B69224A43F4006309
:100950005361214BDB6A98471E4B5B6903F480535C
:10096000002B08D01B4B5B691A4A43F48053536138
:10097000194B1B6B9847174B5B6903F40053002B13
:1009800008D0144B5B69134A43F400535361124B74
:100990005B6B98470F4B5B6903F48043002B08D0D7
:1009A0000C4B5B690B4A43F4804353610A4B9B6BCE
:1009B0009847084B5B6903F40043002B08D0054BB4
:1009C0005B69044A43F400435361034BDB6B984774
:1009D00000BF80BD000401403000002080B483B01F
:1009E00000AF0346FB80FB88B3F5004F00F0A58005
:1009F000B3F5004F00F3A380B3F5804F00F09B8068
:100A0000B3F5804F00F39B80B3F5005F00F0918059
:100A1000B3F5005F00F39380B3F5805F00F087804B
:100A2000B3F5805F00F38B80B3F5006F7DD0B3F535
:100A3000006F00F38480B3F5806F74D0B3F5806FDE
:100A40007DDCB3F5007F6CD0B3F5007F77DCB3F5C8
:100A5000807F64D0B3F5807F71DC802B5DD0802BEC
:100A60006DDC202B48DC002B69DD013B1F2B66D899
:100A700001A252F823F000BFFF0A0008030B000890
:100A80003F0B0008070B00083F0B00083F0B000856
:100A90003F0B00080B0B00083F0B00083F0B000842
:100AA0003F0B00083F0B00083F0B00083F0B0008FE
:100AB0003F0B00080F0B00083F0B00083F0B00081E
:100AC0003F0B00083F0B00083F0B00083F0B0008DE
:100AD0003F0B00083F0B00083F0B00083F0B0008CE
:100AE0003F0B00083F0B00083F0B00083F0B0008BE
:100AF0003F0B0008130B0008402B0CD01FE0002315
:100B00001EE004231CE008231AE00C2318E0102345
:100B100016E0142314E0182312E01C2310E0002335
:100B20000EE004230CE008230AE00C2308E0102365
:100B300006E0142304E0182302E01C2300E0002355
:100B400018460C37BD4680BC704700BF90B585B0D5
:100B500000AF786039600023BB600023FB733B6803
:100B60001B88FF2B01D87B6801E07B680433BB60E6
:100B70003B681B881846FFF731FF03461A460F23D0
:100B80009340DA43BB681B681A40BB681A603B6835
:100B90009B78072B0BD03B689B78062B07D03B68D4
:100BA0009B78052B03D03B689B78042B0ED13B68C8
:100BB0009B78043B9B005AB23B68DB785BB21343E3
:100BC0005BB2DBB203F00F03FB732CE03B689B7856
:100BD000012B03D03B689B78002B07D13B689B78A7
:100BE0009B00DBB203F00F03FB731CE03B689B78B8
:100BF000082B02D10423FB7315E00823FB733B6829
:100C00009B78022B07D17B68DB683A6812881A430D
:100C10007B68DA6007E07B68DB683A681288D24359
:100C20001A407B68DA60FC7B3B681B881846FFF73C
:100C3000D5FE034604FA03F2BB681B681A43BB687F
:100C40001A6000BF1437BD4690BD80B485B000AFB8
:100C500078600B467B807B689A687B881340002B0A
:100C600002D00123FB7301E00023FB73FB7B1846DA
:100C70001437BD4680BC704780B483B000AF786045
:100C80000B467B8013467B707B78002B03D07A88E1
:100C90007B681A6102E07A887B685A6100BF0C3772
:100CA000BD4680BC7047000080B586B000AF002311
:100CB000FB71384B7B617B695B6803F400733B61BC
:100CC0007B695B6803F48063FB607B695B6903F0AD
:100CD0001003BB603B69002B0AD0BB68002B07D018
:100CE0007B691A687B691A600021786900F066F8F0
:100CF0007B695B6903F00203BB603B69002B14D086
:100D0000BB68002B11D07B699B6903F00103002BAA
:100D10000BD17B695B69DBB2FB717B699B69DBB2E1
:100D2000FB710221786900F049F87B695B6903F087
:100D30008003BB603B69002B0FD0FB68002B0CD0FD
:100D4000BB68002B09D07B699B6903F00103002B72
:100D500003D10321786900F031F87B695B6903F006
:100D60004003BB603B69002B0FD0FB68002B0CD00D
:100D7000BB68002B09D07B699B6903F00103002B42
:100D800003D10421786900F019F800BF1837BD4677
:100D900080BD00BF0054004080B400AF00BFBD461E
:100DA00080BC704780B400AF00BFBD4680BC7047B8
:100DB00080B400AF00BFBD4680BC704780B584B032
:100DC00000AF78600B46FB707B68324A934214BFD9
:100DD00001230023DBB2FB73FB78042B56D801A25E
:100DE00052F823F0FF0D0008F90D0008230E00084B
:100DF0003B0E00085F0E00087B689B6946E07B683D
:100E00009B6903F00403002B3BD0FA7B2249134675
:100E1000DB0013449B000B4420331B6800209847E1
:100E20002FE0FA7B1C491346DB0013449B000B4464
:100E300020331B680220984728E07B689B6903F0F9
:100E40000403002B1FD0FA7B13491346DB00134425
:100E50009B000B4420331B680320984713E07B68FA
:100E60009B6903F00403002B0FD1FA7B0A49134658
:100E7000DB0013449B000B4420331B68042098477D
:100E800003E000BF02E000BF00E000BF00BF10377A
:100E9000BD4680BD005400406C00002080B483B08B
:100EA00000AF0346FB71134BDB69124A43F00103A9
:100EB000D361FB795A1E4FF080439A624FF0804312
:100EC0004CF25032DA624FF080431B684FF08042A0
:100ED00043F00103136000BF4FF080431B6903F030
:100EE0000103002BF8D000BF00BF0C37BD4680BC0B
:100EF000704700BF0010024080B483B000AF78603C
:100F00004FF0804300225A6200BF4FF080435A6A7C
:100F10007B689A42F9D300BF00BF0C37BD4680BC46
:100F2000704780B584B000AF78600023FB6006E0B6
:100F30004FF47A70FFF7E0FFFB680133FB60FA685B
:100F40007B689A42F4DB00BF00BF1037BD4680BD0E
:100F500080B400AF164B1B78012B25D14FF0804396
:100F60001B694FF0804223F0010313614FF080436F
:100F70001B694FF0804223F0020313610D4B1B8865
:100F8000002B06D00B4B1B88013B9AB2094B1A80F1
:100F90000AE0074B00221A704FF080431B684FF0A5
:100FA000804223F00103136000BFBD4680BC704740
:100FB000B4000020B600002080B500AF024B1B69D2
:100FC000984700BF80BD00BFB800002080B500AFCB
:100FD000024B5B6A984700BF80BD00BFB80000208D
:100FE00080B500AF024B9B6B984700BF80BD00BF30
:100FF000B800002080B586B000AF154B9B69144A3D
:1010000043F008039361124B9B69114A43F00403B8
:10101000936100237B610F4B1B683B610E4B1B6888
:10102000FB600E4B1B68BB600D4B1B687B603B1D60
:1010300019460C48FFF78AFD0B48FFF799F8002185
:101040000120FFF76DFB0948FFF746FBF7E700BFFC
:1010500000100240281100082C110008301100086F
:10106000341100080008014000000020241100088D
:101070000D488546AFF300800C480D490D4A00230A
:1010800002E0D458C4500433C4188C42F9D30A4A3D
:101090000A4C002301E013600432A242FBD300F0AB
:1010A00011F8FFF7A7FFFEE7005000200000002026
:1010B000100000204011000810000020F400002063
:1010C000FEE7000070B500260C4D0D4C641BA4100B
:1010D000A64209D100F01AF800260A4D0A4C641BFA
:1010E000A410A64205D170BD55F8043B98470136BF
:1010F000EEE755F8043B98470136F2E7381100084F
:1011000038110008381100083C110008F8B500BF7C
:10111000F8BC08BC9E467047F8B500BFF8BC08BCD8
:041120009E46704730
:1011240048690000000104020002040200040402F1
:041134002000040291
:041138005501000855
:04113C003101000875
:101140000400000C000D00010A0B0000000000006C
:04000005080010716E
:00000001FF
