:020000040800F2
:10000000005000205D260008AD260008AD2600083F
:10001000AD260008AD260008AD260008000000004F
:10002000000000000000000000000000AD260008F5
:10003000AD26000800000000AD260008AD2600082F
:10004000AD260008AD260008AD260008AD26000844
:10005000AD260008AD260008451300086913000806
:100060008D130008B1130008D5130008AD26000851
:10007000AD260008AD260008AD260008AD26000814
:10008000AD260008AD260008AD260008AD26000804
:10009000AD260008AD260008AD260008F9130008BB
:1000A000AD260008AD260008AD260008AD260008E4
:1000B000A1230008AD260008AD260008311800086D
:1000C000211900082D19000839190008AD2600086B
:1000D000AD260008092400081D240008312400086A
:1000E000A1140008AD26000800000000AD2600089D
:1000F000AD260008AD260008AD260008AD26000894
:10010000AD260008AD260008AD260008AD26000883
:10011000AD260008AD260008AD260008AD26000873
:10012000AD260008AD260008AD260008AD26000863
:1001300010B5054C237833B9044B13B10448AFF321
:1001400000800123237010BD2C000020000000005F
:10015000F826000808B5034B1BB103490348AFF369
:10016000008008BD0000000030000020F8260008D4
:1001700081F0004102E000BF83F0004330B54FEA58
:1001800041044FEA430594EA050F08BF90EA020FC5
:100190001FBF54EA000C55EA020C7FEA645C7FEA58
:1001A000655C00F0E2804FEA5454D4EB5555B8BF7B
:1001B0006D420CDD2C4480EA020281EA030382EAEC
:1001C000000083EA010180EA020281EA0303362D7E
:1001D00088BF30BD11F0004F4FEA01314FF4801C51
:1001E0004CEA113102D0404261EB410113F0004F63
:1001F0004FEA03334CEA133302D0524263EB43031A
:1002000094EA050F00F0A780A4F10104D5F1200EB7
:100210000DDB02FA0EFC22FA05F2801841F1000112
:1002200003FA0EF2801843FA05F359410EE0A5F1E6
:1002300020050EF1200E012A03FA0EFC28BF4CF017
:10024000020C43FA05F3C01851EBE37101F00045CD
:1002500007D54FF0000EDCF1000C7EEB00006EEBDA
:100260000101B1F5801F1BD3B1F5001F0CD3490864
:100270005FEA30004FEA3C0C04F101044FEA4452BB
:1002800012F5800F80F09A80BCF1004F08BF5FEA42
:10029000500C50F1000041EB045141EA050130BD22
:1002A0005FEA4C0C404141EB0101013C28BFB1F534
:1002B000801FE9D291F0000F04BF01460020B1FA7F
:1002C00081F308BF2033A3F10B03B3F120020CDA52
:1002D0000C3208DD02F1140CC2F10C0201FA0CF030
:1002E00021FA02F10CE002F11402D8BFC2F1200C95
:1002F00001FA02F120FA0CFCDCBF41EA0C0190404B
:10030000E41AA2BF01EB0451294330BD6FEA040493
:100310001F3C1CDA0C340EDC04F11404C4F120027E
:1003200020FA04F001FA02F340EA030021FA04F390
:1003300045EA030130BDC4F10C04C4F1200220FAE7
:1003400002F001FA04F340EA0300294630BD21FA25
:1003500004F0294630BD94F0000F83F4801306BFEB
:1003600081F480110134013D4EE77FEA645C18BFDF
:100370007FEA655C29D094EA050F08BF90EA020F76
:1003800005D054EA000C04BF1946104630BD91EA6E
:10039000030F1EBF0021002030BD5FEA545C05D171
:1003A0004000494128BF41F0004130BD14F58004B0
:1003B0003CBF01F5801130BD01F0004545F0FE4124
:1003C00041F470014FF0000030BD7FEA645C1ABF59
:1003D000194610467FEA655C1CBF0B46024650EA90
:1003E000013406BF52EA033591EA030F41F40021BC
:1003F00030BD00BF90F0000F04BF0021704730B542
:100400004FF4806404F132044FF000054FF0000116
:1004100050E700BF90F0000F04BF0021704730B5D7
:100420004FF4806404F1320410F0004548BF4042AC
:100430004FF000013EE700BF42004FEAE2014FEA01
:1004400031014FEA02701FBF12F07F4393F07F4FDC
:1004500081F06051704732F07F4208BF704793F0DF
:100460007F4F04BF41F40021704730B54FF46074F2
:1004700001F0004521F000411CE700BF50EA0102F5
:1004800008BF704730B54FF000050AE050EA01029E
:1004900008BF704730B511F0004502D5404261EB0E
:1004A00041014FF4806404F132045FEA915C3FF44F
:1004B000D8AE4FF003025FEADC0C18BF03325FEAEC
:1004C000DC0C18BF033202EBDC02C2F1200300FA9D
:1004D00003FC20FA02F001FA03FE40EA0E0021FAC2
:1004E00002F11444BDE600BF70B54FF0FF0C4CF4B0
:1004F000E06C1CEA11541DBF1CEA135594EA0C0F62
:1005000095EA0C0F00F0DEF82C4481EA030621EA9C
:100510004C5123EA4C5350EA013518BF52EA0335D7
:1005200041F4801143F4801338D0A0FB02CE4FF089
:100530000005E1FB02E506F00042E0FB03E54FF0B9
:100540000006E1FB03569CF0000F18BF4EF0010EB1
:10055000A4F1FF04B6F5007F64F5407404D25FEAAD
:100560004E0E6D4146EB060642EAC62141EA555160
:100570004FEAC52040EA5E504FEACE2EB4F1FD0CA2
:1005800088BFBCF5E06F1ED8BEF1004F08BF5FEA20
:10059000500E50F1000041EB045170BD06F00046D2
:1005A00046EA010140EA020081EA0301B4EB5C047F
:1005B000C2BFD4EB0C0541EA045170BD41F4801177
:1005C0004FF0000E013C00F3AB8014F1360FDEBF9C
:1005D000002001F0004170BDC4F10004203C35DA78
:1005E0000C341BDC04F11404C4F1200500FA05F3FB
:1005F00020FA04F001FA05F240EA020001F000429C
:1006000021F0004110EBD37021FA04F642EB060111
:100610005EEA430E08BF20EAD37070BDC4F10C043B
:10062000C4F1200500FA04F320FA05F001FA04F2FF
:1006300040EA020001F0004110EBD37041F10001EB
:100640005EEA430E08BF20EAD37070BDC4F12005F6
:1006500000FA05F24EEA020E20FA04F301FA05F25E
:1006600043EA020321FA04F001F0004121FA04F206
:1006700020EA020000EBD3705EEA430E08BF20EAD6
:10068000D37070BD94F0000F0FD101F00046400010
:1006900041EB010111F4801F08BF013CF7D041EA92
:1006A000060195F0000F18BF704703F00046520096
:1006B00043EB030313F4801F08BF013DF7D043EA67
:1006C0000603704794EA0C0F0CEA135518BF95EA1D
:1006D0000C0F0CD050EA410618BF52EA4306D1D1A4
:1006E00081EA030101F000414FF0000070BD50EAC3
:1006F000410606BF1046194652EA430619D094EA4D
:100700000C0F02D150EA013613D195EA0C0F05D136
:1007100052EA03361CBF104619460AD181EA03018A
:1007200001F0004141F0FE4141F470014FF0000042
:1007300070BD41F0FE4141F4780170BD70B54FF0DD
:10074000FF0C4CF4E06C1CEA11541DBF1CEA13555D
:1007500094EA0C0F95EA0C0F00F0A7F8A4EB05043F
:1007600081EA030E52EA03354FEA013100F0888036
:100770004FEA03334FF0805545EA131343EA1263FF
:100780004FEA022245EA111545EA10654FEA0026B4
:100790000EF000419D4208BF964244F1FD0404F56D
:1007A000407402D25B084FEA3202B61A65EB0305C9
:1007B0005B084FEA32024FF480104FF4002CB6EB86
:1007C000020E75EB030E22BFB61A754640EA0C0006
:1007D0005B084FEA3202B6EB020E75EB030E22BF46
:1007E000B61A754640EA5C005B084FEA3202B6EB87
:1007F000020E75EB030E22BFB61A754640EA9C0046
:100800005B084FEA3202B6EB020E75EB030E22BF15
:10081000B61A754640EADC0055EA060E18D04FEAD3
:10082000051545EA16754FEA06164FEAC30343EA73
:1008300052734FEAC2025FEA1C1CC0D111F4801F40
:100840000BD141EA00014FF000004FF0004CB6E739
:1008500011F4801F04BF01430020B4F1FD0C88BFD8
:10086000BCF5E06F3FF6AFAEB5EB030C04BFB6EBE3
:10087000020C5FEA500C50F1000041EB045170BDD6
:100880000EF0004E4EEA113114EB5C04C2BFD4EB03
:100890000C0541EA045170BD41F480114FF0000E87
:1008A000013C90E645EA060E8DE60CEA135594EA03
:1008B0000C0F08BF95EA0C0F3FF43BAF94EA0C0F06
:1008C0000AD150EA01347FF434AF95EA0C0F7FF47B
:1008D00025AF104619462CE795EA0C0F06D152EACF
:1008E00003353FF4FDAE1046194622E750EA4106B3
:1008F00018BF52EA43067FF4C5AE50EA41047FF4C4
:100900000DAF52EA43057FF4EBAE12E74A0011D275
:1009100012F5001211D20DD56FF47873B3EB625259
:100920000ED44FEAC12343F0004343EA505323FA65
:1009300002F070474FF00000704750EA013002D1DA
:100940004FF0FF3070474FF00000704780B586B021
:1009500000AF786007F1100300221A609A807B686C
:100960001B789BB23B827B685B789BB27B827B6807
:10097000DB787B7507F1080300221A609A807B6898
:100980001B799BB23B817B685B799BB27B817B68E7
:10099000DB797B737B68013307F11002114618463F
:1009A00000F098FE7B68053307F1080211461846EF
:1009B00000F090FE00BF1837BD4680BD80B586B000
:1009C00000AF786007F1100300221A609A807B68FC
:1009D0001B789BB23B827B685B789BB27B827B6897
:1009E000DB787B7507F1080300221A609A807B6828
:1009F0001B799BB23B817B685B799BB27B817B6877
:100A0000DB797B737B68581C7B681B789BB2012267
:100A1000194600F0F5FE7B68581D7B681B799BB278
:100A20000022194600F0ECFE00BF1837BD4680BD1D
:100A300080B586B000AF786007F1100300221A601D
:100A40009A807B681B789BB23B827B685B789BB209
:100A50007B827B68DB787B7507F1080300221A60D4
:100A60009A807B681B799BB23B817B685B799BB2E8
:100A70007B817B68DB797B737B68581C7B681B7888
:100A80009BB20022194600F0BBFE7B68581D7B68B4
:100A90001B799BB20122194600F0B2FE00BF183745
:100AA000BD4680BD80B596B000AF7860012387F861
:100AB00057308C4A7B68136007F1500300221A609C
:100AC0009A807B689B88A7F85030042387F85430BD
:100AD000022387F8553007F150031946824800F089
:100AE000F9FD07F1480300221A609A807B681B8990
:100AF000A7F84830042387F84C30022387F84D309C
:100B000007F148031946784800F0E4FD07F1400377
:100B100000221A609A807B685B89A7F84030042322
:100B200087F84430022387F8453007F1400319461F
:100B30006D4800F0CFFD07F1380300221A609A805B
:100B40007B689B893B87042387F83C30022387F826
:100B50003D3007F138031946634800F0BBFD07F14B
:100B6000300300221A609A807B68DB893B8604236D
:100B700087F83430022387F8353007F130031946FF
:100B8000594800F0A7FD07F1280300221A609A8057
:100B90007B681B8A3B85042387F82C30022387F867
:100BA0002D3007F1280319464F4800F093FD082027
:100BB00000F038FF232000F078FF7B681B78042BBF
:100BC0000AD17B689B8800221946474800F018FE2E
:100BD000282000F08BF857E07B681B78082B53D156
:100BE0007B689B88002219463F4800F009FE3820A8
:100BF00000F07CF807F1200300221A609A807B68DD
:100C00005B8A3B84042387F82430022387F825304D
:100C100007F120031946344800F05CFD07F1180382
:100C200000221A609A807B689B8A3B8304233B776F
:100C300002237B7707F1180319462B4800F04AFD81
:100C400007F1100300221A609A807B68DB8A3B82DE
:100C500004233B7502237B7507F1100319462248D4
:100C600000F038FD07F1080300221A609A807B68C3
:100C70001B8B3B8104233B7302237B7307F1080327
:100C80001946194800F026FD012000F00EFF7B6890
:100C90009B8800221946144800F0B2FD0C2000F099
:100CA00025F8012000F001FF7B689B88002219468F
:100CB0000D4800F0A5FD012000F018F8032000F019
:100CC000F4FE7B689B8800221946074800F098FDD7
:100CD000062000F00BF897F8573018465837BD46F5
:100CE00080BD00BF48000020000C014080B584B0EA
:100CF00000AF0346FB710123FB737E4B1B68DB884F
:100D0000002219467C4800F07BFD7A4B1B681B894A
:100D100000221946784800F073FDFB79282B52D148
:100D2000744B1B689B881946734800F052FD0346BC
:100D3000BB73BB7B002B46D16E4B1B685989FB797B
:100D4000DB09DBB21A466C4800F05AFD694B1B68A0
:100D50009989FB799B09DBB203F00103DBB21A46E8
:100D6000654800F04DFD634B1B68D989FB795B0931
:100D7000DBB203F00103DBB21A465F4800F040FD2E
:100D80005C4B1B68198AFB791B09DBB203F001037A
:100D9000DBB21A46584800F033FD564B1B681B89DE
:100DA00001221946544800F02BFD012000F07DFE81
:100DB000504B1B681B89002219464F4800F020FD4C
:100DC000012000F072FE4B4B1B681B78042B40F097
:100DD0009580484B1B685989FB79DB09DBB21A46C1
:100DE000454800F00DFD434B1B689989FB799B0931
:100DF000DBB203F00103DBB21A463F4800F000FD0E
:100E00003C4B1B68D989FB795B09DBB203F001031A
:100E1000DBB21A46384800F0F3FC364B1B68198ADF
:100E2000FB791B09DBB203F00103DBB21A4632483F
:100E300000F0E6FC2F4B1B681B89012219462E4847
:100E400000F0DEFC012000F030FE2A4B1B681B89FD
:100E500000221946284800F0D3FC012000F025FEAE
:100E6000244B1B685989FB79DB08DBB203F00103D3
:100E7000DBB21A46204800F0C3FC1E4B1B68998960
:100E8000FB799B08DBB203F00103DBB21A461A4878
:100E900000F0B6FC174B1B68D989FB795B08DBB205
:100EA00003F00103DBB21A46134800F0A9FC114B12
:100EB0001B68198AFB7903F00103DBB21A460E485E
:100EC00000F09EFC0B4B1B681B89012219460A4847
:100ED00000F096FC012000F0E8FD064B1B681B8922
:100EE00000221946044800F08BFC012000F0DDFDD3
:100EF00082E000BF48000020000C0140414B1B680D
:100F00001B78082B78D13F4B1B685989FB79DB098B
:100F1000DBB21A463C4800F073FC3A4B1B689989D7
:100F2000FB799B09DBB203F00103DBB21A463648BA
:100F300000F066FC334B1B68D989FB795B09DBB297
:100F400003F00103DBB21A462F4800F059FC2D4B89
:100F50001B68198AFB791B09DBB203F00103DBB2C2
:100F60001A46294800F04CFC264B1B68598AFB792D
:100F7000DB08DBB203F00103DBB21A46224800F0C3
:100F80003FFC204B1B68998AFB799B08DBB203F07E
:100F90000103DBB21A461C4800F032FC194B1B68F7
:100FA000D98AFB795B08DBB203F00103DBB21A4696
:100FB000154800F025FC134B1B68198BFB7903F0D7
:100FC0000103DBB21A46104800F01AFC0D4B1B68F7
:100FD0001B89012219460C4800F012FC012000F088
:100FE00064FD084B1B681B8900221946064800F067
:100FF00007FC012000F059FDFB7B18461037BD4669
:1010000080BD00BF48000020000C014080B584B0C6
:1010100000AF78600123FB730EE00C4B1B689B88CC
:10102000012219460A4800F0EBFB7B685A1C7A60E3
:101030001B781846FFF75AFE7B681B78002BECD113
:10104000FB7B18461037BD4680BD00BF480000201E
:10105000000C014080B584B000AF03460A46FB7126
:101060001346BB710123FB731F4B1B689B88002237
:1010700019461E4800F0C4FBFB79012B08D1BB794F
:10108000803BDBB21846FFF731FE0023FB7325E0FF
:10109000FB79022B08D1BB79403BDBB21846FFF746
:1010A00025FE0023FB7319E0FB79032B08D1BB79E4
:1010B0006C3BDBB21846FFF719FE0023FB730DE013
:1010C000FB79042B08D1BB792C3BDBB21846FFF728
:1010D0000DFE0023FB7301E00123FB73FB7B18462D
:1010E0001037BD4680BD00BF48000020000C014005
:1010F00080B586B000AF78600123BB7400237B61AC
:101100000023FB747B68002B0DDA364B1B689B8831
:1011100001221946344800F073FB2D20FFF7E6FD4D
:101120007B685B427B607B68002B2CD12D4B1B685E
:101130009B88012219462C4800F062FB3020FFF703
:10114000D5FD20E07968294B83FB01239A10CB174A
:10115000D21A13469B0013445B00CA1AFA607A69DC
:1011600013469B0013445B001A46FB6813447B61E3
:10117000FB7C0133FB747B681C4A82FB03129210D8
:10118000DB17D31A7B607B68002BDBDC22E07969FC
:10119000174BA3FB0123DA0813469B0013445B00A3
:1011A000CA1A13467B740F4B1B689B880122194691
:1011B0000D4800F025FB7B7C3033DBB21846FFF78F
:1011C00095FDFB7C013BFB747B69094AA2FB032371
:1011D000DB087B61FB7C002BD9D1BB7C1846183720
:1011E000BD4680BD48000020000C01406766666671
:1011F000CDCCCCCC80B586B000AF786007F11003C1
:1012000000221A609A807B681B799BB23B82042380
:101210003B7502237B7507F1100319460D4800F05A
:1012200059FA07F1080300221A609A807B685B79FB
:101230009BB23B8101233B7307F108031946054824
:1012400000F048FA044A7B681360002318461837F8
:10125000BD4680BD000801404C00002080B500AFB5
:101260000B4B1B681B799BB201221946094800F001
:10127000C7FA0A2000F004FC054B1B681B799BB2DF
:1012800000221946034800F0BBFA00BF80BD00BF32
:101290004C0000200008014080B586B000AF7860A7
:1012A000FFF7DCFF264B1B681A68254B1B685B7930
:1012B0009BB21946104600F08CFA0346FB75FB7D85
:1012C000002BEFD001F062F838611D4B1B681A68E3
:1012D0001B4B1B685B799BB21946104600F079FAEC
:1012E0000346FB75FB7D012BEFD001F04FF8F86052
:1012F000FA683B69D31ABB60B868FFF77BF80EA3A6
:10130000D3E90023FFF7F0F802460B4610461946D2
:101310004FF000024FF08043FFF710FA02460B46F1
:1013200010461946FFF7F2FA02467B681A6000235E
:1013300018461837BD4680BD006F8104C58FA13F98
:101340004C00002080B500AF054B5B69044A43F0B8
:1013500001035361034B1B68984700BF80BD00BF6A
:10136000000401405000002080B500AF054B5B69D0
:10137000044A43F002035361034B5B68984700BF84
:1013800080BD00BF000401405000002080B500AFC8
:10139000054B5B69044A43F004035361034B9B68AC
:1013A000984700BF80BD00BF0004014050000020EE
:1013B00080B500AF054B5B69044A43F008035361F5
:1013C000034BDB68984700BF80BD00BF00040140AD
:1013D0005000002080B500AF054B5B69044A43F024
:1013E00010035361034B1B69984700BF80BD00BFCA
:1013F000000401405000002080B500AF264B5B691F
:1014000003F02003002B08D0234B5B69224A43F0F2
:1014100020035361214B5B6998471F4B5B6903F0C5
:101420004003002B08D01C4B5B691B4A43F0400370
:1014300053611A4B9B699847174B5B6903F0800314
:10144000002B08D0144B5B69134A43F080035361AF
:10145000124BDB699847104B5B6903F48073002BD8
:1014600008D00D4B5B690C4A43F4807353610B4BFE
:101470001B6A9847084B5B6903F40073002B08D084
:10148000054B5B69044A43F400735361034B5B6A89
:10149000984700BF80BD00BF0004014050000020FD
:1014A00080B500AF2D4B5B6903F48063002B08D03F
:1014B0002A4B5B69294A43F480635361284B9B6A3A
:1014C0009847264B5B6903F40063002B08D0234B3D
:1014D0005B69224A43F400635361214BDB6A9847FE
:1014E0001E4B5B6903F48053002B08D01B4B5B69D8
:1014F0001A4A43F480535361194B1B6B9847174B9F
:101500005B6903F40053002B08D0144B5B69134A4A
:1015100043F400535361124B5B6B98470F4B5B696D
:1015200003F48043002B08D00C4B5B690B4A43F457
:10153000804353610A4B9B6B9847084B5B6903F4EC
:101540000043002B08D0054B5B69044A43F4004379
:101550005361034BDB6B984700BF80BD0004014023
:101560005000002080B483B000AF0346FB80FB88AE
:10157000B3F5004F00F0A580B3F5004F00F3A38052
:10158000B3F5804F00F09B80B3F5804F00F39B8054
:10159000B3F5005F00F09180B3F5005F00F3938036
:1015A000B3F5805F00F08780B3F5805F00F38B8038
:1015B000B3F5006F7DD0B3F5006F00F38480B3F511
:1015C000806F74D0B3F5806F7DDCB3F5007F6CD095
:1015D000B3F5007F77DCB3F5807F64D0B3F5807F0F
:1015E00071DC802B5DD0802B6DDC202B48DC002B48
:1015F00069DD013B1F2B66D801A252F823F000BF22
:10160000871600088B160008C71600088F160008FA
:10161000C7160008C7160008C7160008931600086A
:10162000C7160008C7160008C7160008C716000826
:10163000C7160008C7160008C71600089716000846
:10164000C7160008C7160008C7160008C716000806
:10165000C7160008C7160008C7160008C7160008F6
:10166000C7160008C7160008C7160008C7160008E6
:10167000C7160008C7160008C71600089B16000802
:10168000402B0CD01FE000231EE004231CE00823A5
:101690001AE00C2318E0102316E0142314E018239A
:1016A00012E01C2310E000230EE004230CE00823CA
:1016B0000AE00C2308E0102306E0142304E01823BA
:1016C00002E01C2300E0002318460C37BD4680BC16
:1016D000704700BF90B585B000AF786039600023D7
:1016E000BB600023FB733B681B88FF2B01D87B6822
:1016F00001E07B680433BB603B681B881846FFF73A
:1017000031FF03461A460F239340DA43BB681B6838
:101710001A40BB681A603B681B79072B0BD03B68EB
:101720001B79062B07D03B681B79052B03D03B6840
:101730001B79042B0ED13B681B79043B9B005AB2EA
:101740003B685B795BB213435BB2DBB203F00F0320
:10175000FB732CE03B681B79012B03D03B681B79A2
:10176000002B07D13B681B799B00DBB203F00F0312
:10177000FB731CE03B681B79082B02D10423FB732D
:1017800015E00823FB733B681B79022B07D17B68AC
:10179000DB683A6812881A437B68DA6007E07B6886
:1017A000DB683A681288D2431A407B68DA60FC7BB7
:1017B0003B681B881846FFF7D5FE034604FA03F280
:1017C000BB681B681A43BB681A6000BF1437BD466C
:1017D00090BD80B485B000AF78600B467B807B689D
:1017E0009A687B881340002B02D00123FB7301E031
:1017F0000023FB73FB7B18461437BD4680BC704743
:1018000080B483B000AF78600B467B8013467B705A
:101810007B78002B03D07A887B681A6102E07A8893
:101820007B685A6100BF0C37BD4680BC7047000022
:1018300080B586B000AF0023FB71384B7B617B69BC
:101840005B6803F400733B617B695B6803F480634E
:10185000FB607B695B6903F01003BB603B69002B95
:101860000AD0BB68002B07D07B691A687B691A60B5
:101870000021786900F066F87B695B6903F0020378
:10188000BB603B69002B14D0BB68002B11D07B6977
:101890009B6903F00103002B0BD17B695B69DBB211
:1018A000FB717B699B69DBB2FB710221786900F0F7
:1018B00049F87B695B6903F08003BB603B69002BDF
:1018C0000FD0FB68002B0CD0BB68002B09D07B69C4
:1018D0009B6903F00103002B03D10321786900F019
:1018E00031F87B695B6903F04003BB603B69002B07
:1018F0000FD0FB68002B0CD0BB68002B09D07B6994
:101900009B6903F00103002B03D10421786900F0E7
:1019100019F800BF1837BD4680BD00BF0054004015
:1019200080B400AF00BFBD4680BC704780B400AF3C
:1019300000BFBD4680BC704780B400AF00BFBD464D
:1019400080BC704780B584B000AF78600B46FB70F8
:101950007B68324A934214BF01230023DBB2FB733E
:10196000FB78042B56D801A252F823F087190008FF
:1019700081190008AB190008C3190008E71900080D
:101980007B689B6946E07B689B6903F00403002B3E
:101990003BD0FA7B22491346DB0013449B000B44E7
:1019A00020331B68002098472FE0FA7B1C49134620
:1019B000DB0013449B000B4420331B680220984734
:1019C00028E07B689B6903F00403002B1FD0FA7B9F
:1019D00013491346DB0013449B000B4420331B6860
:1019E0000320984713E07B689B6903F00403002BF6
:1019F0000FD1FA7B0A491346DB0013449B000B44CA
:101A000020331B680420984703E000BF02E000BFBA
:101A100000E000BF00BF1037BD4680BD005400404D
:101A20008C00002080B483B000AF0346FB71134BE1
:101A3000DB69124A43F00103D361FB795A1E4FF070
:101A400080439A624FF080434CF25032DA624FF09A
:101A500080431B684FF0804243F00103136000BFD6
:101A60004FF080431B6903F00103002BF8D000BF47
:101A700000BF0C37BD4680BC704700BF001002405D
:101A800080B483B000AF78604FF0804300225A6288
:101A900000BF4FF080435A6A7B689A42F9D300BF77
:101AA00000BF0C37BD4680BC704780B584B000AF26
:101AB00078600023FB6006E04FF47A70FFF7E0FFE8
:101AC000FB680133FB60FA687B689A42F4DB00BF75
:101AD00000BF1037BD4680BD80B5A8B000AFF8602C
:101AE0007B600B46FB721346BB72012387F89F3065
:101AF0000023C7F898300123C7F894301CE097F80A
:101B0000A830AD4A02FB03F319467B68D7F894204E
:101B100002FB03F3B1FBF3F3C7F89830D7F8983022
:101B2000B3F5FA4F05D3D7F894300233C7F89430A1
:101B300002E0002387F89F3097F89F30012BDED01A
:101B4000FB689E4A934240F00B819D4B9B699C4AE7
:101B500043F4006393619A4B9B69994A43F00403F1
:101B60009361974B9B69964A43F001039361FB682D
:101B70001B6823F00102FB681A60FB7A032B00F25A
:101B8000E18301A252F823F0991B00080B1C000806
:101B90007D1C0008EF1C000807F18C0300221A606E
:101BA0009A804FF48073A7F88C300623A7F88E3004
:101BB000012387F8903007F18C0319468148FFF71D
:101BC00089FDFB689B6943F00802FB689A61FB682A
:101BD0001B6A43F00102FB681A62FB689B6943F0D1
:101BE0006002FB689A61BB7AD7F8982002FB03F386
:101BF000754AA2FB03235A09FB685A63FB685B6CB6
:101C000043F40042FB685A649CE307F1840300221A
:101C10001A609A804FF40073A7F884300623A7F85F
:101C20008630012387F8883007F184031946654818
:101C3000FFF750FDFB689B6943F40062FB689A6103
:101C4000FB681B6A43F01002FB681A62FB689B6921
:101C500043F4C042FB689A61BB7AD7F8982002FB34
:101C600003F3594AA2FB03235A09FB689A63FB68F2
:101C70005B6C43F40042FB685A6463E307F17C0346
:101C800000221A609A804FF48063A7F87C30062304
:101C9000A7F87E30012387F8803007F17C031946CE
:101CA0004848FFF717FDFB68DB6943F00802FB6853
:101CB000DA61FB681B6A43F48072FB681A62FB6896
:101CC000DB6943F06002FB68DA61BB7AD7F89820E1
:101CD00002FB03F33C4AA2FB03235A09FB68DA63C5
:101CE000FB685B6C43F40042FB685A642AE307F12B
:101CF000740300221A609A804FF40063A7F87430CE
:101D00000623A7F87630012387F8783007F17403AB
:101D100019462C48FFF7DEFCFB68DB6943F40062E0
:101D2000FB68DA61FB681B6A43F48052FB681A6245
:101D3000FB68DB6943F4C042FB68DA61BB7AD7F821
:101D4000982002FB03F3204AA2FB03235A09FB68F5
:101D50001A64FB685B6C43F40042FB685A64F1E26E
:101D6000FB68B3F1804F40F0F980154BDB69144AF2
:101D700043F00103D361124B9B69114A43F0040302
:101D800093610F4B9B690E4A43F001039361FB681B
:101D90001B6823F00102FB681A60FB7A032B00F238
:101DA000D18201A252F823F0CD1D0008311E000897
:101DB000951E0008F91E000840420F00002C01404B
:101DC00000100240000801401F85EB5107F16C0331
:101DD00000221A609A800123A7F86C300623A7F826
:101DE0006E30012387F8703007F16C031946A6485E
:101DF000FFF770FCFB689B6943F00802FB689A617F
:101E0000FB681B6A43F00102FB681A62FB689B696E
:101E100043F06002FB689A61BB7AD7F8982002FB16
:101E200003F39A4AA2FB03235A09FB685A6389E227
:101E300007F1640300221A609A800223A7F8643035
:101E40000623A7F86630012387F8683007F164039A
:101E500019468D48FFF73EFCFB689B6943F400621E
:101E6000FB689A61FB681B6A43F01002FB681A6208
:101E7000FB689B6943F4C042FB689A61BB7AD7F860
:101E8000982002FB03F3814AA2FB03235A09FB6853
:101E90009A6357E207F15C0300221A609A800423D8
:101EA000A7F85C300623A7F85E30012387F860307E
:101EB00007F15C0319467448FFF70CFCFB68DB690B
:101EC00043F00802FB68DA61FB681B6A43F4807226
:101ED000FB681A62FB68DB6943F06002FB68DA6149
:101EE000BB7AD7F8982002FB03F3684AA2FB0323CE
:101EF0005A09FB68DA6325E207F1540300221A60ED
:101F00009A800823A7F854300623A7F856300123F7
:101F100087F8583007F1540319465B48FFF7DAFB9E
:101F2000FB68DB6943F40062FB68DA61FB681B6AEB
:101F300043F48052FB681A62FB68DB6943F4C042D9
:101F4000FB68DA61BB7AD7F8982002FB03F34F4AAB
:101F5000A2FB03235A09FB681A64F3E1FB684C4AAD
:101F6000934240F0F9804B4BDB694A4A43F002034D
:101F7000D361484B9B69474A43F004039361454B47
:101F80009B69444A43F008039361424B9B69414A71
:101F900043F001039361FB681B6823F00102FB68B7
:101FA0001A60FB7A032B00F2CD8101A252F823F0D4
:101FB000C11F00082520000899200008F92000080A
:101FC00007F14C0300221A609A804023A7F84C3096
:101FD0000623A7F84E30012387F8503007F14C0351
:101FE00019462948FFF776FBFB689B6943F0080216
:101FF000FB689A61FB681B6A43F00102FB681A6286
:10200000FB689B6943F06002FB689A61BB7AD7F872
:10201000982002FB03F31D4AA2FB03235A09FB6825
:102020005A638FE107F1440300221A609A808023EB
:10203000A7F844300623A7F84630012387F8483034
:1020400007F1440319461048FFF744FBFB689B69FE
:1020500043F40062FB689A61FB681B6A43F010025C
:10206000FB681A62FB689B6943F4C042FB689A6193
:10207000BB7AD7F8982002FB03F3044AA2FB0323A0
:102080005A09FB689A635DE1000801401F85EB5126
:10209000000400400010024007F13C0300221A60D7
:1020A0009A800123BB870623FB87012387F84030F2
:1020B00007F13C0319468748FFF70CFBFB68DB6917
:1020C00043F00802FB68DA61FB681B6A43F4807224
:1020D000FB681A62FB68DB6943F06002FB68DA6147
:1020E000BB7AD7F8982002FB03F37B4AA2FB0323B9
:1020F0005A09FB68DA6325E107F1340300221A600C
:102100009A800223BB860623FB86012387F838309A
:1021100007F1340319466F48FFF7DCFAFB68DB6907
:1021200043F40062FB68DA61FB681B6A43F4805287
:10213000FB681A62FB68DB6943F4C042FB68DA6142
:10214000BB7AD7F8982002FB03F3634AA2FB032370
:102150005A09FB681A64F5E0FB68604A934240F054
:10216000F1805F4BDB695E4A43F00403D3615C4B53
:102170009B695B4A43F008039361594B9B69584A3A
:1021800043F001039361FB681B6823F00102FB68C5
:102190001A60FB7A032B00F2D58001A252F823F0DB
:1021A000B12100081122000871220008E522000870
:1021B00007F12C0300221A609A804023BB85062376
:1021C000FB85012387F8303007F12C03194641487D
:1021D000FFF780FAFB689B6943F00802FB689A618D
:1021E000FB681B6A43F00102FB681A62FB689B698B
:1021F00043F06002FB689A61BB7AD7F8982002FB33
:1022000003F3354AA2FB03235A09FB685A6399E09A
:1022100007F1240300221A609A808023BB840623DE
:10222000FB84012387F8283007F124031946294845
:10223000FFF750FAFB689B6943F40062FB689A6100
:10224000FB681B6A43F01002FB681A62FB689B691B
:1022500043F4C042FB689A61BB7AD7F8982002FB2E
:1022600003F31D4AA2FB03235A09FB689A6369E042
:1022700007F11C0300221A609A804FF48073BB831D
:102280000623FB83012387F8203007F11C0319463E
:102290001048FFF71FFAFB68DB6943F00802FB6890
:1022A000DA61FB681B6A43F48072FB681A62FB68A0
:1022B000DB6943F06002FB68DA61BB7AD7F89820EB
:1022C00002FB03F3044AA2FB03235A09FB68DA6307
:1022D00038E000BF000C01401F85EB5100080040B2
:1022E0000010024007F1140300221A609A804FF494
:1022F0000073BB820623FB8201233B7607F11403A4
:1023000019462048FFF7E6F9FB68DB6943F40062F1
:10231000FB68DA61FB681B6A43F48052FB681A624F
:10232000FB68DB6943F4C042FB68DA61BB7AD7F82B
:10233000982002FB03F3144AA2FB03235A09FB680B
:102340001A6400BFFB681B6843F08002FB681A60D8
:10235000FB68D7F89820DA62D7F894305A1EFB68E9
:102360009A62FB685B6943F00102FB685A61FB6893
:102370001B6843F00102FB681A6000BFA037BD462E
:1023800080BD00BF000C01401F85EB5180B400AF41
:102390004FF080435B6A1846BD4680BC7047000022
:1023A00080B400AF164B1B78012B25D14FF0804332
:1023B0001B694FF0804223F0010313614FF080430B
:1023C0001B694FF0804223F0020313610D4B1B8801
:1023D000002B06D00B4B1B88013B9AB2094B1A808D
:1023E0000AE0074B00221A704FF080431B684FF041
:1023F000804223F00103136000BFBD4680BC7047DC
:10240000D4000020D600002080B500AF024B1B692D
:10241000984700BF80BD00BFD800002080B500AF46
:10242000024B5B6A984700BF80BD00BFD800002008
:1024300080B500AF024B9B6B984700BF80BD00BFCB
:10244000D800002080B590B002AF7C4B9B697B4ADE
:1024500043F008039361794B9B69784A43F0040386
:102460009361764BDB69754A43F00103D361734B8B
:10247000DB69724A43F00203D361002387F83730E7
:102480000820FFF7CFFA00233B6307F1280300225F
:102490001A609A8080233B85042387F82C3002231E
:1024A00087F82D3007F1280319466548FFF712F920
:1024B00007F1200300221A609A804FF400733B84D6
:1024C000042387F82430022387F8253007F12003FE
:1024D00019465B48FFF7FEF807F1180300221A605F
:1024E0009A804FF480633B8304233B7702237B77FE
:1024F00007F1180319465248FFF7ECF807F11003EB
:1025000000221A609A8040233B8204233B750223F9
:102510007B7507F1100319464948FFF7DBF807F10F
:10252000080300221A609A804FF400633B81042361
:102530003B7302237B7307F1080319464048FFF7FA
:10254000C9F83B4600221A609A804FF480533B80C2
:1025500004233B7102237B713B4619463848FFF741
:10256000B9F83848FEF746FE3748FEF79BFA374879
:10257000FEF7ECF93548FEF721FA0A20FFF795FA45
:102580003248FEF755FA07F130031846FEF784FE8D
:1025900000210120FEF75EFD2D48FEF737FD0921E1
:1025A0000120FEF757FD2B48FEF730FD0C210120DE
:1025B000FEF750FD3B6B1846FEF79AFD3B6B142B64
:1025C00038D8082300934FF47A73642201212248FB
:1025D000FFF782FA082300934FF47A7364220021F4
:1025E0001D48FFF779FA01224FF400711448FFF7F4
:1025F00007F900224FF480611148FFF701F9012229
:102600004FF400610E48FFF7FBF800224FF48051B1
:102610000B48FFF7F5F897F837300A3387F837306B
:1026200097F83730642B02D9002387F837306420BD
:10263000FFF73BFA0A20FFF738FA9BE70010024049
:10264000000801401C0000200000002024000020A1
:10265000102700081C270008000400400D4885468C
:10266000AFF300800C480D490D4A002302E0D45816
:10267000C4500433C4188C42F9D30A4A0A4C0023CC
:1026800001E013600432A242FBD300F011F8FFF71F
:10269000D9FEFEE700500020000000202C000020A2
:1026A000302700082C00002014010020FEE7000065
:1026B00070B500260C4D0D4C641BA410A64209D128
:1026C00000F01AF800260A4D0A4C641BA410A6421A
:1026D00005D170BD55F8043B98470136EEE755F833
:1026E000043B98470136F2E728270008282700080E
:1026F000282700082C270008F8B500BFF8BC08BC44
:102700009E467047F8B500BFF8BC08BC9E467047AF
:1027100052656164696E67200000000069733A20A9
:08272000202020200000000031
:04272800550100084F
:04272C00310100086F
:10273000040000000010000000200100020000045E
:102740000008000000000000000000000008014038
:0C2750000408000000000001000000016F
:040000050800265D6C
:00000001FF
