:020000040800F2
:1000000000500020D93F000829400008294000087E
:10001000294000082940000829400008000000008D
:10002000000000000000000000000000294000085F
:10003000294000080000000029400008294000086D
:1000400029400008294000082940000829400008EC
:100050002940000829400008151A0008391A00082C
:100060005D1A0008811A0008A51A00082940000836
:1000700029400008294000082940000829400008BC
:1000800029400008294000082940000829400008AC
:10009000294000082940000829400008C91A000822
:1000A000294000082940000829400008294000088C
:1000B000BD330008313400089D340008011F0008DA
:1000C000F11F0008FD1F0008092000082940000852
:1000D000294000086D38000881380008953800086C
:1000E000711B00082940000800000000294000089A
:1000F000294000082940000829400008294000083C
:10010000294000082940000829400008294000082B
:10011000294000082940000829400008294000081B
:10012000294000082940000829400008294000080B
:1001300010B5054C237833B9044B13B10448AFF321
:1001400000800123237010BD480000200000000043
:100150007440000808B5034B1BB103490348AFF3D3
:10016000008008BD000000004C0000207440000822
:1001700081F0004102E000BF83F0004330B54FEA58
:1001800041044FEA430594EA050F08BF90EA020FC5
:100190001FBF54EA000C55EA020C7FEA645C7FEA58
:1001A000655C00F0E2804FEA5454D4EB5555B8BF7B
:1001B0006D420CDD2C4480EA020281EA030382EAEC
:1001C000000083EA010180EA020281EA0303362D7E
:1001D00088BF30BD11F0004F4FEA01314FF4801C51
:1001E0004CEA113102D0404261EB410113F0004F63
:1001F0004FEA03334CEA133302D0524263EB43031A
:1002000094EA050F00F0A780A4F10104D5F1200EB7
:100210000DDB02FA0EFC22FA05F2801841F1000112
:1002200003FA0EF2801843FA05F359410EE0A5F1E6
:1002300020050EF1200E012A03FA0EFC28BF4CF017
:10024000020C43FA05F3C01851EBE37101F00045CD
:1002500007D54FF0000EDCF1000C7EEB00006EEBDA
:100260000101B1F5801F1BD3B1F5001F0CD3490864
:100270005FEA30004FEA3C0C04F101044FEA4452BB
:1002800012F5800F80F09A80BCF1004F08BF5FEA42
:10029000500C50F1000041EB045141EA050130BD22
:1002A0005FEA4C0C404141EB0101013C28BFB1F534
:1002B000801FE9D291F0000F04BF01460020B1FA7F
:1002C00081F308BF2033A3F10B03B3F120020CDA52
:1002D0000C3208DD02F1140CC2F10C0201FA0CF030
:1002E00021FA02F10CE002F11402D8BFC2F1200C95
:1002F00001FA02F120FA0CFCDCBF41EA0C0190404B
:10030000E41AA2BF01EB0451294330BD6FEA040493
:100310001F3C1CDA0C340EDC04F11404C4F120027E
:1003200020FA04F001FA02F340EA030021FA04F390
:1003300045EA030130BDC4F10C04C4F1200220FAE7
:1003400002F001FA04F340EA0300294630BD21FA25
:1003500004F0294630BD94F0000F83F4801306BFEB
:1003600081F480110134013D4EE77FEA645C18BFDF
:100370007FEA655C29D094EA050F08BF90EA020F76
:1003800005D054EA000C04BF1946104630BD91EA6E
:10039000030F1EBF0021002030BD5FEA545C05D171
:1003A0004000494128BF41F0004130BD14F58004B0
:1003B0003CBF01F5801130BD01F0004545F0FE4124
:1003C00041F470014FF0000030BD7FEA645C1ABF59
:1003D000194610467FEA655C1CBF0B46024650EA90
:1003E000013406BF52EA033591EA030F41F40021BC
:1003F00030BD00BF90F0000F04BF0021704730B542
:100400004FF4806404F132044FF000054FF0000116
:1004100050E700BF90F0000F04BF0021704730B5D7
:100420004FF4806404F1320410F0004548BF4042AC
:100430004FF000013EE700BF42004FEAE2014FEA01
:1004400031014FEA02701FBF12F07F4393F07F4FDC
:1004500081F06051704732F07F4208BF704793F0DF
:100460007F4F04BF41F40021704730B54FF46074F2
:1004700001F0004521F000411CE700BF50EA0102F5
:1004800008BF704730B54FF000050AE050EA01029E
:1004900008BF704730B511F0004502D5404261EB0E
:1004A00041014FF4806404F132045FEA915C3FF44F
:1004B000D8AE4FF003025FEADC0C18BF03325FEAEC
:1004C000DC0C18BF033202EBDC02C2F1200300FA9D
:1004D00003FC20FA02F001FA03FE40EA0E0021FAC2
:1004E00002F11444BDE600BF70B54FF0FF0C4CF4B0
:1004F000E06C1CEA11541DBF1CEA135594EA0C0F62
:1005000095EA0C0F00F0DEF82C4481EA030621EA9C
:100510004C5123EA4C5350EA013518BF52EA0335D7
:1005200041F4801143F4801338D0A0FB02CE4FF089
:100530000005E1FB02E506F00042E0FB03E54FF0B9
:100540000006E1FB03569CF0000F18BF4EF0010EB1
:10055000A4F1FF04B6F5007F64F5407404D25FEAAD
:100560004E0E6D4146EB060642EAC62141EA555160
:100570004FEAC52040EA5E504FEACE2EB4F1FD0CA2
:1005800088BFBCF5E06F1ED8BEF1004F08BF5FEA20
:10059000500E50F1000041EB045170BD06F00046D2
:1005A00046EA010140EA020081EA0301B4EB5C047F
:1005B000C2BFD4EB0C0541EA045170BD41F4801177
:1005C0004FF0000E013C00F3AB8014F1360FDEBF9C
:1005D000002001F0004170BDC4F10004203C35DA78
:1005E0000C341BDC04F11404C4F1200500FA05F3FB
:1005F00020FA04F001FA05F240EA020001F000429C
:1006000021F0004110EBD37021FA04F642EB060111
:100610005EEA430E08BF20EAD37070BDC4F10C043B
:10062000C4F1200500FA04F320FA05F001FA04F2FF
:1006300040EA020001F0004110EBD37041F10001EB
:100640005EEA430E08BF20EAD37070BDC4F12005F6
:1006500000FA05F24EEA020E20FA04F301FA05F25E
:1006600043EA020321FA04F001F0004121FA04F206
:1006700020EA020000EBD3705EEA430E08BF20EAD6
:10068000D37070BD94F0000F0FD101F00046400010
:1006900041EB010111F4801F08BF013CF7D041EA92
:1006A000060195F0000F18BF704703F00046520096
:1006B00043EB030313F4801F08BF013DF7D043EA67
:1006C0000603704794EA0C0F0CEA135518BF95EA1D
:1006D0000C0F0CD050EA410618BF52EA4306D1D1A4
:1006E00081EA030101F000414FF0000070BD50EAC3
:1006F000410606BF1046194652EA430619D094EA4D
:100700000C0F02D150EA013613D195EA0C0F05D136
:1007100052EA03361CBF104619460AD181EA03018A
:1007200001F0004141F0FE4141F470014FF0000042
:1007300070BD41F0FE4141F4780170BD70B54FF0DD
:10074000FF0C4CF4E06C1CEA11541DBF1CEA13555D
:1007500094EA0C0F95EA0C0F00F0A7F8A4EB05043F
:1007600081EA030E52EA03354FEA013100F0888036
:100770004FEA03334FF0805545EA131343EA1263FF
:100780004FEA022245EA111545EA10654FEA0026B4
:100790000EF000419D4208BF964244F1FD0404F56D
:1007A000407402D25B084FEA3202B61A65EB0305C9
:1007B0005B084FEA32024FF480104FF4002CB6EB86
:1007C000020E75EB030E22BFB61A754640EA0C0006
:1007D0005B084FEA3202B6EB020E75EB030E22BF46
:1007E000B61A754640EA5C005B084FEA3202B6EB87
:1007F000020E75EB030E22BFB61A754640EA9C0046
:100800005B084FEA3202B6EB020E75EB030E22BF15
:10081000B61A754640EADC0055EA060E18D04FEAD3
:10082000051545EA16754FEA06164FEAC30343EA73
:1008300052734FEAC2025FEA1C1CC0D111F4801F40
:100840000BD141EA00014FF000004FF0004CB6E739
:1008500011F4801F04BF01430020B4F1FD0C88BFD8
:10086000BCF5E06F3FF6AFAEB5EB030C04BFB6EBE3
:10087000020C5FEA500C50F1000041EB045170BDD6
:100880000EF0004E4EEA113114EB5C04C2BFD4EB03
:100890000C0541EA045170BD41F480114FF0000E87
:1008A000013C90E645EA060E8DE60CEA135594EA03
:1008B0000C0F08BF95EA0C0F3FF43BAF94EA0C0F06
:1008C0000AD150EA01347FF434AF95EA0C0F7FF47B
:1008D00025AF104619462CE795EA0C0F06D152EACF
:1008E00003353FF4FDAE1046194622E750EA4106B3
:1008F00018BF52EA43067FF4C5AE50EA41047FF4C4
:100900000DAF52EA43057FF4EBAE12E74A0011D275
:1009100012F5001211D20DD56FF47873B3EB625259
:100920000ED44FEAC12343F0004343EA505323FA65
:1009300002F070474FF00000704750EA013002D1DA
:100940004FF0FF3070474FF00000704780F00040DC
:1009500002E000BF81F0004142001FBF5FEA410397
:1009600092EA030F7FEA226C7FEA236C6AD04FEA97
:100970001262D2EB1363C1BFD218414048404140DC
:10098000B8BF5B42192B88BF704710F0004F40F48E
:10099000000020F07F4018BF404211F0004F41F4AA
:1009A000000121F07F4118BF494292EA030F3FD076
:1009B000A2F1010241FA03FC10EB0C00C3F1200389
:1009C00001FA03F100F0004302D5494260EB400018
:1009D000B0F5000F13D3B0F1807F06D340084FEA83
:1009E000310102F10102FE2A51D2B1F1004F40EB78
:1009F000C25008BF20F0010040EA030070474900E0
:100A000040EB0000013A28BFB0F5000FEDD2B0FA7C
:100A100080FCACF1080CB2EB0C0200FA0CF0AABF9F
:100A200000EBC25052421843BCBFD040184370473D
:100A300092F0000F81F4000106BF80F40000013243
:100A4000013BB5E74FEA41037FEA226C18BF7FEA1A
:100A5000236C21D092EA030F04D092F0000F08BF5C
:100A60000846704790EA010F1CBF0020704712F043
:100A70007F4F04D1400028BF40F00040704712F182
:100A800000723CBF00F50000704700F0004343F0E7
:100A9000FE4040F4000070477FEA226216BF08461D
:100AA0007FEA23630146420206BF5FEA412390EAE0
:100AB000010F40F4800070474FF0000304E000BFD6
:100AC00010F0004348BF40425FEA000C08BF704787
:100AD00043F0964301464FF000001CE050EA01024B
:100AE00008BF70474FF000030AE000BF50EA010260
:100AF00008BF704711F0004302D5404261EB41014D
:100B00005FEA010C02BF84460146002043F0B64371
:100B100008BFA3F18053A3F50003BCFA8CF2083A96
:100B2000A3EBC25310DB01FA02FC634400FA02FC9F
:100B3000C2F12002BCF1004F20FA02F243EB0200A6
:100B400008BF20F00100704702F1200201FA02FC08
:100B5000C2F1200250EA4C0021FA02F243EB0200FB
:100B600008BF20EADC7070474FF0FF0C1CEAD0523F
:100B70001EBF1CEAD15392EA0C0F93EA0C0F6FD000
:100B80001A4480EA010C400218BF5FEA41211ED0DE
:100B90004FF0006343EA501043EA5111A0FB0131CA
:100BA0000CF00040B1F5000F3EBF490041EAD3719F
:100BB0005B0040EA010062F17F02FD2A1DD8B3F11B
:100BC000004F40EBC25008BF20F00100704790F08A
:100BD000000F0CF0004C08BF49024CEA502040EADC
:100BE00051207F3AC2BFD2F1FF0340EAC2507047A2
:100BF00040F400004FF00003013A5DDC12F1190FE0
:100C0000DCBF00F000407047C2F10002410021FA51
:100C100002F1C2F1200200FA02FC5FEA310040F169
:100C2000000053EA4C0308BF20EADC70704792F0E2
:100C3000000F00F0004C02BF400010F4000F013A1A
:100C4000F9D040EA0C0093F0000F01F0004C02BF15
:100C5000490011F4000F013BF9D041EA0C018FE784
:100C60000CEAD15392EA0C0F18BF93EA0C0F0AD08A
:100C700030F0004C18BF31F0004CD8D180EA0100B0
:100C800000F00040704790F0000F17BF90F0004F49
:100C9000084691F0000F91F0004F14D092EA0C0F2B
:100CA00001D142020FD193EA0C0F03D14B0218BFBE
:100CB000084608D180EA010000F0004040F0FE4004
:100CC00040F40000704740F0FE4040F440007047A0
:100CD0004FF0FF0C1CEAD0521EBF1CEAD15392EA1F
:100CE0000C0F93EA0C0F69D0A2EB030280EA010C0F
:100CF00049024FEA402037D04FF0805343EA1111A8
:100D000043EA10130CF000408B4238BF5B0042F105
:100D10007D024FF4000C8B4224BF5B1A40EA0C00AA
:100D2000B3EB510F24BFA3EB510340EA5C00B3EBDC
:100D3000910F24BFA3EB910340EA9C00B3EBD10FCA
:100D400024BFA3EBD10340EADC001B0118BF5FEA1C
:100D50001C1CE0D1FD2A3FF650AF8B4240EBC25045
:100D600008BF20F0010070470CF0004C4CEA502006
:100D70007F32C2BFD2F1FF0340EAC250704740F455
:100D800000004FF00003013A37E792F0000F00F047
:100D9000004C02BF400010F4000F013AF9D040EAC5
:100DA0000C0093F0000F01F0004C02BF490011F459
:100DB000000F013BF9D041EA0C0195E70CEAD15351
:100DC00092EA0C0F08D142027FF47DAF93EA0C0F38
:100DD0007FF470AF084676E793EA0C0F04D14B021C
:100DE0003FF44CAF08466EE730F0004C18BF31F0CE
:100DF000004CCAD130F000427FF45CAF31F00043C8
:100E00007FF43CAF5FE700BF4FF0FF3C06E000BF60
:100E10004FF0010C02E000BF4FF0010C4DF804CD83
:100E20004FEA40024FEA41037FEA226C18BF7FEA93
:100E3000236C11D001B052EA530C18BF90EA010F95
:100E400058BFB2EB030088BFC81738BF6FEAE17024
:100E500018BF40F0010070477FEA226C02D15FEAC0
:100E6000402C05D17FEA236CE4D15FEA412CE1D02C
:100E70005DF8040B704700BF844608466146FFE7F3
:100E80000FB5FFF7C9FF002848BF10F1000F0FBDD5
:100E90004DF808EDFFF7F4FF0CBF012000205DF8CE
:100EA00008FB00BF4DF808EDFFF7EAFF34BF012053
:100EB00000205DF808FB00BF4DF808EDFFF7E0FFEC
:100EC00094BF012000205DF808FB00BF4DF808ED3D
:100ED000FFF7D2FF94BF012000205DF808FB00BFA0
:100EE0004DF808EDFFF7C8FF34BF012000205DF882
:100EF00008FB00BF4FEA4002B2F1FE4F0FD34FF0A4
:100F00009E03B3EB12620DD94FEA002343F0004376
:100F100010F0004F23FA02F018BF404270474FF024
:100F20000000704712F1610F01D1420205D110F0AB
:100F3000004008BF6FF0004070474FF0000070475E
:100F400080B584B000AF78607B681B88BB810423C8
:100F5000BB730223FB737B685B6807F10C021146CD
:100F6000184600F01FFF7B685B883B810423BB723F
:100F70000223FB727B689B6807F108021146184642
:100F800000F010FF00BF1037BD4680BD80B582B0B5
:100F900000AF78607B6858687B681B880022194620
:100FA00000F096FF7B6898687B685B880022194692
:100FB00000F08EFF00220221064800F089FF002287
:100FC0004021054800F084FF01F08EFD00BF083786
:100FD000BD4680BD000C01400008014080B584B0D2
:100FE00002AF78600B46FB707B68D8687B68197C21
:100FF000FA78242300934FF47A7301F0B7F97B68F1
:1010000058687B681B880122194600F061FF7B68E5
:1010100098687B685B880022194600F059FF00BF82
:101020000837BD4680BD80B584B002AF78600B46FE
:10103000FB707B68D8687B68197CFA78242300935E
:101040004FF47A7301F092F97B6858687B681B88CB
:101050000022194600F03CFF7B6898687B685B883B
:101060000122194600F034FF00BF0837BD4680BD9D
:1010700080B58EB000AF7860012387F83730794AA9
:101080007B6813607B689B883B86042387F832303B
:10109000022387F8333007F130031946724800F015
:1010A00081FE7B689B88BB85042387F82E30022352
:1010B00087F82F3007F12C0319466B4800F072FEB9
:1010C0007B681B893B85042387F82A30022387F835
:1010D0002B3007F128031946634800F063FE7B6854
:1010E0005B89BB84042387F82630022387F82730E6
:1010F00007F1240319465D4800F054FE7B689B8984
:101100003B84042387F82230022387F8233007F139
:1011100020031946554800F045FE7B68DB89BB83F8
:101120000423BB770223FB7707F11C0319464F48C2
:1011300000F038FE7B681B8A3B830423BB760223C6
:10114000FB7607F118031946474800F02BFE7B6831
:10115000DB8800221946444800F0BAFE082001F05E
:10116000ADF8232001F0EAF87B681B78042B0AD144
:101170007B689B88002219463C4800F0A9FE282085
:1011800000F076F841E07B681B78082B3DD17B6846
:101190009B8800221946354800F09AFE382000F05E
:1011A00067F87B685B8ABB820423BB750223FB75EF
:1011B00007F1140319462D4800F0F4FD7B689B8A63
:1011C0003B820423BB740223FB7407F1100319460E
:1011D000264800F0E7FD7B68DB8ABB810423BB73F4
:1011E0000223FB7307F10C031946204800F0DAFDD7
:1011F0007B681B8B3B810423BB720223FB7207F1CC
:1012000008031946194800F0CDFD012001F096F8B9
:101210007B689B8800221946144800F059FE0C2078
:1012200000F026F8012001F089F87B689B880022F5
:1012300019460E4800F04CFE012000F019F803207A
:1012400001F07CF87B689B8800221946074800F073
:101250003FFE062000F00CF897F837301846383774
:10126000BD4680BD6400002000080140000C014024
:1012700080B584B000AF0346FB710123FB737E4B46
:101280001B68DB88002219467C4800F021FE7A4B5F
:101290001B681B8900221946784800F019FEFB796B
:1012A000282B52D1744B1B689B881946734800F059
:1012B000F8FD0346BB73BB7B002B46D16E4B1B680E
:1012C0005989FB79DB09DBB21A466C4800F000FE55
:1012D000694B1B689989FB799B09DBB203F0010319
:1012E000DBB21A46654800F0F3FD634B1B68D989F1
:1012F000FB795B09DBB203F00103DBB21A465F48FE
:1013000000F0E6FD5C4B1B68198AFB791B09DBB218
:1013100003F00103DBB21A46584800F0D9FD564BE2
:101320001B681B8901221946544800F0D1FD012099
:1013300001F004F8504B1B681B89002219464F48E6
:1013400000F0C6FD012000F0F9FF4B4B1B681B7835
:10135000042B40F09580484B1B685989FB79DB09C9
:10136000DBB21A46454800F0B3FD434B1B68998930
:10137000FB799B09DBB203F00103DBB21A463F485D
:1013800000F0A6FD3C4B1B68D989FB795B09DBB2F9
:1013900003F00103DBB21A46384800F099FD364BE2
:1013A0001B68198AFB791B09DBB203F00103DBB26E
:1013B0001A46324800F08CFD2F4B1B681B89012216
:1013C00019462E4800F084FD012000F0B7FF2A4B9B
:1013D0001B681B8900221946284800F079FD01206E
:1013E00000F0ACFF244B1B685989FB79DB08DBB2AA
:1013F00003F00103DBB21A46204800F069FD1E4BE2
:101400001B689989FB799B08DBB203F00103DBB20F
:101410001A461A4800F05CFD174B1B68D989FB7906
:101420005B08DBB203F00103DBB21A46134800F09D
:101430004FFD114B1B68198AFB7903F00103DBB2E6
:101440001A460E4800F044FD0B4B1B681B89012215
:1014500019460A4800F03CFD012000F06FFF064BE2
:101460001B681B8900221946044800F031FD012049
:1014700000F064FF82E000BF64000020000C014027
:10148000414B1B681B78082B78D13F4B1B6859894F
:10149000FB79DB09DBB21A463C4800F019FD3A4BF8
:1014A0001B689989FB799B09DBB203F00103DBB26E
:1014B0001A46364800F00CFD334B1B68D989FB797E
:1014C0005B09DBB203F00103DBB21A462F4800F0E0
:1014D000FFFC2D4B1B68198AFB791B09DBB203F05B
:1014E0000103DBB21A46294800F0F2FC264B1B68C8
:1014F000598AFB79DB08DBB203F00103DBB21A4641
:10150000224800F0E5FC204B1B68998AFB799B0878
:10151000DBB203F00103DBB21A461C4800F0D8FC32
:10152000194B1B68D98AFB795B08DBB203F0010316
:10153000DBB21A46154800F0CBFC134B1B68198B25
:10154000FB7903F00103DBB21A46104800F0C0FC3F
:101550000D4B1B681B89012219460C4800F0B8FC92
:10156000012000F0EBFE084B1B681B890022194686
:10157000064800F0ADFC012000F0E0FEFB7B1846C1
:101580001037BD4680BD00BF64000020000C014044
:1015900080B584B000AF78600123FB730EE00C4B84
:1015A0001B689B88012219460A4800F091FC7B6861
:1015B0005A1C7A601B781846FFF75AFE7B681B7826
:1015C000002BECD1FB7B18461037BD4680BD00BF19
:1015D00064000020000C014080B584B000AF0346D9
:1015E0000A46FB711346BB710123FB731F4B1B683B
:1015F0009B88002219461E4800F06AFCFB79012BEB
:1016000008D1BB79803BDBB21846FFF731FE0023DF
:10161000FB7325E0FB79022B08D1BB79403BDBB2A1
:101620001846FFF725FE0023FB7319E0FB79032B17
:1016300008D1BB796C3BDBB21846FFF719FE0023DB
:10164000FB730DE0FB79042B08D1BB792C3BDBB29B
:101650001846FFF70DFE0023FB7301E00123FB7327
:10166000FB7B18461037BD4680BD00BF64000020DC
:10167000000C014080B586B000AF78600123BB74D8
:1016800000237B610023FB747B68002B0DDA364B53
:101690001B689B8801221946344800F019FC2D2054
:1016A000FFF7E6FD7B685B427B607B68002B2CD1FB
:1016B0002D4B1B689B88012219462C4800F008FC22
:1016C0003020FFF7D5FD20E07968294B83FB01230B
:1016D0009A10CB17D21A13469B0013445B00CA1A08
:1016E000FA607A6913469B0013445B001A46FB6854
:1016F00013447B61FB7C0133FB747B681C4A82FBD7
:1017000003129210DB17D31A7B607B68002BDBDCA3
:1017100022E07969174BA3FB0123DA0813469B00EB
:1017200013445B00CA1A13467B740F4B1B689B88DB
:10173000012219460D4800F0CBFB7B7C3033DBB235
:101740001846FFF795FDFB7C013BFB747B69094A5A
:10175000A2FB0323DB087B61FB7C002BD9D1BB7C84
:1017600018461837BD4680BD64000020000C0140BB
:1017700067666666CDCCCCCC80B584B000AF7860AF
:101780007B681B88BB817B689B78BB737B68DB783D
:10179000FB737B681A88084B1A8007F10C03194603
:1017A000064800F0FFFA00220221044800F090FBF6
:1017B00000BF1037BD4680BD68000020000C01400E
:1017C00080B584B002AF7860084611461A460346D9
:1017D000FB700B463B801346BB703B7D002B02D059
:1017E000012B08D00FE00F4B1B88002219460E4832
:1017F00000F06EFB07E00B4B1B88012219460A48DC
:1018000000F066FB00BFB8783A88F978242301938A
:101810003B6900930346786801F074F900BF08370C
:10182000BD4680BD68000020000C014080B586B038
:1018300000AF7860242000F041FD0023FB750023F9
:10184000FB753CE0FA7D13465B0013449B001A468F
:101850007B6813441B893B820423BB740223FB7403
:10186000FA7D13465B0013449B001A467B681344C1
:101870001B6807F110021146184600F093FA002386
:10188000FB60FA7D13465B0013449B001A467B689D
:1018900013445B89BB810123BB73FA7D13465B0054
:1018A00013449B001A467B6813445B6807F10C02E3
:1018B0001146184600F076FAFB7D0133FB75064BA6
:1018C0001B78FA7D9A42BDD3044A7B6813600023DB
:1018D00018461837BD4680BD1A0000206C00002055
:1018E00080B582B000AF0346FB71114B1968FA79DD
:1018F00013465B0013449B000B441B8901221946CD
:101900000C4800F0E5FA0A2000F018FD084B1968B1
:10191000FA7913465B0013449B000B441B89002299
:101920001946044800F0D4FA00BF0837BD4680BD10
:101930006C0000200008014080B586B000AF03466F
:101940003960FB71FB791846FFF7CAFF304B196805
:10195000FA7913465B0013449B000B4458682C4BE8
:101960001968FA7913465B0013449B000B445B89AA
:10197000194600F096FA0346FB75FB7D002BE5D077
:1019800001F0A8F83861224B1968FA7913465B0018
:1019900013449B000B4458681D4B1968FA79134691
:1019A0005B0013449B000B445B89194600F079FAF5
:1019B0000346FB75FB7D012BE5D001F08BF8F86049
:1019C000FA683B69D31ABB60B868FEF713FD0EA333
:1019D000D3E90023FEF788FD02460B461046194660
:1019E0004FF000024FF08043FEF7A8FE02460B4680
:1019F00010461946FEF78AFF02463B681A6000232C
:101A000018461837BD4680BD006F8104C58FA13FC1
:101A10006C00002080B500AF054B5B69044A43F0C1
:101A200001035361034B1B68984700BF80BD00BF93
:101A3000000401407000002080B500AF054B5B69D9
:101A4000044A43F002035361034B5B68984700BFAD
:101A500080BD00BF000401407000002080B500AFD1
:101A6000054B5B69044A43F004035361034B9B68D5
:101A7000984700BF80BD00BF0004014070000020F7
:101A800080B500AF054B5B69044A43F0080353611E
:101A9000034BDB68984700BF80BD00BF00040140D6
:101AA0007000002080B500AF054B5B69044A43F02D
:101AB00010035361034B1B69984700BF80BD00BFF3
:101AC000000401407000002080B500AF264B5B6928
:101AD00003F02003002B08D0234B5B69224A43F01C
:101AE00020035361214B5B6998471F4B5B6903F0EF
:101AF0004003002B08D01C4B5B691B4A43F040039A
:101B000053611A4B9B699847174B5B6903F080033D
:101B1000002B08D0144B5B69134A43F080035361D8
:101B2000124BDB699847104B5B6903F48073002B01
:101B300008D00D4B5B690C4A43F4807353610B4B27
:101B40001B6A9847084B5B6903F40073002B08D0AD
:101B5000054B5B69044A43F400735361034B5B6AB2
:101B6000984700BF80BD00BF000401407000002006
:101B700080B500AF2D4B5B6903F48063002B08D068
:101B80002A4B5B69294A43F480635361284B9B6A63
:101B90009847264B5B6903F40063002B08D0234B66
:101BA0005B69224A43F400635361214BDB6A984727
:101BB0001E4B5B6903F48053002B08D01B4B5B6901
:101BC0001A4A43F480535361194B1B6B9847174BC8
:101BD0005B6903F40053002B08D0144B5B69134A74
:101BE00043F400535361124B5B6B98470F4B5B6997
:101BF00003F48043002B08D00C4B5B690B4A43F481
:101C0000804353610A4B9B6B9847084B5B6903F415
:101C10000043002B08D0054B5B69044A43F40043A2
:101C20005361034BDB6B984700BF80BD000401404C
:101C30007000002080B483B000AF0346FB80FB88B7
:101C4000B3F5004F00F0A580B3F5004F00F3A3807B
:101C5000B3F5804F00F09B80B3F5804F00F39B807D
:101C6000B3F5005F00F09180B3F5005F00F393805F
:101C7000B3F5805F00F08780B3F5805F00F38B8061
:101C8000B3F5006F7DD0B3F5006F00F38480B3F53A
:101C9000806F74D0B3F5806F7DDCB3F5007F6CD0BE
:101CA000B3F5007F77DCB3F5807F64D0B3F5807F38
:101CB00071DC802B5DD0802B6DDC202B48DC002B71
:101CC00069DD013B1F2B66D801A252F823F000BF4B
:101CD000571D00085B1D0008971D00085F1D0008C8
:101CE000971D0008971D0008971D0008631D000838
:101CF000971D0008971D0008971D0008971D0008F4
:101D0000971D0008971D0008971D0008671D000813
:101D1000971D0008971D0008971D0008971D0008D3
:101D2000971D0008971D0008971D0008971D0008C3
:101D3000971D0008971D0008971D0008971D0008B3
:101D4000971D0008971D0008971D00086B1D0008CF
:101D5000402B0CD01FE000231EE004231CE00823CE
:101D60001AE00C2318E0102316E0142314E01823C3
:101D700012E01C2310E000230EE004230CE00823F3
:101D80000AE00C2308E0102306E0142304E01823E3
:101D900002E01C2300E0002318460C37BD4680BC3F
:101DA000704700BF90B585B000AF78603960002300
:101DB000BB600023FB733B681B88FF2B01D87B684B
:101DC00001E07B680433BB603B681B881846FFF763
:101DD00031FF03461A460F239340DA43BB681B6862
:101DE0001A40BB681A603B689B78072B0BD03B6896
:101DF0009B78062B07D03B689B78052B03D03B686C
:101E00009B78042B0ED13B689B78043B9B005AB215
:101E10003B68DB785BB213435BB2DBB203F00F03CA
:101E2000FB732CE03B689B78012B03D03B689B78CD
:101E3000002B07D13B689B789B00DBB203F00F03BC
:101E4000FB731CE03B689B78082B02D10423FB73D7
:101E500015E00823FB733B689B78022B07D17B6856
:101E6000DB683A6812881A437B68DA6007E07B68AF
:101E7000DB683A681288D2431A407B68DA60FC7BE0
:101E80003B681B881846FFF7D5FE034604FA03F2A9
:101E9000BB681B681A43BB681A6000BF1437BD4695
:101EA00090BD80B485B000AF78600B467B807B68C6
:101EB0009A687B881340002B02D00123FB7301E05A
:101EC0000023FB73FB7B18461437BD4680BC70476C
:101ED00080B483B000AF78600B467B8013467B7084
:101EE0007B78002B03D07A887B681A6102E07A88BD
:101EF0007B685A6100BF0C37BD4680BC704700004C
:101F000080B586B000AF0023FB71384B7B617B69E5
:101F10005B6803F400733B617B695B6803F4806377
:101F2000FB607B695B6903F01003BB603B69002BBE
:101F30000AD0BB68002B07D07B691A687B691A60DE
:101F40000021786900F066F87B695B6903F00203A1
:101F5000BB603B69002B14D0BB68002B11D07B69A0
:101F60009B6903F00103002B0BD17B695B69DBB23A
:101F7000FB717B699B69DBB2FB710221786900F020
:101F800049F87B695B6903F08003BB603B69002B08
:101F90000FD0FB68002B0CD0BB68002B09D07B69ED
:101FA0009B6903F00103002B03D10321786900F042
:101FB00031F87B695B6903F04003BB603B69002B30
:101FC0000FD0FB68002B0CD0BB68002B09D07B69BD
:101FD0009B6903F00103002B03D10421786900F011
:101FE00019F800BF1837BD4680BD00BF005400403F
:101FF00080B400AF00BFBD4680BC704780B400AF66
:1020000000BFBD4680BC704780B400AF00BFBD4676
:1020100080BC704780B584B000AF78600B46FB7021
:102020007B68324A934214BF01230023DBB2FB7367
:10203000FB78042B56D801A252F823F05720000851
:10204000512000087B20000893200008B7200008DA
:102050007B689B6946E07B689B6903F00403002B67
:102060003BD0FA7B22491346DB0013449B000B4410
:1020700020331B68002098472FE0FA7B1C49134649
:10208000DB0013449B000B4420331B68022098475D
:1020900028E07B689B6903F00403002B1FD0FA7BC8
:1020A00013491346DB0013449B000B4420331B6889
:1020B0000320984713E07B689B6903F00403002B1F
:1020C0000FD1FA7B0A491346DB0013449B000B44F3
:1020D00020331B680420984703E000BF02E000BFE4
:1020E00000E000BF00BF1037BD4680BD0054004077
:1020F000AC00002080B485B000AF03460A46FB71F7
:102100001346BB710023FB73FB79022B49D0022BD2
:1021100000F3CC80002B00F0C880012B40F0C6807B
:10212000654B1B68644A23F480231360624B1B6871
:10213000614A43F4803313605F4B5B685E4A43F44B
:1021400080335360BB79482B06D15B4B5B685A4A9E
:1021500043F4E013536000BF574B1B68564A43F0EB
:1021600080731360544B5B68534A23F0030353603E
:10217000514B5B68504A43F0020353604E4B5B681F
:102180004D4A43F0800353604B4B5B684A4A23F44B
:1021900060535360484B5B68474A23F4E0635360E5
:1021A00084E0454B1B68444A23F001031360424B13
:1021B0005B68414A23F480335360BB79103B142B96
:1021C0005DD801A252F823F01D2200087F220008EA
:1021D0007F2200087F2200082B2200087F220008AF
:1021E0007F2200087F220008392200087F22000891
:1021F000472200087F220008552200087F2200089D
:102200007F2200087F220008632200087F22000846
:102210007F2200087F22000871220008264B5B689D
:10222000254A43F40023536029E0234B5B68224A8C
:1022300043F44023536022E01F4B5B681E4A43F483
:10224000801353601BE01C4B5B681B4A43F4501324
:10225000536014E0184B5B68174A43F4A0135360B3
:102260000DE0154B5B68144A43F4C013536006E05D
:10227000114B5B68104A43F4E013536000BF0E4BF0
:102280001B680D4A43F08073136000BF0A4B1B6844
:1022900003F00073002BF9D0074B5B68064A43F04C
:1022A000020353600123FB7300E000BFFB7B184671
:1022B0001437BD4680BC70470010024080B483B024
:1022C00000AF0346FB71104B9B690F4A43F4006358
:1022D0009361FB795A1E0D4B9A620C4B4CF25032B3
:1022E000DA620A4B1B68094A43F00103136000BF1E
:1022F000064B1B6903F00103002BF9D000BF00BFA0
:102300000C37BD4680BC704700100240002C0140D5
:1023100080B483B000AF7860074B00225A6200BFE0
:10232000054B5A6A7B689A42FAD300BF00BF0C374C
:10233000BD4680BC704700BF002C014080B584B012
:1023400000AF78600023FB6006E04FF47A70FFF77F
:10235000DFFFFB680133FB60FA687B689A42F4DBBD
:1023600000BF00BF1037BD4680BD000080B598B0EB
:1023700000AFF8607B600B46FB721346BB72012313
:1023800087F85F300023BB6501237B6517E097F872
:102390006830914A02FB03F319467B687A6D02FBB1
:1023A00003F3B1FBF3F3BB65BB6DB3F5FA4F03D396
:1023B0007B6D02337B6502E0002387F85F3097F87E
:1023C0005F30012BE3D0FB68844A934240F0D88011
:1023D000834B9B69824A43F400639361804B9B6902
:1023E0007F4A43F0040393617D4B9B697C4A43F031
:1023F00001039361FB681B6823F00102FB681A600C
:10240000FB7A032B00F2368301A252F823F000BFBF
:102410002124000879240008D12400082925000877
:10242000704B1B683B6507F1500319466E48FFF778
:10243000B9FCFB689B6943F00802FB689A61FB6882
:102440001B6A43F00102FB681A62FB689B6943F058
:102450006002FB689A61BB7ABA6D02FB03F3634AC0
:10246000A2FB03235A09FB685A63FB685B6C43F4C5
:102470000042FB685A64FDE25D4B1B68FB6407F198
:102480004C0319465848FFF78DFCFB689B6943F4E1
:102490000062FB689A61FB681B6A43F01002FB68EC
:1024A0001A62FB689B6943F4C042FB689A61BB7A7D
:1024B000BA6D02FB03F34D4AA2FB03235A09FB68E2
:1024C0009A63FB685B6C43F40042FB685A64D1E298
:1024D000484B1B68BB6407F1480319464248FFF7A5
:1024E00061FCFB68DB6943F00802FB68DA61FB68AA
:1024F0001B6A43F48072FB681A62FB68DB6943F075
:102500006002FB68DA61BB7ABA6D02FB03F3374AFB
:10251000A2FB03235A09FB68DA63FB685B6C43F494
:102520000042FB685A64A5E2334B1B687B6407F1E9
:10253000440319462C48FFF735FCFB68DB6943F47C
:102540000062FB68DA61FB681B6A43F48052FB6837
:102550001A62FB68DB6943F4C042FB68DA61BB7A4C
:10256000BA6D02FB03F3214AA2FB03235A09FB685D
:102570001A64FB685B6C43F40042FB685A6479E2BE
:10258000FB68B3F1804F40F0D180154BDB69144AF2
:1025900043F00103D361124B9B69114A43F00403DA
:1025A00093610F4B9B690E4A43F001039361FB68F3
:1025B0001B6823F00102FB681A60FB7A032B00F210
:1025C000598201A252F823F0FD250008492600088F
:1025D00095260008E126000840420F00002C01402B
:1025E000001002408C400008000801401F85EB519C
:1025F0009040000894400008984000089D4B1B68DC
:102600003B6407F1400319469B48FFF7CBFBFB688F
:102610009B6943F00802FB689A61FB681B6A43F000
:102620000102FB681A62FB689B6943F06002FB6869
:102630009A61BB7ABA6D02FB03F3904AA2FB0323B3
:102640005A09FB685A6315E28D4B1B68FB6307F15F
:102650003C0319468848FFF7A5FBFB689B6943F4D8
:102660000062FB689A61FB681B6A43F01002FB681A
:102670001A62FB689B6943F4C042FB689A61BB7AAB
:10268000BA6D02FB03F37D4AA2FB03235A09FB68E0
:102690009A63EFE17B4B1B68BB6307F13803194674
:1026A0007548FFF77FFBFB68DB6943F00802FB68B6
:1026B000DA61FB681B6A43F48072FB681A62FB688C
:1026C000DB6943F06002FB68DA61BB7ABA6D02FB3A
:1026D00003F36A4AA2FB03235A09FB68DA63C9E1E0
:1026E000694B1B687B6307F1340319466248FFF7A7
:1026F00059FBFB68DB6943F40062FB68DA61FB6845
:102700001B6A43F48052FB681A62FB68DB6943F47E
:10271000C042FB68DA61BB7ABA6D02FB03F3574A29
:10272000A2FB03235A09FB681A64A3E1FB68574A1A
:10273000934240F0DB80564BDB69554A43F002037D
:10274000D361534B9B69524A43F004039361504B4E
:102750009B694F4A43F0080393614D4B9B694C4A78
:1027600043F001039361FB681B6823F00102FB68DF
:102770001A60FB7A032B00F27D8101A252F823F04C
:1027800091270008DD27000829280008A128000853
:10279000404B1B683B6307F1300319463648FFF78F
:1027A00001FBFB689B6943F00802FB689A61FB68C8
:1027B0001B6A43F00102FB681A62FB689B6943F0E5
:1027C0006002FB689A61BB7ABA6D02FB03F32B4A85
:1027D000A2FB03235A09FB685A634BE12E4B1B688B
:1027E000FB6207F12C0319462348FFF7DBFAFB686D
:1027F0009B6943F40062FB689A61FB681B6A43F0C3
:102800001002FB681A62FB689B6943F4C042FB68D4
:102810009A61BB7ABA6D02FB03F3184AA2FB032349
:102820005A09FB689A6325E1124B1B68BB6207F1EA
:10283000280319461948FFF7B5FAFB68DB6943F02E
:102840000802FB68DA61FB681B6A43F48072FB686C
:102850001A62FB68DB6943F06002FB68DA61BB7AED
:10286000BA6D02FB03F3054AA2FB03235A09FB6876
:10287000DA63FFE09C400008000801401F85EB512F
:10288000A0400008A4400008A84000080004004040
:1028900000100240AC400008B0400008000C0140AD
:1028A000834B1B687B6207F1240319468148FFF7BD
:1028B00079FAFB68DB6943F40062FB68DA61FB6864
:1028C0001B6A43F48052FB681A62FB68DB6943F4BD
:1028D000C042FB68DA61BB7ABA6D02FB03F3764A49
:1028E000A2FB03235A09FB681A64C3E0FB68734A1E
:1028F000934240F0BF80724BDB69714A43F004039E
:10290000D3616F4B9B696E4A43F0080393616C4B34
:102910009B696B4A43F001039361FB681B6823F0DA
:102920000102FB681A60FB7A032B00F2A38001A26C
:1029300052F823F04529000891290008DD290008F4
:10294000292A00085F4B1B683B6207F120031946E8
:102950005848FFF727FAFB689B6943F00802FB68B9
:102960009A61FB681B6A43F00102FB681A62FB680C
:102970009B6943F06002FB689A61BB7ABA6D02FB07
:1029800003F34D4AA2FB03235A09FB685A6371E023
:102990004D4B1B68FB6107F11C0319464548FFF7C7
:1029A00001FAFB689B6943F40062FB689A61FB686B
:1029B0001B6A43F01002FB681A62FB689B6943F4D0
:1029C000C042FB689A61BB7ABA6D02FB03F33A4AD4
:1029D000A2FB03235A09FB689A634BE03B4B1B683D
:1029E000BB6107F1180319463248FFF7DBF9FB68B2
:1029F000DB6943F00802FB68DA61FB681B6A43F499
:102A00008072FB681A62FB68DB6943F06002FB6856
:102A1000DA61BB7ABA6D02FB03F3274AA2FB0323F8
:102A20005A09FB68DA6325E0294B1B687B6107F1D3
:102A3000140319461F48FFF7B5F9FB68DB6943F437
:102A40000062FB68DA61FB681B6A43F48052FB6832
:102A50001A62FB68DB6943F4C042FB68DA61BB7A47
:102A6000BA6D02FB03F3144AA2FB03235A09FB6865
:102A70001A6400BFFB681B6843F08002FB681A60A1
:102A8000FB68BA6DDA627B6D5A1EFB689A62FB685E
:102A90005B6943F00102FB685A61FB681B6843F005
:102AA0000102FB681A6000BF6037BD4680BD00BFF1
:102AB000A0400008000C01401F85EB5100080040B9
:102AC00000100240AC400008B04000088C400008F4
:102AD0009040000880B400AF024B5B6A1846BD46C8
:102AE00080BC7047002C014080B400AF044B1B68D1
:102AF000034A23F00103136000BFBD4680BC70474A
:102B00000004004080B596B000AF786008461146DA
:102B10001A460346FB700B463B801346BB709B4B2B
:102B200001221A709A4A3B881380012387F8573094
:102B300000233B650123FB6417E097F86430954A56
:102B400002FB03F319463B6EFA6C02FB03F3B1FB85
:102B5000F3F33B653B6DB3F5FA4F03D3FB6C0233E4
:102B6000FB6402E0002387F8573097F85730012BB9
:102B7000E3D07B68884A934240F02081874B9B6971
:102B8000864A43F400639361844B9B69834A43F014
:102B900004039361814B9B69804A43F00103936175
:102BA0007F4B1B687E4A43F0807313607C4B1B682D
:102BB0007B4A43F000731360794B1B68784A43F0FB
:102BC00080631360764B1B68754A43F000631360A3
:102BD0007B681B6823F001027B681A60FB78032B7B
:102BE00000F2C28301A252F823F000BFFD2B0008BF
:102BF000612C0008C52C0008292D0008694B1B68B2
:102C0000BB6407F1480319466748FFF7CBF87B68B8
:102C10009B6943F008027B689A617B681B6A43F0FA
:102C200001027B681A627B689B6943F060027B68E3
:102C30009A61BB783A6D02FB03F35C4AA2FB032363
:102C40005A097B685A637B685B6C43F400427B687B
:102C50005A647B68DB6843F003027B68DA6083E3D5
:102C6000534B1B687B6407F1440319464E48FFF73A
:102C700099F87B689B6943F400627B689A617B6882
:102C80001B6A43F010027B681A627B689B6943F4FD
:102C9000C0427B689A61BB783A6D02FB03F3434AFA
:102CA000A2FB03235A097B689A637B685B6C43F43D
:102CB00000427B685A647B68DB6843F005027B68EE
:102CC000DA6051E33B4B1B683B6407F14003194654
:102CD0003548FFF767F87B68DB6943F008027B68DB
:102CE000DA617B681B6A43F480727B681A627B68D6
:102CF000DB6943F060027B68DA61BB783A6D02FB06
:102D000003F32A4AA2FB03235A097B68DA637B6830
:102D10005B6C43F400427B685A647B68DB6843F079
:102D200009027B68DA601FE3234B1B68FB6307F132
:102D30003C0319461C48FFF735F87B68DB6943F410
:102D400000627B68DA617B681B6A43F480527B68AF
:102D50001A627B68DB6943F4C0427B68DA61BB7846
:102D60003A6D02FB03F3114AA2FB03235A097B6865
:102D70001A647B685B6C43F400427B685A647B682E
:102D8000DB6843F011027B68DA60EDE2F5000020B9
:102D9000F600002040420F00002C014000100240CD
:102DA00000E100E08C400008000801401F85EB5165
:102DB0009040000894400008984000087B68B3F1F8
:102DC000804F40F0DD80A04BDB699F4A43F0010358
:102DD000D3619D4B9B699C4A43F0040393619A4BDA
:102DE0009B69994A43F001039361984B1B68974A8A
:102DF00043F0805313607B681B6823F001027B68FB
:102E00001A60FB78032B00F2AF8201A252F823F084
:102E1000212E0008792E0008D12E0008292F000845
:102E20008B4B1B68BB6307F1380319468948FEF7D3
:102E3000B9FF7B689B6943F008027B689A617B68F5
:102E40001B6A43F001027B681A627B689B6943F04E
:102E500060027B689A61BB783A6D02FB03F37E4A9D
:102E6000A2FB03235A097B685A637B68DB6843F043
:102E700003027B68DA6077E2784B1B687B6307F1BB
:102E8000340319467348FEF78DFF7B689B6943F452
:102E900000627B689A617B681B6A43F010027B6862
:102EA0001A627B689B6943F4C0427B689A61BB7875
:102EB0003A6D02FB03F3684AA2FB03235A097B68BD
:102EC0009A637B68DB6843F005027B68DA604BE25B
:102ED000634B1B683B6307F1300319465D48FEF7FF
:102EE00061FF7B68DB6943F008027B68DA617B681D
:102EF0001B6A43F480727B681A627B68DB6943F06B
:102F000060027B68DA61BB783A6D02FB03F3524AD8
:102F1000A2FB03235A097B68DA637B68DB6843F012
:102F200009027B68DA601FE24E4B1B68FB6207F107
:102F30002C0319464748FEF735FF7B68DB6943F4ED
:102F400000627B68DA617B681B6A43F480527B68AD
:102F50001A627B68DB6943F4C0427B68DA61BB7844
:102F60003A6D02FB03F33C4AA2FB03235A097B6838
:102F70001A647B68DB6843F011027B68DA60F3E176
:102F80007B68394A934240F0F7802F4BDB692E4A29
:102F900043F00203D3612C4B9B692B4A43F004039B
:102FA0009361294B9B69284A43F008039361264BA0
:102FB0009B69254A43F001039361244B1B68234A14
:102FC00043F0005313607B681B6823F001027B68A9
:102FD0001A60FB78032B00F2C78101A252F823F09C
:102FE000F12F000871300008C930000821310008B5
:102FF0001E4B1B68BB6207F1280319461548FEF7F4
:10300000D1FE7B689B6943F008027B689A617B680C
:103010001B6A43F001027B681A627B689B6943F07C
:1030200060027B689A61BB783A6D02FB03F30A4A3F
:10303000A2FB03235A097B685A637B68DB6843F071
:1030400003027B68DA608FE10010024000E100E0DB
:103050009C400008000801401F85EB51A04000087B
:10306000A4400008A840000800040040AC4000084C
:103070009C4B1B687B6207F1240319469A48FEF7B4
:1030800091FE7B689B6943F400627B689A617B6870
:103090001B6A43F010027B681A627B689B6943F4E9
:1030A000C0427B689A61BB783A6D02FB03F38F4A9A
:1030B000A2FB03235A097B689A637B68DB6843F0B1
:1030C00005027B68DA604FE1894B1B683B6207F1C0
:1030D000200319468748FEF765FE7B68DB6943F0ED
:1030E00008027B68DA617B681B6A43F480727B6844
:1030F0001A627B68DB6943F060027B68DA61BB7847
:103100003A6D02FB03F3794AA2FB03235A097B6859
:10311000DA637B68DB6843F001027B68DA6023E1F5
:10312000754B1B68FB6107F11C0319467148FEF7DC
:1031300039FE7B68DB6943F400627B68DA617B6897
:103140001B6A43F480527B681A627B68DB6943F434
:10315000C0427B68DA61BB783A6D02FB03F3634AD5
:10316000A2FB03235A097B681A647B68DB6843F07F
:1031700001027B68DA60F7E07B68604A934240F0C6
:10318000F3805F4BDB695E4A43F00403D3615C4B21
:103190009B695B4A43F008039361594B9B69584A0A
:1031A00043F001039361574B1B68564A43F0804339
:1031B00013607B681B6823F001027B681A60FB7850
:1031C000032B00F2D18001A252F823F0DD31000878
:1031D000353200088D320008113300084A4B1B6855
:1031E000BB6107F1180319464248FEF7DBFD7B6817
:1031F0009B6943F008027B689A617B681B6A43F015
:1032000001027B681A627B689B6943F060027B68FD
:103210009A61BB783A6D02FB03F3344AA2FB0323A5
:103220005A097B685A637B68DB6843F003027B685A
:10323000DA6099E02B4B1B687B6107F11403194698
:103240002C48FEF7AFFD7B689B6943F400627B6806
:103250009A617B681B6A43F010027B681A627B6884
:103260009B6943F4C0427B689A61BB783A6D02FB6C
:1032700003F31E4AA2FB03235A097B689A637B6807
:10328000DB6843F001027B68DA606DE01F4B1B686E
:103290003B6107F1100319461648FEF783FD7B6872
:1032A000DB6943F008027B68DA617B681B6A43F4E0
:1032B00080727B681A627B68DB6943F060027B681E
:1032C000DA61BB783A6D02FB03F3084AA2FB0323E1
:1032D0005A097B68DA637B68DB6843F001027B682C
:1032E000DA6041E0B0400008000801401F85EB5162
:1032F0009C400008000C0140A0400008000800406D
:103300000010024000E100E0AC4000088C400008E2
:10331000274B1B68FB6007F10C0319462548FEF795
:1033200041FD7B68DB6943F400627B68DA617B689E
:103330001B6A43F480527B681A627B68DB6943F442
:10334000C0427B68DA61BB783A6D02FB03F31A4A2C
:10335000A2FB03235A097B681A647B68DB6843F08D
:1033600001027B68DA6000BF7B681B6843F0800263
:103370007B681A607B683A6DDA62FB6C5A1E7B6868
:103380009A627B68DB6843F001027B68DA607B68E5
:103390005B6943F001027B685A617B681B6843F0FC
:1033A00001027B681A6000BF5837BD4680BD00BF70
:1033B00090400008000C01401F85EB5180B400AF25
:1033C000184B1B78012B28D14FF080431B694FF01D
:1033D000804223F0010313614FF080431B694FF0DB
:1033E000804223F0020313610F4B1B88002B06D091
:1033F0000D4B1B88013B9AB20B4B1A800DE0094B19
:1034000000221A704FF080431B684FF0804223F077
:1034100001031360054B01221A7000BFBD4680BC3A
:10342000704700BFF5000020F6000020F4000020E7
:1034300080B400AF154B1B78012B22D1144B1B69B4
:10344000134A23F001031361114B1B69104A23F047
:10345000020313610F4B1B88002B06D00D4B1B88FA
:10346000013B9AB20B4B1A800BE0084B00221A70FA
:10347000074B1B68064A23F001031360064B012229
:103480001A7000BFBD4680BC704700BFF500002029
:1034900000040040F6000020F400002080B400AFDB
:1034A000154B1B78012B22D1144B1B69134A23F0B7
:1034B00001031361114B1B69104A23F002031361CE
:1034C0000F4B1B88002B06D00D4B1B88013B9AB27B
:1034D0000B4B1A800BE0084B00221A70074B1B683D
:1034E000064A23F001031360064B01221A7000BF45
:1034F000BD4680BC704700BFF500002000080040BA
:10350000F6000020F400002080B483B000AF7860A3
:103510007B680B4A934201D100230CE07B68094A87
:10352000934201D1012306E07B68074A934201D10F
:10353000022300E0032318460C37BD4680BC7047C9
:10354000003801400044004000480040B0B485B05D
:1035500000AF786039605E4BFB607B685D4A9342E8
:103560000ED15D4A3B6814461D460FCD0FC42B6833
:1035700023605A4B9B69594A43F48043936126E088
:103580007B68574A93420FD1534B3A6803F11404B6
:1035900015460FCD0FC42B682360504BDB694F4A93
:1035A00043F40033D36112E07B684E4A93420ED15C
:1035B000494B3A6803F1280415460FCD0FC42B6818
:1035C0002360464BDB69454A43F48023D3617B6823
:1035D000DB6843F400527B68DA607B68DB683A683A
:1035E00012781A437B68DA607B68DB683A68127A83
:1035F0001A437B68DA607B68DB683A68527A1A4360
:103600007B68DA607B681B693A68927A1A437B6848
:103610001A617B685B693A68D27A1A437B685A619F
:103620003B685B681B01FA68B2FBF3F31901FA68A7
:1036300013469B0013449A001A443B685B689B0046
:10364000B2FBF3F23B685B681B01F868B0FBF3F375
:10365000642000FB03F3D31A1B01234AA2FB0323BC
:103660005B0903F00F030B43BB607B68BA689A6089
:103670003B681B7B002B26D07B68DB683A68127B9B
:103680001A437B68DA607B68124A934206D1174B73
:103690001B68164A43F02003136014E07B68104A4D
:1036A000934206D1114B1B68104A43F0400313604C
:1036B00009E07B680B4A934205D10C4B1B680B4A0F
:1036C00043F08003136000BF1437BD46B0BC7047A1
:1036D0000051250200380140F8000020001002408F
:1036E00000440040004800401F85EB5104E100E029
:1036F00080B586B000AFF860B9601346FB71FB7906
:10370000012B06D100BFFB681B6803F08003002B70
:10371000F9D0F868FFF7F8FE0346FB75BB681B8815
:10372000DAB2FB685A6000BF1837BD4680BD0000A2
:1037300080B586B000AFF860B9601346FB71FB79C5
:10374000012B06D100BFFB681B6803F02003002B90
:10375000F9D0F868FFF7D8FE0346FB75FA7D0F49EC
:1037600013469B0013449B000B4409331B78002B2A
:1037700007D1FB685B689BB2DBB29AB2BB681A8068
:1037800007E0FB685B689BB203F07F039AB2BB68FB
:103790001A8000BF1837BD4680BD00BFF80000206A
:1037A00080B584B000AF78607B682B4A934218D113
:1037B0004FF40073BB810623BB730123FB7307F136
:1037C0000C0319462548FEF7EDFA4FF48063BB81E0
:1037D0000823BB7307F10C0319462048FEF7E2FAF1
:1037E00036E07B681E4A934216D10423BB81062330
:1037F000BB730123FB7307F10C0319461748FEF74F
:10380000D1FA0823BB810823BB7307F10C031946C7
:103810001248FEF7C7FA1BE07B68124A934217D1A1
:103820004FF48063BB810623BB730123FB7307F155
:103830000C0319460C48FEF7B5FA4FF40063BB8140
:103840000823BB7307F10C0319460748FEF7AAFAD1
:1038500000BF1037BD4680BD003801400008014060
:103860000044004000480040000C014080B500AF1B
:10387000024B1B69984700BF80BD00BFF8000020C5
:1038800080B500AF024B5B6A984700BF80BD00BFA8
:10389000F800002080B500AF024B9B6B984700BF3B
:1038A00080BD00BFF800002080B500AF01220C49A8
:1038B0000C48FFF73DFF0A4B1B78DBB2422B04D0CC
:1038C000074B1B78DBB2452B02D1074B01221A7044
:1038D000012206490348FFF70BFF00BF80BD00BF70
:1038E0003401002000440040380100203400002052
:1038F000B0B596B000AFA44B9B69A34A43F0080350
:103900009361A14B9B69A04A43F0040393619E4BD2
:103910009B699D4A43F0100393619B4B9B699A4AB4
:1039200043F001039361984B9B69974A43F400630A
:10393000936148210120FEF7DDFB934BDB69924A3E
:1039400043F40033D3612420FEF7B8FC8F4B07F11A
:1039500044041D460FCD0FC42B6823608C4B07F128
:1039600030041D460FCD0FC42B682360894B1B68A4
:10397000FB62894B1B68BB6207F128031946874825
:10398000FEF710FA4FF4E133BB610023FB772023ED
:1039900087F82030824B7B6200237B7700233B77C4
:1039A0000023BB770C233B7507F1140319467D48B0
:1039B000FFF7CCFD7B48FFF7F3FE07F14403184601
:1039C000FDF7BEFA07F130031846FDF7B9FA76485D
:1039D000FDF74EFB7548FDF729FF07F12C0318464C
:1039E000FDF7CAFE724B1B78DBB2002BFAD0704B8E
:1039F00000221A706F4B1B78DBB2422B04D06D4B48
:103A00001B78DBB2452B1FD16B4B43221A8001225E
:103A100069496448FFF76CFE68490020FDF78CFF98
:103A20005020FEF78BFC654B1B68142BF4D8624BBF
:103A30004F221A80012260495A48FFF759FE01229D
:103A40005C495848FFF774FE5A4B1B78DBB2522B87
:103A500039D100210120FDF7BFFD5948FDF798FD40
:103A600007F1440364211846FDF7B8FA07F1300363
:103A700064211846FDF7B2FA4FF4FA60FEF75EFCD7
:103A800007F144031846FDF781FA07F130031846A1
:103A9000FDF77CFA40F6B830FEF750FC002101201B
:103AA000FDF79AFD4748FDF773FD434B46221A8008
:103AB000012241493B48FFF71BFE01223D4939489D
:103AC000FFF736FE24E03C4B43221A8001223A499C
:103AD0003448FFF70DFE012236493248FFF728FE31
:103AE00036490020FDF728FF5020FEF727FC334B16
:103AF0001B68142BF4D8304B4F221A8001222E4918
:103B00002848FFF7F5FD01222A492648FFF710FE55
:103B1000284B1B78DBB2552B0DD1274B50221A8036
:103B2000012225491F48FFF7E3FD012221491D48D5
:103B3000FFF7FEFD0CE0204B46221A8001221E49B1
:103B40001848FFF7D5FD01221A491648FFF7F0FD86
:103B5000184B1B78DBB2482B36D107F1300207F146
:103B600044031146184600F0A9F8134B4A221A8064
:103B7000012211490B48FFF7BBFD01220D490948FD
:103B8000FFF7D6FD2DE000BF00100240DC4000082A
:103B9000F0400008044100080841000800100140FE
:103BA000A938000800440040000000201C0000204C
:103BB000380100203401002036010020440000209C
:103BC000B4400008C8400008384B50221A80012237
:103BD00036493748FFF78CFD012236493448FFF754
:103BE000A7FD344B1B78DBB2492B19D14FF47A7007
:103BF000FEF7A4FB07F1300207F144031146184613
:103C000000F0CAF9294B47221A8001222749284887
:103C1000FFF76EFD012227492548FFF789FD0CE0DB
:103C2000224B4A221A80012220492148FFF760FDD9
:103C3000012220491E48FFF77BFD1E4B1B78DBB29B
:103C4000582B0DD1194B4B221A80012217491848C5
:103C5000FFF74EFD012217491548FFF769FD0CE0FB
:103C6000124B47221A80012210491148FFF740FDEC
:103C7000012210490E48FFF75BFD0E4B1B78DBB2AB
:103C8000512B0AD100210120FDF7A6FC0A48FDF7BF
:103C90007FFC084B00221A70A4E6044B4B221A80CA
:103CA000012202490248FFF723FD9BE6360100206E
:103CB0000044004034010020D440000880B588B0A2
:103CC00002AF7860396000210120FDF785FCA24831
:103CD000FDF75EFC00210120FDF77EFC9F48FDF70B
:103CE00057FC00210220FDF777FC9D48FDF750FCB2
:103CF00005210220FDF770FC9A4B1B681846FDF762
:103D0000B9FC09210220FDF767FC9748FDF740FC4C
:103D10000D210220FDF760FC944B1B681846FDF74F
:103D2000A9FC64217868FDF759F964213868FDF72A
:103D300055F94FF47A70FEF701FB7868FDF726F924
:103D40003868FDF723F94FF4FA70FEF7F7FA874B5E
:103D50001B68022B0DD8012301934FF4FA730093D3
:103D600032234FF4FA5200214FF08040FDF728FD36
:103D7000D8E07E4B1B68032B0DD9002301934FF431
:103D8000FA73009332234FF4FA5200214FF080402F
:103D9000FDF716FDC6E0754B1B68C3F1040318461A
:103DA000FCF78AFE0346724A1360724B1B68704A26
:103DB000126811461846FCF7D7FE03467B616E4B2E
:103DC0001B684FF000011846FDF762F80346002B10
:103DD00025D16A4B1B68664A126811461846FCF7E3
:103DE000BBFD03461A46654B1A60644B1B68644969
:103DF0001846FDF775F80346002B03D05F4B604A69
:103E00001A6010E05D4B1B685E491846FDF74AF8E2
:103E10000346002B07D0594B5A4A1A6003E0574B10
:103E20004FF000021A60544B1B68544A1268114646
:103E30001846FCF799FE03463B614D4B1B68524AFE
:103E4000126811461846FCF785FD03461A464F4B8B
:103E50001A604F4B1B684D4A126811461846FCF712
:103E600083FE0346FB6039697869FCF775FD0346FC
:103E7000F9681846FCF770FD03461846FDF73AF856
:103E80000346444A1360434B1B68642B03DD414BDC
:103E900064221A6008E03F4B1B6813F1640F03DAD9
:103EA0003C4B6FF063021A603A4B1B689BB203F203
:103EB000DC539AB2012301934FF4FA730093322337
:103EC00000214FF08040FDF77BFC294B1B682E4AF8
:103ED000136026490120FDF72FFD09210220FDF77F
:103EE0007BFB2148FDF754FB0D210220FDF774FBFD
:103EF0001E4B1B681846FDF7BDFB1C4B1B68C3F12E
:103F000004031846FCF7D8FD0346194A1360184B02
:103F10001B684FF000011846FCF7BAFF0346002B60
:103F20003FF443AF64217868FDF77DF86421386879
:103F3000FDF779F84FF47A70FEF700FA7868FDF72C
:103F400025F83868FDF722F84FF4FA70FEF7F6F915
:103F500000BF1837BD4680BD0C4100081441000861
:103F600020410008440000202C4100083C010020B2
:103F700048010020380000203C00002040010020C3
:103F80000000C8420000C8C24C01002044010020CB
:103F9000400000205001002080B582B000AF786062
:103FA000396064217868FDF719F864213868FDF7F5
:103FB00015F84FF47A70FEF7C1F97868FCF7E6FF60
:103FC0003868FCF7E3FF4FF47A70FEF7B7F900BFEB
:103FD0000837BD4680BD00000D488546AFF3008020
:103FE0000C480D490D4A002302E0D458C450043354
:103FF000C4188C42F9D30A4A0A4C002301E013602A
:104000000432A242FBD300F011F8FFF771FCFEE787
:10401000005000200000002048000020404100081F
:104020004800002054010020FEE7000070B5002683
:104030000C4D0D4C641BA410A64209D100F01AF8D7
:1040400000260A4D0A4C641BA410A64205D170BD7F
:1040500055F8043B98470136EEE755F8043B98477E
:104060000136F2E7384100083841000838410008BD
:104070003C410008F8B500BFF8BC08BC9E4670473C
:0C408000F8B500BFF8BC08BC9E467047B5
:10408C0000010601000206010004060100080601F9
:10409C0001000601020006010400060108000601E9
:1040AC004000060180000601474F494E475F546FA0
:1040BC00456C657661746F720000000041542045B8
:1040CC006C657661746F7200415420484F4D450009
:1040DC0010002000000801400008014000040040CE
:1040EC00000000008000010000080140000C0140AD
:1040FC000004004003000000000104020020040240
:10410C00535441525400000052656164696E67203B
:10411C00000000003173743A2020202000000000C1
:0C412C00326E643A2020202000000000C9
:044138005501000825
:04413C003101000845
:104140000400000000040008001020001000080017
:104150000080000000000000000002000008014094
:10416000000C014000010080000C014000080140EB
:10417000001000025A0000000000003F6F12833A56
:08418000CDCC4C3DFF00000016
:0400000508003FD9D7
:00000001FF
