:020000040800F2
:100000000050002015200008211C0008271C0008B3
:100010002D1C0008331C0008391C000800000000DB
:100020000000000000000000000000003F1C00086D
:100030004B1C000800000000571C0008631C00084F
:100040005D2000085D2000085D2000085D2000089C
:100050005D2000085D2000085D2000085D2000088C
:100060005D2000085D2000085D2000085D2000087C
:100070005D2000085D2000085D2000085D2000086C
:100080005D2000085D2000085D2000085D2000085C
:100090005D2000085D2000085D2000085D2000084C
:1000A0005D2000085D2000085D2000085D2000083C
:1000B0005D2000085D200008751C00085D20000818
:1000C0005D2000085D2000085D2000085D2000081C
:1000D0005D2000085D2000085D2000085D2000080C
:1000E0005D2000085D2000085D2000080000000081
:1000F0000000000000000000000000000000000000
:0C01000000000000000000005FF808F1A3
:1001100010B5054C237833B9044B13B10448AFF341
:1001200000800123237010BDD401002000000000D6
:100130007474000808B5034B1BB103490348AFF3BF
:10014000008008BD00000000D80100207474000881
:10015000034613F8012B002AFBD1181A0138704707
:1001600081F0004102E000BF83F0004330B54FEA68
:1001700041044FEA430594EA050F08BF90EA020FD5
:100180001FBF54EA000C55EA020C7FEA645C7FEA68
:10019000655C00F0E2804FEA5454D4EB5555B8BF8B
:1001A0006D420CDD2C4480EA020281EA030382EAFC
:1001B000000083EA010180EA020281EA0303362D8E
:1001C00088BF30BD11F0004F4FEA01314FF4801C61
:1001D0004CEA113102D0404261EB410113F0004F73
:1001E0004FEA03334CEA133302D0524263EB43032A
:1001F00094EA050F00F0A780A4F10104D5F1200EC8
:100200000DDB02FA0EFC22FA05F2801841F1000122
:1002100003FA0EF2801843FA05F359410EE0A5F1F6
:1002200020050EF1200E012A03FA0EFC28BF4CF027
:10023000020C43FA05F3C01851EBE37101F00045DD
:1002400007D54FF0000EDCF1000C7EEB00006EEBEA
:100250000101B1F5801F1BD3B1F5001F0CD3490874
:100260005FEA30004FEA3C0C04F101044FEA4452CB
:1002700012F5800F80F09A80BCF1004F08BF5FEA52
:10028000500C50F1000041EB045141EA050130BD32
:100290005FEA4C0C404141EB0101013C28BFB1F544
:1002A000801FE9D291F0000F04BF01460020B1FA8F
:1002B00081F308BF2033A3F10B03B3F120020CDA62
:1002C0000C3208DD02F1140CC2F10C0201FA0CF040
:1002D00021FA02F10CE002F11402D8BFC2F1200CA5
:1002E00001FA02F120FA0CFCDCBF41EA0C0190405B
:1002F000E41AA2BF01EB0451294330BD6FEA0404A4
:100300001F3C1CDA0C340EDC04F11404C4F120028E
:1003100020FA04F001FA02F340EA030021FA04F3A0
:1003200045EA030130BDC4F10C04C4F1200220FAF7
:1003300002F001FA04F340EA0300294630BD21FA35
:1003400004F0294630BD94F0000F83F4801306BFFB
:1003500081F480110134013D4EE77FEA645C18BFEF
:100360007FEA655C29D094EA050F08BF90EA020F86
:1003700005D054EA000C04BF1946104630BD91EA7E
:10038000030F1EBF0021002030BD5FEA545C05D181
:100390004000494128BF41F0004130BD14F58004C0
:1003A0003CBF01F5801130BD01F0004545F0FE4134
:1003B00041F470014FF0000030BD7FEA645C1ABF69
:1003C000194610467FEA655C1CBF0B46024650EAA0
:1003D000013406BF52EA033591EA030F41F40021CC
:1003E00030BD00BF90F0000F04BF0021704730B552
:1003F0004FF4806404F132044FF000054FF0000127
:1004000050E700BF90F0000F04BF0021704730B5E7
:100410004FF4806404F1320410F0004548BF4042BC
:100420004FF000013EE700BF42004FEAE2014FEA11
:1004300031014FEA02701FBF12F07F4393F07F4FEC
:1004400081F06051704732F07F4208BF704793F0EF
:100450007F4F04BF41F40021704730B54FF4607402
:1004600001F0004521F000411CE700BF50EA010205
:1004700008BF704730B54FF000050AE050EA0102AE
:1004800008BF704730B511F0004502D5404261EB1E
:1004900041014FF4806404F132045FEA915C3FF45F
:1004A000D8AE4FF003025FEADC0C18BF03325FEAFC
:1004B000DC0C18BF033202EBDC02C2F1200300FAAD
:1004C00003FC20FA02F001FA03FE40EA0E0021FAD2
:1004D00002F11444BDE600BF70B54FF0FF0C4CF4C0
:1004E000E06C1CEA11541DBF1CEA135594EA0C0F72
:1004F00095EA0C0F00F0DEF82C4481EA030621EAAD
:100500004C5123EA4C5350EA013518BF52EA0335E7
:1005100041F4801143F4801338D0A0FB02CE4FF099
:100520000005E1FB02E506F00042E0FB03E54FF0C9
:100530000006E1FB03569CF0000F18BF4EF0010EC1
:10054000A4F1FF04B6F5007F64F5407404D25FEABD
:100550004E0E6D4146EB060642EAC62141EA555170
:100560004FEAC52040EA5E504FEACE2EB4F1FD0CB2
:1005700088BFBCF5E06F1ED8BEF1004F08BF5FEA30
:10058000500E50F1000041EB045170BD06F00046E2
:1005900046EA010140EA020081EA0301B4EB5C048F
:1005A000C2BFD4EB0C0541EA045170BD41F4801187
:1005B0004FF0000E013C00F3AB8014F1360FDEBFAC
:1005C000002001F0004170BDC4F10004203C35DA88
:1005D0000C341BDC04F11404C4F1200500FA05F30B
:1005E00020FA04F001FA05F240EA020001F00042AC
:1005F00021F0004110EBD37021FA04F642EB060122
:100600005EEA430E08BF20EAD37070BDC4F10C044B
:10061000C4F1200500FA04F320FA05F001FA04F20F
:1006200040EA020001F0004110EBD37041F10001FB
:100630005EEA430E08BF20EAD37070BDC4F1200506
:1006400000FA05F24EEA020E20FA04F301FA05F26E
:1006500043EA020321FA04F001F0004121FA04F216
:1006600020EA020000EBD3705EEA430E08BF20EAE6
:10067000D37070BD94F0000F0FD101F00046400020
:1006800041EB010111F4801F08BF013CF7D041EAA2
:10069000060195F0000F18BF704703F000465200A6
:1006A00043EB030313F4801F08BF013DF7D043EA77
:1006B0000603704794EA0C0F0CEA135518BF95EA2D
:1006C0000C0F0CD050EA410618BF52EA4306D1D1B4
:1006D00081EA030101F000414FF0000070BD50EAD3
:1006E000410606BF1046194652EA430619D094EA5D
:1006F0000C0F02D150EA013613D195EA0C0F05D147
:1007000052EA03361CBF104619460AD181EA03019A
:1007100001F0004141F0FE4141F470014FF0000052
:1007200070BD41F0FE4141F4780170BD70B54FF0ED
:10073000FF0C4CF4E06C1CEA11541DBF1CEA13556D
:1007400094EA0C0F95EA0C0F00F0A7F8A4EB05044F
:1007500081EA030E52EA03354FEA013100F0888046
:100760004FEA03334FF0805545EA131343EA12630F
:100770004FEA022245EA111545EA10654FEA0026C4
:100780000EF000419D4208BF964244F1FD0404F57D
:10079000407402D25B084FEA3202B61A65EB0305D9
:1007A0005B084FEA32024FF480104FF4002CB6EB96
:1007B000020E75EB030E22BFB61A754640EA0C0016
:1007C0005B084FEA3202B6EB020E75EB030E22BF56
:1007D000B61A754640EA5C005B084FEA3202B6EB97
:1007E000020E75EB030E22BFB61A754640EA9C0056
:1007F0005B084FEA3202B6EB020E75EB030E22BF26
:10080000B61A754640EADC0055EA060E18D04FEAE3
:10081000051545EA16754FEA06164FEAC30343EA83
:1008200052734FEAC2025FEA1C1CC0D111F4801F50
:100830000BD141EA00014FF000004FF0004CB6E749
:1008400011F4801F04BF01430020B4F1FD0C88BFE8
:10085000BCF5E06F3FF6AFAEB5EB030C04BFB6EBF3
:10086000020C5FEA500C50F1000041EB045170BDE6
:100870000EF0004E4EEA113114EB5C04C2BFD4EB13
:100880000C0541EA045170BD41F480114FF0000E97
:10089000013C90E645EA060E8DE60CEA135594EA13
:1008A0000C0F08BF95EA0C0F3FF43BAF94EA0C0F16
:1008B0000AD150EA01347FF434AF95EA0C0F7FF48B
:1008C00025AF104619462CE795EA0C0F06D152EADF
:1008D00003353FF4FDAE1046194622E750EA4106C3
:1008E00018BF52EA43067FF4C5AE50EA41047FF4D4
:1008F0000DAF52EA43057FF4EBAE12E74FF0FF3C39
:1009000006E000BF4FF0010C02E000BF4FF0010C09
:100910004DF804CD4FEA410C7FEA6C5C4FEA430C82
:1009200018BF7FEA6C5C1BD001B050EA410C0CBFD1
:1009300052EA430C91EA030F02BF90EA020F002033
:10094000704710F1000F91EA030F58BF994208BF9A
:1009500090422CBFD8176FEAE37040F00100704757
:100960004FEA410C7FEA6C5C02D150EA013C07D1AE
:100970004FEA430C7FEA6C5CD6D152EA033CD3D0F9
:100980005DF8040B704700BF8446104662468C46F3
:100990001946634600E000BF01B5FFF7B7FF002826
:1009A00048BF10F1000F01BD4DF808EDFFF7F4FF4F
:1009B0000CBF012000205DF808FB00BF4DF808EDDA
:1009C000FFF7EAFF34BF012000205DF808FB00BFFD
:1009D0004DF808EDFFF7E0FF94BF012000205DF81F
:1009E00008FB00BF4DF808EDFFF7CEFF94BF0120D4
:1009F00000205DF808FB00BF4DF808EDFFF7C4FFCD
:100A000034BF012000205DF808FB00BF4FEA410C15
:100A10007FEA6C5C02D150EA013C0AD14FEA430CF8
:100A20007FEA6C5C02D152EA033C02D14FF0000035
:100A300070474FF0010070474FEA410212F5001273
:100A400015D211D56FF47873B3EB625212D94FEA15
:100A5000C12343F0004343EA505311F0004F23FAFF
:100A600002F018BF404270474FF00000704750EA54
:100A7000013005D111F0004008BF6FF00040704711
:100A80004FF00000704700BF4FEA4102B2F1E0436F
:100A900024BFB3F5001CDCF1FE5C0DD901F0004C65
:100AA0004FEAC0024CEA5070B2F1004F40EB8300B5
:100AB00008BF20F00100704711F0804F21D113F1E1
:100AC0003872BCBF01F00040704741F480114FEA1A
:100AD0005252C2F11802C2F1200C10FA0CF320FAA3
:100AE00002F018BF40F001004FEAC1234FEAD323C0
:100AF00003FA0CFC40EA0C0023FA02F34FEA43032A
:100B0000CCE77FEA625307D150EA01331EBF4FF0B2
:100B1000FE4040F44000704701F0004040F0FE40CD
:100B200040F40000704700BF42000ED2B2F1FE4F09
:100B30000BD34FF09E03B3EB126209D44FEA0023AC
:100B400043F0004323FA02F070474FF00000704773
:100B500012F1610F01D1420202D14FF0FF30704714
:100B60004FF00000704700BF80B5ACB000AF034647
:100B7000FB7107F1940300221A605A609A60DA60F0
:100B800007F1840300221A605A609A60DA6007F164
:100B90007C0300221A605A6007F1600300221A6089
:100BA0005A609A60DA601A615A619A610023C7F844
:100BB000A4300023C7F8AC30002387F8AB30FB79B2
:100BC000B24A5B0113441B68B14A934208D0FB79D7
:100BD000AE4A5B01134404331B68AD4A93420CD107
:100BE000AC4B9B69AB4A43F004039361A94B9B69EF
:100BF00003F004037B617B6958E0FB79A34A5B0146
:100C000013441B68A44A934208D0FB799F4A5B01B6
:100C1000134404331B68A04A93420CD19D4B9B693B
:100C20009C4A43F0080393619A4B9B6903F00803C5
:100C30003B613B693AE0FB79944A5B0113441B68D2
:100C4000964A934208D0FB79904A5B0113440433DF
:100C50001B68924A93420CD18E4B9B698D4A43F09C
:100C6000100393618B4B9B6903F01003FB60FB68DF
:100C70001CE0FB79854A5B0113441B68884A934258
:100C800008D0FB79814A5B01134404331B68844A12
:100C900093420BD17F4B9B697E4A43F020039361C3
:100CA0007C4B9B6903F02003BB60BB68FB79774AF0
:100CB0005B01134408331B88C7F894300123C7F83D
:100CC00098300223C7F8A030FB79704A5B011344C7
:100CD0001B6807F194021146184601F055FBFB7999
:100CE0006A4A5B0113440A331B88C7F89430012316
:100CF000C7F898300223C7F8A030FB79634A5B013C
:100D0000134404331B6807F194021146184601F09E
:100D10003BFBFB795D4A5B0113441868FB795B4A36
:100D20005B01134408331B880022194601F0B0FC14
:100D3000FB79564A5B01134404331868FB79534A24
:100D40005B0113440A331B880022194601F0A0FC02
:100D50000123C7F8AC30002387F8AB3009E0D7F89F
:100D6000AC305B00C7F8AC3097F8AB30013387F894
:100D7000AB30FB79454A5B0113441C331B7897F871
:100D8000AB209A42EBD3FB79404A5B011344143306
:100D90001B881A46434B02FB03F31946FB793B4A77
:100DA0005B01134418331B68D7F8AC2002FB03F334
:100DB000B1FBF3F3C7F8A430D7F8A430013BC7F870
:100DC000A430D7F8AC30023BC7F8AC30FB792F4ADF
:100DD0005B0113440C331B68BB61D7F8A430FB6183
:100DE00000233B62D7F8AC307B620023BB628023D8
:100DF0003B6307F11803184602F07CF84FF4805368
:100E0000C7F8843007F1840207F118031146184629
:100E100002F0C4FD07F11803184602F00DF9002393
:100E2000FB670023C7F8803007F17C0207F1180345
:100E30001146184603F088FA60233B6600237B6660
:100E40000023BB6600233B67FB79104A5B01134418
:100E500010331A6807F1600107F11803184602F011
:100E6000DFFC07F11803184601F02EF8FB79074A5A
:100E70005B01134410331A6807F118031146184632
:100E800002F032F900BFB037BD4680BDC074000823
:100E90000008014000100240000C01400010014019
:100EA0000014014040420F0080B582B000AF0346FD
:100EB000FB710B46BB711346BB80BB79002B1FD166
:100EC000FB79404A5B0113441868FB793D4A5B019A
:100ED000134408331B880122194601F0D9FBFB7922
:100EE000384A5B01134404331868FB79354A5B01C7
:100EF00013440A331B880022194601F0C9FB21E084
:100F0000BB79012B1ED1FB792E4A5B011344186873
:100F1000FB792C4A5B01134408331B8800221946D5
:100F200001F0B6FBFB79274A5B01134404331868D0
:100F3000FB79244A5B0113440A331B8801221946BA
:100F400001F0A6FBFB791F4A5B01134410331B68B9
:100F5000002B08D1FB791B4A5B0113440C331B683F
:100F6000BA885A6329E0FB79164A5B0113441033AF
:100F70001B68042B08D1FB79124A5B0113440C3324
:100F80001B68BA889A6318E0FB790E4A5B01134428
:100F900010331B68082B08D1FB790A4A5B01134404
:100FA0000C331B68BA88DA6307E0FB79054A5B01FA
:100FB00013440C331B68BA881A6400BF0837BD4657
:100FC00080BD00BFC074000880B594B000AF034678
:100FD0003960FB7107F1400300221A605A609A6081
:100FE000DA6007F1300300221A605A609A60DA6012
:100FF00007F1280300221A605A6007F11803002243
:101000001A605A609A60DA60FA79874913469B0041
:1010100013449B000B441B68844A93420CD1844BBD
:101020009B69834A43F004039361814B9B6903F0FE
:1010300004037B617B6946E0FA797B4913469B0098
:1010400013449B000B441B687A4A93420CD1784BA3
:101050009B69774A43F008039361754B9B6903F0E2
:1010600008033B613B692EE0FA796F4913469B0008
:1010700013449B000B441B686F4A93420CD16C4B8A
:101080009B696B4A43F010039361694B9B6903F0C2
:101090001003FB60FB6816E0FA79634913469B0076
:1010A00013449B000B441B68644A93420BD1604B72
:1010B0009B695F4A43F0200393615D4B9B6903F09A
:1010C0002003BB60BB68FA79574913469B00134461
:1010D0009B000B4404331B883B6401237B64002387
:1010E000BB640223FB64FA794F4913469B00134407
:1010F0009B000B441B6807F140021146184601F0A3
:1011000043F9FA79484913469B0013449B000B446A
:1011100008331B68FA79996A49481346DB0013447F
:101120009B00034404331960FA793F4913469B003E
:1011300013449B000B4408331B68FA79D96A404872
:101140001346DB0013449B00034408331960FA790B
:101150003B491346DB0013449B000B44023300223F
:101160001A80FA7936491346DB0013449B000B447E
:101170001C333A681A60FA7931491346DB0013448C
:101180009B000B4408331B68002B0AD1FA792C49C9
:101190001346DB0013449B000B4408334FF6FF72E9
:1011A0001A60FA79204913469B0013449B000B44B4
:1011B0000C331B68002B0AD1FA7921491346DB0056
:1011C00013449B000B44203301221A704FE0FA793C
:1011D000154913469B0013449B000B440C331B68BA
:1011E000042B0AD1FA7916491346DB0013449B00FD
:1011F0000B44203302221A7039E0FA790A49134667
:101200009B0013449B000B440C331B68082B19D123
:10121000FA790B491346DB0013449B000B4420333F
:1012200004221A7023E000BF007500080008014086
:1012300000100240000C0140001001400014014069
:10124000F0010020FA79414913469B0013449B00AA
:101250000B440C331B680C2B09D1FA793C4913461B
:10126000DB0013449B000B44203308221A70FA79E8
:10127000364913469B0013449B000B4408331A68FD
:101280003B681A60FA7932491346DB0013449B002D
:101290000B4404331A683B685A603B6800229A602A
:1012A000FA792B491346DB0013449B000B440833A7
:1012B0001A683B68DA603B6800221A613B6880224A
:1012C0009A61386801F016FE4FF480533B6307F1D2
:1012D00030031946386802F061FB386801F0A6FF58
:1012E0000023BB620023FB6207F12803194638681C
:1012F00003F02AF80023BB610123FB6100233B625A
:1013000000237B62FA79114913469B0013449B002A
:101310000B440C331A6807F118031946386802F0B9
:10132000EBF9386801F036FEFA79084913469B005C
:1013300013449B000B440C331B681946386801F0BA
:10134000CDFF00BF5037BD4680BD00BF007500080F
:10135000F001002080B485B000AF78600023FB73FB
:101360000023FB7323E07B681968FA7B144813465B
:101370009B0013449B00034408331B68994213D11C
:10138000FA7B10491346DB0013449B000B440233E5
:101390001B88013398B20B491346DB0013449B00B2
:1013A0000B44023302461A80FB7B0133FB73FB7B49
:1013B000022BD8D900BF00BF1437BD4680BC704790
:1013C00000750008F0010020B0B584B000AF78606F
:1013D0000023FB730023BB600023FB732AE27B68BE
:1013E0001968FA7B6B4813469B0013449B00034427
:1013F00008331B68994240F01A827B68197FFA7B98
:1014000065481346DB0013449B00034420331B78DC
:10141000994240F00C82FA7B5F491346DB0013448B
:101420009B000B441B78002B40F0B880FA7B594995
:1014300013469B0013449B000B440C331B68FC7B3E
:101440001946786802F06EFB024653492346DB00DA
:1014500023449B000B440C331A60FA7B4E4913461D
:10146000DB0013449B000B4401221A70FA7B4949AC
:1014700013469B0013449B000B440C331B68002B4A
:1014800008D17B681B681A6A7B681B6822F00A0215
:101490001A622FE0FA7B3F4913469B0013449B00DE
:1014A0000B440C331B68042B08D17B681B681B6A38
:1014B0007A68126823F0A00313621BE0FA7B3549B7
:1014C00013469B0013449B000B440C331B68082BF2
:1014D00008D17B681B681B6A7A68126823F4007362
:1014E000136207E07B681B681B6A7A68126823F442
:1014F00000531362FA7B274913469B0013449B0059
:101500000B440C331B68002B08D17B681B681A6ADC
:101510007B681B6842F002021A622FE0FA7B1D49C9
:1015200013469B0013449B000B440C331B68042B95
:1015300008D17B681B681B6A7A68126843F0200335
:1015400013621BE0FA7B134913469B0013449B0074
:101550000B440C331B68082B08D17B681B681B6A83
:101560007A68126843F40073136207E07B681B68B3
:101570001B6A7A68126843F400531362FA7B0649C7
:101580001346DB0013449B000B44023300221A80F5
:101590004DE100BF00750008F0010020FA7BAC4966
:1015A0001346DB0013449B000B441B78012B40F0D7
:1015B0003E81FA7BA74913469B0013449B000B44D2
:1015C00008331B689B6ABB60FA7BA24913469B00E9
:1015D00013449B000B4408331B68FA7BD96A9C4870
:1015E0001346DB0013449B00034408331960FA7B65
:1015F000984913469B0013449B000B440C331B6813
:10160000FC7B1946786802F08DFA02469049234621
:10161000DB0023449B000B4410331A60FA7B8C4997
:101620001346DB0013449B000B4410331968FA7B0C
:1016300087481346DB0013449B00034402331B8896
:101640001C46FA7B82481346DB0013449B0003448C
:1016500008331B68013304FB03F3FA7B19447C480D
:101660001346DB0013449B00034410331960FA7BDC
:1016700077491346DB0013449B000B441033196871
:10168000FA7B73481346DB0013449B0003440C337E
:101690001B68FA7BC91A6E481346DB0013449B0093
:1016A000034414331960FA7B69491346DB00134481
:1016B0009B000B4414331B681846FEF793FE62A38D
:1016C000D3E90023FEF708FF02460B4614461D46E9
:1016D000FA7B604913469B0013449B000B44103374
:1016E0001A68BB680133B2FBF3F31846FEF77AFEC3
:1016F00002460B4620462946FFF718F802460B46DD
:10170000FC7B10461946FFF7BFF9024650492346B5
:10171000DB0023449B000B4418331A60FA7B4C49CE
:101720001346DB0013449B000B4400221A70FA7B23
:10173000484913469B0013449B000B440C331B6821
:10174000002B08D17B681B681A6A7B681B6822F033
:101750000A021A622FE0FA7B3E4913469B001344AB
:101760009B000B440C331B68042B08D17B681B685F
:101770001B6A7A68126823F0A00313621BE0FA7BED
:10178000344913469B0013449B000B440C331B68E5
:10179000082B08D17B681B681B6A7A68126823F4DF
:1017A0000073136207E07B681B681B6A7A68126823
:1017B00023F400531362FA7B264913469B0013441B
:1017C0009B000B440C331B68002B06D17B681A6806
:1017D0007B681B68126A1A6229E0FA7B1D4913466E
:1017E0009B0013449B000B440C331B68042B06D155
:1017F0007B681B687A6812681B6A136217E0FA7BC1
:10180000144913469B0013449B000B440C331B6884
:10181000082B06D17B681B687A6812681B6A136202
:1018200005E07B681B687A6812681B6A1362FB7BA1
:101830000133FB73FB7B022B7FF6D1AD00BF00BFF2
:101840001037BD46B0BD00BF9CC420B07268913F48
:10185000F00100200075000880B483B000AF03469B
:10186000FB71FA7906491346DB0013449B000B44D5
:1018700018331B6818460C37BD4680BC704700BF44
:10188000F001002080B584B000AF0346FB71FA7907
:10189000234913469B0013449B000B441868FA79B4
:1018A0001F4913469B0013449B000B4404331B88C1
:1018B0000122194600F0ECFE1A4B9B68FB601A4BA4
:1018C0001B681A4AA2FB03239B0C5A00164B1B6889
:1018D0001649A1FB03139B0C5B08D31ABB60114B89
:1018E0009B68FA68D31ABA689A42F8D8FA790C4910
:1018F00013469B0013449B000B441868FA7908496F
:1019000013469B0013449B000B4404331B880022A6
:10191000194600F0BDFE00BF1037BD4680BD00BFB8
:101920000075000810E000E00000002083DE1B438B
:1019300080B588B000AF07F1100300221A605A602A
:101940009A60DA60284B9B69274A43F02003936131
:10195000254B9B6903F02003FB60FB68224B9B69CE
:10196000214A43F0040393611F4B9B6903F0040376
:10197000BB60BB681C4B9B691B4A43F00803936127
:10198000194B9B6903F008037B607B68002241F2DE
:101990003341164800F07CFE00224FF4C051144839
:1019A00000F076FE41F233433B6101237B6100236B
:1019B000BB610123FB6107F1100319460B4800F0DE
:1019C000E3FC4FF4C0533B6101237B610023BB6107
:1019D0000123FB6107F110031946054800F0D4FC10
:1019E00000BF2037BD4680BD00100240000C014002
:1019F00000080140B0B586B000AF00F031FB00F048
:101A000047F800F081F8FFF793FF00F08DFA1C4BC8
:101A10003C461D460FCD0FC42B68237007F1110300
:101A200000221A809A700023FB750020FFF714FF34
:101A300003461846FFF778F80346FB753B46184601
:101A4000FEF786FB03469AB239464FF0FF330D4846
:101A500002F037FDFB7D1A460B490C4803F0BCFB36
:101A60000A48FEF775FB03469AB24FF0FF33074969
:101A7000044802F026FD4FF4FA7000F053FBD4E75F
:101A800094740008B402002090740008A80200209A
:101A900080B590B000AF07F1180328220021184646
:101AA00003F0FDFB3B1D00221A605A609A60DA6069
:101AB0001A610123BB614FF48033FB6100237B6318
:101AC00007F11803184600F0FBFD0346002B01D078
:101AD00000F06EF80F237B600123BB600023FB60E6
:101AE0004FF480633B6100237B613B1D002118465E
:101AF00001F068F80346002B01D000F059F800BF50
:101B00004037BD4680BD000080B500AF0E490020C3
:101B1000FFF75AFA0C490120FFF756FA0A4902204A
:101B2000FFF752FA0020FFF71FF80120FFF71CF81B
:101B3000002201210020FFF7B7F900220021012037
:101B4000FFF7B2F900BF80BD5C02002080B582B013
:101B500000AF78607868FFF737FC00BF0837BD46F4
:101B600080BD80B582B000AF78607868FFF7F2FB87
:101B700000BF0837BD4680BD80B500AF0B4B1B884A
:101B800001339AB2094B1A80084B1B88092B0BD9D9
:101B90000020FFF777FE0120FFF774FE0220FFF719
:101BA00071FE024B00221A8000BF80BDA4020020FB
:101BB00080B400AF72B600BFFEE7000080B485B00D
:101BC00000AF154B9B69144A43F001039361124B1C
:101BD0009B6903F00103BB60BB680F4BDB690E4AD6
:101BE00043F08053D3610C4BDB6903F080537B607F
:101BF0007B680A4B5B68FB60FB6823F0E063FB607B
:101C0000FB6843F08063FB60044AFB68536000BFDD
:101C10001437BD4680BC70470010024000000140F0
:101C200080B400AFFEE780B400AFFEE780B400AF41
:101C3000FEE780B400AFFEE780B400AFFEE780B4FB
:101C400000AF00BFBD4680BC704780B400AF00BF8E
:101C5000BD4680BC704780B400AF00BFBD4680BCAD
:101C6000704780B500AF00F041FAFFF785FF00BF75
:101C700080BD000080B500AF024801F035FC00BF18
:101C800080BD00BF5C02002080B400AF0123184675
:101C9000BD4680BC704780B582B000AF78603960C7
:101CA00003F050FB034616221A604FF0FF3318462C
:101CB0000837BD4680BD80B582B000AF78604FF078
:101CC000FF317868FFF7E7FFFEE780B586B000AF29
:101CD000F860B9607A6000237B610AE0AFF30080AE
:101CE0000146BB685A1CBA60CAB21A707B690133DC
:101CF0007B617A697B689A42F0DB7B68184618370B
:101D0000BD4680BD80B586B000AFF860B9607A602E
:101D100000237B6109E0BB685A1CBA601B78184637
:101D2000AFF300807B6901337B617A697B689A42FB
:101D3000F1DB7B6818461837BD4680BD80B483B0A0
:101D400000AF78604FF0FF3318460C37BD4680BCBB
:101D5000704780B483B000AF786039603B684FF45F
:101D600000525A60002318460C37BD4680BC7047AD
:101D700080B483B000AF7860012318460C37BD46AD
:101D800080BC704780B485B000AFF860B9607A60FD
:101D9000002318461437BD4680BC704780B586B016
:101DA00000AF7860144A154BD31A7B617B693B61A5
:101DB000134B1B68002B02D1114B124A1A60104BB7
:101DC0001A687B6813443A699A4207D203F0BAFA58
:101DD00003460C221A604FF0FF3309E0084B1B68E2
:101DE000FB60074B1A687B681344054A1360FB6865
:101DF00018461837BD4680BD005000200004000082
:101E0000B00200204804002080B400AF00BFBD46EF
:101E100080BC704780B58AB000AF786007F11803C6
:101E200000221A605A609A60DA607B681B68B3F11E
:101E3000804F0CD1214BDB69204A43F00103D36171
:101E40001E4BDB6903F001037B617B6931E07B683A
:101E50001B681B4A93422CD1184BDB69174A43F08D
:101E60000403D361154BDB6903F004033B613B6959
:101E7000124B9B69114A43F0080393610F4B9B6916
:101E800003F00803FB60FB684FF4E073BB610023C1
:101E9000FB6100233B6207F118031946094800F073
:101EA00073FA002200211E2000F037FA1E2000F0F5
:101EB00050FA00BF2837BD4680BD00BF0010024069
:101EC00000080040000C014080B588B000AF786089
:101ED00007F1100300221A605A609A60DA607B688A
:101EE0001B68B3F1804F17D10D4B9B690C4A43F02F
:101EF000040393610A4B9B6903F00403FB60FB68D6
:101F000006233B6102237B610223FB6107F110037F
:101F10001946044800F038FA00BF2037BD4680BD9E
:101F2000001002400008014080B500AF114B124A7A
:101F30001A60104B4FF416525A600E4B00229A60F2
:101F40000C4B0022DA600B4B00221A61094B0C2269
:101F50005A61084B00229A61064B0022DA6105485B
:101F600002F062FA0346002B01D0FFF721FE00BF0A
:101F700080BD00BFB40200200038014080B588B0A9
:101F800000AF786007F1100300221A605A609A606F
:101F9000DA607B681B681C4A934231D11B4B9B69FA
:101FA0001A4A43F480439361184B9B6903F48043BE
:101FB000FB60FB68154B9B69144A43F00403936173
:101FC000124B9B6903F00403BB60BB684FF40073C2
:101FD0003B6102237B610323FB6107F11003194678
:101FE0000B4800F0D1F94FF480633B6100237B6123
:101FF0000023BB6107F110031946054800F0C4F93E
:1020000000BF2037BD4680BD0038014000100240AF
:10201000000801400C480D490D4A002302E0D45845
:10202000C4500433C4188C42F9D30A4A0A4C002322
:1020300001E013600432A242FBD3FFF7E5FE03F098
:1020400087F9FFF7D7FC704700000020D40100207B
:10205000CC780008D401002048040020FEE70000EE
:1020600080B500AF084B1B68074A43F010031360AC
:10207000032000F047F90F2000F008F8FFF79EFD5D
:102080000023184680BD00BF0020024080B582B00A
:1020900000AF7860124B1A68124B1B7819464FF448
:1020A0007A73B3FBF1F3B2FBF3F3184600F05FF978
:1020B0000346002B01D001230EE07B680F2B0AD8CA
:1020C000002279684FF0FF3000F027F9064A7B685C
:1020D0001360002300E0012318460837BD4680BD89
:1020E00000000020080000200400002080B400AFA1
:1020F000054B1B781A46054B1B681344034A1360B3
:1021000000BFBD4680BC704708000020F8020020D8
:1021100080B400AF024B1B681846BD4680BC7047B8
:10212000F802002080B584B000AF7860FFF7F0FFC0
:10213000B8607B68FB60FB68B3F1FF3F05D00A4BDA
:102140001B781A46FB681344FB6000BFFFF7E0FFF3
:102150000246BB68D31AFA689A42F7D800BF00BF9C
:102160001037BD4680BD00BF0800002080B485B098
:1021700000AF78607B6803F00703FB600C4BDB6803
:10218000BB60BA684FF6FF031340BB60FB681A02DE
:10219000BB68134343F0BF6343F40033BB60044A9E
:1021A000BB68D36000BF1437BD4680BC704700BF1A
:1021B00000ED00E080B400AF044BDB681B0A03F0C5
:1021C00007031846BD4680BC704700BF00ED00E025
:1021D00080B483B000AF0346FB7197F90730002B42
:1021E0000BDBFB7903F01F02064997F907305B0907
:1021F000012000FA02F241F8232000BF0C37BD464F
:1022000080BC704700E100E080B483B000AF0346BB
:102210003960FB7197F90730002B0ADB3B68DAB2B3
:102220000C4997F907301201D2B20B4483F800230E
:102230000AE03B68DAB20849FB7903F00F03043B7C
:102240001201D2B20B441A7600BF0C37BD4680BCD7
:10225000704700BF00E100E000ED00E080B489B00D
:1022600000AFF860B9607A60FB6803F00703FB61B8
:10227000FB69C3F10703042B28BF0423BB61FB697F
:102280000433062B02D9FB69033B00E000237B618A
:102290004FF0FF32BB6902FA03F3DA43BB681A401E
:1022A0007B699A404FF0FF317B6901FA03F3D94310
:1022B0007B680B40134318462437BD4680BC7047EB
:1022C00080B582B000AF78607B68013BB3F1807F5E
:1022D00001D301230FE00A4A7B68013B53600F21C1
:1022E0004FF0FF30FFF790FF054B00229A60044B40
:1022F00007221A60002318460837BD4680BD00BF7C
:1023000010E000E080B582B000AF78607868FFF739
:102310002DFF00BF0837BD4680BD80B586B000AF39
:102320000346B9607A60FB7300237B61FFF742FFCD
:1023300078617A68B9687869FFF790FF024697F983
:102340000F3011461846FFF75FFF00BF1837BD4634
:1023500080BD80B582B000AF0346FB7197F90730AE
:102360001846FFF735FF00BF0837BD4680BD80B572
:1023700082B000AF78607868FFF7A2FF0346184686
:102380000837BD4680BD000080B48BB000AF7860D8
:10239000396000237B6200233B6269E101227B6A92
:1023A00002FA03F3FB613B681B68FA691340BB61E7
:1023B000BA69FB699A4240F058813B685B689A4A67
:1023C00093425ED0984A934275D8984A934258D027
:1023D000964A93426FD8964A934252D0944A934277
:1023E00069D8944A93424CD0924A934263D8924A15
:1023F000934246D0904A93425DD8122B2AD8122B92
:1024000059D801A252F823F0832400085D24000863
:102410006F240008B1240008B7240008B72400087E
:10242000B7240008B7240008B7240008B724000820
:10243000B7240008B7240008B7240008B724000810
:10244000B7240008B7240008B72400086524000852
:1024500079240008794A934213D02CE03B68DB686A
:102460003B6229E03B68DB6804333B6224E03B6865
:10247000DB6808333B621FE03B68DB680C333B6280
:102480001AE03B689B68002B02D104233B6213E0F7
:102490003B689B68012B05D108233B627B68FA6986
:1024A0001A6109E008233B627B68FA695A6103E01C
:1024B00000233B6200E000BFBB69FF2B01D87B68B3
:1024C00001E07B6804337B61BB69FF2B02D87B6A28
:1024D0009B0002E07B6A083B9B003B617B691A68BA
:1024E0000F213B6901FA03F3DB431A40396A3B6968
:1024F00001FA03F31A437B691A603B685B6803F0D7
:102500008053002B00F0B1804D4B9B694C4A43F047
:10251000010393614A4B9B6903F00103BB60BB68F5
:10252000484A7B6A9B08023352F82330FB607B6A7F
:1025300003F003039B000F2202FA03F3DB43FA6864
:102540001340FB607B68404A934213D07B683F4A4C
:1025500093420DD07B683E4A934207D07B683D4A48
:10256000934201D1032306E0042304E0022302E0A6
:10257000012300E000237A6A02F0030292009340F4
:10258000FA681343FB602F497B6A9B080233FA68A1
:1025900041F823203B685B6803F48033002B06D0AE
:1025A0002D4B1A682C49BB6913430B6006E02A4B7C
:1025B0001A68BB69DB43284913400B603B685B68C2
:1025C00003F40033002B06D0234B5A682249BB6921
:1025D00013434B6006E0204B5A68BB69DB431E493E
:1025E00013404B603B685B6803F48013002B06D0FC
:1025F000194B9A681849BB6913438B6006E0164B68
:102600009A68BB69DB43144913408B603B685B6885
:1026100003F40013002B21D00F4BDA680E49BB697D
:102620001343CB6021E000BF0000321000003110E6
:1026300000002210000021100000121000001110F4
:10264000001002400000014000080140000C014061
:102650000010014000140140000401400B4BDA68F7
:10266000BB69DB4309491340CB607B6A01337B6262
:102670003B681A687B6A22FA03F3002B7FF48EAE64
:1026800000BF00BF2C37BD4680BC7047000401402E
:1026900080B483B000AF78600B467B8013467B70BC
:1026A0007B78002B03D07A887B681A6103E07B88F3
:1026B0001A047B681A6100BF0C37BD4680BC7047A6
:1026C00080B586B000AF78607B68002B01D1012314
:1026D00072E27B681B6803F00103002B00F0878027
:1026E000924B5B6803F00C03042B0CD08F4B5B68A0
:1026F00003F00C03082B12D18C4B5B6803F480337E
:10270000B3F5803F0BD1894B1B6803F40033002BDA
:102710006CD07B685B68002B68D101234CE27B683E
:102720005B68B3F5803F06D1804B1B687F4A43F45A
:10273000803313602EE07B685B68002B0CD17B4BF1
:102740001B687A4A23F480331360784B1B68774AFE
:1027500023F4802313601DE07B685B68B3F5A02F32
:102760000CD1724B1B68714A43F4802313606F4B8A
:102770001B686E4A43F4803313600BE06B4B1B689D
:102780006A4A23F480331360684B1B68674A23F45A
:10279000802313607B685B68002B13D0FFF7B8FCC5
:1027A000386108E0FFF7B4FC02463B69D31A642B9A
:1027B00001D9032300E25D4B1B6803F40033002BB7
:1027C000F0D014E0FFF7A4FC386108E0FFF7A0FCAC
:1027D00002463B69D31A642B01D90323ECE1534B26
:1027E0001B6803F40033002BF0D100E000BF7B68CE
:1027F0001B6803F00203002B63D04C4B5B6803F0B3
:102800000C03002B0BD0494B5B6803F00C03082B27
:102810001CD1464B5B6803F48033002B16D1434B2D
:102820001B6803F00203002B05D07B681B69012B9A
:1028300001D00123C0E13D4B1B6823F0F8027B6807
:102840005B69DB00394913430B603AE07B681B6925
:10285000002B20D0364B01221A60FFF759FC38615B
:1028600008E0FFF755FC02463B69D31A022B01D959
:102870000323A1E12D4B1B6803F00203002BF0D0D2
:102880002A4B1B6823F0F8027B685B69DB00274951
:1028900013430B6015E0264B00221A60FFF738FC4B
:1028A000386108E0FFF734FC02463B69D31A022B7B
:1028B00001D9032380E11D4B1B6803F00203002BA9
:1028C000F0D17B681B6803F00803002B3AD07B68CB
:1028D0009B69002B19D0174B01221A60FFF718FCD7
:1028E000386108E0FFF714FC02463B69D31A022B5B
:1028F00001D9032360E10D4B5B6A03F00203002B57
:10290000F0D0012000F0D8FA1CE00A4B00221A6037
:10291000FFF7FEFB38610FE0FFF7FAFB02463B6969
:10292000D31A022B08D9032346E100BF001002404E
:102930000000424280044242924B5B6A03F0020371
:10294000002BE9D17B681B6803F00403002B00F027
:10295000A6800023FB758B4BDB6903F08053002BB3
:102960000DD1884BDB69874A43F08053D361854B97
:10297000DB6903F08053BB60BB680123FB75824BAE
:102980001B6803F48073002B18D17F4B1B687E4AB1
:1029900043F480731360FFF7BBFB386108E0FFF777
:1029A000B7FB02463B69D31A642B01D9032303E129
:1029B000754B1B6803F48073002BF0D07B68DB68D9
:1029C000012B06D16F4B1B6A6E4A43F00103136261
:1029D0002DE07B68DB68002B0CD16A4B1B6A694ACF
:1029E00023F001031362674B1B6A664A23F004035A
:1029F00013621CE07B68DB68052B0CD1614B1B6A02
:102A0000604A43F0040313625E4B1B6A5D4A43F065
:102A1000010313620BE05B4B1B6A5A4A23F001036C
:102A20001362584B1B6A574A23F0040313627B68F6
:102A3000DB68002B15D0FFF76BFB38610AE0FFF76E
:102A400067FB02463B69D31A41F28832934201D9AF
:102A50000323B1E04B4B1B6A03F00203002BEED0C3
:102A600014E0FFF755FB38610AE0FFF751FB02461F
:102A70003B69D31A41F28832934201D903239BE088
:102A8000404B1B6A03F00203002BEED1FB7D012BB0
:102A900005D13C4BDB693B4A23F08053D3617B6813
:102AA000DB69002B00F08780364B5B6803F00C037A
:102AB000082B61D07B68DB69022B46D1334B0022A7
:102AC0001A60FFF725FB386108E0FFF721FB02469B
:102AD0003B69D31A022B01D903236DE0294B1B68F4
:102AE00003F00073002BF0D17B681B6AB3F5803FC5
:102AF00008D1244B5B6823F400327B689B68214932
:102B000013434B601F4B5B6823F474127B68196A94
:102B10007B685B6A0B431B4913434B601B4B0122D1
:102B20001A60FFF7F5FA386108E0FFF7F1FA02469C
:102B30003B69D31A022B01D903233DE0114B1B68DB
:102B400003F00073002BF0D035E0104B00221A6028
:102B5000FFF7DEFA386108E0FFF7DAFA02463B6970
:102B6000D31A022B01D9032326E0064B1B6803F07E
:102B70000073002BF0D11EE07B68DB69012B07D1CD
:102B8000012319E000100240007000406000424242
:102B90000B4B5B68FB60FB6803F480327B681B6A4D
:102BA0009A4206D1FB6803F470127B685B6A9A4212
:102BB00001D0012300E0002318461837BD4680BD30
:102BC0000010024080B584B000AF786039607B6847
:102BD000002B01D10123D0E06A4B1B6803F00703EF
:102BE0003A689A4210D9674B1B6823F0070265497F
:102BF0003B6813430B60634B1B6803F007033A68A1
:102C00009A4201D00123B8E07B681B6803F00203FD
:102C1000002B20D07B681B6803F00403002B05D039
:102C2000594B5B68584A43F4E06353607B681B6808
:102C300003F00803002B05D0534B5B68524A43F462
:102C400060535360504B5B6823F0F0027B689B68D5
:102C50004D4913434B607B681B6803F00103002B55
:102C600040D07B685B68012B07D1474B1B6803F49E
:102C70000033002B15D101237FE07B685B68022BBA
:102C800007D1414B1B6803F00073002B09D10123CE
:102C900073E03D4B1B6803F00203002B01D10123BD
:102CA0006BE0394B5B6823F003027B685B68364955
:102CB00013434B60FFF72CFAF8600AE0FFF728FA9D
:102CC0000246FB68D31A41F28832934201D90323AA
:102CD00053E02D4B5B6803F00C027B685B689B0044
:102CE0009A42EBD1274B1B6803F007033A689A42DC
:102CF00010D2244B1B6823F0070222493B68134380
:102D00000B60204B1B6803F007033A689A4201D01E
:102D1000012332E07B681B6803F00403002B08D01A
:102D2000194B5B6823F4E0627B68DB681649134348
:102D30004B607B681B6803F00803002B09D0124B23
:102D40005B6823F460527B681B69DB000E49134308
:102D50004B6000F021F802460B4B5B681B0903F047
:102D60000F030A49CB5C22FA03F3094A1360094BAB
:102D70001B681846FFF78AF9002318461037BD462E
:102D800080BD00BF00200240001002403C750008DA
:102D9000000000200400002090B48AB000AF294B4E
:102DA0003C1D0FCB84E80F0040F201233B80002341
:102DB000FB610023BB6100237B6200237B61002356
:102DC0003B62214B5B68FB61FB6903F00C03042B46
:102DD00002D0082B03D02BE01C4B3B622BE0FB699D
:102DE0009B0C03F00F0328333B4413F8243C7B6116
:102DF000FB6903F48033002B12D0134B5B685B0C30
:102E000003F0010328333B4413F8283CBB617B6982
:102E10000E4A03FB02F2BB69B2FBF3F37B6204E0F0
:102E20007B690B4A02FB03F37B627B6A3B6202E035
:102E3000064B3B6200BF3B6A18462837BD4690BC34
:102E4000704700BFB07400080010024000127A0002
:102E500000093D0080B400AF024B1B681846BD4618
:102E600080BC70470000002080B500AFFFF7F2FF84
:102E70000246054B5B681B0A03F007030349CB5C62
:102E800022FA03F3184680BD001002404C7500087A
:102E900080B500AFFFF7DEFF0246054B5B68DB0A3B
:102EA00003F007030349CB5C22FA03F3184680BD05
:102EB000001002404C75000880B485B000AF786007
:102EC0000A4B1B680A4AA2FB03235B0A7A6802FBCF
:102ED00003F3FB6000BFFB685A1EFA60002BF9D1B8
:102EE00000BF00BF1437BD4680BC70470000002003
:102EF000D34D621080B582B000AF78607B68002B44
:102F000001D1012341E07B6893F83D30DBB2002B17
:102F100006D17B68002283F83C207868FEF77AFFB0
:102F20007B68022283F83D207B681A687B68043343
:102F30001946104600F056FE7B68012283F84620B1
:102F40007B68012283F83E207B68012283F83F20C2
:102F50007B68012283F840207B68012283F84120AE
:102F60007B68012283F842207B68012283F843209A
:102F70007B68012283F844207B68012283F8452086
:102F80007B68012283F83D20002318460837BD46A0
:102F900080BD000080B485B000AF78607B6893F896
:102FA0003D30DBB2012B01D001233AE07B680222E5
:102FB00083F83D207B681B68DA687B681B6842F0F9
:102FC0000102DA607B681B68184A93420ED07B6866
:102FD0001B68B3F1804F09D07B681B68144A934289
:102FE00004D07B681B68134A934211D17B681B682D
:102FF0009B6803F00703FB60FB68062B10D07B681F
:103000001B681A687B681B6842F001021A6007E0BF
:103010007B681B681A687B681B6842F001021A60B3
:10302000002318461437BD4680BC7047002C014071
:10303000000400400008004080B582B000AF786016
:103040007B68002B01D1012341E07B6893F83D3080
:10305000DBB2002B06D17B68002283F83C20786825
:1030600000F039F87B68022283F83D207B681A68FB
:103070007B6804331946104600F0B4FD7B680122DA
:1030800083F846207B68012283F83E207B6801227A
:1030900083F83F207B68012283F840207B6801226F
:1030A00083F841207B68012283F842207B6801225B
:1030B00083F843207B68012283F844207B68012247
:1030C00083F845207B68012283F83D2000231846C1
:1030D0000837BD4680BD80B483B000AF786000BFC4
:1030E0000C37BD4680BC704780B584B000AF7860B7
:1030F00039603B68002B09D17B6893F83E30DBB226
:10310000012B14BF01230023DBB222E03B68042B18
:1031100009D17B6893F83F30DBB2012B14BF012348
:103120000023DBB215E03B68082B09D17B6893F8DC
:103130004030DBB2012B14BF01230023DBB208E0D7
:103140007B6893F84130DBB2012B14BF01230023CD
:10315000DBB2002B01D001235EE03B68002B04D1E1
:103160007B68022283F83E2013E03B68042B04D1E5
:103170007B68022283F83F200BE03B68082B04D1D8
:103180007B68022283F8402003E07B68022283F8F8
:1031900041207B681B6801223968184601F0AFF8AE
:1031A0007B681B681E4A934207D17B681B685A6C78
:1031B0007B681B6842F400425A647B681B68184AAB
:1031C00093420ED07B681B68B3F1804F09D07B68B7
:1031D0001B68144A934204D07B681B68124A9342CE
:1031E00011D17B681B689B6803F00703FB60FB68D9
:1031F000062B10D07B681B681A687B681B6842F03E
:1032000001021A6007E07B681B681A687B681B680C
:1032100042F001021A60002318461037BD4680BDF7
:10322000002C0140000400400008004080B582B03E
:1032300000AF78607B68002B01D1012341E07B68FF
:1032400093F83D30DBB2002B06D17B68002283F877
:103250003C20786800F039F87B68022283F83D2032
:103260007B681A687B6804331946104600F0BAFC84
:103270007B68012283F846207B68012283F83E2088
:103280007B68012283F83F207B68012283F840207D
:103290007B68012283F841207B68012283F8422069
:1032A0007B68012283F843207B68012283F8442055
:1032B0007B68012283F845207B68012283F83D204A
:1032C000002318460837BD4680BD80B483B000AFE8
:1032D000786000BF0C37BD4680BC704780B584B0B5
:1032E00000AF786039603B68002B04D17B6893F8AD
:1032F0003E30DBB213E03B68042B04D17B6893F8CB
:103300003F30DBB20BE03B68082B04D17B6893F8BD
:103310004030DBB203E07B6893F84130DBB2FB73F3
:103320003B68002B04D17B6893F84230DBB213E09A
:103330003B68042B04D17B6893F84330DBB20BE08D
:103340003B68082B04D17B6893F84430DBB203E080
:103350007B6893F84530DBB2BB73FB7B012B02D15A
:10336000BB7B012B01D00123B3E03B68002B04D1D0
:103370007B68022283F83E2013E03B68042B04D1D3
:103380007B68022283F83F200BE03B68082B04D1C6
:103390007B68022283F8402003E07B68022283F8E6
:1033A00041203B68002B04D17B68022283F8422035
:1033B00013E03B68042B04D17B68022283F843208E
:1033C0000BE03B68082B04D17B68022283F8442081
:1033D00003E07B68022283F845203B680C2B41D830
:1033E00001A252F823F000BF1D3400086534000824
:1033F00065340008653400082F340008653400087F
:10340000653400086534000841340008653400085C
:103410006534000865340008533400087B681B6875
:10342000DA687B681B6842F00202DA601BE07B68A6
:103430001B68DA687B681B6842F00402DA6012E0FD
:103440007B681B68DA687B681B6842F00802DA60F8
:1034500009E07B681B68DA687B681B6842F0100231
:10346000DA6000E000BF7B681B68012239681846FB
:1034700000F045FF7B681B68184A93420ED07B68BA
:103480001B68B3F1804F09D07B681B68144A9342D4
:1034900004D07B681B68134A934211D17B681B6878
:1034A0009B6803F00703BB60BB68062B10D07B68EA
:1034B0001B681A687B681B6842F001021A6007E00B
:1034C0007B681B681A687B681B6842F001021A60FF
:1034D000002318461037BD4680BD00BF002C0140B8
:1034E000000400400008004080B582B000AF786062
:1034F0007B681B681B6903F00203022B22D17B68E7
:103500001B68DB6803F00203022B1BD17B681B687E
:103510006FF002021A617B6801221A777B681B68D0
:103520009B6903F00303002B03D07868FEF70EFBC2
:1035300005E0786800F03AFB786800F040FB7B68B3
:1035400000221A777B681B681B6903F00403042BB5
:1035500022D17B681B68DB6803F00403042B1BD1BA
:103560007B681B686FF004021A617B6802221A777D
:103570007B681B689B6903F44073002B03D0786859
:10358000FEF7E4FA05E0786800F010FB786800F0D8
:1035900016FB7B6800221A777B681B681B6903F0A7
:1035A0000803082B22D17B681B68DB6803F0080343
:1035B000082B1BD17B681B686FF008021A617B68BF
:1035C00004221A777B681B68DB6903F00303002B76
:1035D00003D07868FEF7BAFA05E0786800F0E6FAFA
:1035E000786800F0ECFA7B6800221A777B681B6829
:1035F0001B6903F01003102B22D17B681B68DB686A
:1036000003F01003102B1BD17B681B686FF01002B6
:103610001A617B6808221A777B681B68DB6903F4F0
:103620004073002B03D07868FEF790FA05E07868C5
:1036300000F0BCFA786800F0C2FA7B6800221A77C2
:103640007B681B681B6903F00103012B0ED17B68AB
:103650001B68DB6803F00103012B07D17B681B6843
:103660006FF001021A617868FEF77BFA7B681B68CD
:103670001B6903F08003802B0ED17B681B68DB681D
:1036800003F08003802B07D17B681B686FF08002FA
:103690001A61786800F0BFFE7B681B681B6903F045
:1036A0004003402B0ED17B681B68DB6803F04003AE
:1036B000402B07D17B681B686FF040021A61786865
:1036C00000F086FA7B681B681B6903F02003202B3F
:1036D0000ED17B681B68DB6803F02003202B07D129
:1036E0007B681B686FF020021A61786800F08AFE20
:1036F00000BF0837BD4680BD80B584B000AFF8601C
:10370000B9607A60FB6893F83C30012B01D1022349
:1037100082E0FB68012283F83C207B68002B1BD1F0
:10372000FB681868BB681968BB685A68BB68DB68C7
:1037300000F042FCFB681B689A69FB681B6822F07A
:103740000C029A61FB681B689969BB689A68FB6800
:103750001B680A439A615AE07B68042B1CD1FB6802
:103760001868BB681968BB685A68BB68DB6800F0FA
:10377000ABFCFB681B689A69FB681B6822F440621B
:103780009A61FB681B689969BB689B681A02FB68B1
:103790001B680A439A613AE07B68082B1BD1FB68DF
:1037A0001868BB681968BB685A68BB68DB6800F0BA
:1037B000F6FCFB681B68DA69FB681B6822F00C02E8
:1037C000DA61FB681B68D969BB689A68FB681B688B
:1037D0000A43DA611BE0FB681868BB681968BB68BC
:1037E0005A68BB68DB6800F015FDFB681B68DA6986
:1037F000FB681B6822F44062DA61FB681B68D969C8
:10380000BB689B681A02FB681B680A43DA61FB68A5
:10381000002283F83C20002318461037BD4680BDA7
:1038200080B584B000AFF860B9607A60FB6893F847
:103830003C30012B01D10223ACE0FB68012283F86C
:103840003C207B680C2B00F29F8001A252F823F0F1
:103850008538000889390008893900088939000845
:10386000C5380008893900088939000889390008F5
:1038700007390008893900088939000889390008A2
:1038800047390008FB681B68B968184600F00CFA55
:10389000FB681B689A69FB681B6842F008029A6122
:1038A000FB681B689A69FB681B6822F004029A6136
:1038B000FB681B689969BB681A69FB681B680A4347
:1038C0009A6162E0FB681B68B968184600F052FA1A
:1038D000FB681B689A69FB681B6842F400629A6186
:1038E000FB681B689A69FB681B6822F480629A6116
:1038F000FB681B689969BB681B691A02FB681B6837
:103900000A439A6141E0FB681B68B968184600F0F9
:103910009BFAFB681B68DA69FB681B6842F00802C7
:10392000DA61FB681B68DA69FB681B6822F0040235
:10393000DA61FB681B68D969BB681A69FB681B6898
:103940000A43DA6121E0FB681B68B968184600F099
:10395000E5FAFB681B68DA69FB681B6842F40062E1
:10396000DA61FB681B68DA69FB681B6822F4806215
:10397000DA61FB681B68D969BB681B691A02FB68BE
:103980001B680A43DA6100E000BFFB68002283F88D
:103990003C20002318461037BD4680BD80B584B05A
:1039A00000AF786039607B6893F83C30012B01D11F
:1039B0000223B3E07B68012283F83C207B6802226B
:1039C00083F83D207B681B689B68FB60FB6823F0E5
:1039D0007703FB60FB6823F47F43FB607B681B6815
:1039E000FA689A603B681B68B3F5005F3ED0B3F598
:1039F000005F00F28780B3F5805F00F08580B3F54B
:103A0000805F7FD8702B1AD0702B7BD8602B50D062
:103A1000602B77D8502B3CD0502B73D8402B58D0EC
:103A2000402B6FD8302B64D0302B6BD8202B60D03C
:103A3000202B67D8002B5CD0102B5AD062E07B681B
:103A400018683B6899683B685A683B68DB6800F017
:103A500037FC7B681B689B68FB60FB6843F077035F
:103A6000FB607B681B68FA689A604EE07B681868A8
:103A70003B6899683B685A683B68DB6800F020FC4B
:103A80007B681B689A687B681B6842F480429A6076
:103A90003BE07B6818683B6859683B68DB681A46FE
:103AA00000F0E4FA7B681B685021184600F0EEFB3A
:103AB0002BE07B6818683B6859683B68DB681A46EE
:103AC00000F03EFB7B681B686021184600F0DEFBBF
:103AD0001BE07B6818683B6859683B68DB681A46DE
:103AE00000F0C4FA7B681B684021184600F0CEFB4A
:103AF0000BE07B681A683B681B681946104600F0AB
:103B0000C5FB02E000BF00E000BF7B68012283F834
:103B10003D207B68002283F83C20002318461037A4
:103B2000BD4680BD80B485B000AF786039600023A9
:103B3000FB603B680C2B31D801A252F823F000BF88
:103B4000753B00089D3B00089D3B00089D3B00081D
:103B50007F3B00089D3B00089D3B00089D3B000803
:103B6000893B00089D3B00089D3B00089D3B0008E9
:103B7000933B00087B681B685B6BFB600FE07B6816
:103B80001B689B6BFB600AE07B681B68DB6BFB6060
:103B900005E07B681B681B6CFB6000E000BFFB68F6
:103BA00018461437BD4680BC704700BF80B483B050
:103BB00000AF786000BF0C37BD4680BC704780B452
:103BC00083B000AF786000BF0C37BD4680BC704743
:103BD00080B483B000AF786000BF0C37BD4680BCB6
:103BE0007047000080B485B000AF786039607B68B2
:103BF0001B68FB607B68294A93420BD07B68B3F15A
:103C0000804F07D07B68264A934203D07B68254AC1
:103C1000934208D1FB6823F07003FB603B685B684C
:103C2000FA681343FB607B681C4A93420BD07B68A5
:103C3000B3F1804F07D07B68194A934203D07B6869
:103C4000184A934208D1FB6823F44073FB603B6839
:103C5000DB68FA681343FB60FB6823F080023B6873
:103C60005B691343FB607B68FA681A603B689A687B
:103C70007B68DA623B681A687B689A627B68074AED
:103C8000934203D13B681A697B681A637B680122FF
:103C90005A6100BF1437BD4680BC7047002C0140FC
:103CA000000400400008004080B487B000AF786096
:103CB00039607B681B6A23F001027B681A627B68AB
:103CC0001B6A7B617B685B683B617B689B69FB600F
:103CD000FB6823F07003FB60FB6823F00303FB60C9
:103CE0003B681B68FA681343FB607B6923F002039F
:103CF0007B613B689B687A6913437B617B681C4AE4
:103D000093420CD17B6923F008037B613B68DB683D
:103D10007A6913437B617B6923F004037B617B68D1
:103D2000134A934211D13B6923F480733B613B6991
:103D300023F400733B613B685B693A6913433B6161
:103D40003B689B693A6913433B617B683A695A60F7
:103D50007B68FA689A613B685A687B685A637B683B
:103D60007A691A6200BF1C37BD4680BC704700BF2D
:103D7000002C014080B487B000AF786039607B6868
:103D80001B6A23F010027B681A627B681B6A7B61E6
:103D90007B685B683B617B689B69FB60FB6823F425
:103DA000E043FB60FB6823F44073FB603B681B68E7
:103DB0001B02FA681343FB607B6923F020037B61DD
:103DC0003B689B681B017A6913437B617B681D4AD2
:103DD00093420DD17B6923F080037B613B68DB68F4
:103DE0001B017A6913437B617B6923F040037B618C
:103DF0007B68144A934213D13B6923F480633B618F
:103E00003B6923F400633B613B685B699B003A6953
:103E100013433B613B689B699B003A6913433B61D9
:103E20007B683A695A607B68FA689A613B685A68AD
:103E30007B689A637B687A691A6200BF1C37BD464B
:103E400080BC7047002C014080B487B000AF786020
:103E500039607B681B6A23F480727B681A627B6816
:103E60001B6A7B617B685B683B617B68DB69FB602D
:103E7000FB6823F07003FB60FB6823F00303FB6027
:103E80003B681B68FA681343FB607B6923F400738B
:103E90007B613B689B681B027A6913437B617B688B
:103EA0001D4A93420DD17B6923F400637B613B681B
:103EB000DB681B027A6913437B617B6923F48063AF
:103EC0007B617B68144A934213D13B6923F480538E
:103ED0003B613B6923F400533B613B685B691B0119
:103EE0003A6913433B613B689B691B013A69134381
:103EF0003B617B683A695A607B68FA68DA613B68C3
:103F00005A687B68DA637B687A691A6200BF1C377B
:103F1000BD4680BC704700BF002C014080B487B014
:103F200000AF786039607B681B6A23F480527B683D
:103F30001A627B681B6A3B617B685B687B617B689C
:103F4000DB69FB60FB6823F4E043FB60FB6823F460
:103F50004073FB603B681B681B02FA681343FB60FD
:103F60003B6923F400533B613B689B681B033A6940
:103F700013433B617B680F4A934209D17B6923F469
:103F800080437B613B685B699B017A6913437B617A
:103F90007B687A695A607B68FA68DA613B685A68BC
:103FA0007B681A647B683A691A6200BF1C37BD4699
:103FB00080BC7047002C014080B487B000AFF8602F
:103FC000B9607A603B60FB681B6A23F00102FB6802
:103FD0001A62FB689B697B61FB681B6A3B61FB683B
:103FE0001F4A93420BD0FB68B3F1804F07D0FB68A8
:103FF0001C4A934203D0FB681B4A934201D1012320
:1040000000E00023002B08D07B6923F003037B61D1
:104010007A697B6813437B6103E07B6943F00103AA
:104020007B617B6923F0F0037B613B681B01DBB2A2
:104030007A6913437B613B6923F00A033B61BB68E8
:1040400003F00A033A6913433B61FB687A699A619A
:10405000FB683A691A6200BF1C37BD4680BC7047D6
:10406000002C0140000400400008004080B487B0EC
:1040700000AFF860B9607A60FB681B6A7B61FB681F
:104080001B6A23F00102FB681A62FB689B693B61B3
:104090003B6923F0F0033B617B681B013A691343E2
:1040A0003B617B6923F00A037B617A69BB68134338
:1040B0007B61FB683A699A61FB687A691A6200BFA2
:1040C0001C37BD4680BC704780B487B000AFF86035
:1040D000B9607A603B60FB681B6A23F01002FB68E2
:1040E0001A62FB689B697B61FB681B6A3B617B69A9
:1040F00023F440737B617B681B027A6913437B6105
:104100007B6923F470437B613B681B039BB27A6934
:1041100013437B613B6923F0A0033B61BB681B0138
:1041200003F0A0033A6913433B61FB687A699A6123
:10413000FB683A691A6200BF1C37BD4680BC7047F5
:1041400080B487B000AFF860B9607A60FB681B6A22
:1041500023F01002FB681A62FB689B697B61FB68B5
:104160001B6A3B617B6923F470437B617B681B03A3
:104170007A6913437B613B6923F0A0033B61BB6811
:104180001B013A6913433B61FB687A699A61FB68DA
:104190003A691A6200BF1C37BD4680BC704780B4C4
:1041A00087B000AFF860B9607A603B60FB681B6A5B
:1041B00023F48072FB681A62FB68DB697B61FB6831
:1041C0001B6A3B617B6923F003037B617A697B682F
:1041D00013437B617B6923F0F0037B613B681B0128
:1041E000DBB27A6913437B613B6923F400733B6163
:1041F000BB681B0203F400733A6913433B61FB681D
:104200007A69DA61FB683A691A6200BF1C37BD46F9
:1042100080BC704780B487B000AFF860B9607A6046
:104220003B60FB681B6A23F48052FB681A62FB68E0
:10423000DB697B61FB681B6A3B617B6923F440732C
:104240007B617B681B027A6913437B617B6923F482
:1042500070437B613B681B039BB27A6913437B61AC
:104260003B6923F400533B61BB681B0303F4005319
:104270003A6913433B61FB687A69DA61FB683A6922
:104280001A6200BF1C37BD4680BC704780B485B041
:1042900000AF786039607B689B68FB60FB6823F047
:1042A0007003FB603A68FB68134343F00703FB604D
:1042B0007B68FA689A6000BF1437BD4680BC7047BF
:1042C00080B487B000AFF860B9607A603B60FB688B
:1042D0009B687B617B6923F47F437B613B681A02A7
:1042E0007B681A43BB6813437A6913437B61FB689D
:1042F0007A699A6000BF1C37BD4680BC704780B4A5
:1043000087B000AFF860B9607A60BB6803F01F0344
:10431000012202FA03F37B61FB681A6A7B69DB43C3
:104320001A40FB681A62FB681A6ABB6803F01F0335
:10433000796801FA03F31A43FB681A6200BF1C375D
:10434000BD4680BC7047000080B485B000AF786087
:1043500039607B6893F83C30012B01D1022346E0A1
:104360007B68012283F83C207B68022283F83D2091
:104370007B681B685B68FB607B681B689B68BB6035
:10438000FB6823F07003FB603B681B68FA6813430B
:10439000FB607B681B68FA685A607B681B68164A7A
:1043A00093420ED07B681B68B3F1804F09D07B68C5
:1043B0001B68124A934204D07B681B68104A9342E0
:1043C0000CD1BB6823F08003BB603B685B68BA68B4
:1043D0001343BB607B681B68BA689A607B680122E4
:1043E00083F83D207B68002283F83C200023184698
:1043F0001437BD4680BC7047002C014000040040CB
:104400000008004080B483B000AF786000BF0C3774
:10441000BD4680BC704780B483B000AF786000BFF9
:104420000C37BD4680BC704780B582B000AF786065
:104430007B68002B01D101233FE07B6893F83D307E
:10444000DBB2002B06D17B68002283F83C20786821
:10445000FDF794FD7B68242283F83D207B681B6870
:10446000DA687B681B6822F40052DA60786800F032
:1044700005F97B681B681A697B681B6822F4904207
:104480001A617B681B685A697B681B6822F02A02E4
:104490005A617B681B68DA687B681B6842F40052CB
:1044A000DA607B6800221A647B68202283F83D2052
:1044B0007B68202283F83E20002318460837BD463B
:1044C00080BD80B58AB002AFF860B9603B6013462A
:1044D000FB8000237B61FB6893F83D30DBB2202B2F
:1044E0007CD1BB68002B02D0FB88002B01D10123BB
:1044F00075E0FB6893F83C30012B01D102236EE09C
:10450000FB68012283F83C20FB6800221A64FB68E8
:10451000212283F83D20FDF7FBFD7861FB68FA88D6
:104520009A84FB68FA88DA84FB689B68B3F5805F3D
:1045300008D1FB681B69002B04D10023FB61BB6819
:10454000BB6103E0BB68FB610023BB61FB68002229
:1045500083F83C202AE03B6800937B69002280219D
:10456000F86800F040F80346002B01D0032336E042
:10457000FB69002B0BD1BB691B881A46FB681B68C3
:10458000C2F308025A60BB690233BB6107E0FB69F2
:104590001A78FB681B685A60FB690133FB61FB6892
:1045A000DB8C9BB2013B9AB2FB68DA84FB68DB8C44
:1045B0009BB2002BCFD13B6800937B690022402146
:1045C000F86800F010F80346002B01D0032306E042
:1045D000FB68202283F83D20002300E002231846D8
:1045E0002037BD4680BD80B584B000AFF860B960AB
:1045F0003B601346FB712CE0BB69B3F1FF3F28D051
:10460000BB69002B07D0FDF783FD02463B68D31A38
:10461000BA699A421DD2FB681B68DA68FB681B689E
:1046200022F4D072DA60FB681B685A69FB681B6869
:1046300022F001025A61FB68202283F83D20FB68CA
:10464000202283F83E20FB68002283F83C200323CD
:104650000FE0FB681B681A68BB681340BA689A428F
:104660000CBF01230023DBB21A46FB799A42C3D068
:10467000002318461037BD4680BD000080B584B0C9
:1046800000AF78607B681B681B6923F440517B682E
:10469000DA687B681B680A431A617B689A687B68E2
:1046A0001B691A437B685B691343BB607B681B68AB
:1046B000DB6823F4B05323F00C037A681268B968FE
:1046C0000B43D3607B681B685B6923F440717B6894
:1046D0009A697B681B680A435A617B681B682C4A8D
:1046E000934203D1FEF7D4FBF86002E0FEF7BCFB77
:1046F000F860FA6813469B0013449A001A447B68DA
:104700005B689B00B2FBF3F3224AA2FB03235B0925
:104710001901FA6813469B0013449A001A447B68F7
:104720005B689B00B2FBF3F21A4BA3FB02035B092D
:10473000642000FB03F3D31A1B013233154AA2FB9A
:1047400003235B0903F0F0031944FA6813469B0046
:1047500013449A001A447B685B689B00B2FBF3F237
:104760000C4BA3FB02035B09642000FB03F3D31A89
:104770001B013233074AA2FB03235B0903F00F023C
:104780007B681B680A449A6000BF1037BD4680BD35
:10479000003801401F85EB51002B2DE9F0471F46E3
:1047A000BBBF03F100431F4600232D2388B01446EE
:1047B000129A109D1370149BDDF84CA023F0200872
:1047C000B8F1460F05D0B8F1450F00D101350223ED
:1047D00000E0032307AA049206AACDE902A2CDE9CC
:1047E000003522463B4600F073FEB8F1470F0646FF
:1047F00002D1119BDB0722D5B8F1460F06EB050964
:1048000010D13378302B0AD10022002320463946BC
:10481000FCF7CAF818B9C5F10105CAF80050DAF872
:10482000003099440022002320463946FCF7BCF8AA
:1048300008B1CDF81C903022079B4B4507D330467A
:10484000079B159A9B1B136008B0BDE8F087591CA5
:1048500007911A70F0E70346F7B5002903F8022B19
:10486000B6BF2D222B224942092942702ADD0DF1C3
:10487000070217460A2691FBF6F5944606FB151427
:1048800030340CF8014C0C46632C294602F1FF32FF
:10489000F1DC3031ACF1020402F8011C2246411C6B
:1048A000BA420AD30DF10902A2EB0C02BC4288BF46
:1048B00000221344181A03B0F0BD12F8015B01F88E
:1048C000015FEDE7302330318370C170031DF1E7E4
:1048D0002DE9F04F91B00C46DDF8688016461F4672
:1048E000054600F0E5FC036818460993FBF730FC29
:1048F00000230E93D8F800300A90073323F0070303
:1049000003F1080294F81890D4F800B0C8F8002019
:10491000D3E900A852464346C4E9122328F00043D5
:104920000B934FF0FF3250469C4B0B99FCF76EF8FF
:1049300070BB4FF0FF325046984B0B99FCF748F88C
:1049400030BB0022002350464146FCF737F810B137
:104950002D2384F84330924A924BB9F1470F94BF0C
:104960009046984603234FF0000A23612BF004037E
:10497000236033462146284600970FAA00F0D6F957
:10498000013040F090804FF0FF3011B0BDE8F08F63
:104990005246434650464146FCF738F848B1B8F114
:1049A000000FB8BF2D23804AB8BF84F843307F4B37
:1049B000D3E7636809F0DF015A1C42D10623636024
:1049C000002206920EAACDE904920DAA4BF4806350
:1049D00003920DF13302CDE9013223606368524640
:1049E0000093284643460B91FFF7D6FE0B9980466D
:1049F00047290D9908D1C81C02DB6368994240DD44
:104A0000A9F102095FFA89F9B9F1650F1FD84A4681
:104A1000013904F150000D91FFF71DFF0E9A8246F7
:104A20001318012A236102DC2268D20701D5013361
:104A300023619DF83330002B9BD02D2384F8433025
:104A400097E74729BCD1002BBAD10123B7E7B9F1C9
:104A5000660F18D1002963680BDD216113B9226844
:104A6000D00702D501330B4423614FF0000AA16542
:104A7000DFE713B92268D20701D50233F4E7012337
:104A8000F2E74FF067090E9B994205DB236821612D
:104A9000D807EAD54B1CE7E70029CCBF0122C1F1BA
:104AA00002021344E0E723685A0507D4236942460B
:104AB00031462846B84701302BD164E7B9F1650F7C
:104AC00040F2DD80D4E9120100220023FBF76CFFE5
:104AD000002833D0012331462846354AB8470130F3
:104AE0003FF451AFDDE90D239A4202DB2368D8077A
:104AF0000FD5DDE9092331462846B84701303FF498
:104B000042AF4FF0000804F11A090E9B013B4345E8
:104B100009DC23689B0700F10481E0680F9B984241
:104B2000B8BF184631E701234A4631462846B84700
:104B300001303FF428AF08F10108E6E70D9B002B98
:104B400038DC012331462846194AB84701303FF482
:104B50001AAFDDE90D32134302D12368D907D8D546
:104B6000DDE9092331462846B84701303FF40BAF51
:104B70004FF0000904F11A0A0D9B5B424B4501DC22
:104B80000E9B94E70123524631462846B847013030
:104B90003FF4F9AE09F10109EEE700BFFFFFEF7F37
:104BA00054750008587500085C75000860750008A9
:104BB000647500080E9AA36D9A42A8BF1A46002A8F
:104BC000914637DC4FF0000B29EAE97904F11A022B
:104BD000D4F858A0AAEB09035B4533DCDDE90D23CB
:104BE0009A423BDB2368DA0738D4DDE90D32A2EBC9
:104BF0000309A2EB0A029145A8BF9146B9F1000F43
:104C000034DC4FF0000829EAE97904F11A0ADDE9F9
:104C10000D239B1AA3EB090343457FF77AAF0123CA
:104C2000524631462846B84701303FF4ACAE08F151
:104C30000108ECE71346314642462846B8470130A2
:104C4000C0D1A0E60123314628460B92B847013077
:104C50003FF499AE0B9A0BF1010BB9E73146DDE950
:104C600009232846B8470130BFD18CE64B46314670
:104C7000284608EB0A02B8470130C2D183E60E9AF3
:104C8000012A01DCDB0739D501234246314628469B
:104C9000B84701303FF477AEDDE9092331462846B5
:104CA000B84701303FF46FAED4E91201002200236F
:104CB000DDF83890FBF778FED8B909F1FF3308F139
:104CC000010231462846B84701300ED15BE6012388
:104CD0004A4631462846B84701303FF454AE08F101
:104CE00001080E9B013B4345F1DC534604F15002A1
:104CF000DEE64FF0000804F11A09F2E7012342460C
:104D0000DFE701234A4631462846B84701303FF4E1
:104D10003AAE08F10108E3680F995B1A4345F0DCED
:104D2000FBE64FF0000804F11909F4E72DE9F0471C
:104D3000164699468A680B6907469342B8BF1346E0
:104D4000336091F843200C46DDF820800AB101332E
:104D500033602368990642BF3368023333602568A5
:104D600015F0060506D104F1190AE36832689B1AAA
:104D7000AB422BDC94F84320131E226818BF01239A
:104D8000920630D44946384604F14302C047013008
:104D900023D02368226903F00603042B14BF0025E7
:104DA00033684FF0000608BFE56804F11A0408BF35
:104DB000ED1A54F8123C08BF25EAE5759342C4BFCA
:104DC0009B1AED18B5421AD1002008E00123524683
:104DD00049463846C047013003D14FF0FF30BDE8A7
:104DE000F0870135C1E73020E11881F843005A1CF3
:104DF00094F845102244023382F84310C2E701239D
:104E0000224649463846C0470130E6D00136D9E748
:104E10002DE9FF470F7E9146782F80460C469A4633
:104E20000C9D01F1430207D8622F0AD8002F00F031
:104E3000D580582F00F0C18004F1420584F84270FB
:104E40003AE0A7F16303152BF6D801A151F823F03E
:104E5000A94E0008BD4E0008394E0008394E000822
:104E6000394E0008394E0008BD4E0008394E000882
:104E7000394E0008394E0008394E0008C34F00086B
:104E8000E94E00087D4F0008394E0008394E0008F1
:104E9000E54F0008394E0008E94E0008394E000879
:104EA000394E0008854F00082B681A1D1B682A60C0
:104EB00004F1420584F842300123A0E020682B6809
:104EC000070603F10401296001D51E6803E04606C8
:104ED000FBD5B3F90060002E03DA2D23764284F867
:104EE00043300A23594812E02B682068191D2960B5
:104EF000050601D51E6802E04106FBD51E886F2F0E
:104F00000CBF08230A235148002184F84310656828
:104F1000002DA8BF2168A560A4BF21F00401216075
:104F20000EB9002D4BD01546B6FBF3F103FB11670C
:104F3000C75D05F8017D3746BB420E46F4D9082B04
:104F40000BD12368DE0708D5236961689942DEBF6B
:104F5000302305F8013C05F1FF35521B22614B4619
:104F600021464046CDF800A003AAFFF7DFFE01303E
:104F70004AD14FF0FF3004B0BDE8F087236843F01A
:104F8000200323607827324884F845702368296815
:104F90001F0651F8046B02D45F0648BFB6B2DF07A4
:104FA00048BF43F02003296048BF23601EB923682F
:104FB00023F0200323601023A6E72448E4E71546E6
:104FC000BDE72B682668181D6169286035061B68D7
:104FD00001D5196002E07006FBD519800023154643
:104FE0002361BCE72B6800211A1D2A601D686268D6
:104FF000284600F0D4F908B1401B60606368236163
:10500000002384F84330AAE72A46494640462369EC
:10501000D0470130ADD023689B0713D4E068039BD1
:105020009842B8BF1846A6E7012332464946404693
:10503000D04701309DD00135E36803995B1AAB423C
:10504000F2DCEBE7002504F11906F5E766750008C8
:1050500077750008002310B50446C0E90033C0E9A5
:105060000433836081814366C281836119460822CB
:105070005C3000F014F90D4B246263620C4BA362A8
:105080000C4BE3620C4B23630C4B9C4206D003F1A8
:105090006802944202D0D0339C4205D104F15800FA
:1050A000BDE8104000F078B910BD00BF19520008EB
:1050B0003B5200087352000897520008FC0200207F
:1050C000024A0349034800F069B800BF0C00002001
:1050D000356D00081800002041680C4B10B599424E
:1050E000044601D001F026FEA168094B994202D086
:1050F000204601F01FFEE168064B994204D020468D
:10510000BDE8104001F016BE10BD00BFFC0200203B
:1051100064030020CC03002010B50B4B0B4C0C4A51
:1051200020461A6004210022FFF794FF04F1680072
:1051300001220921FFF78EFF04F1D0000222BDE811
:1051400010401221FFF786BF34040020FC0200202B
:10515000C1500008014800F020B900BF3D04002004
:10516000014800F01BB900BF3D04002010B5044603
:10517000FFF7F0FF236A1BB1BDE81040FFF7F0BF57
:10518000044B2362044B1B68002BF5D1FFF7C4FFCF
:10519000F2E700BFD9500008340400202DE9F8439D
:1051A0000746884614460026D4E90195B9F101095D
:1051B00005D52468002CF7D13046BDE8F883AB89CB
:1051C000012B07D9B5F90E30013303D029463846F3
:1051D000C04706436835E9E70EB46FF0004100B5FB
:1051E0009CB01DAB029006900791049108480949B4
:1051F00053F8042B0591006802A9019301F01AFCF1
:105200000022029B1A701CB05DF804EB03B07047DB
:10521000640000200802FFFF10B50C46B1F90E1023
:1052200000F06CF80028ABBF636DA3891B1823F452
:105230008053ACBF6365A38110BD2DE9F0411F46CB
:105240008B890546DB050C46164605D50223002250
:10525000B1F90E1000F040F8A389324623F48053D0
:10526000A38128463B46B4F90E10BDE8F04100F09A
:1052700057B810B50C46B1F90E1000F02DF8431CCC
:10528000A38915BF606523F4805343F48053A38141
:1052900018BFA38110BDB1F90E1000F00DB8034680
:1052A0000244934200D1704703F8011BF9E7000064
:1052B000004870475801002038B50023054D0446CA
:1052C00008462B60FCF73AFD431C02D12B6803B162
:1052D000236038BD3804002038B50446084611461E
:1052E0000022054D2A601A46FCF74CFD431C02D1F2
:1052F0002B6803B1236038BD3804002038B504465C
:10530000084611460022054D2A601A46FCF7DDFCCE
:10531000431C02D12B6803B1236038BD3804002040
:1053200038B50446084611460022054D2A601A4643
:10533000FCF7E8FC431C02D12B6803B1236038BDA5
:1053400038040020014B1868704700BF640000203B
:1053500070B500260C4D0D4C641BA410A64209D15B
:1053600002F088F800260A4D0A4C641BA410A642DD
:1053700005D170BD55F8043B98470136EEE755F866
:10538000043B98470136F2E7C4780008C478000867
:10539000C4780008C8780008704770477047034613
:1053A00010B5C9B202449342184601D1002003E06F
:1053B000047801338C42F6D110BD2DE9F74F036913
:1053C0000C690746A3427FDB013C00F1140501F1A3
:1053D000140805EB8403019358F8243055F8242071
:1053E00001339A42B2FBF3F64FEA840B08EB8409CF
:1053F00031D34FF0000E4046AC46F24650F8042B35
:1054000093B206FB03E34FEA124E1A0C9BB206FB63
:105410000E22AAEB0303DCF800A04FEA124E1FFA9B
:105420008AFA5344DCF800A092B2C2EB1A4202EBB3
:1054300023429BB243EA024381454FEA224A4CF899
:10544000043BDBD255F80B302BB9019B043B9D424A
:105450001A462DD33C61384601F094F9002823DB2D
:1054600029460020013658F8042BD1F800C093B229
:10547000C31A120C1FFA8CF00344C2EB1C4202EB5D
:1054800023429BB243EA0243C1454FEA224041F81E
:10549000043BE8D255F8242005EB840322B9043BF1
:1054A0009D421A460AD33C61304603B0BDE8F08FF6
:1054B0001268043B002ACDD1013CC8E71268043BC6
:1054C000002AF0D1013CEBE70020EEE700000000ED
:1054D0002DE9F04F16461F46C46999B00546CDE93F
:1054E0000467DDF8948074B9102000F01DFE0246B8
:1054F000E86120B9EF21AC4BAC4801F07BFCC0E97E
:1055000001440460C460EB69196851B15A68012311
:1055100093404A608B60284600F0FAFE0022EB6957
:105520001A603B1EAFBF0023012223F00043059306
:10553000A8BFC8F80030DDF814909D4BB8BFC8F87C
:10554000002033EA090319D142F20F73249A136041
:10555000C9F31303334300F08985269B53B9954B58
:1055600023E0954B03930833269A1360039819B0F0
:10557000BDE8F08F8F4B03930333F5E7DDE9043487
:10558000CDE90C34DDE90C0100220023FBF70CFA15
:10559000804660B10123249A1360269B002B00F003
:1055A0006285864B269A1360013B0393DEE716ABB8
:1055B000019317AB00932846DDE90C2301F08AF92B
:1055C000C9F30A548246002C7ED0DDE90C010D9B04
:1055D000A4F2FF34C3F3130343F07F5343F44013A7
:1055E000CDF84C8019460022754BFAF7BDFD68A333
:1055F000D3E90023FAF770FF67A3D3E90023FAF792
:10560000B5FD064620460F46FAF7FCFE64A3D3E933
:105610000023FAF761FF02460B4630463946FAF797
:10562000A5FD06460F46FBF707FA00228346002336
:1056300030463946FBF7C2F948B15846FAF7E2FE60
:1056400032463B46FBF7B0F908B90BF1FF3BBBF123
:10565000160F57D8DDE90C015A4B03EBCB03D3E906
:105660000023FBF7ABF900284ED000230BF1FF3BE2
:105670000F93169B1B1B5A1E46BFC3F10109002343
:105680004FF00009099248BF0993BBF1000F3DDBC1
:10569000099BCDF838B05B44099300230A93229B01
:1056A000092B67D8052BC4BF043B2293229BC8BF9C
:1056B0000024A3F10203D8BF0124032B00F286804B
:1056C000DFE803F02C393756DDE916431C4404F2B9
:1056D0003243202BC1BFC3F1400309FA03F904F29E
:1056E000124326FA03F3D6BFC3F1200349EA0300AD
:1056F00006FA03F0FAF776FE0122A1F1F873013CF5
:1057000013926FE70123B3E70F90B2E7CBF10003E9
:105710000A930023A9EB0B090E93C0E700230B9318
:10572000239B002B55DC01231A46069308932392F2
:105730000BE00123F3E700230B93239B5B440693C9
:105740000133012B0893B8BF012300210422E8692B
:1057500002F114069E4240D94160284600F098FDAF
:10576000039000283CD1024640F2AF11164BC3E62D
:105770000123E1E7012400230B9422934FF0FF3330
:105780000022069308931223D1E700BFAFF30080F5
:1057900061436F63A787D23FB3C8608B288AC63F37
:1057A000FB799F501344D33F95750008AC750008F2
:1057B0000000F07F91750008887500086575000885
:1057C0000000F83F987600080476000801230B9348
:1057D000D4E7239B06930893B7E701315200B7E75C
:1057E000EB69039A1A60089B0E2B00F2A880002C2C
:1057F00000F0A580BBF1000F34DD9A4B0BF00F02D7
:1058000003EBC2031BF4807FD3E90034CDE91034ED
:105810004FEA2B1416D0DDE90C01934B0327D3E993
:105820000823FAF783FFCDE9040104F00F048E4E3C
:1058300054B9DDE91023DDE90401FAF777FFCDE97A
:10584000040129E00227F2E7E10708D5DDE91001AC
:10585000D6E90023FAF740FECDE9100101376410C4
:105860000836E5E700F0A580DDE90C01CBF1000486
:105870007C4B04F00F0203EBC203D3E90023FAF7D9
:105880002BFE02270023CDE90401774E2411002CC2
:1058900040F08480002BD2D1DDE90434CDE910340E
:1058A0000F9B002B00F08780DDE9100100226F4B79
:1058B000FBF784F800287ED0089B002B7BD0069B4A
:1058C000002B38DDDDE910010022694BFAF704FEF8
:1058D000CDE90401069C0BF1FF3801373846FAF791
:1058E00091FDDDE90423FAF7F7FD0022614BFAF799
:1058F0003DFCA1F15076CDE910011196002C5DD14F
:10590000DDE9040100225C4BFAF72EFC02460B464F
:10591000CDE904233346109AFBF76EF8002840F0D7
:105920009582DDE90401109A06F10043FBF746F881
:10593000002840F08982DDE90C34CDE90434179B5E
:10594000002BC0F25181BBF10E0F00F34D81454B8E
:1059500003EBCB03D3E90034CDE90634239B002BC2
:1059600080F2DA80089B002B00F3D68040F06B8237
:10597000DDE906010022404BFAF7AEFDDDE9042324
:10598000FBF730F8089C2646002840F0418231237E
:10599000039F0BF1010B07F8013B3DE2E20705D540
:1059A000D6E90023FAF798FD012301376410083681
:1059B0006DE7022770E7D846089C8FE70399294BCB
:1059C000214412910B9903EBC403DDE9106753E9FD
:1059D0000223002954D000202849FAF7A7FE3B46AD
:1059E0003246FAF7C1FBCDE91001039FDDE904015E
:1059F000FBF722F80446FAF705FD02460B46DDE9FF
:105A00000401FAF7B1FB02460B463034CDE904231A
:105A1000DDE9102307F8014BFAF7D0FF002873D116
:105A2000DDE9042300201149FAF79EFBDDE910238C
:105A3000FAF7C4FF002840F0B680129B9F423FF463
:105A40007AAFDDE910010022094BFAF745FD00228B
:105A5000CDE91001DDE90401054BFAF73DFDCDE983
:105A60000401C3E798760008707600080000F03F54
:105A70000000244000001C40000014400000E03FF3
:105A800030463946FAF728FD129BCDE91001039CF8
:105A90001493DDE90401FAF7CFFF1590FAF7B2FC91
:105AA00002460B46DDE90401FAF75EFB159B06464C
:105AB000303304F8013B129B0F469C424FF000022A
:105AC00024D1DDE91001AF4BFAF750FB02460B463B
:105AD00030463946FAF790FF002863D1DDE91023FC
