:020000040800F2
:1000000000500020411600089116000891160008C3
:1000100091160008911600089116000800000000D3
:100020000000000000000000000000009116000821
:1000300091160008000000009116000891160008B3
:1000400091160008911600089116000891160008F4
:1000500091160008911600082502000849020008C0
:100060006D02000891020008B50200089116000810
:1000700091160008911600089116000891160008C4
:1000800091160008911600089116000891160008B4
:10009000911600089116000891160008D902000870
:1000A0009116000891160008911600089116000894
:1000B000091400087D140008E9140008E10600088E
:1000C000D1070008DD070008E907000891160008BD
:1000D0009116000855150008691500087D150008DF
:1000E0008103000891160008000000009116000826
:1000F0009116000891160008911600089116000844
:100100009116000891160008911600089116000833
:100110009116000891160008911600089116000823
:100120009116000891160008911600089116000813
:1001300010B5054C237833B9044B13B10448AFF321
:1001400000800123237010BD00000020000000008B
:10015000DC16000808B5034B1BB103490348AFF395
:10016000008008BD0000000004000020DC1600082C
:1001700080B584B000AF78607B681B88BB817B68EA
:100180009B78BB737B68DB78FB737B681A88084BB2
:100190001A8007F10C031946064800F00BFA0022FA
:1001A0000221044800F085FA00BF1037BD4680BD2B
:1001B0001C000020000C014080B584B002AF7860C4
:1001C000084611461A460346FB700B463B80134611
:1001D000BB703B7D002B02D0012B08D00FE00F4BF2
:1001E0001B88002219460E4800F063FA07E00B4B0B
:1001F0001B88012219460A4800F05BFA00BFB87854
:100200003A88F978242301933B6900930346786880
:1002100000F09EFC00BF0837BD4680BD1C000020DA
:10022000000C014080B500AF054B5B69044A43F008
:1002300001035361034B1B68984700BF80BD00BF9B
:10024000000401402000002080B500AF054B5B6931
:10025000044A43F002035361034B5B68984700BFB5
:1002600080BD00BF000401402000002080B500AF29
:10027000054B5B69044A43F004035361034B9B68DD
:10028000984700BF80BD00BF00040140200000204F
:1002900080B500AF054B5B69044A43F00803536126
:1002A000034BDB68984700BF80BD00BF00040140DE
:1002B0002000002080B500AF054B5B69044A43F085
:1002C00010035361034B1B69984700BF80BD00BFFB
:1002D000000401402000002080B500AF264B5B6980
:1002E00003F02003002B08D0234B5B69224A43F024
:1002F00020035361214B5B6998471F4B5B6903F0F7
:100300004003002B08D01C4B5B691B4A43F04003A1
:1003100053611A4B9B699847174B5B6903F0800345
:10032000002B08D0144B5B69134A43F080035361E0
:10033000124BDB699847104B5B6903F48073002B09
:1003400008D00D4B5B690C4A43F4807353610B4B2F
:100350001B6A9847084B5B6903F40073002B08D0B5
:10036000054B5B69044A43F400735361034B5B6ABA
:10037000984700BF80BD00BF00040140200000205E
:1003800080B500AF2D4B5B6903F48063002B08D070
:100390002A4B5B69294A43F480635361284B9B6A6B
:1003A0009847264B5B6903F40063002B08D0234B6E
:1003B0005B69224A43F400635361214BDB6A98472F
:1003C0001E4B5B6903F48053002B08D01B4B5B6909
:1003D0001A4A43F480535361194B1B6B9847174BD0
:1003E0005B6903F40053002B08D0144B5B69134A7C
:1003F00043F400535361124B5B6B98470F4B5B699F
:1004000003F48043002B08D00C4B5B690B4A43F488
:10041000804353610A4B9B6B9847084B5B6903F41D
:100420000043002B08D0054B5B69044A43F40043AA
:100430005361034BDB6B984700BF80BD0004014054
:100440002000002080B483B000AF0346FB80FB880F
:10045000B3F5004F00F0A580B3F5004F00F3A38083
:10046000B3F5804F00F09B80B3F5804F00F39B8085
:10047000B3F5005F00F09180B3F5005F00F3938067
:10048000B3F5805F00F08780B3F5805F00F38B8069
:10049000B3F5006F7DD0B3F5006F00F38480B3F542
:1004A000806F74D0B3F5806F7DDCB3F5007F6CD0C6
:1004B000B3F5007F77DCB3F5807F64D0B3F5807F40
:1004C00071DC802B5DD0802B6DDC202B48DC002B79
:1004D00069DD013B1F2B66D801A252F823F000BF53
:1004E000670500086B050008A70500086F050008F0
:1004F000A7050008A7050008A70500087305000860
:10050000A7050008A7050008A7050008A70500081B
:10051000A7050008A7050008A7050008770500083B
:10052000A7050008A7050008A7050008A7050008FB
:10053000A7050008A7050008A7050008A7050008EB
:10054000A7050008A7050008A7050008A7050008DB
:10055000A7050008A7050008A70500087B050008F7
:10056000402B0CD01FE000231EE004231CE00823D6
:100570001AE00C2318E0102316E0142314E01823CB
:1005800012E01C2310E000230EE004230CE00823FB
:100590000AE00C2308E0102306E0142304E01823EB
:1005A00002E01C2300E0002318460C37BD4680BC47
:1005B000704700BF90B585B000AF78603960002308
:1005C000BB600023FB733B681B88FF2B01D87B6853
:1005D00001E07B680433BB603B681B881846FFF76B
:1005E00031FF03461A460F239340DA43BB681B686A
:1005F0001A40BB681A603B689B78072B0BD03B689E
:100600009B78062B07D03B689B78052B03D03B6873
:100610009B78042B0ED13B689B78043B9B005AB21D
:100620003B68DB785BB213435BB2DBB203F00F03D2
:10063000FB732CE03B689B78012B03D03B689B78D5
:10064000002B07D13B689B789B00DBB203F00F03C4
:10065000FB731CE03B689B78082B02D10423FB73DF
:1006600015E00823FB733B689B78022B07D17B685E
:10067000DB683A6812881A437B68DA6007E07B68B7
:10068000DB683A681288D2431A407B68DA60FC7BE8
:100690003B681B881846FFF7D5FE034604FA03F2B1
:1006A000BB681B681A43BB681A6000BF1437BD469D
:1006B00090BD80B483B000AF78600B467B8013465A
:1006C0007B707B78002B03D07A887B681A6102E00C
:1006D0007A887B685A6100BF0C37BD4680BC704782
:1006E00080B586B000AF0023FB71384B7B617B691E
:1006F0005B6803F400733B617B695B6803F48063B0
:10070000FB607B695B6903F01003BB603B69002BF6
:100710000AD0BB68002B07D07B691A687B691A6016
:100720000021786900F066F87B695B6903F00203D9
:10073000BB603B69002B14D0BB68002B11D07B69D8
:100740009B6903F00103002B0BD17B695B69DBB272
:10075000FB717B699B69DBB2FB710221786900F058
:1007600049F87B695B6903F08003BB603B69002B40
:100770000FD0FB68002B0CD0BB68002B09D07B6925
:100780009B6903F00103002B03D10321786900F07A
:1007900031F87B695B6903F04003BB603B69002B68
:1007A0000FD0FB68002B0CD0BB68002B09D07B69F5
:1007B0009B6903F00103002B03D10421786900F049
:1007C00019F800BF1837BD4680BD00BF0054004077
:1007D00080B400AF00BFBD4680BC704780B400AF9E
:1007E00000BFBD4680BC704780B400AF00BFBD46AF
:1007F00080BC704780B584B000AF78600B46FB705A
:100800007B68324A934214BF01230023DBB2FB739F
:10081000FB78042B56D801A252F823F037080008C1
:10082000310800085B0800087308000897080008F2
:100830007B689B6946E07B689B6903F00403002B9F
:100840003BD0FA7B22491346DB0013449B000B4448
:1008500020331B68002098472FE0FA7B1C49134681
:10086000DB0013449B000B4420331B680220984795
:1008700028E07B689B6903F00403002B1FD0FA7B00
:1008800013491346DB0013449B000B4420331B68C1
:100890000320984713E07B689B6903F00403002B57
:1008A0000FD1FA7B0A491346DB0013449B000B442B
:1008B00020331B680420984703E000BF02E000BF1C
:1008C00000E000BF00BF1037BD4680BD00540040AF
:1008D0005C00002080B485B000AF03460A46FB717F
:1008E0001346BB710023FB73FB79022B49D0022B0B
:1008F00000F3CC80002B00F0C880012B40F0C680B4
:10090000654B1B68644A23F480231360624B1B68A9
:10091000614A43F4803313605F4B5B685E4A43F483
:1009200080335360BB79482B06D15B4B5B685A4AD6
:1009300043F4E013536000BF574B1B68564A43F023
:1009400080731360544B5B68534A23F00303536076
:10095000514B5B68504A43F0020353604E4B5B6857
:100960004D4A43F0800353604B4B5B684A4A23F483
:1009700060535360484B5B68474A23F4E06353601D
:1009800084E0454B1B68444A23F001031360424B4B
:100990005B68414A23F480335360BB79103B142BCE
:1009A0005DD801A252F823F0FD0900085F0A000893
:1009B0005F0A00085F0A00080B0A00085F0A0008C7
:1009C0005F0A00085F0A0008190A00085F0A0008A9
:1009D000270A00085F0A0008350A00085F0A0008B5
:1009E0005F0A00085F0A0008430A00085F0A00085F
:1009F0005F0A00085F0A0008510A0008264B5B687E
:100A0000254A43F40023536029E0234B5B68224AC4
:100A100043F44023536022E01F4B5B681E4A43F4BB
:100A2000801353601BE01C4B5B681B4A43F450135C
:100A3000536014E0184B5B68174A43F4A0135360EB
:100A40000DE0154B5B68144A43F4C013536006E095
:100A5000114B5B68104A43F4E013536000BF0E4B28
:100A60001B680D4A43F08073136000BF0A4B1B687C
:100A700003F00073002BF9D0074B5B68064A43F084
:100A8000020353600123FB7300E000BFFB7B1846A9
:100A90001437BD4680BC70470010024080B483B05C
:100AA00000AF0346FB71134BDB69124A43F00103AD
:100AB000D361FB795A1E4FF080439A624FF0804316
:100AC0004CF25032DA624FF080431B684FF08042A4
:100AD00043F00103136000BF4FF080431B6903F034
:100AE0000103002BF8D000BF00BF0C37BD4680BC0F
:100AF000704700BF0010024080B483B000AF786040
:100B00004FF0804300225A6200BF4FF080435A6A80
:100B10007B689A42F9D300BF00BF0C37BD4680BC4A
:100B2000704780B584B000AF78600023FB6006E0BA
:100B30004FF47A70FFF7E0FFFB680133FB60FA685F
:100B40007B689A42F4DB00BF00BF1037BD4680BD12
:100B500080B596B000AF7860084611461A46034645
:100B6000FB700B463B801346BB709B4B01221A70F7
:100B70009A4A3B881380012387F8573000233B654E
:100B80000123FB6417E097F86430954A02FB03F3F6
:100B900019463B6EFA6C02FB03F3B1FBF3F33B65C2
:100BA0003B6DB3F5FA4F03D3FB6C0233FB6402E0F9
:100BB000002387F8573097F85730012BE3D07B6834
:100BC000884A934240F02081874B9B69864A43F4D0
:100BD00000639361844B9B69834A43F004039361F0
:100BE000814B9B69804A43F0010393617F4B1B68F3
:100BF0007E4A43F0807313607C4B1B687B4A43F052
:100C000000731360794B1B68784A43F0806313606C
:100C1000764B1B68754A43F0006313607B681B6862
:100C200023F001027B681A60FB78032B00F2C28379
:100C300001A252F823F000BF490C0008AD0C0008D7
:100C4000110D0008750D0008694B1B68BB6407F1A6
:100C5000480319466748FFF7ADFC7B689B6943F082
:100C600008027B689A617B681B6A43F001027B681B
:100C70001A627B689B6943F060027B689A61BB786B
:100C80003A6D02FB03F35C4AA2FB03235A097B681B
:100C90005A637B685B6C43F400427B685A647B68F0
:100CA000DB6843F003027B68DA6083E3534B1B6825
:100CB0007B6407F1440319464E48FFF77BFC7B68D1
:100CC0009B6943F400627B689A617B681B6A43F00E
:100CD00010027B681A627B689B6943F4C0427B68A0
:100CE0009A61BB783A6D02FB03F3434AA2FB0323EC
:100CF0005A097B689A637B685B6C43F400427B68AB
:100D00005A647B68DB6843F005027B68DA6051E374
:100D10003B4B1B683B6407F1400319463548FFF71E
:100D200049FC7B68DB6943F008027B68DA617B6819
:100D30001B6A43F480727B681A627B68DB6943F04C
:100D400060027B68DA61BB783A6D02FB03F32A4AE2
:100D5000A2FB03235A097B68DA637B685B6C43F46C
:100D600000427B685A647B68DB6843F009027B6859
:100D7000DA601FE3234B1B68FB6307F13C03194652
:100D80001C48FFF717FC7B68DB6943F400627B6853
:100D9000DA617B681B6A43F480527B681A627B6865
:100DA000DB6943F4C0427B68DA61BB783A6D02FBD1
:100DB00003F3114AA2FB03235A097B681A647B6878
:100DC0005B6C43F400427B685A647B68DB6843F0E9
:100DD00011027B68DA60EDE2A5000020A600002089
:100DE00040420F00002C01400010024000E100E0F2
:100DF000F4160008000801401F85EB51F8160008A2
:100E0000FC160008001700087B68B3F1804F40F023
:100E1000DD80A04BDB699F4A43F00103D3619D4B0A
:100E20009B699C4A43F0040393619A4B9B69994ADE
:100E300043F001039361984B1B68974A43F080533A
:100E400013607B681B6823F001027B681A60FB78E3
:100E5000032B00F2AF8201A252F823F06D0E0008BE
:100E6000C50E00081D0F0008750F00088B4B1B688E
:100E7000BB6307F1380319468948FFF79BFB7B6882
:100E80009B6943F008027B689A617B681B6A43F0A8
:100E900001027B681A627B689B6943F060027B6891
:100EA0009A61BB783A6D02FB03F37E4AA2FB0323EF
:100EB0005A097B685A637B68DB6843F003027B68EE
:100EC000DA6077E2784B1B687B6307F134031946DD
:100ED0007348FFF76FFB7B689B6943F400627B6894
:100EE0009A617B681B6A43F010027B681A627B6818
:100EF0009B6943F4C0427B689A61BB783A6D02FB00
:100F000003F3684AA2FB03235A097B689A637B6850
:100F1000DB6843F005027B68DA604BE2634B1B68D9
:100F20003B6307F1300319465D48FFF743FB7B68DD
:100F3000DB6943F008027B68DA617B681B6A43F473
:100F400080727B681A627B68DB6943F060027B68B1
:100F5000DA61BB783A6D02FB03F3524AA2FB03232A
:100F60005A097B68DA637B68DB6843F009027B68B7
:100F7000DA601FE24E4B1B68FB6207F12C03194637
:100F80004748FFF717FB7B68DB6943F400627B6827
:100F9000DA617B681B6A43F480527B681A627B6863
:100FA000DB6943F4C0427B68DA61BB783A6D02FBCF
:100FB00003F33C4AA2FB03235A097B681A647B684B
:100FC000DB6843F011027B68DA60F3E17B68394A41
:100FD000934240F0F7802F4BDB692E4A43F0020327
:100FE000D3612C4B9B692B4A43F004039361294B3B
:100FF0009B69284A43F008039361264B9B69254A65
:1010000043F001039361244B1B68234A43F00053D0
:1010100013607B681B6823F001027B681A60FB7811
:10102000032B00F2C78101A252F823F03D10000803
:10103000BD100008151100086D1100081E4B1B683B
:10104000BB6207F1280319461548FFF7B3FA7B681E
:101050009B6943F008027B689A617B681B6A43F0D6
:1010600001027B681A627B689B6943F060027B68BF
:101070009A61BB783A6D02FB03F30A4AA2FB032391
:101080005A097B685A637B68DB6843F003027B681C
:10109000DA608FE10010024000E100E00417000870
:1010A000000801401F85EB51081700080C170008C5
:1010B0001017000800040040141700089C4B1B6820
:1010C0007B6207F1240319469A48FFF773FA7B689D
:1010D0009B6943F400627B689A617B681B6A43F0FA
:1010E00010027B681A627B689B6943F4C0427B688C
:1010F0009A61BB783A6D02FB03F38F4AA2FB03238C
:101100005A097B689A637B68DB6843F005027B6859
:10111000DA604FE1894B1B683B6207F120031946F7
:101120008748FFF747FA7B68DB6943F008027B6872
:10113000DA617B681B6A43F480727B681A627B68A1
:10114000DB6943F060027B68DA61BB783A6D02FBD1
:1011500003F3794AA2FB03235A097B68DA637B68AD
:10116000DB6843F001027B68DA6023E1754B1B68A2
:10117000FB6107F11C0319467148FFF71BFA7B68F6
:10118000DB6943F400627B68DA617B681B6A43F4C5
:1011900080527B681A627B68DB6943F4C0427B68DB
:1011A000DA61BB783A6D02FB03F3634AA2FB0323C7
:1011B0005A097B681A647B68DB6843F001027B682C
:1011C000DA60F7E07B68604A934240F0F3805F4B5F
:1011D000DB695E4A43F00403D3615C4B9B695B4A65
:1011E00043F008039361594B9B69584A43F001034C
:1011F0009361574B1B68564A43F0804313607B68EA
:101200001B6823F001027B681A60FB78032B00F255
:10121000D18001A252F823F029120008811200089F
:10122000D91200085D1300084A4B1B68BB6107F127
:10123000180319464248FFF7BDF97B689B6943F0E4
:1012400008027B689A617B681B6A43F001027B6835
:101250001A627B689B6943F060027B689A61BB7885
:101260003A6D02FB03F3344AA2FB03235A097B685D
:101270005A637B68DB6843F003027B68DA6099E0BD
:101280002B4B1B687B6107F1140319462C48FFF7B1
:1012900091F97B689B6943F400627B689A617B6883
:1012A0001B6A43F010027B681A627B689B6943F4F7
:1012B000C0427B689A61BB783A6D02FB03F31E4A19
:1012C000A2FB03235A097B689A637B68DB6843F0BF
:1012D00005027B68DA606DE01F4B1B683B6107F11C
:1012E000100319461648FFF765F97B68DB6943F080
:1012F00008027B68DA617B681B6A43F480727B6852
:101300001A627B68DB6943F060027B68DA61BB7854
:101310003A6D02FB03F3084AA2FB03235A097B68D8
:10132000DA637B68DB6843F001027B68DA6041E0E6
:1013300018170008000801401F85EB51041700082A
:10134000000C01400817000800080040001002408F
:1013500000E100E014170008F4160008274B1B6892
:10136000FB6007F10C0319462548FFF723F97B685A
:10137000DB6943F400627B68DA617B681B6A43F4D3
:1013800080527B681A627B68DB6943F4C0427B68E9
:10139000DA61BB783A6D02FB03F31A4AA2FB03231E
:1013A0005A097B681A647B68DB6843F001027B683A
:1013B000DA6000BF7B681B6843F080027B681A60BC
:1013C0007B683A6DDA62FB6C5A1E7B689A627B68B6
:1013D000DB6843F001027B68DA607B685B6943F09D
:1013E00001027B685A617B681B6843F001027B68DD
:1013F0001A6000BF5837BD4680BD00BFF816000810
:10140000000C01401F85EB5180B400AF184B1B78D6
:10141000012B28D14FF080431B694FF0804223F00D
:10142000010313614FF080431B694FF0804223F0AA
:10143000020313610F4B1B88002B06D00D4B1B883A
:10144000013B9AB20B4B1A800DE0094B00221A7037
:101450004FF080431B684FF0804223F0010313607C
:10146000054B01221A7000BFBD4680BC704700BF0B
:10147000A5000020A6000020A400002080B400AF3A
:10148000154B1B78012B22D1144B1B69134A23F0F7
:1014900001031361114B1B69104A23F0020313610E
:1014A0000F4B1B88002B06D00D4B1B88013B9AB2BB
:1014B0000B4B1A800BE0084B00221A70074B1B687D
:1014C000064A23F001031360064B01221A7000BF85
:1014D000BD4680BC704700BFA5000020000400404E
:1014E000A6000020A400002080B400AF154B1B789C
:1014F000012B22D1144B1B69134A23F00103136102
:10150000114B1B69104A23F0020313610F4B1B8818
:10151000002B06D00D4B1B88013B9AB20B4B1A8057
:101520000BE0084B00221A70074B1B68064A23F099
:1015300001031360064B01221A7000BFBD4680BC38
:10154000704700BFA500002000080040A600002052
:10155000A400002080B500AF024B1B69984700BF74
:1015600080BD00BFA800002080B500AF024B5B6AC1
:10157000984700BF80BD00BFA800002080B500AF25
:10158000024B9B6B984700BF80BD00BFA8000020A6
:1015900080B500AF48210120FFF79CF9174B9B69EC
:1015A000164A43F010039361144BDB69134A43F46A
:1015B0000033D361114B9B69104A43F008039361D8
:1015C0000E4B9B690D4A43F0040393610B4B9B69DF
:1015D0000A4A43F001039361084BDB69074A43F071
:1015E0000103D361054BDB69044A43F40013D36163
:1015F0002420FFF753FA00BF80BD00BF0010024057
:1016000080B584B002AFFFF7C3FF0B4B1B687B6054
:101610003B1D1846FEF7ACFD012301934FF4FA730E
:1016200000933223C82202210448FEF7C5FD4FF47F
:101630007A70FFF776FAEFE71C1700080008004001
:101640000D488546AFF300800C480D490D4A002334
:1016500002E0D458C4500433C4188C42F9D30A4A67
:101660000A4C002301E013600432A242FBD300F0D5
:1016700011F8FFF7C5FFFEE7005000200000002032
:10168000000000202817000800000020E4000020CF
:10169000FEE7000070B500260C4D0D4C641BA41035
:1016A000A64209D100F01AF800260A4D0A4C641B24
:1016B000A410A64205D170BD55F8043B98470136E9
:1016C000EEE755F8043B98470136F2E7201700088B
:1016D000201700082017000824170008F8B500BFDD
:1016E000F8BC08BC9E467047F8B500BFF8BC08BC03
:0416F0009E4670475B
:1016F40000010601000206010004060100080601BB
:1017040001000601020006010400060108000601AA
:0C171400400006018000060100020402F3
:041720005501000867
:041724003101000887
:040000050800164198
:00000001FF
