:020000040800F2
:1000000000500020054200085542000855420008F3
:100010005542000855420008554200080000000003
:100020000000000000000000000000005542000831
:1000300055420008000000005542000855420008E3
:100040005542000855420008554200085542000834
:1000500055420008554200085D1C0008811C00083C
:10006000A51C0008C91C0008ED1C0008554200082A
:100070005542000855420008554200085542000804
:1000800055420008554200085542000855420008F4
:10009000554200085542000855420008111D00084D
:1000A00055420008554200085542000855420008D4
:1000B0000D3B0008813B0008ED3B00088926000845
:1000C0007927000885270008912700085542000875
:1000D000554200089D3F0008B13F0008C53F000899
:1000E000B91D0008554200080000000055420008F4
:1000F0005542000855420008554200085542000884
:100100005542000855420008554200085542000873
:100110005542000855420008554200085542000863
:100120005542000855420008554200085542000853
:1001300010B5054C237833B9044B13B10448AFF321
:1001400000800123237010BD680000200000000023
:100150001C5D000808B5034B1BB103490348AFF30E
:10016000008008BD000000006C0000201C5D00083D
:1001700081F0004102E000BF83F0004330B54FEA58
:1001800041044FEA430594EA050F08BF90EA020FC5
:100190001FBF54EA000C55EA020C7FEA645C7FEA58
:1001A000655C00F0E2804FEA5454D4EB5555B8BF7B
:1001B0006D420CDD2C4480EA020281EA030382EAEC
:1001C000000083EA010180EA020281EA0303362D7E
:1001D00088BF30BD11F0004F4FEA01314FF4801C51
:1001E0004CEA113102D0404261EB410113F0004F63
:1001F0004FEA03334CEA133302D0524263EB43031A
:1002000094EA050F00F0A780A4F10104D5F1200EB7
:100210000DDB02FA0EFC22FA05F2801841F1000112
:1002200003FA0EF2801843FA05F359410EE0A5F1E6
:1002300020050EF1200E012A03FA0EFC28BF4CF017
:10024000020C43FA05F3C01851EBE37101F00045CD
:1002500007D54FF0000EDCF1000C7EEB00006EEBDA
:100260000101B1F5801F1BD3B1F5001F0CD3490864
:100270005FEA30004FEA3C0C04F101044FEA4452BB
:1002800012F5800F80F09A80BCF1004F08BF5FEA42
:10029000500C50F1000041EB045141EA050130BD22
:1002A0005FEA4C0C404141EB0101013C28BFB1F534
:1002B000801FE9D291F0000F04BF01460020B1FA7F
:1002C00081F308BF2033A3F10B03B3F120020CDA52
:1002D0000C3208DD02F1140CC2F10C0201FA0CF030
:1002E00021FA02F10CE002F11402D8BFC2F1200C95
:1002F00001FA02F120FA0CFCDCBF41EA0C0190404B
:10030000E41AA2BF01EB0451294330BD6FEA040493
:100310001F3C1CDA0C340EDC04F11404C4F120027E
:1003200020FA04F001FA02F340EA030021FA04F390
:1003300045EA030130BDC4F10C04C4F1200220FAE7
:1003400002F001FA04F340EA0300294630BD21FA25
:1003500004F0294630BD94F0000F83F4801306BFEB
:1003600081F480110134013D4EE77FEA645C18BFDF
:100370007FEA655C29D094EA050F08BF90EA020F76
:1003800005D054EA000C04BF1946104630BD91EA6E
:10039000030F1EBF0021002030BD5FEA545C05D171
:1003A0004000494128BF41F0004130BD14F58004B0
:1003B0003CBF01F5801130BD01F0004545F0FE4124
:1003C00041F470014FF0000030BD7FEA645C1ABF59
:1003D000194610467FEA655C1CBF0B46024650EA90
:1003E000013406BF52EA033591EA030F41F40021BC
:1003F00030BD00BF90F0000F04BF0021704730B542
:100400004FF4806404F132044FF000054FF0000116
:1004100050E700BF90F0000F04BF0021704730B5D7
:100420004FF4806404F1320410F0004548BF4042AC
:100430004FF000013EE700BF42004FEAE2014FEA01
:1004400031014FEA02701FBF12F07F4393F07F4FDC
:1004500081F06051704732F07F4208BF704793F0DF
:100460007F4F04BF41F40021704730B54FF46074F2
:1004700001F0004521F000411CE700BF50EA0102F5
:1004800008BF704730B54FF000050AE050EA01029E
:1004900008BF704730B511F0004502D5404261EB0E
:1004A00041014FF4806404F132045FEA915C3FF44F
:1004B000D8AE4FF003025FEADC0C18BF03325FEAEC
:1004C000DC0C18BF033202EBDC02C2F1200300FA9D
:1004D00003FC20FA02F001FA03FE40EA0E0021FAC2
:1004E00002F11444BDE600BF70B54FF0FF0C4CF4B0
:1004F000E06C1CEA11541DBF1CEA135594EA0C0F62
:1005000095EA0C0F00F0DEF82C4481EA030621EA9C
:100510004C5123EA4C5350EA013518BF52EA0335D7
:1005200041F4801143F4801338D0A0FB02CE4FF089
:100530000005E1FB02E506F00042E0FB03E54FF0B9
:100540000006E1FB03569CF0000F18BF4EF0010EB1
:10055000A4F1FF04B6F5007F64F5407404D25FEAAD
:100560004E0E6D4146EB060642EAC62141EA555160
:100570004FEAC52040EA5E504FEACE2EB4F1FD0CA2
:1005800088BFBCF5E06F1ED8BEF1004F08BF5FEA20
:10059000500E50F1000041EB045170BD06F00046D2
:1005A00046EA010140EA020081EA0301B4EB5C047F
:1005B000C2BFD4EB0C0541EA045170BD41F4801177
:1005C0004FF0000E013C00F3AB8014F1360FDEBF9C
:1005D000002001F0004170BDC4F10004203C35DA78
:1005E0000C341BDC04F11404C4F1200500FA05F3FB
:1005F00020FA04F001FA05F240EA020001F000429C
:1006000021F0004110EBD37021FA04F642EB060111
:100610005EEA430E08BF20EAD37070BDC4F10C043B
:10062000C4F1200500FA04F320FA05F001FA04F2FF
:1006300040EA020001F0004110EBD37041F10001EB
:100640005EEA430E08BF20EAD37070BDC4F12005F6
:1006500000FA05F24EEA020E20FA04F301FA05F25E
:1006600043EA020321FA04F001F0004121FA04F206
:1006700020EA020000EBD3705EEA430E08BF20EAD6
:10068000D37070BD94F0000F0FD101F00046400010
:1006900041EB010111F4801F08BF013CF7D041EA92
:1006A000060195F0000F18BF704703F00046520096
:1006B00043EB030313F4801F08BF013DF7D043EA67
:1006C0000603704794EA0C0F0CEA135518BF95EA1D
:1006D0000C0F0CD050EA410618BF52EA4306D1D1A4
:1006E00081EA030101F000414FF0000070BD50EAC3
:1006F000410606BF1046194652EA430619D094EA4D
:100700000C0F02D150EA013613D195EA0C0F05D136
:1007100052EA03361CBF104619460AD181EA03018A
:1007200001F0004141F0FE4141F470014FF0000042
:1007300070BD41F0FE4141F4780170BD70B54FF0DD
:10074000FF0C4CF4E06C1CEA11541DBF1CEA13555D
:1007500094EA0C0F95EA0C0F00F0A7F8A4EB05043F
:1007600081EA030E52EA03354FEA013100F0888036
:100770004FEA03334FF0805545EA131343EA1263FF
:100780004FEA022245EA111545EA10654FEA0026B4
:100790000EF000419D4208BF964244F1FD0404F56D
:1007A000407402D25B084FEA3202B61A65EB0305C9
:1007B0005B084FEA32024FF480104FF4002CB6EB86
:1007C000020E75EB030E22BFB61A754640EA0C0006
:1007D0005B084FEA3202B6EB020E75EB030E22BF46
:1007E000B61A754640EA5C005B084FEA3202B6EB87
:1007F000020E75EB030E22BFB61A754640EA9C0046
:100800005B084FEA3202B6EB020E75EB030E22BF15
:10081000B61A754640EADC0055EA060E18D04FEAD3
:10082000051545EA16754FEA06164FEAC30343EA73
:1008300052734FEAC2025FEA1C1CC0D111F4801F40
:100840000BD141EA00014FF000004FF0004CB6E739
:1008500011F4801F04BF01430020B4F1FD0C88BFD8
:10086000BCF5E06F3FF6AFAEB5EB030C04BFB6EBE3
:10087000020C5FEA500C50F1000041EB045170BDD6
:100880000EF0004E4EEA113114EB5C04C2BFD4EB03
:100890000C0541EA045170BD41F480114FF0000E87
:1008A000013C90E645EA060E8DE60CEA135594EA03
:1008B0000C0F08BF95EA0C0F3FF43BAF94EA0C0F06
:1008C0000AD150EA01347FF434AF95EA0C0F7FF47B
:1008D00025AF104619462CE795EA0C0F06D152EACF
:1008E00003353FF4FDAE1046194622E750EA4106B3
:1008F00018BF52EA43067FF4C5AE50EA41047FF4C4
:100900000DAF52EA43057FF4EBAE12E74FF0FF3C28
:1009100006E000BF4FF0010C02E000BF4FF0010CF9
:100920004DF804CD4FEA410C7FEA6C5C4FEA430C72
:1009300018BF7FEA6C5C1BD001B050EA410C0CBFC1
:1009400052EA430C91EA030F02BF90EA020F002023
:10095000704710F1000F91EA030F58BF994208BF8A
:1009600090422CBFD8176FEAE37040F00100704747
:100970004FEA410C7FEA6C5C02D150EA013C07D19E
:100980004FEA430C7FEA6C5CD6D152EA033CD3D0E9
:100990005DF8040B704700BF8446104662468C46E3
:1009A0001946634600E000BF01B5FFF7B7FF002816
:1009B00048BF10F1000F01BD4DF808EDFFF7F4FF3F
:1009C0000CBF012000205DF808FB00BF4DF808EDCA
:1009D000FFF7EAFF34BF012000205DF808FB00BFED
:1009E0004DF808EDFFF7E0FF94BF012000205DF80F
:1009F00008FB00BF4DF808EDFFF7CEFF94BF0120C4
:100A000000205DF808FB00BF4DF808EDFFF7C4FFBC
:100A100034BF012000205DF808FB00BF4FEA410C05
:100A20007FEA6C5C02D150EA013C0AD14FEA430CE8
:100A30007FEA6C5C02D152EA033C02D14FF0000025
:100A400070474FF0010070474FEA410212F5001263
:100A500015D211D56FF47873B3EB625212D94FEA05
:100A6000C12343F0004343EA505311F0004F23FAEF
:100A700002F018BF404270474FF00000704750EA44
:100A8000013005D111F0004008BF6FF00040704701
:100A90004FF00000704700BF4FEA4102B2F1E0435F
:100AA00024BFB3F5001CDCF1FE5C0DD901F0004C55
:100AB0004FEAC0024CEA5070B2F1004F40EB8300A5
:100AC00008BF20F00100704711F0804F21D113F1D1
:100AD0003872BCBF01F00040704741F480114FEA0A
:100AE0005252C2F11802C2F1200C10FA0CF320FA93
:100AF00002F018BF40F001004FEAC1234FEAD323B0
:100B000003FA0CFC40EA0C0023FA02F34FEA430319
:100B1000CCE77FEA625307D150EA01331EBF4FF0A2
:100B2000FE4040F44000704701F0004040F0FE40BD
:100B300040F40000704700BF80F0004002E000BFBA
:100B400081F0004142001FBF5FEA410392EA030FB8
:100B50007FEA226C7FEA236C6AD04FEA1262D2EB02
:100B60001363C1BFD218414048404140B8BF5B4207
:100B7000192B88BF704710F0004F40F4000020F0A0
:100B80007F4018BF404211F0004F41F4000121F0B6
:100B90007F4118BF494292EA030F3FD0A2F1010200
:100BA00041FA03FC10EB0C00C3F1200301FA03F13E
:100BB00000F0004302D5494260EB4000B0F5000F61
:100BC00013D3B0F1807F06D340084FEA310102F120
:100BD0000102FE2A51D2B1F1004F40EBC25008BFD2
:100BE00020F0010040EA03007047490040EB00009C
:100BF000013A28BFB0F5000FEDD2B0FA80FCACF19D
:100C0000080CB2EB0C0200FA0CF0AABF00EBC250C9
:100C100052421843BCBFD0401843704792F0000FB7
:100C200081F4000106BF80F400000132013BB5E70A
:100C30004FEA41037FEA226C18BF7FEA236C21D080
:100C400092EA030F04D092F0000F08BF08467047E5
:100C500090EA010F1CBF0020704712F07F4F04D1B3
:100C6000400028BF40F00040704712F100723CBFC6
:100C700000F50000704700F0004343F0FE4040F4F0
:100C8000000070477FEA226216BF08467FEA2363AE
:100C90000146420206BF5FEA412390EA010F40F499
:100CA000800070474FF0000304E000BF10F00043E5
:100CB00048BF40425FEA000C08BF704743F09643CC
:100CC00001464FF000001CE050EA010208BF7047E7
:100CD0004FF000030AE000BF50EA010208BF70476E
:100CE00011F0004302D5404261EB41015FEA010C83
:100CF00002BF84460146002043F0B64308BFA3F17B
:100D00008053A3F50003BCFA8CF2083AA3EBC2535C
:100D100010DB01FA02FC634400FA02FCC2F120027B
:100D2000BCF1004F20FA02F243EB020008BF20F0B2
:100D30000100704702F1200201FA02FCC2F1200218
:100D400050EA4C0021FA02F243EB020008BF20EA0D
:100D5000DC7070474FF0FF0C1CEAD0521EBF1CEA3B
:100D6000D15392EA0C0F93EA0C0F6FD01A4480EA29
:100D7000010C400218BF5FEA41211ED04FF0006312
:100D800043EA501043EA5111A0FB01310CF000403E
:100D9000B1F5000F3EBF490041EAD3715B0040EA64
:100DA000010062F17F02FD2A1DD8B3F1004F40EB34
:100DB000C25008BF20F00100704790F0000F0CF007
:100DC000004C08BF49024CEA502040EA51207F3ACB
:100DD000C2BFD2F1FF0340EAC250704740F40000A6
:100DE0004FF00003013A5DDC12F1190FDCBF00F097
:100DF00000407047C2F10002410021FA02F1C2F145
:100E0000200200FA02FC5FEA310040F1000053EAE0
:100E10004C0308BF20EADC70704792F0000F00F02E
:100E2000004C02BF400010F4000F013AF9D040EA34
:100E30000C0093F0000F01F0004C02BF490011F4C8
:100E4000000F013BF9D041EA0C018FE70CEAD153C6
:100E500092EA0C0F18BF93EA0C0F0AD030F0004C46
:100E600018BF31F0004CD8D180EA010000F00040FA
:100E7000704790F0000F17BF90F0004F084691F0B8
:100E8000000F91F0004F14D092EA0C0F01D14202F2
:100E90000FD193EA0C0F03D14B0218BF084608D1BB
:100EA00080EA010000F0004040F0FE4040F4000005
:100EB000704740F0FE4040F4400070474FF0FF0C98
:100EC0001CEAD0521EBF1CEAD15392EA0C0F93EADF
:100ED0000C0F69D0A2EB030280EA010C49024FEA31
:100EE000402037D04FF0805343EA111143EA1013EA
:100EF0000CF000408B4238BF5B0042F17D024FF4A2
:100F0000000C8B4224BF5B1A40EA0C00B3EB510F7C
:100F100024BFA3EB510340EA5C00B3EB910F24BF65
:100F2000A3EB910340EA9C00B3EBD10F24BFA3EBEA
:100F3000D10340EADC001B0118BF5FEA1C1CE0D1B2
:100F4000FD2A3FF650AF8B4240EBC25008BF20F065
:100F5000010070470CF0004C4CEA50207F32C2BFB9
:100F6000D2F1FF0340EAC250704740F400004FF056
:100F70000003013A37E792F0000F00F0004C02BF87
:100F8000400010F4000F013AF9D040EA0C0093F051
:100F9000000F01F0004C02BF490011F4000F013BAB
:100FA000F9D041EA0C0195E70CEAD15392EA0C0F13
:100FB00008D142027FF47DAF93EA0C0F7FF470AF4B
:100FC000084676E793EA0C0F04D14B023FF44CAF8E
:100FD00008466EE730F0004C18BF31F0004CCAD123
:100FE00030F000427FF45CAF31F000437FF43CAF5F
:100FF0005FE700BF4FEA4002B2F1FE4F0FD34FF060
:101000009E03B3EB12620DD94FEA002343F0004375
:1010100010F0004F23FA02F018BF404270474FF023
:101020000000704712F1610F01D1420205D110F0AA
:10103000004008BF6FF0004070474FF0000070475D
:1010400080B584B000AF78607B681B88BB810423C7
:10105000BB730223FB737B685B6807F10C021146CC
:10106000184600F0C3FF7B685B883B810423BB729A
:101070000223FB727B689B6807F108021146184641
:1010800000F0B4FF00BF1037BD4680BD80B584B00E
:1010900002AF78600B46FB707B68D8687B68197C70
:1010A000FA78242300934FF47A7301F0F9FC7B68FB
:1010B00058687B681B880122194601F016F87B6886
:1010C00098687B685B880022194601F00EF800BF23
:1010D0000837BD4680BD000080B58CB000AF02234C
:1010E00087F82F3000237B6200233B62234BBB60D9
:1010F00000233B610023BB620023FB60204801F01A
:1011000093F807F1080319461D4801F005F800237C
:10111000FB710023BB71FB1D01221946752000F0F5
:101120006BF8FB79682B00D0FEE70523BB71BB1D74
:10113000012219461A2000F025F80823BB71BB1DB7
:10114000012219461B2000F01DF81023BB71BB1DA6
:10115000012219461C2000F015F80023BB71BB1DAD
:10116000012219466B2000F00DF8032387F82F3079
:1011700097F82F3018463037BD4680BDA086010055
:101180000054004080B586B002AF03463960FB7161
:101190001346BB710023BB730023FB73FB793B72C7
:1011A0000123FB730CE0FB7B013B3A681A44FB7B99
:1011B000127810333B4403F8082CFB7B0133FB739C
:1011C000BA79FB7B9A42EED2BB790133194607F11B
:1011D000080200230193002300930B466821054871
:1011E00001F06CF80123BB73BB7B18461037BD467A
:1011F00080BD00BF0054004080B586B002AF0346FA
:101200003960FB8013467B710423FB73FB88DBB2E0
:101210003B7307F10C020023019301230093012388
:1012200068210A4801F04AF87B79012201920022E4
:1012300000923A686821054801F096F80523FB738F
:10124000FB7B18461037BD4680BD00BF00540040F0
:101250002DE9B04F00AF06E1062293493B20FFF78E
:10126000CBFF914B1B781B028F4A527813431846D1
:10127000FFF7D0F84FF000028C4BFFF75FFA024601
:101280000B4610461946FFF707FC0346884A1360D1
:10129000854B9B781B02844AD27813431846FFF78C
:1012A000B9F84FF00002814BFFF748FA02460B46AF
:1012B00010461946FFF7F0FB03467E4A13607A4B4F
:1012C0001B791B02784A527913431846FFF7A2F89C
:1012D0004FF00002754BFFF731FA02460B461046FD
:1012E0001946FFF7D9FB0346734A1360734B1B681B
:1012F0001846FFF7A1F804460D466E4B1B681846CA
:10130000FFF79AF880468946694B1B681846FFF735
:1013100093F84FF000024FF0804303F047FC824601
:101320008B46654B1B681846FFF786F84FF00002A6
:101330004FF0804303F03AFC02460B4650465946B4
:10134000FEF71CFF02460B461046194603F096FCBA
:1013500002460B4640464946FFF7F0F902460B4667
:101360001046194603F0B0FC4FF00002544BFFF753
:10137000BBF802460B461046194649A3D3E90023A1
:10138000FFF7DCF902460B4620462946FEF7F6FE3B
:1013900002460B4610461946FFF77EFB0346474AB6
:1013A0001360484B1B681846FFF746F804460D4685
:1013B0003F4B1B6883F000431846FFF73DF880461B
:1013C00089463C4B1B681846FFF736F84FF0000281
:1013D0004FF0804303F0EAFB82468B46364B1B6896
:1013E0001846FFF729F84FF000024FF0804303F052
:1013F000DDFB02460B4650465946FEF7BFFE02464D
:101400000B461046194603F039FC02460B4640468F
:101410004946FFF793F902460B461046194603F07A
:1014200053FC4FF00002264BFFF75EF802460B46D6
:10143000104619461AA3D3E90023FFF77FF90246A5
:101440000B4620462946FEF799FE02460B461046FB
:101450001946FFF721FB03461A4A13601A4B1B6813
:101460000133194A1360184B1B68C72B7FF7F4AE82
:10147000124B1B6815491846FFF720FD03461A4614
:101480000E4B1A600F4B1B6810491846FFF716FDEC
:1014900003461A460B4B1A600B4B00221A606FE092
:1014A0001F85EB51B81E0940A80000200000B04085
:1014B0009C000020A0000020A40000208800002044
:1014C000008066408C00002084000020000048431B
:1014D000062241494320FFF78FFE3F4B1B781B023A
:1014E0001AB23D4B5B781BB213431BB21846FEF792
:1014F00091FF37A3D3E90023FFF720F902460B46FB
:1015000010461946FFF7A0FA0346344A1360324BDF
:101510009B781B021AB2304BDB781BB213431BB211
:101520001846FEF777FF2AA3D3E90023FFF706F951
:1015300002460B4610461946FFF786FA0346284A2C
:101540001360254B1B791B021AB2234B5B791BB22C
:1015500013431BB21846FEF75DFF1DA3D3E900231A
:10156000FFF7ECF802460B4610461946FFF76CFAF7
:1015700003461C4A13601C4B1B6801331A4A136054
:10158000194B1B68C72BA3DD144B1B68174A82FB42
:1015900003129211DB17D31A104A1360104B1B6809
:1015A000124A82FB03129211DB17D31A0C4A136002
:1015B0000B4B1B680D4A82FB03129211DB17D31AE7
:1015C000084A136000BFBDE8B08F00BFAFF30080D2
:1015D0000000000000605040A800002090000020A3
:1015E0009400002098000020840000201F85EB510B
:1015F0002DE9B04384B000AFF860B9607A60C64BA3
:1016000000221A700122C4496B20FFF7BBFDC24BB8
:1016100005221A700122C0491A20FFF7B3FDBE4B04
:1016200010221A700122BC491C20FFF7ABFD0622D4
:10163000BA493B20FFF7E0FDB84B1B781B021AB2FA
:10164000B64B5B781BB213431BB21846FEF7E2FEA3
:101650004FF00002B24BFFF771F802460B461046FE
:101660001946FFF719FA0346AE4A1360AB4B9B7855
:101670001B021AB2A94BDB781BB213431BB21846EC
:10168000FEF7C8FE4FF00002A54BFFF757F80246E1
:101690000B4610461946FFF7FFF90346A24A1360AE
:1016A0009E4B1B791B021AB29C4B5B791BB21343F6
:1016B0001BB21846FEF7AEFE4FF00002984BFFF744
:1016C0003DF802460B4610461946FFF7E5F903467A
:1016D000964A1360944B1B681846FEF7ADFE04460D
:1016E0000D46904B1B681846FEF7A6FE4FF0000211
:1016F0004FF0804303F05AFA804689468B4B1B68B3
:101700001846FEF799FE4FF000024FF0804303F0B9
:101710004DFA02460B4640464946FEF72FFD02466B
:101720000B461046194603F0A9FA02460B4620461E
:101730002946FFF703F802460B461046194603F008
:10174000C3FA4FF000027A4BFEF7CEFE02460B467C
:101750001046194668A3D3E90023FEF7EFFF0246BF
:101760000B461046194666A3D3E90023FEF704FD95
:1017700002460B4610461946FFF78EF903466D4A9E
:101780001360684B1B6883F000431846FEF754FE55
:1017900004460D46644B1B681846FEF74DFE4FF09D
:1017A00000024FF0804303F001FA804689465F4B08
:1017B0001B681846FEF740FE4FF000024FF08043D2
:1017C00003F0F4F902460B4640464946FEF7D6FCC4
:1017D00002460B461046194603F050FA02460B46E5
:1017E00020462946FEF7AAFF02460B461046194638
:1017F00003F06AFA4FF000024D4BFEF775FE024609
:101800000B46104619463CA3D3E90023FEF796FF8A
:1018100002460B46104619463BA3D3E90023FEF7C8
:10182000ADFC02460B4610461946FFF735F9034654
:10183000414A1360384B08221A70012236491B2096
:10184000FFF7A0FC062235494320FFF7D5FC334BB8
:101850001B781B021AB2314B5B781BB213431AB2CE
:10186000364B1A802D4B9B781B021AB22B4BDB7820
:101870001BB213431AB2324B1A80284B1B791B023E
:101880001AB2264B5B791BB213431AB22D4B1A8046
:101890002A4BB3F900301846FEF7BCFD1CA3D3E970
:1018A0000023FEF74BFF02460B4614461D46264B0F
:1018B0001B681846FEF7AEFD02460B462046294639
:1018C000FEF75AFC02460B4610461946FFF7E4F8AD
:1018D00003461E4A13601A4BB3F900301846FEF750
:1018E00099FD0BA3D3E90023FEF728FF02460B4620
:1018F00014461D462CE000BF1F85EB51B81E094061
:101900008FC2F5285C8FE23F48E17A14AE47F93F79
:101910000000000000605040AE000020BC0000202D
:101920000000B040B0000020B4000020B80000204B
:1019300000806640C4000020C8000020E0000020B5
:10194000E2000020E400002090000020E8000020D9
:10195000854B1B681846FEF75DFD02460B46204688
:101960002946FEF709FC02460B4610461946FFF7CA
:1019700093F803467D4A13607D4BB3F90030184657
:10198000FEF748FD72A3D3E90023FEF7D7FE024617
:101990000B4614461D46774B1B681846FEF73AFD6A
:1019A00002460B4620462946FEF7E6FB02460B465A
:1019B00010461946FFF770F803466F4A136001F0AE
:1019C00023FC03461846FFF76DF903466B4A136084
:1019D0006A4B1B686A491846FFF770FA03461A46B5
:1019E000664B1A6001F019FC664B1B68634A12686B
:1019F00011461846FFF7AEF903461A46624B1B68BC
:101A000019461046FFF79EF803461A465E4B1A60C9
:101A1000564B1B68594A126811461846FFF79AF947
:101A200003461A46594B1B6819461046FFF78AF8B9
:101A300003461A46554B1A604F4B1B684F4A1268B3
:101A400011461846FFF786F903461A46504B1B68A5
:101A500019461046FFF776F803461A464C4B1A60B3
:101A600001F0E9FB484B1B681846FEF7E5FC3AA37A
:101A7000D3E90023FEF738FD02460B4614461D4607
:101A8000444B1B681846FEF7D7FC35A3D3E9002367
:101A9000FEF72AFD02460B4620462946FEF76EFB5E
:101AA00002460B4610461946FEF7F6FF03463A4A31
:101AB0001360364B1B681846FEF7BEFC26A3D3E91D
:101AC0000023FEF711FD02460B4614461D46334B1C
:101AD0001B681846FEF7B0FC21A3D3E90023FEF7EC
:101AE00003FD02460B4620462946FEF747FB024609
:101AF0000B4610461946FEF7CFFF0346284A1360EF
:101B0000254B1B681846FFF775FA03461A46254908
:101B1000F86802F0A1FB224B1B681846FFF76AFA2F
:101B200003461A461F49B86802F096FB184B1B681B
:101B30001846FFF75FFA03461A461A49786802F01A
:101B40008BFB00BF1037BD46BDE8B083AFF300800C
:101B50000000000000605040B81E85EB51B8EE3F19
:101B60007B14AE47E17AA43F94000020EC000020F3
:101B7000E400002098000020F00000200000002079
:101B800000247449E8000020CC000020D000002090
:101B9000D4000020C4000020D8000020C80000208D
:101BA000DC000020385D000880B584B000AF7860AC
:101BB0007B681B88BB817B689B78BB737B68DB7809
:101BC000FB737B681A88084B1A8007F10C031946CF
:101BD000064800F00BFA00220221044800F085FAC2
:101BE00000BF1037BD4680BDF4000020000C01404E
:101BF00080B584B002AF7860084611461A460346A5
:101C0000FB700B463B801346BB703B7D002B02D024
:101C1000012B08D00FE00F4B1B88002219460E48FD
:101C200000F063FA07E00B4B1B88012219460A48B3
:101C300000F05BFA00BFB8783A88F9782423019362
:101C40003B6900930346786801F004FB00BF083746
:101C5000BD4680BDF4000020000C014080B500AFFF
:101C6000054B5B69044A43F001035361034B1B6856
:101C7000984700BF80BD00BF00040140F80000206D
:101C800080B500AF054B5B69044A43F00203536122
:101C9000034B5B68984700BF80BD00BF0004014054
:101CA000F800002080B500AF054B5B69044A43F0A3
:101CB00004035361034B9B68984700BF80BD00BF7E
:101CC00000040140F800002080B500AF054B5B69BF
:101CD000044A43F008035361034BDB68984700BF95
:101CE00080BD00BF00040140F800002080B500AFB7
:101CF000054B5B69044A43F010035361034B1B69B6
:101D0000984700BF80BD00BF00040140F8000020DC
:101D100080B500AF264B5B6903F02003002B08D091
:101D2000234B5B69224A43F020035361214B5B69DB
:101D300098471F4B5B6903F04003002B08D01C4BF6
:101D40005B691B4A43F0400353611A4B9B699847F8
:101D5000174B5B6903F08003002B08D0144B5B69C1
:101D6000134A43F080035361124BDB699847104BD1
:101D70005B6903F48073002B08D00D4B5B690C4A40
:101D800043F4807353610B4B1B6A9847084B5B69A4
:101D900003F40073002B08D0054B5B69044A43F43D
:101DA00000735361034B5B6A984700BF80BD00BF5F
:101DB00000040140F800002080B500AF2D4B5B69A6
:101DC00003F48063002B08D02A4B5B69294A43F453
:101DD00080635361284B9B6A9847264B5B6903F4E9
:101DE0000063002B08D0234B5B69224A43F4006355
:101DF0005361214BDB6A98471E4B5B6903F48053A8
:101E0000002B08D01B4B5B691A4A43F48053536183
:101E1000194B1B6B9847174B5B6903F40053002B5E
:101E200008D0144B5B69134A43F400535361124BBF
:101E30005B6B98470F4B5B6903F48043002B08D022
:101E40000C4B5B690B4A43F4804353610A4B9B6B19
:101E50009847084B5B6903F40043002B08D0054BFF
:101E60005B69044A43F400435361034BDB6B9847BF
:101E700000BF80BD00040140F800002080B483B0A2
:101E800000AF0346FB80FB88B3F5004F00F0A58050
:101E9000B3F5004F00F3A380B3F5804F00F09B80B3
:101EA000B3F5804F00F39B80B3F5005F00F09180A5
:101EB000B3F5005F00F39380B3F5805F00F0878097
:101EC000B3F5805F00F38B80B3F5006F7DD0B3F581
:101ED000006F00F38480B3F5806F74D0B3F5806F2A
:101EE0007DDCB3F5007F6CD0B3F5007F77DCB3F514
:101EF000807F64D0B3F5807F71DC802B5DD0802B38
:101F00006DDC202B48DC002B69DD013B1F2B66D8E4
:101F100001A252F823F000BF9F1F0008A31F000872
:101F2000DF1F0008A71F0008DF1F0008DF1F0008D1
:101F3000DF1F0008AB1F0008DF1F0008DF1F0008BD
:101F4000DF1F0008DF1F0008DF1F0008DF1F000879
:101F5000DF1F0008AF1F0008DF1F0008DF1F000899
:101F6000DF1F0008DF1F0008DF1F0008DF1F000859
:101F7000DF1F0008DF1F0008DF1F0008DF1F000849
:101F8000DF1F0008DF1F0008DF1F0008DF1F000839
:101F9000DF1F0008B31F0008402B0CD01FE00023F8
:101FA0001EE004231CE008231AE00C2318E0102391
:101FB00016E0142314E0182312E01C2310E0002381
:101FC0000EE004230CE008230AE00C2308E01023B1
:101FD00006E0142304E0182302E01C2300E00023A1
:101FE00018460C37BD4680BC704700BF90B585B021
:101FF00000AF786039600023BB600023FB733B684F
:102000001B88FF2B01D87B6801E07B680433BB6031
:102010003B681B881846FFF731FF03461A460F231B
:102020009340DA43BB681B681A40BB681A603B6880
:102030009B78072B0BD03B689B78062B07D03B681F
:102040009B78052B03D03B689B78042B0ED13B6813
:102050009B78043B9B005AB23B68DB785BB213432E
:102060005BB2DBB203F00F03FB732CE03B689B78A1
:10207000012B03D03B689B78002B07D13B689B78F2
:102080009B00DBB203F00F03FB731CE03B689B7803
:10209000082B02D10423FB7315E00823FB733B6874
:1020A0009B78022B07D17B68DB683A6812881A4359
:1020B0007B68DA6007E07B68DB683A681288D243A5
:1020C0001A407B68DA60FC7B3B681B881846FFF788
:1020D000D5FE034604FA03F2BB681B681A43BB68CB
:1020E0001A6000BF1437BD4690BD80B483B000AF06
:1020F00078600B467B8013467B707B78002B03D087
:102100007A887B681A6102E07A887B685A6100BF2E
:102110000C37BD4680BC7047B0B586B000AF786064
:1021200039600023FB820023BB82394B3B610023D3
:10213000FB817B68374A934210D1374A3B6814468B
:102140001D460FCD0FC40FCD0FC42B682360334B3A
:10215000DB69324A43F40013D36110E02E4B3A6836
:1021600003F1240415460FCD0FC40FCD0FC42B6807
:1021700023602A4BDB69294A43F48003D3617B68DF
:102180001B6823F001027B681A607B685B6823F0A0
:102190003F027B685A607B685A683B692049A1FB13
:1021A00003139B0C1A437B685A607B68DB6923F43A
:1021B000FF6323F007037A68D3617B68DA693B69C0
:1021C0009B091849A1FB03139B091A437B68DA6139
:1021D0007B681B6A03F03F027B681A627B681A6A9D
:1021E0003B690F49A1FB03139B0C01331A437B6826
:1021F0001A627B681B6843F001027B681A60012148
:10220000786800F026FA00BF1837BD46B0BD00BFA1
:10221000005125020054004034010020001002400B
:1022200083DE1B43632D3E0580B584B000AF78602C
:102230007B681F4A934218D14023BB810723BB739D
:102240000123FB7307F10C0319461A48FFF7CEFE72
:102250008023BB810723BB730123FB7307F10C03AE
:1022600019461448FFF7C2FE1DE07B68124A9342EC
:1022700019D14FF48063BB810723BB730123FB7328
:1022800007F10C0319460B48FFF7B0FE4FF400634B
:10229000BB810723BB730123FB7307F10C031946B2
:1022A0000448FFF7A3FE00BF1037BD4680BD00BF46
:1022B00000540040000C01400058004080B586B03A
:1022C00000AFF8607A603B600B467B8100237B6146
:1022D00097F824301A460121F86800F0B9F800BFD9
:1022E0000121F86800F0E8F80346002BF8D07B895C
:1022F00000221946F86800F067F900BF0221F8686B
:1023000000F0DAF80346002BF8D000BF1549F86852
:1023100000F0D2F80346002BF8D000237B6111E0D7
:102320007B697A6813441B781A46FB681A6100BF00
:102330000321F86800F0C0F80346002BF8D07B6951
:1023400001337B617B693A689A42E9D897F820307B
:10235000002B03D10121F86800F060F900BF1837A5
:10236000BD4680BD8000070080B586B000AFF86034
:102370007A603B600B467B8100237B61FB68334ABC
:10238000934214BF01230023DBB2FB740121F868E0
:1023900000F05FF997F824301A460121F86800F040
:1023A00057F800BF0121F86800F086F80346002BBB
:1023B000F8D07B8901221946F86800F005F900BFC2
:1023C0000221F86800F078F80346002BF8D03B684B
:1023D000012B04D80021F86800F03BF903E001214B
:1023E000F86800F036F93B68002B1FD03B687B6132
:1023F00019E000BF0521F86800F05EF80346002BE5
:10240000F8D0FB681B69DAB27B681A707B6801330D
:102410007B607B69022B03D10021F86800F019F979
:102420007B69013B7B617B69002BE2DC0121F86861
:1024300000F00FF997F82030002B03D10121F86844
:1024400000F0ECF800BF1837BD4680BD00540040D6
:1024500080B582B000AF78600B46FB701346BB704E
:10246000BB78012B07D000BF0021786800F024F86A
:102470000346002BF8D1FB78002B12D07B681B6839
:1024800023F400627B681A607B681B6843F48062F7
:102490007B681A607B681B6843F480727B681A60F3
:1024A00005E07B681B6823F480727B681A6000BFBC
:1024B0000837BD4680BD000080B489B000AF7860A9
:1024C00039600023BB6100237B6100233B61002353
:1024D000FB773B68052B11D83B68052B6BD801A215
:1024E00052F823F0072500081F25000837250008AB
:1024F00087250008872500089F2500083B68314A8A
:10250000934227D057E07B689B6903F00203002BBE
:1025100002D00123FB774EE00023FB774BE07B6882
:102520005B6903F00103002B02D00123FB7742E03B
:102530000023FB773FE07B685B6903F00203002B1D
:1025400002D00123FB7701E00023FB777B689B69C6
:10255000FB6030E07B685B69BB617B689B697B618A
:102560007B691B047B61BA697B6913433B613A69F0
:102570003B6813403A689A4202D10123FB771AE084
:102580000023FB7717E07B685B6903F08003002B77
:1025900002D00123FB770EE00023FB770BE07B6882
:1025A0005B6903F04003002B02D00123FB7701E0BD
:1025B0000023FB7700BFFB7F18462437BD4680BC55
:1025C000704700BF8000070080B485B000AF78601E
:1025D0000B467B8013467B707B680F4A934214BF87
:1025E00001230023DBB2FB737B885B007B807B785D
:1025F000002B04D07B8843F001037B8003E07B88C1
:1026000023F001037B807A887B681A6100BF14374E
:10261000BD4680BC704700BF0054004080B483B00A
:1026200000AF78600B46FB70FB78002B06D07B6810
:102630001B6843F400727B681A6005E07B681B68C6
:1026400023F400727B681A6000BF0C37BD4680BC63
:10265000704780B483B000AF78600B46FB70FB78A6
:10266000002B06D07B681B6843F480627B681A608D
:1026700005E07B681B6823F480627B681A6000BFFA
:102680000C37BD4680BC704780B586B000AF0023D4
:10269000FB71384B7B617B695B6803F400733B61C2
:1026A0007B695B6803F48063FB607B695B6903F0B3
:1026B0001003BB603B69002B0AD0BB68002B07D01E
:1026C0007B691A687B691A600021786900F066F8F6
:1026D0007B695B6903F00203BB603B69002B14D08C
:1026E000BB68002B11D07B699B6903F00103002BB1
:1026F0000BD17B695B69DBB2FB717B699B69DBB2E8
:10270000FB710221786900F049F87B695B6903F08D
:102710008003BB603B69002B0FD0FB68002B0CD003
:10272000BB68002B09D07B699B6903F00103002B78
:1027300003D10321786900F031F87B695B6903F00C
:102740004003BB603B69002B0FD0FB68002B0CD013
:10275000BB68002B09D07B699B6903F00103002B48
:1027600003D10421786900F019F800BF1837BD467D
:1027700080BD00BF0054004080B400AF00BFBD4624
:1027800080BC704780B400AF00BFBD4680BC7047BE
:1027900080B400AF00BFBD4680BC704780B584B038
:1027A00000AF78600B46FB707B68324A934214BFDF
:1027B00001230023DBB2FB73FB78042B56D801A264
:1027C00052F823F0DF270008D92700080328000863
:1027D0001B2800083F2800087B689B6946E07B684F
:1027E0009B6903F00403002B3BD0FA7B224913467C
:1027F000DB0013449B000B4420331B6800209847E8
:102800002FE0FA7B1C491346DB0013449B000B446A
:1028100020331B680220984728E07B689B6903F0FF
:102820000403002B1FD0FA7B13491346DB0013442B
:102830009B000B4420331B680320984713E07B6800
:102840009B6903F00403002B0FD1FA7B0A4913465E
:10285000DB0013449B000B4420331B680420984783
:1028600003E000BF02E000BF00E000BF00BF103780
:10287000BD4680BD005400403401002080B485B0C6
:1028800000AF03460A46FB711346BB710023FB737E
:10289000FB79022B49D0022B00F3CC80002B00F0F7
:1028A000C880012B40F0C680654B1B68644A23F446
:1028B00080231360624B1B68614A43F480331360CA
:1028C0005F4B5B685E4A43F480335360BB79482BAF
:1028D00006D15B4B5B685A4A43F4E013536000BF78
:1028E000574B1B68564A43F080731360544B5B6828
:1028F000534A23F003035360514B5B68504A43F043
:10290000020353604E4B5B684D4A43F080035360B3
:102910004B4B5B684A4A23F460535360484B5B68F7
:10292000474A23F4E063536084E0454B1B68444A04
:1029300023F001031360424B5B68414A23F4803368
:102940005360BB79103B142B5DD801A252F823F0E1
:10295000A5290008072A0008072A0008072A0008F6
:10296000B3290008072A0008072A0008072A0008D8
:10297000C1290008072A0008CF290008072A0008F3
:10298000DD290008072A0008072A0008072A00088E
:10299000EB290008072A0008072A0008072A000870
:1029A000F9290008264B5B68254A43F4002353604D
:1029B00029E0234B5B68224A43F44023536022E022
:1029C0001F4B5B681E4A43F4801353601BE01C4B93
:1029D0005B681B4A43F45013536014E0184B5B6868
:1029E000174A43F4A01353600DE0154B5B68144A7B
:1029F00043F4C013536006E0114B5B68104A43F484
:102A0000E013536000BF0E4B1B680D4A43F0807308
:102A1000136000BF0A4B1B6803F00073002BF9D052
:102A2000074B5B68064A43F0020353600123FB73C4
:102A300000E000BFFB7B18461437BD4680BC7047E2
:102A40000010024080B483B000AF0346FB71134B0B
:102A5000DB69124A43F00103D361FB795A1E4FF040
:102A600080439A624FF080434CF25032DA624FF06A
:102A700080431B684FF0804243F00103136000BFA6
:102A80004FF080431B6903F00103002BF8D000BF17
:102A900000BF0C37BD4680BC704700BF001002402D
:102AA00080B598B000AFF8607B600B46FB721346B0
:102AB000BB72012387F85F300023BB6501237B6570
:102AC00017E097F86830914A02FB03F319467B68D8
:102AD0007A6D02FB03F3B1FBF3F3BB65BB6DB3F59A
:102AE000FA4F03D37B6D02337B6502E0002387F846
:102AF0005F3097F85F30012BE3D0FB68844A934244
:102B000040F0D880834B9B69824A43F40063936111
:102B1000804B9B697F4A43F0040393617D4B9B6923
:102B20007C4A43F001039361FB681B6823F00102B8
:102B3000FB681A60FB7A032B00F2368301A252F87D
:102B400023F000BF552B0008AD2B0008052C000812
:102B50005D2C0008704B1B683B6507F1500319465C
:102B60006E48FFF743FAFB689B6943F00802FB6875
:102B70009A61FB681B6A43F00102FB681A62FB68FA
:102B80009B6943F06002FB689A61BB7ABA6D02FBF5
:102B900003F3634AA2FB03235A09FB685A63FB68E9
:102BA0005B6C43F40042FB685A64FDE25D4B1B68BA
:102BB000FB6407F14C0319465848FFF717FAFB6806
:102BC0009B6943F40062FB689A61FB681B6A43F0EF
:102BD0001002FB681A62FB689B6943F4C042FB6801
:102BE0009A61BB7ABA6D02FB03F34D4AA2FB032341
:102BF0005A09FB689A63FB685B6C43F40042FB680C
:102C00005A64D1E2484B1B68BB6407F1480319467C
:102C10004248FFF7EBF9FB68DB6943F00802FB6809
:102C2000DA61FB681B6A43F48072FB681A62FB6816
:102C3000DB6943F06002FB68DA61BB7ABA6D02FBC4
:102C400003F3374AA2FB03235A09FB68DA63FB68E4
:102C50005B6C43F40042FB685A64A5E2334B1B688B
:102C60007B6407F1440319462C48FFF7BFF9FB6862
:102C7000DB6943F40062FB68DA61FB681B6A43F4BA
:102C80008052FB681A62FB68DB6943F4C042FB6850
:102C9000DA61BB7ABA6D02FB03F3214AA2FB03237C
:102CA0005A09FB681A64FB685B6C43F40042FB68DA
:102CB0005A6479E2FB68B3F1804F40F0D180154B44
:102CC000DB69144A43F00103D361124B9B69114A3B
:102CD00043F0040393610F4B9B690E4A43F00103D9
:102CE0009361FB681B6823F00102FB681A60FB7AA2
:102CF000032B00F2598201A252F823F0312D000873
:102D00007D2D0008C92D0008152E000840420F0037
:102D1000002C0140001002403C5D0008000801400A
:102D20001F85EB51405D0008445D0008485D0008C8
:102D30009D4B1B683B6407F1400319469B48FFF716
:102D400055F9FB689B6943F00802FB689A61FB68D0
:102D50001B6A43F00102FB681A62FB689B6943F03F
:102D60006002FB689A61BB7ABA6D02FB03F3904A7A
:102D7000A2FB03235A09FB685A6315E28D4B1B68BB
:102D8000FB6307F13C0319468848FFF72FF9FB68FE
:102D90009B6943F40062FB689A61FB681B6A43F01D
:102DA0001002FB681A62FB689B6943F4C042FB682F
:102DB0009A61BB7ABA6D02FB03F37D4AA2FB03233F
:102DC0005A09FB689A63EFE17B4B1B68BB6307F111
:102DD000380319467548FFF709F9FB68DB6943F0CA
:102DE0000802FB68DA61FB681B6A43F48072FB68C7
:102DF0001A62FB68DB6943F06002FB68DA61BB7A48
:102E0000BA6D02FB03F36A4AA2FB03235A09FB686B
:102E1000DA63C9E1694B1B687B6307F13403194628
:102E20006248FFF7E3F8FB68DB6943F40062FB6884
:102E3000DA61FB681B6A43F48052FB681A62FB6824
:102E4000DB6943F4C042FB68DA61BB7ABA6D02FB0E
:102E500003F3574AA2FB03235A09FB681A64A3E150
:102E6000FB68574A934240F0DB80564BDB69554A7A
:102E700043F00203D361534B9B69524A43F004036E
:102E80009361504B9B694F4A43F0080393614D4B4C
:102E90009B694C4A43F001039361FB681B6823F074
:102EA0000102FB681A60FB7A032B00F27D8101A20C
:102EB00052F823F0C52E0008112F00085D2F0008DE
:102EC000D52F0008404B1B683B6307F130031946C0
:102ED0003648FFF78BF8FB689B6943F00802FB68F4
:102EE0009A61FB681B6A43F00102FB681A62FB6887
:102EF0009B6943F06002FB689A61BB7ABA6D02FB82
:102F000003F32B4AA2FB03235A09FB685A634BE1E4
:102F10002E4B1B68FB6207F12C0319462348FFF771
:102F200065F8FB689B6943F40062FB689A61FB6883
:102F30001B6A43F01002FB681A62FB689B6943F44A
:102F4000C042FB689A61BB7ABA6D02FB03F3184A70
:102F5000A2FB03235A09FB689A6325E1124B1B6805
:102F6000BB6207F1280319461948FFF73FF8FB68D1
:102F7000DB6943F00802FB68DA61FB681B6A43F413
:102F80008072FB681A62FB68DB6943F06002FB68D1
:102F9000DA61BB7ABA6D02FB03F3054AA2FB032395
:102FA0005A09FB68DA63FFE04C5D00080008014045
:102FB0001F85EB51505D0008545D0008585D000806
:102FC00000040040001002405C5D0008605D0008E5
:102FD000000C0140834B1B687B6207F124031946F8
:102FE0008148FFF703F8FB68DB6943F40062FB6884
:102FF000DA61FB681B6A43F48052FB681A62FB6863
:10300000DB6943F4C042FB68DA61BB7ABA6D02FB4C
:1030100003F3764AA2FB03235A09FB681A64C3E050
:10302000FB68734A934240F0BF80724BDB69714A80
:1030300043F00403D3616F4B9B696E4A43F008036E
:1030400093616C4B9B696B4A43F001039361FB688E
:103050001B6823F00102FB681A60FB7A032B00F265
:10306000A38001A252F823F079300008C53000088F
:10307000113100085D3100085F4B1B683B6207F1AE
:10308000200319465848FEF7B1FFFB689B6943F0DF
:103090000802FB689A61FB681B6A43F00102FB6847
:1030A0001A62FB689B6943F06002FB689A61BB7A15
:1030B000BA6D02FB03F34D4AA2FB03235A09FB68D6
:1030C0005A6371E04D4B1B68FB6107F11C03194605
:1030D0004548FEF78BFFFB689B6943F40062FB6881
:1030E0009A61FB681B6A43F01002FB681A62FB6876
:1030F0009B6943F4C042FB689A61BB7ABA6D02FBDC
:1031000003F33A4AA2FB03235A09FB689A634BE094
:103110003B4B1B68BB6107F1180319463248FEF7A9
:1031200065FFFB68DB6943F00802FB68DA61FB6856
:103130001B6A43F48072FB681A62FB68DB6943F028
:103140006002FB68DA61BB7ABA6D02FB03F3274ABF
:10315000A2FB03235A09FB68DA6325E0294B1B68AD
:103160007B6107F1140319461F48FEF73FFFFB6818
:10317000DB6943F40062FB68DA61FB681B6A43F4B5
:103180008052FB681A62FB68DB6943F4C042FB684B
:10319000DA61BB7ABA6D02FB03F3144AA2FB032384
:1031A0005A09FB681A6400BFFB681B6843F0800281
:1031B000FB681A60FB68BA6DDA627B6D5A1EFB68A9
:1031C0009A62FB685B6943F00102FB685A61FB6825
:1031D0001B6843F00102FB681A6000BF6037BD4600
:1031E00080BD00BF505D0008000C01401F85EB5101
:1031F00000080040001002405C5D0008605D0008AF
:103200003C5D0008405D000880B400AF4FF0804393
:103210005B6A1846BD4680BC704780B400AF4FF073
:1032200080431B684FF0804223F00103136000BF0E
:10323000BD4680BC704780B400AF4FF080431B6830
:103240004FF0804243F00103136000BFBD4680BCD5
:103250007047000080B596B000AF78600846114610
:103260001A460346FB700B463B801346BB709B4BD4
:1032700001221A709A4A3B881380012387F857303D
:1032800000233B650123FB6417E097F86430954AFF
:1032900002FB03F319463B6EFA6C02FB03F3B1FB2E
:1032A000F3F33B653B6DB3F5FA4F03D3FB6C02338D
:1032B000FB6402E0002387F8573097F85730012B62
:1032C000E3D07B68884A934240F02081874B9B691A
:1032D000864A43F400639361844B9B69834A43F0BD
:1032E00004039361814B9B69804A43F0010393611E
:1032F0007F4B1B687E4A43F0807313607C4B1B68D6
:103300007B4A43F000731360794B1B68784A43F0A3
:1033100080631360764B1B68754A43F0006313604B
:103320007B681B6823F001027B681A60FB78032B23
:1033300000F2C28301A252F823F000BF4D3300080F
:10334000B13300081534000879340008694B1B6854
:10335000BB6407F1480319466748FEF747FE7B68E0
:103360009B6943F008027B689A617B681B6A43F0A3
:1033700001027B681A627B689B6943F060027B688C
:103380009A61BB783A6D02FB03F35C4AA2FB03230C
:103390005A097B685A637B685B6C43F400427B6824
:1033A0005A647B68DB6843F003027B68DA6083E37E
:1033B000534B1B687B6407F1440319464E48FEF7E4
:1033C00015FE7B689B6943F400627B689A617B68A9
:1033D0001B6A43F010027B681A627B689B6943F4A6
:1033E000C0427B689A61BB783A6D02FB03F3434AA3
:1033F000A2FB03235A097B689A637B685B6C43F4E6
:1034000000427B685A647B68DB6843F005027B6896
:10341000DA6051E33B4B1B683B6407F140031946FC
:103420003548FEF7E3FD7B68DB6943F008027B6803
:10343000DA617B681B6A43F480727B681A627B687E
:10344000DB6943F060027B68DA61BB783A6D02FBAE
:1034500003F32A4AA2FB03235A097B68DA637B68D9
:103460005B6C43F400427B685A647B68DB6843F022
:1034700009027B68DA601FE3234B1B68FB6307F1DB
:103480003C0319461C48FEF7B1FD7B68DB6943F439
:1034900000627B68DA617B681B6A43F480527B6858
:1034A0001A627B68DB6943F4C0427B68DA61BB78EF
:1034B0003A6D02FB03F3114AA2FB03235A097B680E
:1034C0001A647B685B6C43F400427B685A647B68D7
:1034D000DB6843F011027B68DA60EDE27D010020D9
:1034E0007E01002040420F00002C014000100240ED
:1034F00000E100E03C5D0008000801401F85EB5141
:10350000405D0008445D0008485D00087B68B3F139
:10351000804F40F0DD80A04BDB699F4A43F0010300
:10352000D3619D4B9B699C4A43F0040393619A4B82
:103530009B69994A43F001039361984B1B68974A32
:1035400043F0805313607B681B6823F001027B68A3
:103550001A60FB78032B00F2AF8201A252F823F02D
:1035600071350008C9350008213600087936000891
:103570008B4B1B68BB6307F1380319468948FEF77C
:1035800035FD7B689B6943F008027B689A617B6824
:103590001B6A43F001027B681A627B689B6943F0F7
:1035A00060027B689A61BB783A6D02FB03F37E4A46
:1035B000A2FB03235A097B685A637B68DB6843F0EC
:1035C00003027B68DA6077E2784B1B687B6307F164
:1035D000340319467348FEF709FD7B689B6943F481
:1035E00000627B689A617B681B6A43F010027B680B
:1035F0001A627B689B6943F4C0427B689A61BB781E
:103600003A6D02FB03F3684AA2FB03235A097B6865
:103610009A637B68DB6843F005027B68DA604BE203
:10362000634B1B683B6307F1300319465D48FEF7A7
:10363000DDFC7B68DB6943F008027B68DA617B684C
:103640001B6A43F480727B681A627B68DB6943F013
:1036500060027B68DA61BB783A6D02FB03F3524A81
:10366000A2FB03235A097B68DA637B68DB6843F0BB
:1036700009027B68DA601FE24E4B1B68FB6207F1B0
:103680002C0319464748FEF7B1FC7B68DB6943F41D
:1036900000627B68DA617B681B6A43F480527B6856
:1036A0001A627B68DB6943F4C0427B68DA61BB78ED
:1036B0003A6D02FB03F33C4AA2FB03235A097B68E1
:1036C0001A647B68DB6843F011027B68DA60F3E11F
:1036D0007B68394A934240F0F7802F4BDB692E4AD2
:1036E00043F00203D3612C4B9B692B4A43F0040344
:1036F0009361294B9B69284A43F008039361264B49
:103700009B69254A43F001039361244B1B68234ABC
:1037100043F0005313607B681B6823F001027B6851
:103720001A60FB78032B00F2C78101A252F823F044
:1037300041370008C13700081938000871380008FF
:103740001E4B1B68BB6207F1280319461548FEF79C
:103750004DFC7B689B6943F008027B689A617B683B
:103760001B6A43F001027B681A627B689B6943F025
:1037700060027B689A61BB783A6D02FB03F30A4AE8
:10378000A2FB03235A097B685A637B68DB6843F01A
:1037900003027B68DA608FE10010024000E100E084
:1037A0004C5D0008000801401F85EB51505D00088A
:1037B000545D0008585D0008000400405C5D00088E
:1037C0009C4B1B687B6207F1240319469A48FEF75D
:1037D0000DFC7B689B6943F400627B689A617B689F
:1037E0001B6A43F010027B681A627B689B6943F492
:1037F000C0427B689A61BB783A6D02FB03F38F4A43
:10380000A2FB03235A097B689A637B68DB6843F059
:1038100005027B68DA604FE1894B1B683B6207F168
:10382000200319468748FEF7E1FB7B68DB6943F01C
:1038300008027B68DA617B681B6A43F480727B68EC
:103840001A627B68DB6943F060027B68DA61BB78EF
:103850003A6D02FB03F3794AA2FB03235A097B6802
:10386000DA637B68DB6843F001027B68DA6023E19E
:10387000754B1B68FB6107F11C0319467148FEF785
:10388000B5FB7B68DB6943F400627B68DA617B68C7
:103890001B6A43F480527B681A627B68DB6943F4DD
:1038A000C0427B68DA61BB783A6D02FB03F3634A7E
:1038B000A2FB03235A097B681A647B68DB6843F028
:1038C00001027B68DA60F7E07B68604A934240F06F
:1038D000F3805F4BDB695E4A43F00403D3615C4BCA
:1038E0009B695B4A43F008039361594B9B69584AB3
:1038F00043F001039361574B1B68564A43F08043E2
:1039000013607B681B6823F001027B681A60FB78F8
:10391000032B00F2D18001A252F823F02D390008C8
:1039200085390008DD390008613A00084A4B1B68F8
:10393000BB6107F1180319464248FEF757FB7B6845
:103940009B6943F008027B689A617B681B6A43F0BD
:1039500001027B681A627B689B6943F060027B68A6
:103960009A61BB783A6D02FB03F3344AA2FB03234E
:103970005A097B685A637B68DB6843F003027B6803
:10398000DA6099E02B4B1B687B6107F11403194641
:103990002C48FEF72BFB7B689B6943F400627B6835
:1039A0009A617B681B6A43F010027B681A627B682D
:1039B0009B6943F4C0427B689A61BB783A6D02FB15
:1039C00003F31E4AA2FB03235A097B689A637B68B0
:1039D000DB6843F005027B68DA606DE01F4B1B6813
:1039E0003B6107F1100319461648FEF7FFFA7B68A2
:1039F000DB6943F008027B68DA617B681B6A43F489
:103A000080727B681A627B68DB6943F060027B68C6
:103A1000DA61BB783A6D02FB03F3084AA2FB032389
:103A20005A097B68DA637B68DB6843F001027B68D4
:103A3000DA6041E0605D0008000801401F85EB513D
:103A40004C5D0008000C0140505D0008000800407B
:103A50000010024000E100E05C5D00083C5D0008F1
:103A6000274B1B68FB6007F10C0319462548FEF73E
:103A7000BDFA7B68DB6943F400627B68DA617B68CE
:103A80001B6A43F480527B681A627B68DB6943F4EB
:103A9000C0427B68DA61BB783A6D02FB03F31A4AD5
:103AA000A2FB03235A097B681A647B68DB6843F036
:103AB00001027B68DA6000BF7B681B6843F080020C
:103AC0007B681A607B683A6DDA62FB6C5A1E7B6811
:103AD0009A627B68DB6843F001027B68DA607B688E
:103AE0005B6943F001027B685A617B681B6843F0A5
:103AF00001027B681A6000BF5837BD4680BD00BF19
:103B0000405D0008000C01401F85EB5180B400AF00
:103B1000184B1B78012B28D14FF080431B694FF0C5
:103B2000804223F0010313614FF080431B694FF083
:103B3000804223F0020313610F4B1B88002B06D039
:103B40000D4B1B88013B9AB20B4B1A800DE0094BC1
:103B500000221A704FF080431B684FF0804223F020
:103B600001031360054B01221A7000BFBD4680BCE3
:103B7000704700BF7D0100207E0100207C010020F5
:103B800080B400AF154B1B78012B22D1144B1B695D
:103B9000134A23F001031361114B1B69104A23F0F0
:103BA000020313610F4B1B88002B06D00D4B1B88A3
:103BB000013B9AB20B4B1A800BE0084B00221A70A3
:103BC000074B1B68064A23F001031360064B0122D2
:103BD0001A7000BFBD4680BC704700BF7D01002049
:103BE000000400407E0100207C01002080B400AF72
:103BF000154B1B78012B22D1144B1B69134A23F060
:103C000001031361114B1B69104A23F00203136176
:103C10000F4B1B88002B06D00D4B1B88013B9AB223
:103C20000B4B1A800BE0084B00221A70074B1B68E5
:103C3000064A23F001031360064B01221A7000BFED
:103C4000BD4680BC704700BF7D01002000080040D9
:103C50007E0100207C01002080B483B000AF78603A
:103C60007B680B4A934201D100230CE07B68094A30
:103C7000934201D1012306E07B68074A934201D1B8
:103C8000022300E0032318460C37BD4680BC704772
:103C9000003801400044004000480040B0B485B006
:103CA00000AF786039605E4BFB607B685D4A934291
:103CB0000ED15D4A3B6814461D460FCD0FC42B68DC
:103CC00023605A4B9B69594A43F48043936126E031
:103CD0007B68574A93420FD1534B3A6803F114045F
:103CE00015460FCD0FC42B682360504BDB694F4A3C
:103CF00043F40033D36112E07B684E4A93420ED105
:103D0000494B3A6803F1280415460FCD0FC42B68C0
:103D10002360464BDB69454A43F48023D3617B68CB
:103D2000DB6843F400527B68DA607B68DB683A68E2
:103D300012781A437B68DA607B68DB683A68127A2B
:103D40001A437B68DA607B68DB683A68527A1A4308
:103D50007B68DA607B681B693A68927A1A437B68F1
:103D60001A617B685B693A68D27A1A437B685A6148
:103D70003B685B681B01FA68B2FBF3F31901FA6850
:103D800013469B0013449A001A443B685B689B00EF
:103D9000B2FBF3F23B685B681B01F868B0FBF3F31E
:103DA000642000FB03F3D31A1B01234AA2FB032365
:103DB0005B0903F00F030B43BB607B68BA689A6032
:103DC0003B681B7B002B26D07B68DB683A68127B44
:103DD0001A437B68DA607B68124A934206D1174B1C
:103DE0001B68164A43F02003136014E07B68104AF6
:103DF000934206D1114B1B68104A43F040031360F5
:103E000009E07B680B4A934205D10C4B1B680B4AB7
:103E100043F08003136000BF1437BD46B0BC704749
:103E200000512502003801408001002000100240AE
:103E300000440040004800401F85EB5104E100E0D1
:103E400080B586B000AFF860B9601346FB71FB79AE
:103E5000012B06D100BFFB681B6803F08003002B19
:103E6000F9D0F868FFF7F8FE0346FB75BB681B88BE
:103E7000DAB2FB685A6000BF1837BD4680BD80B516
:103E800086B000AFF860B9601346FB710D23BB82AA
:103E90000023FB750AE0FB7DBA681344FA791946E2
:103EA000F868FFF7CDFFFB7D0133FB75FB7DBA683A
:103EB00013441B78002BEED1FA7907F1140319464D
:103EC000F868FFF7BDFF00BF1837BD4680BD000092
:103ED00080B584B000AF78607B682B4A934218D1DC
:103EE0004FF40073BB810623BB730123FB7307F1FF
:103EF0000C0319462548FEF779F84FF48063BB811F
:103F00000823BB7307F10C0319462048FEF76EF82F
:103F100036E07B681E4A934216D10423BB810623F8
:103F2000BB730123FB7307F10C0319461748FEF717
:103F30005DF80823BB810823BB7307F10C03194606
:103F40001248FEF753F81BE07B68124A934217D1E0
:103F50004FF48063BB810623BB730123FB7307F11E
:103F60000C0319460C48FEF741F84FF40063BB817F
:103F70000823BB7307F10C0319460748FEF736F810
:103F800000BF1037BD4680BD003801400008014029
:103F90000044004000480040000C014080B500AFE4
:103FA000024B1B69984700BF80BD00BF8001002005
:103FB00080B500AF024B5B6A984700BF80BD00BF71
:103FC0008001002080B500AF024B9B6B984700BF7B
:103FD00080BD00BF8001002080B500AF48210120D6
:103FE000FEF74CFC174B9B69164A43F01003936194
:103FF000144BDB69134A43F40033D361114B9B69C3
:10400000104A43F0080393610E4B9B690D4A43F03D
:10401000040393610B4B9B690A4A43F001039361CC
:10402000084BDB69074A43F00103D361054BDB69A9
:10403000044A43F40013D3612420FEF703FD00BFBC
:1040400080BD00BF00100240B0B594B002AFFFF7D2
:10405000C3FF4FF41653BB63002387F83F300023A0
:1040600087F8403000237B64002387F83D3000232D
:1040700087F83C30002387F83E300C2387F8343033
:1040800007F1340319463748FFF708FE3548FFF7B4
:104090001FFFFDF721F8FDF7DBF8334B07F1200494
:1040A0001D460FCD0FC42B682360304B07F10C0465
:1040B0001D460FCD0FC42B68236007F1200318465F
:1040C000FCF7BEFF07F10C031846FCF7B9FF284BBD
:1040D0001B68BB60274B1B687B603B1D194626484D
:1040E000FDF784FF07F108031846FDF75DFD234A3D
:1040F00023492448FDF77CFA012223491948FFF798
:10410000BEFE01221F491748FFF7B9FE01221F49D1
:104110001448FFF7B4FE012219491248FFF7AFFE19
:1041200001221B490F48FFF7AAFE012213490D483F
:10413000FFF7A5FE07F1200364211846FCF7A6FF50
:1041400007F10C0364211846FCF7A0FF012301933B
:104150004FF4FA7300933223C82203210D48FDF770
:1041600047FDC4E7004400407C5D0008905D000806
:10417000A45D0008A85D000800100140BC010020FB
:10418000C4010020CC010020645D00086C5D0008C3
:10419000745D00080008004080B586B000AF78600C
:1041A000144A154BD31A7B617B693B61134B1B6827
:1041B000002B02D1114B124A1A60104B1A687B680F
:1041C00013443A699A4207D200F066F803460C227B
:1041D0001A604FF0FF3309E0084B1B68FB60074B88
:1041E0001A687B681344054A1360FB681846183741
:1041F000BD4680BD0050002000040000D401002016
:10420000200300200D488546AFF300800C480D497F
:104210000D4A002302E0D458C4500433C4188C4221
:10422000F9D30A4A0A4C002301E013600432A24287
:10423000FBD300F037F8FFF707FFFEE70050002040
:104240000000002068000020585E00086800002080
:1042500020030020FEE700000EB46FF0004100B51F
:104260009CB01DAB02900690079104910848094943
:1042700053F8042B0591006802A9019300F086F918
:104280000022029B1A701CB05DF804EB03B070476B
:10429000500000200802FFFF014B1868704700BF64
:1042A0005000002070B500260C4D0D4C641BA4106E
:1042B000A64209D101F032FD00260A4D0A4C641BCA
:1042C000A410A64205D170BD55F8043B98470136AD
:1042D000EEE755F8043B98470136F2E7505E0008D8
:1042E000505E0008505E0008545E0008704770473A
:1042F00038B50546002940D051F8043C0C1F002B6E
:10430000B8BFE41800F0DCF81C4A136833B96360E6
:1043100014602846BDE8384000F0D8B8A34208D958
:10432000206821188B4201BF19685B680918216059
:10433000EDE71A465B680BB1A342FAD91168501831
:10434000A0420BD120680144501883421160E0D193
:1043500018685B68084410605360DAE702D90C23E0
:104360002B60D6E7206821188B4201BF19685B6873
:104370000918216063605460CBE738BD1803002042
:1043800070B50E4E0C463168054611B900F0AAFB17
:1043900030602146284600F0A5FB431C0AD0C41C0F
:1043A00024F00304A04207D0211A284600F09AFB0B
:1043B000013001D14FF0FF34204670BD1C030020B6
:1043C0002DE9F843CD1C25F0030508350C2D38BF29
:1043D0000C25002D074601DBA94205D90C23002638
:1043E0003B603046BDE8F883DFF8D08000F068F825
:1043F000D8F800301C465CBB29463846FFF7C0FFA2
:10440000431C044655D1D8F800402646002E45D11D
:10441000002C48D023683146384604EB030900F0ED
:1044200061FB81453FD1216838466D1A2946FFF767
:10443000A7FF013037D023682B442360D8F8003021
:10444000002B38D05A68A2422BD100225A600FE0CC
:104450002268521B1FD40B2A17D96119A342256069
:1044600018BF5960636808BFC8F8001062514B60FC
:10447000384604F10B0600F029F826F00706231D44
:10448000F21AAED09B1BA350ABE7A3426268DDD10A
:10449000C8F80020ECE723466468ACE73446766849
:1044A000B4E71346CCE70C2338463B6000F00EF827
:1044B00097E72560DCE75B60FFDE00BF18030020A4
:1044C0000148FFF713BF00BF140300200148FFF7A6
:1044D0000EBF00BF140300202DE9F0471F468E6871
:1044E0008246BE420C4690460B682CD88A8912F44C
:1044F000906F26D06569096905EB4505A3EB0109B5
:1045000005EBD5757B1C4B446D109D4238BF1D4695
:10451000530527D52946FFF753FF064660B34A46A1
:10452000216900F0FDFAA38923F4906343F080032E
:10453000A38126614E4426603E466561A5EB0905D0
:10454000A560BE4200D93E4632464146206800F092
:10455000AFFA0020A3689B1BA36023683344236049
:10456000BDE8F0872A4600F0E9FA06460028E0D1C7
:1045700050462169FFF7BCFE0C23CAF80030A3891E
:104580004FF0FF3043F04003A381E9E72DE9F04FFE
:1045900098468B8907461B060D4614469DB00ED5DE
:1045A0000B6963B94021FFF70BFF2860286120B930
:1045B0000C233B604FF0FF30D0E040236B610023C1
:1045C000099320238DF8293030234FF00109CDF8CD
:1045D0000C80DFF8A0818DF82A3023469A4613F824
:1045E000012B0AB1252AF9D1BAEB040B0BD05B469B
:1045F000224629463846FFF76FFF013000F0A980B8
:10460000099A5A4409929AF80030002B00F0A180D0
:1046100000234FF0FF32CDE905230AF1010A04938C
:1046200007938DF853301A935446052214F8011B52
:10463000504800F067FA049AD8B9D00644BF202346
:104640008DF85330110744BF2B238DF853309AF85F
:1046500000302A2B15D0544600204FF00A0C079A40
:10466000214611F8013B303B092B4DD9B0B10792DF
:1046700014E0A0EB080309FA03F31343A2460493E2
:10468000D2E7039B191D1B680391002BBBBF5B4244
:1046900042F0020207930793B8BF049223782E2BAF
:1046A0000CD163782A2B34D1039B02341A1D1B686A
:1046B0000392002BB8BF4FF0FF330593DFF8B8A08B
:1046C00003225046217800F01DFA38B14022049BA5
:1046D000A0EB0A00824013430134049314F8011B39
:1046E000062226488DF8281000F00CFA002838D051
:1046F000234B1BBB039B073323F0070308330393B0
:10470000099B3344099368E70C4601200CFB0232F5
:10471000A6E700234FF00A0C194601340593204602
:1047200010F8012B303A092A03D9002BC6D0059185
:10473000C4E7044601230CFB0121F0E703AB00931F
:104740002A4638460F4B04A9AFF30080421C0646A8
:10475000D6D1AB895B063FF52DAF09981DB0BDE8FA
:10476000F08F03AB00932A463846064B04A900F0AD
:104770007DF8EBE7AC5D0008B25D0008B65D0008AF
:1047800000000000D94400082DE9F047164699467C
:104790008A680B6907469342B8BF1346336091F8A5
:1047A00043200C46DDF820800AB1013333602368D2
:1047B000990642BF336802333360256815F0060559
:1047C00006D104F1190AE36832689B1AAB422BDC6C
:1047D00094F84320131E226818BF0123920630D498
:1047E0004946384604F14302C047013023D02368CC
:1047F000226903F00603042B14BF002533684FF031
:10480000000608BFE56804F11A0408BFED1A54F861
:10481000123C08BF25EAE5759342C4BF9B1AED1808
:10482000B5421AD1002008E00123524649463846D5
:10483000C047013003D14FF0FF30BDE8F0870135AC
:10484000C1E73020E11881F843005A1C94F8451064
:104850002244023382F84310C2E70123224649462C
:104860003846C0470130E6D00136D9E72DE9FF4789
:104870000F7E9146782F80460C469A460C9D01F19A
:10488000430207D8622F0AD8002F00F0D580582F96
:1048900000F0C18004F1420584F842703AE0A7F1CB
:1048A0006303152BF6D801A151F823F00549000840
:1048B00019490008954800089548000895480008DF
:1048C00095480008194900089548000895480008CF
:1048D00095480008954800081F4A00084549000807
:1048E000D94900089548000895480008414A000841
:1048F0009548000845490008954800089548000873
:10490000E14900082B681A1D1B682A6004F1420562
:1049100084F842300123A0E020682B68070603F1E9
:104920000401296001D51E6803E04606FBD5B3F9F2
:104930000060002E03DA2D23764284F843300A23E8
:10494000594812E02B682068191D2960050601D519
:104950001E6802E04106FBD51E886F2F0CBF08239E
:104960000A235148002184F843106568002DA8BF30
:104970002168A560A4BF21F0040121600EB9002DBB
:104980004BD01546B6FBF3F103FB1167C75D05F885
:10499000017D3746BB420E46F4D9082B0BD1236864
:1049A000DE0708D5236961689942DEBF302305F828
:1049B000013C05F1FF35521B22614B462146404622
:1049C000CDF800A003AAFFF7DFFE01304AD14FF077
:1049D000FF3004B0BDE8F087236843F02003236074
:1049E0007827324884F84570236829681F0651F8F3
:1049F000046B02D45F0648BFB6B2DF0748BF43F07E
:104A00002003296048BF23601EB9236823F02003D8
:104A100023601023A6E72448E4E71546BDE72B688A
:104A20002668181D6169286035061B6801D5196064
:104A300002E07006FBD51980002315462361BCE710
:104A40002B6800211A1D2A601D686268284600F044
:104A500059F808B1401B606063682361002384F843
:104A60004330AAE72A46494640462369D0470130E9
:104A7000ADD023689B0713D4E068039B9842B8BF6E
:104A80001846A6E70123324649464046D047013042
:104A90009DD00135E36803995B1AAB42F2DCEBE78A
:104AA000002504F11906F5E7BD5D0008CE5D00089C
:104AB000884210B501EB020402D98442234607D88C
:104AC000431EA14208D011F8012B03F8012FF8E78B
:104AD000014602448A4200D110BD13F8014D02F88C
:104AE000014DF7E738B50023054D044608462B6015
:104AF000FFF752FB431C02D12B6803B1236038BD82
:104B000010030020034610B5C9B202449342184670
:104B100001D1002003E0047801338C42F6D110BDAE
:104B20000A44914200F1FF3300D1704710B511F8EB
:104B3000014B914203F8014FF9D110BD2DE9F0412D
:104B4000804614460E4621B91146BDE8F041FFF7F4
:104B500037BC2AB9FFF7CCFB25462846BDE8F081D3
:104B600000F01BF88442074602D8B4EB500F12D86D
:104B700021464046FFF724FC05460028EDD0BC4204
:104B80002246314628BF3A46FFF7CAFF3146404623
:104B9000FFF7AEFBE1E73546DFE751F8043C181FAD
:104BA000002BBCBF0B58C018704700002DE9F8431C
:104BB00014461D468046894600F0F2FA2246064613
:104BC0000F462B4620462946FBF728FFC8BB00228C
:104BD000002340464946FBF7EFFEB8B10022002310
:104BE00020462946FBF7E8FE002841D12046294609
:104BF00000F0F8F928B30022002320462946FBF7ED
:104C0000E5FEF0B1FFF748FB222319E030463946B4
:104C100000F0E8F9C8B94046494600F0E3F9A0B110
:104C20002046294600F0DEF978B132463B46304650
:104C30003946FBF7F3FE0028E4D0FFF72DFB2123D4
:104C4000036030463946BDE8F88300220023304631
:104C50003946FBF7B1FE0028F3D04046494600F044
:104C6000C1F90028EDD02046294600F0BBF9C8E77D
:104C70000026014FE5E700BF0000F03FF8B506460B
:104C80000F4600F0B5F9324604460D463B46304625
:104C90003946FBF7C3FE90B900220023304639465F
:104CA000FBF794FE58B1FFF7F7FA212300220360C7
:104CB000002310461946FBF741FD04460D462046E9
:104CC0002946F8BD000000002DE9F84FB64B21F051
:104CD00000469E4204460D468B4617DDB34B9E426E
:104CE00001DC09D140B122462B4620462946FBF77C
:104CF00045FA04460D4605E0BBF1000FAC4C00F34D
:104D00002181AC4D20462946BDE8F88FAA4B9E4232
:104D100011DCA3F1DE739E420ADC8BA3D3E90023EE
:104D2000FBF72CFA0022A54BFBF76EFE0028E9D119
:104D30004FF0FF3A27E000F051F9A14B04469E42A4
:104D40000D4600F3B880A3F550239E4200F39C80EB
:104D500002460B46FBF712FA0022984BFBF70CFABF
:104D6000002206460F464FF0804320462946FBF7B7
:104D700005FA02460B4630463946FBF7DFFC4FF09A
:104D8000000A04460D4622462B4620462946FBF7DC
:104D9000ABFB02460B4680468946FBF7A5FB6CA39E
:104DA000D3E9002306460F46FBF79EFB6AA3D3E92F
:104DB0000023FBF7E3F932463B46FBF795FB68A37C
:104DC000D3E90023FBF7DAF932463B46FBF78CFBCD
:104DD00065A3D3E90023FBF7D1F932463B46FBF745
:104DE00083FB63A3D3E90023FBF7C8F932463B46B4
:104DF000FBF77AFB60A3D3E90023FBF7BFF9424638
:104E00004B46FBF771FB5EA3D3E90023804689463E
:104E100030463946FBF768FB5BA3D3E90023FBF779
:104E2000ABF932463B46FBF75FFB59A3D3E90023BE
:104E3000FBF7A2F932463B46FBF756FB56A3D3E9F4
:104E40000023FBF799F932463B46FBF74DFB54A391
:104E5000D3E90023FBF790F932463B46FBF744FBCE
:104E600002460B4640464946FBF788F922462B4648
:104E7000FBF73AFBBAF1FF3F02460B4644D120460E
:104E80002946FBF779F934E700224C4BFBF774F91C
:104E9000002206460F4620462946484BFBF76EF98E
:104EA00002460B4630463946FBF748FC4FF0010AF4
:104EB00004460D4667E7434B9E421ADA0022424BF6
:104EC000FBF75AF9002206460F46204629463E4B7C
:104ED000FBF70AFB0022394BFBF750F902460B4661
:104EE00030463946FBF72AFC4FF0020A04460D46CD
:104EF00049E702460B4600203449FBF71FFC4FF000
:104F0000030A04460D463EE7314B324E03EBCA031B
:104F1000D3E90023FBF730F922462B46FBF72CF9A7
:104F200006EBCA0602460B46D6E90001FBF724F958
:104F3000BBF1000F04460D46BFF6E4AE01F100439D
:104F40001D46DFE6244DDDE69C7500883CE4377E97
:104F500011DA22E33AAD903FEB0D76244B7BA93F6B
:104F6000513DD0A0660DB13F6E204CC5CD45B73F39
:104F7000FF8300922449C23F0D5555555555D53FE5
:104F80002F6C6A2C44B4A2BF9AFDDE522DDEAD3FD9
:104F90006D9A74AFF2B0B33F711623FEC671BC3F79
:104FA000C4EB98999999C93FFFFF0F440000F07F27
:104FB000182D4454FB21F9BFFFFFDB3F0000F03FF9
:104FC000FFFFF23F008003400000F83F0000F0BF09
:104FD000005E0008E05D0008FB21F93F21F000437E
:104FE0001946704741F0004000F58010C00F70472F
:104FF000DFF8A0C12DE9F84F3CEA010C0B4606464C
:105000000D460A4604460ED10246FBF76DFA0246EB
:105010000B4630462946FBF7B1F806460D463046AA
:105020002946BDE8F88F00290DDC21F0004C5CEA30
:10503000000CF4D039B10246FBF79EF802460B464D
:10504000FBF77CFBE9E7121500F089800025C3F32C
:105050001303A2F2FF3643F48013D2075CBF5B0058
:1050600003EBD4734FEA430358BF640003EBD473DC
:105070006200162029464FF4001476100F199F4243
:10508000DEBFDB1B39192D195B00013803EBD2732E
:105090004FEA54044FEA4202F0D1044620274FF071
:1050A000004C8B420CEB000E02DC13D1964511D85C
:1050B000BEF1000F0EEB0C0056DA002854DB01F1B4
:1050C00001085B1A4146964588BF03F1FF33A2EB06
:1050D0000E0264445B00013F03EBD2734FEA5C0CA9
:1050E0004FEA4202DDD113431BD0DFF8ACA0DFF85A
:1050F000ACB0DAE90001DBE90023FBF73DF8DAE9BF
:10510000008902460B4640464946FBF769FC40B120
:10511000DAE90001DBE90023B4F1FF3F26D13C4688
:1051200001356B10640803F17F53EA0703F50013A0
:1051300048BF44F00044204603EB06516DE7E30A04
:1051400015396405002BFAD0D8020AD5C2F1200027
:1051500024FA00F0551E944003434A1B76E711469B
:10516000F0E75B000132EFE78846AAE7FBF706F8B5
:10517000DAE9008902460B4640464946FBF726FC21
:1051800020B1A11C08BF01350234CAE7013424F064
:105190000104C6E70000F07F5800002060000020F6
:1051A0002DE9F04F93B0CDE90223DDE9022727F086
:1051B0000046894656EA0201804611D1031889F457
:1051C000002252419942824B934180F0BA84DDE93A
:1051D000022340464946FAF7D1FF83468C466FE0EA
:1051E0007C4B29F000449C424D46824606DC01D1AE
:1051F0000028ECD19E4201DC0FD172B105F140458F
:1052000005F5801555EA0A05E1D1DDE90232DB1822
:1052100082F4002252419D42D5E7002D39DA6E4BCF
:105220009E4252DCA3F154739E4240F39D84331599
:10523000A3F2FF33142B0FDDC3F1340322FA03F181
:1052400001FA03F3934240F08F8401F00101C1F1B0
:105250000203009382B15DE0002A59D1C3F1140327
:1052600046FA03F101FA03F3B34240F07A8401F005
:105270000101C1F102030093584B9E4232D1002F2D
:1052800080F26B8442464B4600205449FBF756FAA5
:10529000A3E700230093002A3CD14E4B9E42EBD162
:1052A00004F1404303F5801353EA0A0300F04984F4
:1052B0004B4B9C420BDD002FC0F24984DDE902BC60
:1052C0005846614613B0BDE8F08F0223E2E7002F95
:1052D0004FF0000B4FF0000CF2DADDE902B303F1FE
:1052E000004CEDE7B7F1804F06D142464B464046B1
:1052F0004946FBF7F9F870E73A4B9F420AD1002D77
:1053000008DB4046494613B0BDE8F04FFFF770BEDA
:105310000023009340464946FFF760FE83468C46D3
:10532000BAF1000F28D124B12C4B25F040429A420B
:1053300022D1002F07DA5A46634600202749FBF79F
:10534000FDF983468C46002DBADA009B04F14044F7
:1053500004F580141C4308D15A46634658466146FA
:10536000FAF70AFF02460B4690E7009B012BA7D1F4
:105370000CF100439C46A3E7EB0F013B0C930C9A06
:10538000009B134304D142464B4640464946E7E75B
:10539000154B9E4240F3F68003F104739E42104B7E
:1053A00009DD9C420CDC002F0CDA002013B0BDE8B4
:1053B000F04F00F0AEBC9C42F5DB084B9C4215DD83
:1053C000002FF2DC002013B0BDE8F04F00F09CBCD1
:1053D0000000F0FF0000F07FFFFF3F430000F03FC0
:1053E000FFFFEF3F0000E03F0000E0416146002288
:1053F00058465F4BFAF7C0FE55A3D3E90023044695
:105400000D46FBF771F854A3D3E9002306460F4677
:1054100020462946FBF768F8002282468B46204644
:105420002946544BFBF760F802460B464CA1D1E9E4
:105430000001FAF7A1FE22462B46FBF755F802467B
:105440000B4600204C49FAF797FE22462B46804631
:10545000894620462946FBF747F802460B46404658
:105460004946FBF741F840A3D3E90023FBF73CF89A
:1054700002460B4650465946FAF77EFE02460B4658
:1054800004460D4630463946FAF778FE002032468B
:105490003B4682468B46FAF76FFE02460B46204695
:1054A0002946FAF769FEDDE90267009B0C9A013B89
:1054B00013434FF000064FF000020CBF2F4B2C4B54
:1054C00004460D46DDE90201CDE9002332463B46A4
:1054D000FAF752FE52465B46FBF706F8DDE9022377
:1054E0008046894620462946FAF7FEFF02460B46CB
:1054F00040464946FAF742FE32463B4680468946D8
:1055000050465946FAF7F0FF04460D460B46024650
:1055100049464046CDE90245FAF730FE184B82462F
:1055200099420F460E4640F3E78201F13F4303F5EF
:10553000E003034300F0E281DDE9000100220023E3
:10554000FBF744FA003818BF01202FE7AFF30080C3
:10555000000000604715F73F44DF5DF80BAE543E96
:10556000555555555555D53FFE822B654715F73F87
:105570000000F03F0000D03F0000E03F0000F0BF1F
:10558000FFFF8F40D44B00222B4043B95846614661
:10559000D24BFAF7A9FF6FF0340283460C4623156D
:1055A000A3F2FF3313440B93CD4BC4F3130444F025
:1055B0007F559C4245F4401508DDCA4B9C4240F3A0
:1055C00064810B9BA5F5801501330B930026F30036
:1055D0000D93C54B584603EBC603D3E90034294667
:1055E0001A46CDE908342346FAF7C6FDDA462B46BB
:1055F0005246CDE90E01DDE90801FAF7BFFD02468A
:105600000B460020B949FBF799F802460B46CDE955
:105610001001DDE90E01FAF767FFCDE90601DDE9CA
:105620000634CDE9043400230022AB466D1045F06A
:105630000055049305F50025DDE9048905EB864353
:105640004046494614461D46FAF74EFF02460B46B1
:10565000DDE90E01FAF790FDDDE9082306460F4665
:1056600020462946FAF788FD02460B465046594621
:10567000FAF782FD42464B46FAF736FF02460B46E2
:1056800030463946FAF778FDDDE91023FAF72CFFAA
:10569000DDE9062382468B4610461946FAF724FFB9
:1056A0007BA3D3E9002304460D46FAF71DFF7AA336
:1056B000D3E90023FAF762FD22462B46FAF714FFDE
:1056C00077A3D3E90023FAF759FD22462B46FAF7D0
:1056D0000BFF75A3D3E90023FAF750FD22462B46B2
:1056E000FAF702FF72A3D3E90023FAF747FD224637
:1056F0002B46FAF7F9FE70A3D3E90023FAF73EFD33
:10570000224606460F462B4620462946FAF7ECFE6F
:1057100002460B4630463946FAF7E6FE04460D4689
:10572000DDE9060142464B46FAF728FD52465B4644
:10573000FAF7DAFE22462B46FAF720FD42460646E5
:105740000F464B4640464946FAF7CEFE02460B4608
:10575000CDE908230022664BFAF710FD32463B469E
:10576000FAF70CFD00240D4622460B4640464946FA
:10577000FAF7BAFE002280468946204629465C4B4D
:10578000FAF7FAFCDDE90823FAF7F6FC02460B46C5
:1057900030463946FAF7F0FCDDE90623FAF7A4FEB5
:1057A000224606460F462B4650465946FAF79CFEBF
:1057B00002460B4630463946FAF7E0FC002406461E
:1057C0000F4602460B4640464946FAF7D7FC3CA333
:1057D000D3E9002320460D46FAF786FE42464B46A3
:1057E000CDE9060120462946FAF7C6FC02460B46DB
:1057F00030463946FAF7C0FC33A3D3E90023FAF761
:1058000073FE33A3D3E9002306460F4620462946FC
:10581000FAF76AFE02460B4630463946FAF7AEFC06
:105820000D9A344B1344D3E90023FAF7A7FC8046C2
:105830000B988946FAF7EEFD04460D46DDE90601B0
:105840000D9A2D4B1344D3E9006742464B46FAF7B5
:1058500095FC32463B46FAF791FC22462B46FAF776
:105860008DFC002022462B4682468B46FAF784FCAC
:1058700032463B46FAF780FCDDE90623FAF77CFC6A
:1058800002460B46404649460BE601269FE600BF0E
:10589000EF4E454A287ECA3F65DBC9934A86CD3F15
:1058A00001411DA96074D13F4D268F515555D53FFB
:1058B000FFAB6FDBB66DDB3F033333333333E33F93
:1058C000000000E009C7EE3FFD033ADC09C7EE3FE8
:1058D000F5015B14E02F3EBE0000F07F0000404366
:1058E0008E98030079B60B00205E00080000F03FA0
:1058F00000000840405E0008305E00089CA3D3E929
:10590000002340464946FAF739FC2246CDE9040116
:105910002B4650463946FAF72FFC02460B46DDE986
:105920000401FBF771F800287FF406AEA24A26F0C6
:105930000043934240F300814FF4801A1B15A3F2F9
:10594000FE334AFA03FAB244CAF30A519B48A1F261
:10595000FF31084100EA0A03CAF3130AC1F1140136
:105960004AF4801A4AFA01FA002E4FF0000220464B
:105970002946B8BFCAF1000AFAF7FEFBCDE90201D9
:10598000DDE90201002442464B46FAF7F7FB7AA311
:10599000D3E9002320460D46FAF7A6FDDDE90223F0
:1059A00006460F4620462946FAF7E6FB02460B4616
:1059B00040464946FAF7E0FB71A3D3E90023FAF722
:1059C00093FD71A3D3E900238046894620462946EA
:1059D000FAF78AFD02460B4640464946FAF7CEFBE7
:1059E00004460D4602460B4630463946FAF7C6FBDA
:1059F00032463B4680468946FAF7BEFB02460B46D6
:105A000020462946FAF7B8FB424606460F464B4663
:105A100040464946FAF768FD5DA3D3E900230446F2
:105A20000D46FAF761FD5CA3D3E90023FAF7A4FB66
:105A300022462B46FAF758FD59A3D3E90023FAF77B
:105A40009DFB22462B46FAF74FFD57A3D3E90023CF
:105A5000FAF792FB22462B46FAF746FD54A3D3E908
:105A60000023FAF78BFB22462B46FAF73DFD024650
:105A70000B4640464946FAF77FFB04460D46024670
:105A80000B4640464946FAF72FFD0022CDE90201B8
:105A90004FF0804320462946FAF76EFB02460B463C
:105AA000DDE90201FAF74AFE324604460D463B465E
:105AB00040464946FAF718FD32463B46FAF75EFB88
:105AC00002460B4620462946FAF756FB42464B460D
:105AD000FAF752FB02460B4600203949FAF74CFB15
