:020000040800F2
:1000000000500020FD2200084D2300084D23000869
:100010004D2300084D2300084D2300080000000078
:100020000000000000000000000000004D23000858
:100030004D230008000000004D2300084D23000858
:100040004D2300084D2300084D2300084D230008D0
:100050004D2300084D230008751100089911000870
:10006000BD110008E1110008051200084D23000829
:100070004D2300084D2300084D2300084D230008A0
:100080004D2300084D2300084D2300084D23000890
:100090004D2300084D2300084D23000829120008B5
:1000A0004D2300084D2300084D2300084D23000870
:1000B0009D2000084D2300084D230008611600080C
:1000C000511700085D170008691700084D23000844
:1000D0004D23000805210008192100082D210008E2
:1000E000D11200084D230008000000004D23000835
:1000F0004D2300084D2300084D2300084D23000820
:100100004D2300084D2300084D2300084D2300080F
:100110004D2300084D2300084D2300084D230008FF
:100120004D2300084D2300084D2300084D230008EF
:1001300010B5054C237833B9044B13B10448AFF321
:1001400000800123237010BD240000200000000067
:100150009823000808B5034B1BB103490348AFF3CC
:10016000008008BD0000000028000020982300083F
:1001700081F0004102E000BF83F0004330B54FEA58
:1001800041044FEA430594EA050F08BF90EA020FC5
:100190001FBF54EA000C55EA020C7FEA645C7FEA58
:1001A000655C00F0E2804FEA5454D4EB5555B8BF7B
:1001B0006D420CDD2C4480EA020281EA030382EAEC
:1001C000000083EA010180EA020281EA0303362D7E
:1001D00088BF30BD11F0004F4FEA01314FF4801C51
:1001E0004CEA113102D0404261EB410113F0004F63
:1001F0004FEA03334CEA133302D0524263EB43031A
:1002000094EA050F00F0A780A4F10104D5F1200EB7
:100210000DDB02FA0EFC22FA05F2801841F1000112
:1002200003FA0EF2801843FA05F359410EE0A5F1E6
:1002300020050EF1200E012A03FA0EFC28BF4CF017
:10024000020C43FA05F3C01851EBE37101F00045CD
:1002500007D54FF0000EDCF1000C7EEB00006EEBDA
:100260000101B1F5801F1BD3B1F5001F0CD3490864
:100270005FEA30004FEA3C0C04F101044FEA4452BB
:1002800012F5800F80F09A80BCF1004F08BF5FEA42
:10029000500C50F1000041EB045141EA050130BD22
:1002A0005FEA4C0C404141EB0101013C28BFB1F534
:1002B000801FE9D291F0000F04BF01460020B1FA7F
:1002C00081F308BF2033A3F10B03B3F120020CDA52
:1002D0000C3208DD02F1140CC2F10C0201FA0CF030
:1002E00021FA02F10CE002F11402D8BFC2F1200C95
:1002F00001FA02F120FA0CFCDCBF41EA0C0190404B
:10030000E41AA2BF01EB0451294330BD6FEA040493
:100310001F3C1CDA0C340EDC04F11404C4F120027E
:1003200020FA04F001FA02F340EA030021FA04F390
:1003300045EA030130BDC4F10C04C4F1200220FAE7
:1003400002F001FA04F340EA0300294630BD21FA25
:1003500004F0294630BD94F0000F83F4801306BFEB
:1003600081F480110134013D4EE77FEA645C18BFDF
:100370007FEA655C29D094EA050F08BF90EA020F76
:1003800005D054EA000C04BF1946104630BD91EA6E
:10039000030F1EBF0021002030BD5FEA545C05D171
:1003A0004000494128BF41F0004130BD14F58004B0
:1003B0003CBF01F5801130BD01F0004545F0FE4124
:1003C00041F470014FF0000030BD7FEA645C1ABF59
:1003D000194610467FEA655C1CBF0B46024650EA90
:1003E000013406BF52EA033591EA030F41F40021BC
:1003F00030BD00BF90F0000F04BF0021704730B542
:100400004FF4806404F132044FF000054FF0000116
:1004100050E700BF90F0000F04BF0021704730B5D7
:100420004FF4806404F1320410F0004548BF4042AC
:100430004FF000013EE700BF42004FEAE2014FEA01
:1004400031014FEA02701FBF12F07F4393F07F4FDC
:1004500081F06051704732F07F4208BF704793F0DF
:100460007F4F04BF41F40021704730B54FF46074F2
:1004700001F0004521F000411CE700BF50EA0102F5
:1004800008BF704730B54FF000050AE050EA01029E
:1004900008BF704730B511F0004502D5404261EB0E
:1004A00041014FF4806404F132045FEA915C3FF44F
:1004B000D8AE4FF003025FEADC0C18BF03325FEAEC
:1004C000DC0C18BF033202EBDC02C2F1200300FA9D
:1004D00003FC20FA02F001FA03FE40EA0E0021FAC2
:1004E00002F11444BDE600BF70B54FF0FF0C4CF4B0
:1004F000E06C1CEA11541DBF1CEA135594EA0C0F62
:1005000095EA0C0F00F0DEF82C4481EA030621EA9C
:100510004C5123EA4C5350EA013518BF52EA0335D7
:1005200041F4801143F4801338D0A0FB02CE4FF089
:100530000005E1FB02E506F00042E0FB03E54FF0B9
:100540000006E1FB03569CF0000F18BF4EF0010EB1
:10055000A4F1FF04B6F5007F64F5407404D25FEAAD
:100560004E0E6D4146EB060642EAC62141EA555160
:100570004FEAC52040EA5E504FEACE2EB4F1FD0CA2
:1005800088BFBCF5E06F1ED8BEF1004F08BF5FEA20
:10059000500E50F1000041EB045170BD06F00046D2
:1005A00046EA010140EA020081EA0301B4EB5C047F
:1005B000C2BFD4EB0C0541EA045170BD41F4801177
:1005C0004FF0000E013C00F3AB8014F1360FDEBF9C
:1005D000002001F0004170BDC4F10004203C35DA78
:1005E0000C341BDC04F11404C4F1200500FA05F3FB
:1005F00020FA04F001FA05F240EA020001F000429C
:1006000021F0004110EBD37021FA04F642EB060111
:100610005EEA430E08BF20EAD37070BDC4F10C043B
:10062000C4F1200500FA04F320FA05F001FA04F2FF
:1006300040EA020001F0004110EBD37041F10001EB
:100640005EEA430E08BF20EAD37070BDC4F12005F6
:1006500000FA05F24EEA020E20FA04F301FA05F25E
:1006600043EA020321FA04F001F0004121FA04F206
:1006700020EA020000EBD3705EEA430E08BF20EAD6
:10068000D37070BD94F0000F0FD101F00046400010
:1006900041EB010111F4801F08BF013CF7D041EA92
:1006A000060195F0000F18BF704703F00046520096
:1006B00043EB030313F4801F08BF013DF7D043EA67
:1006C0000603704794EA0C0F0CEA135518BF95EA1D
:1006D0000C0F0CD050EA410618BF52EA4306D1D1A4
:1006E00081EA030101F000414FF0000070BD50EAC3
:1006F000410606BF1046194652EA430619D094EA4D
:100700000C0F02D150EA013613D195EA0C0F05D136
:1007100052EA03361CBF104619460AD181EA03018A
:1007200001F0004141F0FE4141F470014FF0000042
:1007300070BD41F0FE4141F4780170BD70B54FF0DD
:10074000FF0C4CF4E06C1CEA11541DBF1CEA13555D
:1007500094EA0C0F95EA0C0F00F0A7F8A4EB05043F
:1007600081EA030E52EA03354FEA013100F0888036
:100770004FEA03334FF0805545EA131343EA1263FF
:100780004FEA022245EA111545EA10654FEA0026B4
:100790000EF000419D4208BF964244F1FD0404F56D
:1007A000407402D25B084FEA3202B61A65EB0305C9
:1007B0005B084FEA32024FF480104FF4002CB6EB86
:1007C000020E75EB030E22BFB61A754640EA0C0006
:1007D0005B084FEA3202B6EB020E75EB030E22BF46
:1007E000B61A754640EA5C005B084FEA3202B6EB87
:1007F000020E75EB030E22BFB61A754640EA9C0046
:100800005B084FEA3202B6EB020E75EB030E22BF15
:10081000B61A754640EADC0055EA060E18D04FEAD3
:10082000051545EA16754FEA06164FEAC30343EA73
:1008300052734FEAC2025FEA1C1CC0D111F4801F40
:100840000BD141EA00014FF000004FF0004CB6E739
:1008500011F4801F04BF01430020B4F1FD0C88BFD8
:10086000BCF5E06F3FF6AFAEB5EB030C04BFB6EBE3
:10087000020C5FEA500C50F1000041EB045170BDD6
:100880000EF0004E4EEA113114EB5C04C2BFD4EB03
:100890000C0541EA045170BD41F480114FF0000E87
:1008A000013C90E645EA060E8DE60CEA135594EA03
:1008B0000C0F08BF95EA0C0F3FF43BAF94EA0C0F06
:1008C0000AD150EA01347FF434AF95EA0C0F7FF47B
:1008D00025AF104619462CE795EA0C0F06D152EACF
:1008E00003353FF4FDAE1046194622E750EA4106B3
:1008F00018BF52EA43067FF4C5AE50EA41047FF4C4
:100900000DAF52EA43057FF4EBAE12E74A0011D275
:1009100012F5001211D20DD56FF47873B3EB625259
:100920000ED44FEAC12343F0004343EA505323FA65
:1009300002F070474FF00000704750EA013002D1DA
:100940004FF0FF3070474FF00000704780B58EB019
:1009500000AF7860012387F837306F4A7B681360F7
:100960007B689B883B86042387F83230022387F814
:10097000333007F130031946684800F0C3FD7B6847
:100980001B89BB85042387F82E30022387F82F307C
:1009900007F12C031946614800F0B4FD7B685B89C0
:1009A0003B85042387F82A30022387F82B3007F190
:1009B00028031946594800F0A5FD7B689B89BB8434
:1009C000042387F82630022387F8273007F1240311
:1009D0001946524800F096FD7B68DB893B8404236E
:1009E00087F82230022387F8233007F120031946C5
:1009F0004A4800F087FD7B681B8ABB830423BB77D2
:100A00000223FB7707F11C031946444800F07AFDE6
:100A1000082000F01FFF232000F05CFF7B681B789C
:100A2000042B0AD17B689B88002219463B4800F0C2
:100A3000FFFD282000F074F841E07B681B78082B4C
:100A40003DD17B689B8800221946344800F0F0FDB8
:100A5000382000F065F87B685B8A3B830423BB7613
:100A60000223FB7607F1180319462C4800F04AFDD3
:100A70007B689B8ABB820423BB750223FB7507F14D
:100A800014031946254800F03DFD7B68DB8A3B8254
:100A90000423BB740223FB7407F1100319461F489B
:100AA00000F030FD7B681B8BBB810423BB730223EA
:100AB000FB7307F10C031946184800F023FD0120D1
:100AC00000F008FF7B689B8800221946134800F05D
:100AD000AFFD0C2000F024F8012000F0FBFE7B6845
:100AE0009B88002219460D4800F0A2FD012000F06D
:100AF00017F8032000F0EEFE7B689B880022194661
:100B0000064800F095FD062000F00AF897F8373007
:100B100018463837BD4680BD40000020000C01401B
:100B200080B584B000AF0346FB710123FB737E4B9D
:100B30001B68DB88002219467C4800F079FD7A4B5F
:100B40001B681B8900221946784800F071FDFB796B
:100B5000282B52D1744B1B689B881946734800F0B0
:100B600050FD0346BB73BB7B002B46D16E4B1B680D
:100B70005989FB79DB09DBB21A466C4800F058FD55
:100B8000694B1B689989FB799B09DBB203F0010370
:100B9000DBB21A46654800F04BFD634B1B68D989F0
:100BA000FB795B09DBB203F00103DBB21A465F4855
:100BB00000F03EFD5C4B1B68198AFB791B09DBB218
:100BC00003F00103DBB21A46584800F031FD564BE2
:100BD0001B681B8901221946544800F029FD012099
:100BE00000F078FE504B1B681B89002219464F48C5
:100BF00000F01EFD012000F06DFE4B4B1B681B78C2
:100C0000042B40F09580484B1B685989FB79DB0920
:100C1000DBB21A46454800F00BFD434B1B6899892F
:100C2000FB799B09DBB203F00103DBB21A463F48B4
:100C300000F0FEFC3C4B1B68D989FB795B09DBB2F9
:100C400003F00103DBB21A46384800F0F1FC364BE2
:100C50001B68198AFB791B09DBB203F00103DBB2C5
:100C60001A46324800F0E4FC2F4B1B681B89012216
:100C700019462E4800F0DCFC012000F02BFE2A4B28
:100C80001B681B8900221946284800F0D1FC01206E
:100C900000F020FE244B1B685989FB79DB08DBB28E
:100CA00003F00103DBB21A46204800F0C1FC1E4BE2
:100CB0001B689989FB799B08DBB203F00103DBB267
:100CC0001A461A4800F0B4FC174B1B68D989FB7907
:100CD0005B08DBB203F00103DBB21A46134800F0F5
:100CE000A7FC114B1B68198AFB7903F00103DBB2E7
:100CF0001A460E4800F09CFC0B4B1B681B89012216
:100D000019460A4800F094FC012000F0E3FD064B70
:100D10001B681B8900221946044800F089FC012049
:100D200000F0D8FD82E000BF40000020000C014030
:100D3000414B1B681B78082B78D13F4B1B685989A6
:100D4000FB79DB09DBB21A463C4800F071FC3A4BF8
:100D50001B689989FB799B09DBB203F00103DBB2C5
:100D60001A46364800F064FC334B1B68D989FB797E
:100D70005B09DBB203F00103DBB21A462F4800F037
:100D800057FC2D4B1B68198AFB791B09DBB203F05A
:100D90000103DBB21A46294800F04AFC264B1B68C7
:100DA000598AFB79DB08DBB203F00103DBB21A4698
:100DB000224800F03DFC204B1B68998AFB799B0878
:100DC000DBB203F00103DBB21A461C4800F030FC32
:100DD000194B1B68D98AFB795B08DBB203F001036E
:100DE000DBB21A46154800F023FC134B1B68198B25
:100DF000FB7903F00103DBB21A46104800F018FC3F
:100E00000D4B1B681B89012219460C4800F010FC91
:100E1000012000F05FFD084B1B681B89002219466A
:100E2000064800F005FC012000F054FDFB7B18464D
:100E30001037BD4680BD00BF40000020000C0140BF
:100E400080B584B000AF78600123FB730EE00C4BDB
:100E50001B689B88012219460A4800F0E9FB7B6861
:100E60005A1C7A601B781846FFF75AFE7B681B787D
:100E7000002BECD1FB7B18461037BD4680BD00BF70
:100E800040000020000C014080B584B000AF034654
:100E90000A46FB711346BB710123FB731F4B1B6892
:100EA0009B88002219461E4800F0C2FBFB79012BEB
:100EB00008D1BB79803BDBB21846FFF731FE002337
:100EC000FB7325E0FB79022B08D1BB79403BDBB2F9
:100ED0001846FFF725FE0023FB7319E0FB79032B6F
:100EE00008D1BB796C3BDBB21846FFF719FE002333
:100EF000FB730DE0FB79042B08D1BB792C3BDBB2F3
:100F00001846FFF70DFE0023FB7301E00123FB737E
:100F1000FB7B18461037BD4680BD00BF4000002057
:100F2000000C014080B586B000AF78600123BB742F
:100F300000237B610023FB747B68002B0DDA364BAA
:100F40001B689B8801221946344800F071FB2D2054
:100F5000FFF7E6FD7B685B427B607B68002B2CD152
:100F60002D4B1B689B88012219462C4800F060FB22
:100F70003020FFF7D5FD20E07968294B83FB012362
:100F80009A10CB17D21A13469B0013445B00CA1A5F
:100F9000FA607A6913469B0013445B001A46FB68AB
:100FA00013447B61FB7C0133FB747B681C4A82FB2E
:100FB00003129210DB17D31A7B607B68002BDBDCFB
:100FC00022E07969174BA3FB0123DA0813469B0043
:100FD00013445B00CA1A13467B740F4B1B689B8833
:100FE000012219460D4800F023FB7B7C3033DBB235
:100FF0001846FFF795FDFB7C013BFB747B69094AB2
:10100000A2FB0323DB087B61FB7C002BD9D1BB7CDB
:1010100018461837BD4680BD40000020000C014036
:1010200067666666CDCCCCCC80B584B000AF786006
:10103000082000F00FFC7B681B799BB2BB81042366
:10104000BB730223FB7307F10C0319460C4800F035
:1010500059FA0023BB607B685B799BB23B8101231B
:10106000BB7207F108031946054800F04BFA054A20
:101070007B681360002318461037BD4680BD00BF53
:10108000000801404400002080B500AF0B4B1B68F6
:101090001B799BB201221946094800F0C9FA0A20BF
:1010A00000F002FC054B1B681B799BB2002219461D
:1010B000034800F0BDFA00BF80BD00BF440000201F
:1010C000000801400000000080B586B000AF7860E5
:1010D000FFF7DAFF264B1B681A68254B1B685B7904
:1010E0009BB21946104600F08CFA0346FB75FB7D57
:1010F000002BEFD000F0C8FF38611D4B1B681A6849
:101100001B4B1B685B799BB21946104600F079FABD
:101110000346FB75FB7D012BEFD000F0B5FFF860B7
:10112000FA683B69D31ABB60B868FFF763F90EA38E
:10113000D3E90023FFF7D8F902460B4610461946BB
:101140004FF000024FF08043FFF7F8FA02460B46DB
:1011500010461946FFF7DAFB02467B681A60002347
:1011600018461837BD4680BD006F8104C58FA13F6A
:101170004400002080B500AF054B5B69044A43F092
:1011800001035361034B1B68984700BF80BD00BF3C
:10119000000401404800002080B500AF054B5B69AA
:1011A000044A43F002035361034B5B68984700BF56
:1011B00080BD00BF000401404800002080B500AFA2
:1011C000054B5B69044A43F004035361034B9B687E
:1011D000984700BF80BD00BF0004014048000020C8
:1011E00080B500AF054B5B69044A43F008035361C7
:1011F000034BDB68984700BF80BD00BF000401407F
:101200004800002080B500AF054B5B69044A43F0FD
:1012100010035361034B1B69984700BF80BD00BF9B
:10122000000401404800002080B500AF264B5B69F8
:1012300003F02003002B08D0234B5B69224A43F0C4
:1012400020035361214B5B6998471F4B5B6903F097
:101250004003002B08D01C4B5B691B4A43F0400342
:1012600053611A4B9B699847174B5B6903F08003E6
:10127000002B08D0144B5B69134A43F08003536181
:10128000124BDB699847104B5B6903F48073002BAA
:1012900008D00D4B5B690C4A43F4807353610B4BD0
:1012A0001B6A9847084B5B6903F40073002B08D056
:1012B000054B5B69044A43F400735361034B5B6A5B
:1012C000984700BF80BD00BF0004014048000020D7
:1012D00080B500AF2D4B5B6903F48063002B08D011
:1012E0002A4B5B69294A43F480635361284B9B6A0C
:1012F0009847264B5B6903F40063002B08D0234B0F
:101300005B69224A43F400635361214BDB6A9847CF
:101310001E4B5B6903F48053002B08D01B4B5B69A9
:101320001A4A43F480535361194B1B6B9847174B70
:101330005B6903F40053002B08D0144B5B69134A1C
:1013400043F400535361124B5B6B98470F4B5B693F
:1013500003F48043002B08D00C4B5B690B4A43F429
:10136000804353610A4B9B6B9847084B5B6903F4BE
:101370000043002B08D0054B5B69044A43F400434B
:101380005361034BDB6B984700BF80BD00040140F5
:101390004800002080B483B000AF0346FB80FB8888
:1013A000B3F5004F00F0A580B3F5004F00F3A38024
:1013B000B3F5804F00F09B80B3F5804F00F39B8026
:1013C000B3F5005F00F09180B3F5005F00F3938008
:1013D000B3F5805F00F08780B3F5805F00F38B800A
:1013E000B3F5006F7DD0B3F5006F00F38480B3F5E3
:1013F000806F74D0B3F5806F7DDCB3F5007F6CD067
:10140000B3F5007F77DCB3F5807F64D0B3F5807FE0
:1014100071DC802B5DD0802B6DDC202B48DC002B19
:1014200069DD013B1F2B66D801A252F823F000BFF3
:10143000B7140008BB140008F7140008BF14000814
:10144000F7140008F7140008F7140008C314000884
:10145000F7140008F7140008F7140008F714000840
:10146000F7140008F7140008F7140008C714000860
:10147000F7140008F7140008F7140008F714000820
:10148000F7140008F7140008F7140008F714000810
:10149000F7140008F7140008F7140008F714000800
:1014A000F7140008F7140008F7140008CB1400081C
:1014B000402B0CD01FE000231EE004231CE0082377
:1014C0001AE00C2318E0102316E0142314E018236C
:1014D00012E01C2310E000230EE004230CE008239C
:1014E0000AE00C2308E0102306E0142304E018238C
:1014F00002E01C2300E0002318460C37BD4680BCE8
:10150000704700BF90B585B000AF786039600023A8
:10151000BB600023FB733B681B88FF2B01D87B68F3
:1015200001E07B680433BB603B681B881846FFF70B
:1015300031FF03461A460F239340DA43BB681B680A
:101540001A40BB681A603B689B78072B0BD03B683E
:101550009B78062B07D03B689B78052B03D03B6814
:101560009B78042B0ED13B689B78043B9B005AB2BE
:101570003B68DB785BB213435BB2DBB203F00F0373
:10158000FB732CE03B689B78012B03D03B689B7876
:10159000002B07D13B689B789B00DBB203F00F0365
:1015A000FB731CE03B689B78082B02D10423FB7380
:1015B00015E00823FB733B689B78022B07D17B68FF
:1015C000DB683A6812881A437B68DA6007E07B6858
:1015D000DB683A681288D2431A407B68DA60FC7B89
:1015E0003B681B881846FFF7D5FE034604FA03F252
:1015F000BB681B681A43BB681A6000BF1437BD463E
:1016000090BD80B485B000AF78600B467B807B686E
:101610009A687B881340002B02D00123FB7301E002
:101620000023FB73FB7B18461437BD4680BC704714
:1016300080B483B000AF78600B467B8013467B702C
:101640007B78002B03D07A887B681A6102E07A8865
:101650007B685A6100BF0C37BD4680BC70470000F4
:1016600080B586B000AF0023FB71384B7B617B698E
:101670005B6803F400733B617B695B6803F4806320
:10168000FB607B695B6903F01003BB603B69002B67
:101690000AD0BB68002B07D07B691A687B691A6087
:1016A0000021786900F066F87B695B6903F002034A
:1016B000BB603B69002B14D0BB68002B11D07B6949
:1016C0009B6903F00103002B0BD17B695B69DBB2E3
:1016D000FB717B699B69DBB2FB710221786900F0C9
:1016E00049F87B695B6903F08003BB603B69002BB1
:1016F0000FD0FB68002B0CD0BB68002B09D07B6996
:101700009B6903F00103002B03D10321786900F0EA
:1017100031F87B695B6903F04003BB603B69002BD8
:101720000FD0FB68002B0CD0BB68002B09D07B6965
:101730009B6903F00103002B03D10421786900F0B9
:1017400019F800BF1837BD4680BD00BF00540040E7
:1017500080B400AF00BFBD4680BC704780B400AF0E
:1017600000BFBD4680BC704780B400AF00BFBD461F
:1017700080BC704780B584B000AF78600B46FB70CA
:101780007B68324A934214BF01230023DBB2FB7310
:10179000FB78042B56D801A252F823F0B7170008A3
:1017A000B1170008DB170008F31700081718000826
:1017B0007B689B6946E07B689B6903F00403002B10
:1017C0003BD0FA7B22491346DB0013449B000B44B9
:1017D00020331B68002098472FE0FA7B1C491346F2
:1017E000DB0013449B000B4420331B680220984706
:1017F00028E07B689B6903F00403002B1FD0FA7B71
:1018000013491346DB0013449B000B4420331B6831
:101810000320984713E07B689B6903F00403002BC7
:101820000FD1FA7B0A491346DB0013449B000B449B
:1018300020331B680420984703E000BF02E000BF8C
:1018400000E000BF00BF1037BD4680BD005400401F
:101850008400002080B483B000AF0346FB71104BBE
:10186000DB690F4A43F00203D361FB795A1E0D4B2B
:101870009A620C4B4CF25032DA620A4B1B68094AEE
:1018800043F00103136000BF064B1B6903F0010323
:10189000002BF9D000BF00BF0C37BD4680BC70479D
:1018A000001002400004004080B483B000AF7860B4
:1018B000074B00225A6200BF054B5A6A7B689A4266
:1018C000FAD300BF00BF0C37BD4680BC704700BFD5
:1018D0000004004080B584B000AF78600023FB6056
:1018E00006E04FF47A70FFF7DFFFFB680133FB601F
:1018F000FA687B689A42F4DB00BF00BF1037BD4630
:1019000080BD000080B598B000AFF8607B600B46EA
:10191000FB721346BB72012387F85F300023BB655F
:1019200001237B6517E097F86830914A02FB03F3C7
:1019300019467B687A6D02FB03F3B1FBF3F3BB65D9
:10194000BB6DB3F5FA4F03D37B6D02337B6502E0C9
:10195000002387F85F3097F85F30012BE3D0FB68F6
:10196000844A934240F0D880834B9B69824A43F477
:1019700000639361804B9B697F4A43F0040393614A
:101980007D4B9B697C4A43F001039361FB681B68B4
:1019900023F00102FB681A60FB7A032B00F2368306
:1019A00001A252F823F000BFB9190008111A00086B
:1019B000691A0008C11A0008704B1B683B6507F1E3
:1019C000500319466E48FFF79DFDFB689B6943F085
:1019D0000802FB689A61FB681B6A43F00102FB681E
:1019E0001A62FB689B6943F06002FB689A61BB7AEC
:1019F000BA6D02FB03F3634AA2FB03235A09FB6897
:101A00005A63FB685B6C43F40042FB685A64FDE276
:101A10005D4B1B68FB6407F14C0319465848FFF700
:101A200071FDFB689B6943F40062FB689A61FB6887
:101A30001B6A43F01002FB681A62FB689B6943F45F
:101A4000C042FB689A61BB7ABA6D02FB03F34D4A50
:101A5000A2FB03235A09FB689A63FB685B6C43F49F
:101A60000042FB685A64D1E2484B1B68BB6407F133
:101A7000480319464248FFF745FDFB68DB6943F020
:101A80000802FB68DA61FB681B6A43F48072FB683A
:101A90001A62FB68DB6943F06002FB68DA61BB7ABB
:101AA000BA6D02FB03F3374AA2FB03235A09FB6812
:101AB000DA63FB685B6C43F40042FB685A64A5E29E
:101AC000334B1B687B6407F1440319462C48FFF72E
:101AD00019FDFB68DB6943F40062FB68DA61FB68AF
:101AE0001B6A43F48052FB681A62FB68DB6943F4AB
:101AF000C042FB68DA61BB7ABA6D02FB03F3214A8C
:101B0000A2FB03235A09FB681A64FB685B6C43F46D
:101B10000042FB685A6479E2FB68B3F1804F40F001
:101B2000D180154BDB69144A43F00103D361124B9A
:101B30009B69114A43F0040393610F4B9B690E4A62
:101B400043F001039361FB681B6823F00102FB680B
:101B50001A60FB7A032B00F2598201A252F823F09B
:101B6000951B0008E11B00082D1C0008791C0008CB
:101B700040420F00002C014000100240B02300083A
:101B8000000801401F85EB51B4230008B82300086A
:101B9000BC2300089D4B1B683B6407F140031946BA
:101BA0009B48FFF7AFFCFB689B6943F00802FB68AA
:101BB0009A61FB681B6A43F00102FB681A62FB68CA
:101BC0009B6943F06002FB689A61BB7ABA6D02FBC5
:101BD00003F3904AA2FB03235A09FB685A6315E2F8
:101BE0008D4B1B68FB6307F13C0319468848FFF7E0
:101BF00089FCFB689B6943F40062FB689A61FB689F
:101C00001B6A43F01002FB681A62FB689B6943F48D
:101C1000C042FB689A61BB7ABA6D02FB03F37D4A4E
:101C2000A2FB03235A09FB689A63EFE17B4B1B6815
:101C3000BB6307F1380319467548FFF763FCFB687F
:101C4000DB6943F00802FB68DA61FB681B6A43F456
:101C50008072FB681A62FB68DB6943F06002FB6814
:101C6000DA61BB7ABA6D02FB03F36A4AA2FB032373
:101C70005A09FB68DA63C9E1694B1B687B6307F1AA
:101C8000340319466248FFF73DFCFB68DB6943F407
:101C90000062FB68DA61FB681B6A43F48052FB68F0
:101CA0001A62FB68DB6943F4C042FB68DA61BB7A05
:101CB000BA6D02FB03F3574AA2FB03235A09FB68E0
:101CC0001A64A3E1FB68574A934240F0DB80564B0D
:101CD000DB69554A43F00203D361534B9B69524A77
:101CE00043F004039361504B9B694F4A43F0080350
:101CF00093614D4B9B694C4A43F001039361FB6830
:101D00001B6823F00102FB681A60FB7A032B00F2C8
:101D10007D8101A252F823F0291D0008751D0008DD
:101D2000C11D0008391E0008404B1B683B6307F1CA
:101D3000300319463648FFF7E5FBFB689B6943F023
:101D40000802FB689A61FB681B6A43F00102FB68AA
:101D50001A62FB689B6943F06002FB689A61BB7A78
:101D6000BA6D02FB03F32B4AA2FB03235A09FB685B
:101D70005A634BE12E4B1B68FB6207F12C0319469B
:101D80002348FFF7BFFBFB689B6943F40062FB68D5
:101D90009A61FB681B6A43F01002FB681A62FB68D9
:101DA0009B6943F4C042FB689A61BB7ABA6D02FB3F
:101DB00003F3184AA2FB03235A09FB689A6325E13F
:101DC000124B1B68BB6207F1280319461948FFF73D
:101DD00099FBFB68DB6943F00802FB68DA61FB688A
:101DE0001B6A43F48072FB681A62FB68DB6943F08C
:101DF0006002FB68DA61BB7ABA6D02FB03F3054A45
:101E0000A2FB03235A09FB68DA63FFE0C023000842
:101E1000000801401F85EB51C4230008C8230008B7
:101E2000CC2300080004004000100240D02300082A
:101E3000D4230008000C0140834B1B687B6207F130
:101E4000240319468148FFF75DFBFB68DB6943F417
:101E50000062FB68DA61FB681B6A43F48052FB682E
:101E60001A62FB68DB6943F4C042FB68DA61BB7A43
:101E7000BA6D02FB03F3764AA2FB03235A09FB68FF
:101E80001A64C3E0FB68734A934240F0BF80724B10
:101E9000DB69714A43F00403D3616F4B9B696E4A5F
:101EA00043F0080393616C4B9B696B4A43F0010359
:101EB0009361FB681B6823F00102FB681A60FB7AE0
:101EC000032B00F2A38001A252F823F0DD1E0008CC
:101ED000291F0008751F0008C11F00085F4B1B6801
:101EE0003B6207F1200319465848FFF70BFBFB68DC
:101EF0009B6943F00802FB689A61FB681B6A43F028
:101F00000102FB681A62FB689B6943F06002FB6890
:101F10009A61BB7ABA6D02FB03F34D4AA2FB03231D
:101F20005A09FB685A6371E04D4B1B68FB6107F16E
:101F30001C0319464548FFF7E5FAFB689B6943F423
:101F40000062FB689A61FB681B6A43F01002FB6841
:101F50001A62FB689B6943F4C042FB689A61BB7AD2
:101F6000BA6D02FB03F33A4AA2FB03235A09FB684A
:101F70009A634BE03B4B1B68BB6107F118031946A2
:101F80003248FFF7BFFAFB68DB6943F00802FB68E1
:101F9000DA61FB681B6A43F48072FB681A62FB68B3
:101FA000DB6943F06002FB68DA61BB7ABA6D02FB61
:101FB00003F3274AA2FB03235A09FB68DA6325E0EF
:101FC000294B1B687B6107F1140319461F48FFF773
:101FD00099FAFB68DB6943F40062FB68DA61FB682D
:101FE0001B6A43F48052FB681A62FB68DB6943F4A6
:101FF000C042FB68DA61BB7ABA6D02FB03F3144A94
:10200000A2FB03235A09FB681A6400BFFB681B6824
:1020100043F08002FB681A60FB68BA6DDA627B6D80
:102020005A1EFB689A62FB685B6943F00102FB6819
:102030005A61FB681B6843F00102FB681A6000BF2D
:102040006037BD4680BD00BFC4230008000C0140BE
:102050001F85EB510008004000100240D02300080B
:10206000D4230008B0230008B423000880B400AFD4
:102070004FF080431B684FF0804223F00103136050
:1020800000BFBD4680BC704780B400AF024B5B6AA6
:102090001846BD4680BC70470004004080B400AFC5
:1020A000164B1B78012B25D14FF080431B694FF055
:1020B000804223F0010313614FF080431B694FF00E
:1020C000804223F0020313610D4B1B88002B06D0C6
:1020D0000B4B1B88013B9AB2094B1A800AE0074B55
:1020E00000221A704FF080431B684FF0804223F0AB
:1020F0000103136000BFBD4680BC7047CC000020C8
:10210000CE00002080B500AF024B1B69984700BF8E
:1021100080BD00BFD000002080B500AF024B5B6ADD
:10212000984700BF80BD00BFD000002080B500AF41
:10213000024B9B6B984700BF80BD00BFD0000020C2
:1021400080B58AB002AF604B9B695F4A43F00803D9
:1021500093615D4B9B695C4A43F0040393610820E3
:10216000FFF778FB0023FB61584B1B68BB6107F14D
:10217000180319465648FFF7C5F9564B1B687B6193
:1021800007F1140319465448FFF7BCF9534B1B6879
:102190003B6107F1100319464F48FFF7B3F9504B65
:1021A0001B68FB6007F10C0319464948FFF7AAF9C1
:1021B0004C4B1B68BB6007F1080319464648FFF704
:1021C000A1F9494B1B687B603B1D19464248FFF74C
:1021D00099F94648FEF7BAFB4548FEF725FF3D4B07
:1021E0001B683B603B4619463948FFF78BF90122D3
:1021F0004FF400713648FFF71BFA07F11C0318462D
:10220000FEF762FF00210120FEF73EFE3948FEF78F
:1022100017FE09210120FEF737FE3748FEF710FEB2
:102220000C210120FEF730FEFB691846FEF77AFE0E
:10223000FB69142B43D8012280212548FFF7F8F9C8
:10224000012240212248FFF7F3F901224FF40071E7
:102250002148FFF7EDF900224FF480611E48FFF797
:10226000E7F901224FF400611B48FFF7E1F9002272
:102270004FF480511848FFF7DBF941F28830FFF73F
:1022800029FB002280211248FFF7D2F900224021C9
:102290000F48FFF7CDF94FF47A70FFF71BFB0823C7
:1022A00000934FF4FA73322200214FF08040FFF781
:1022B00029FB4FF4FA60FFF70DFBFFF7D7FE642010
:1022C000FFF708FB93E700BF00100240F02300086F
:1022D000000C0140F423000800080140F823000826
:1022E000FC2300080024000804240008000000204B
:1022F0001C000020D8230008E42300080D48854670
:10230000AFF300800C480D490D4A002302E0D45879
:10231000C4500433C4188C42F9D30A4A0A4C00232F
:1023200001E013600432A242FBD300F011F8FFF782
:1023300007FFFEE7005000200000002024000020DE
:1023400010240008240000200C010020FEE70000FB
:1023500070B500260C4D0D4C641BA410A64209D18B
:1023600000F01AF800260A4D0A4C641BA410A6427D
:1023700005D170BD55F8043B98470136EEE755F896
:10238000043B98470136F2E70824000808240008B7
:10239000082400080C240008F8B500BFF8BC08BCED
:1023A0009E467047F8B500BFF8BC08BC9E46704713
:1023B00000010601000206010004060100080601F2
:1023C00001000601020006010400060108000601E2
:1023D000400006018000060152656164696E672055
:1023E0000000000069733A20202020200000000037
:1023F00080000402000204020004040240000402FF
:082400000008040200100402B0
:042408005501000872
:04240C003101000892
:102410000400000000100000002001000200000481
:10242000000800000000000000000000000801405B
:04243000040800009C
:04000005080022FDD0
:00000001FF
