:020000040800F2
:100000000050002009340008593400085934000811
:100010005934000859340008593400080000000021
:10002000000000000000000000000000593400083B
:100030005934000800000000593400085934000801
:10004000593400085934000859340008593400085C
:1000500059340008593400082518000849180008C8
:100060006D18000891180008B518000859340008E8
:10007000593400085934000859340008593400082C
:10008000593400085934000859340008593400081C
:10009000593400085934000859340008D9180008A8
:1000A00059340008593400085934000859340008FC
:1000B000053000085934000859340008111D0008A3
:1000C000011E00080D1E0008191E00085934000802
:1000D00059340008793000088D300008A13000083C
:1000E0008119000859340008000000005934000844
:1000F00059340008593400085934000859340008AC
:10010000593400085934000859340008593400089B
:10011000593400085934000859340008593400088B
:10012000593400085934000859340008593400087B
:1001300010B5054C237833B9044B13B10448AFF321
:1001400000800123237010BD380000200000000053
:10015000A434000808B5034B1BB103490348AFF3AF
:10016000008008BD000000003C000020A43400080E
:100170004FF0FF0C1CEAD0521EBF1CEAD15392EA8A
:100180000C0F93EA0C0F6FD01A4480EA010C400266
:1001900018BF5FEA41211ED04FF0006343EA5010C0
:1001A00043EA5111A0FB01310CF00040B1F5000F02
:1001B0003EBF490041EAD3715B0040EA010062F1B1
:1001C0007F02FD2A1DD8B3F1004F40EBC25008BF9B
:1001D00020F00100704790F0000F0CF0004C08BFB9
:1001E00049024CEA502040EA51207F3AC2BFD2F186
:1001F000FF0340EAC250704740F400004FF0000394
:10020000013A5DDC12F1190FDCBF00F000407047CD
:10021000C2F10002410021FA02F1C2F1200200FA0B
:1002200002FC5FEA310040F1000053EA4C0308BFD2
:1002300020EADC70704792F0000F00F0004C02BF23
:10024000400010F4000F013AF9D040EA0C0093F09E
:10025000000F01F0004C02BF490011F4000F013BF8
:10026000F9D041EA0C018FE70CEAD15392EA0C0F66
:1002700018BF93EA0C0F0AD030F0004C18BF31F0D1
:10028000004CD8D180EA010000F00040704790F0A7
:10029000000F17BF90F0004F084691F0000F91F04B
:1002A000004F14D092EA0C0F01D142020FD193EA11
:1002B0000C0F03D14B0218BF084608D180EA010099
:1002C00000F0004040F0FE4040F40000704740F075
:1002D000FE4040F44000704781F0004102E000BF62
:1002E00083F0004330B54FEA41044FEA430594EAF6
:1002F000050F08BF90EA020F1FBF54EA000C55EA31
:10030000020C7FEA645C7FEA655C00F0E2804FEA01
:100310005454D4EB5555B8BF6D420CDD2C4480EAE3
:10032000020281EA030382EA000083EA010180EA13
:10033000020281EA0303362D88BF30BD11F0004F61
:100340004FEA01314FF4801C4CEA113102D0404297
:1003500061EB410113F0004F4FEA03334CEA1333D2
:1003600002D0524263EB430394EA050F00F0A780EA
:10037000A4F10104D5F1200E0DDB02FA0EFC22FAE5
:1003800005F2801841F1000103FA0EF2801843FAD9
:1003900005F359410EE0A5F120050EF1200E012ACA
:1003A00003FA0EFC28BF4CF0020C43FA05F3C01808
:1003B00051EBE37101F0004507D54FF0000EDCF181
:1003C000000C7EEB00006EEB0101B1F5801F1BD32A
:1003D000B1F5001F0CD349085FEA30004FEA3C0C2E
:1003E00004F101044FEA445212F5800F80F09A8024
:1003F000BCF1004F08BF5FEA500C50F1000041EB28
:10040000045141EA050130BD5FEA4C0C404141EB2B
:100410000101013C28BFB1F5801FE9D291F0000F26
:1004200004BF01460020B1FA81F308BF2033A3F1D5
:100430000B03B3F120020CDA0C3208DD02F1140CCC
:10044000C2F10C0201FA0CF021FA02F10CE002F107
:100450001402D8BFC2F1200C01FA02F120FA0CFC00
:10046000DCBF41EA0C019040E41AA2BF01EB045149
:10047000294330BD6FEA04041F3C1CDA0C340EDC47
:1004800004F11404C4F1200220FA04F001FA02F38A
:1004900040EA030021FA04F345EA030130BDC4F148
:1004A0000C04C4F1200220FA02F001FA04F340EA3D
:1004B0000300294630BD21FA04F0294630BD94F0EE
:1004C000000F83F4801306BF81F480110134013DD5
:1004D0004EE77FEA645C18BF7FEA655C29D094EA46
:1004E000050F08BF90EA020F05D054EA000C04BFC4
:1004F0001946104630BD91EA030F1EBF00210020AF
:1005000030BD5FEA545C05D14000494128BF41F04D
:10051000004130BD14F580043CBF01F5801130BDB1
:1005200001F0004545F0FE4141F470014FF000003C
:1005300030BD7FEA645C1ABF194610467FEA655CED
:100540001CBF0B46024650EA013406BF52EA03358F
:1005500091EA030F41F4002130BD00BF90F0000F7D
:1005600004BF0021704730B54FF4806404F13204B9
:100570004FF000054FF0000150E700BF90F0000F72
:1005800004BF0021704730B54FF4806404F1320499
:1005900010F0004548BF40424FF000013EE700BF69
:1005A00042004FEAE2014FEA31014FEA02701FBFF9
:1005B00012F07F4393F07F4F81F06051704732F02B
:1005C0007F4208BF704793F07F4F04BF41F4002182
:1005D000704730B54FF4607401F0004521F00041E0
:1005E0001CE700BF50EA010208BF704730B54FF06A
:1005F00000050AE050EA010208BF704730B511F06B
:10060000004502D5404261EB41014FF4806404F1A2
:1006100032045FEA915C3FF4D8AE4FF003025FEA28
:10062000DC0C18BF03325FEADC0C18BF033202EBAC
:10063000DC02C2F1200300FA03FC20FA02F001FA06
:1006400003FE40EA0E0021FA02F11444BDE600BFA9
:1006500070B54FF0FF0C4CF4E06C1CEA11541DBF58
:100660001CEA135594EA0C0F95EA0C0F00F0DEF823
:100670002C4481EA030621EA4C5123EA4C5350EA08
:10068000013518BF52EA033541F4801143F4801359
:1006900038D0A0FB02CE4FF00005E1FB02E506F0EA
:1006A0000042E0FB03E54FF00006E1FB03569CF03F
:1006B000000F18BF4EF0010EA4F1FF04B6F5007F45
:1006C00064F5407404D25FEA4E0E6D4146EB0606B7
:1006D00042EAC62141EA55514FEAC52040EA5E5040
:1006E0004FEACE2EB4F1FD0C88BFBCF5E06F1ED8EA
:1006F000BEF1004F08BF5FEA500E50F1000041EB21
:10070000045170BD06F0004646EA010140EA0200CD
:1007100081EA0301B4EB5C04C2BFD4EB0C0541EAEF
:10072000045170BD41F480114FF0000E013C00F304
:10073000AB8014F1360FDEBF002001F0004170BD28
:10074000C4F10004203C35DA0C341BDC04F1140441
:10075000C4F1200500FA05F320FA04F001FA05F2CD
:1007600040EA020001F0004221F0004110EBD3709A
:1007700021FA04F642EB06015EEA430E08BF20EAC6
:10078000D37070BDC4F10C04C4F1200500FA04F369
:1007900020FA05F001FA04F240EA020001F00041FB
:1007A00010EBD37041F100015EEA430E08BF20EA6E
:1007B000D37070BDC4F1200500FA05F24EEA020EB6
:1007C00020FA04F301FA05F243EA020321FA04F0E5
:1007D00001F0004121FA04F220EA020000EBD3709C
:1007E0005EEA430E08BF20EAD37070BD94F0000F9C
:1007F0000FD101F00046400041EB010111F4801FD0
:1008000008BF013CF7D041EA060195F0000F18BF80
:10081000704703F00046520043EB030313F4801FBC
:1008200008BF013DF7D043EA0603704794EA0C0F76
:100830000CEA135518BF95EA0C0F0CD050EA41068C
:1008400018BF52EA4306D1D181EA030101F0004109
:100850004FF0000070BD50EA410606BF1046194631
:1008600052EA430619D094EA0C0F02D150EA01363D
:1008700013D195EA0C0F05D152EA03361CBF10467E
:1008800019460AD181EA030101F0004141F0FE411D
:1008900041F470014FF0000070BD41F0FE4141F4A1
:1008A000780170BD70B54FF0FF0C4CF4E06C1CEAA1
:1008B00011541DBF1CEA135594EA0C0F95EA0C0F56
:1008C00000F0A7F8A4EB050481EA030E52EA033511
:1008D0004FEA013100F088804FEA03334FF0805532
:1008E00045EA131343EA12634FEA022245EA11155F
:1008F00045EA10654FEA00260EF000419D4208BF10
:10090000964244F1FD0404F5407402D25B084FEABC
:100910003202B61A65EB03055B084FEA32024FF468
:1009200080104FF4002CB6EB020E75EB030E22BFC5
:10093000B61A754640EA0C005B084FEA3202B6EB85
:10094000020E75EB030E22BFB61A754640EA5C0034
:100950005B084FEA3202B6EB020E75EB030E22BFC4
:10096000B61A754640EA9C005B084FEA3202B6EBC5
:10097000020E75EB030E22BFB61A754640EADC0084
:1009800055EA060E18D04FEA051545EA16754FEAE6
:1009900006164FEAC30343EA52734FEAC2025FEA04
:1009A0001C1CC0D111F4801F0BD141EA00014FF093
:1009B00000004FF0004CB6E711F4801F04BF014364
:1009C0000020B4F1FD0C88BFBCF5E06F3FF6AFAE80
:1009D000B5EB030C04BFB6EB020C5FEA500C50F110
:1009E000000041EB045170BD0EF0004E4EEA113193
:1009F00014EB5C04C2BFD4EB0C0541EA045170BD9A
:100A000041F480114FF0000E013C90E645EA060EDD
:100A10008DE60CEA135594EA0C0F08BF95EA0C0F0B
:100A20003FF43BAF94EA0C0F0AD150EA01347FF453
:100A300034AF95EA0C0F7FF425AF104619462CE72A
:100A400095EA0C0F06D152EA03353FF4FDAE10468D
:100A5000194622E750EA410618BF52EA43067FF4DE
:100A6000C5AE50EA41047FF40DAF52EA43057FF46E
:100A7000EBAE12E74A0011D212F5001211D20DD5D9
:100A80006FF47873B3EB62520ED44FEAC12343F094
:100A9000004343EA505323FA02F070474FF000003E
:100AA000704750EA013002D14FF0FF3070474FF0ED
:100AB0000000704780F0004002E000BF81F000417C
:100AC00042001FBF5FEA410392EA030F7FEA226CF4
:100AD0007FEA236C6AD04FEA1262D2EB1363C1BF84
:100AE000D218414048404140B8BF5B42192B88BFF3
:100AF000704710F0004F40F4000020F07F4018BF16
:100B0000404211F0004F41F4000121F07F4118BF35
:100B1000494292EA030F3FD0A2F1010241FA03FCDD
:100B200010EB0C00C3F1200301FA03F100F00043C5
:100B300002D5494260EB4000B0F5000F13D3B0F18D
:100B4000807F06D340084FEA310102F10102FE2AFC
:100B500051D2B1F1004F40EBC25008BF20F001006C
:100B600040EA03007047490040EB0000013A28BF0B
:100B7000B0F5000FEDD2B0FA80FCACF1080CB2EB8E
:100B80000C0200FA0CF0AABF00EBC250524218430C
:100B9000BCBFD0401843704792F0000F81F40001B1
:100BA00006BF80F400000132013BB5E74FEA410384
:100BB0007FEA226C18BF7FEA236C21D092EA030FF0
:100BC00004D092F0000F08BF0846704790EA010F6A
:100BD0001CBF0020704712F07F4F04D1400028BF97
:100BE00040F00040704712F100723CBF00F5000079
:100BF000704700F0004343F0FE4040F400007047AF
:100C00007FEA226216BF08467FEA2363014642025A
:100C100006BF5FEA412390EA010F40F4800070476D
:100C20004FF0000304E000BF10F0004348BF404213
:100C30005FEA000C08BF704743F0964301464FF04F
:100C400000001CE050EA010208BF70474FF00003AB
:100C50000AE000BF50EA010208BF704711F00043EC
:100C600002D5404261EB41015FEA010C02BF8446BC
:100C70000146002043F0B64308BFA3F18053A3F51B
:100C80000003BCFA8CF2083AA3EBC25310DB01FA62
:100C900002FC634400FA02FCC2F12002BCF1004FE6
:100CA00020FA02F243EB020008BF20F00100704777
:100CB00002F1200201FA02FCC2F1200250EA4C00CB
:100CC00021FA02F243EB020008BF20EADC70704711
:100CD0004FF0FF3C06E000BF4FF0010C02E000BF08
:100CE0004FF0010C4DF804CD4FEA40024FEA4103AA
:100CF0007FEA226C18BF7FEA236C11D001B052EA60
:100D0000530C18BF90EA010F58BFB2EB030088BF25
:100D1000C81738BF6FEAE17018BF40F00100704794
:100D20007FEA226C02D15FEA402C05D17FEA236C76
:100D3000E4D15FEA412CE1D05DF8040B704700BFBD
:100D4000844608466146FFE70FB5FFF7C9FF002854
:100D500048BF10F1000F0FBD4DF808EDFFF7F4FF8D
:100D60000CBF012000205DF808FB00BF4DF808ED26
:100D7000FFF7EAFF34BF012000205DF808FB00BF49
:100D80004DF808EDFFF7E0FF94BF012000205DF86B
:100D900008FB00BF4DF808EDFFF7D2FF94BF01201C
:100DA00000205DF808FB00BF4DF808EDFFF7C8FF15
:100DB00034BF012000205DF808FB00BF4FEA40026D
:100DC000B2F1FE4F0FD34FF09E03B3EB12620DD979
:100DD0004FEA002343F0004310F0004F23FA02F0E3
:100DE00018BF404270474FF00000704712F1610F8A
:100DF00001D1420205D110F0004008BF6FF0004061
:100E000070474FF00000704780B584B000AF786045
:100E10007B681B88BB810423BB730223FB737B6845
:100E20005B6807F10C021146184600F0C3FE7B68B0
:100E30005B883B810423BB720223FB727B685B6887
:100E400007F108021146184600F0B4FE00BF103743
:100E5000BD4680BD80B582B000AF78607B685868C1
:100E60007B681B880022194600F03AFF7B685868AF
:100E70007B685B880022194600F032FF0022402187
:100E8000064800F02DFF00228021044800F028FFD2
:100E900001F04EFC00BF0837BD4680BD000C01408C
:100EA00080B584B002AF78600B46FB707B689868B1
:100EB0007B68197BFA78082300934FF47A7301F06A
:100EC00079F87B6858687B681B880122194600F016
:100ED00007FF7B6858687B685B880022194600F032
:100EE000FFFE00BF0837BD4680BD000080B58EB054
:100EF00000AF7860012387F837306F4A7B68136052
:100F00007B689B883B86042387F83230022387F86E
:100F1000333007F130031946684800F04BFE7B6818
:100F20001B89BB85042387F82E30022387F82F30D6
:100F300007F12C031946614800F03CFE7B685B8991
:100F40003B85042387F82A30022387F82B3007F1EA
:100F500028031946594800F02DFE7B689B89BB8405
:100F6000042387F82630022387F8273007F124036B
:100F70001946524800F01EFE7B68DB893B8404233F
:100F800087F82230022387F8233007F1200319461F
:100F90004A4800F00FFE7B681B8ABB830423BB77A3
:100FA0000223FB7707F11C031946444800F002FEB8
:100FB000082000F0A7FF232000F0E4FF7B681B78E7
:100FC000042B0AD17B689B88002219463B4800F01D
:100FD00087FE282000F074F841E07B681B78082B1E
:100FE0003DD17B689B8800221946344800F078FE8A
:100FF000382000F065F87B685B8A3B830423BB766E
:101000000223FB7607F1180319462C4800F0D2FDA5
:101010007B689B8ABB820423BB750223FB7507F1A7
:1010200014031946254800F0C5FD7B68DB8A3B8226
:101030000423BB740223FB7407F1100319461F48F5
:1010400000F0B8FD7B681B8BBB810423BB730223BC
:10105000FB7307F10C031946184800F0ABFD0120A3
:1010600000F090FF7B689B8800221946134800F02F
:1010700037FE0C2000F024F8012000F083FF7B688D
:101080009B88002219460D4800F02AFE012000F03E
:1010900017F8032000F076FF7B689B880022194632
:1010A000064800F01DFE062000F00AF897F83730D9
:1010B00018463837BD4680BD54000020000C014062
:1010C00080B584B000AF0346FB710123FB737E4BF8
:1010D0001B68DB88002219467C4800F001FE7A4B31
:1010E0001B681B8900221946784800F0F9FDFB793E
:1010F000282B52D1744B1B689B881946734800F00B
:10110000D8FD0346BB73BB7B002B46D16E4B1B68DF
:101110005989FB79DB09DBB21A466C4800F0E0FD27
:10112000694B1B689989FB799B09DBB203F00103CA
:10113000DBB21A46654800F0D3FD634B1B68D989C2
:10114000FB795B09DBB203F00103DBB21A465F48AF
:1011500000F0C6FD5C4B1B68198AFB791B09DBB2EA
:1011600003F00103DBB21A46584800F0B9FD564BB4
:101170001B681B8901221946544800F0B1FD01206B
:1011800000F000FF504B1B681B89002219464F4896
:1011900000F0A6FD012000F0F5FE4B4B1B681B780C
:1011A000042B40F09580484B1B685989FB79DB097B
:1011B000DBB21A46454800F093FD434B1B68998902
:1011C000FB799B09DBB203F00103DBB21A463F480F
:1011D00000F086FD3C4B1B68D989FB795B09DBB2CB
:1011E00003F00103DBB21A46384800F079FD364BB4
:1011F0001B68198AFB791B09DBB203F00103DBB220
:101200001A46324800F06CFD2F4B1B681B890122E7
:1012100019462E4800F064FD012000F0B3FE2A4B71
:101220001B681B8900221946284800F059FD01203F
:1012300000F0A8FE244B1B685989FB79DB08DBB260
:1012400003F00103DBB21A46204800F049FD1E4BB3
:101250001B689989FB799B08DBB203F00103DBB2C1
:101260001A461A4800F03CFD174B1B68D989FB79D8
:101270005B08DBB203F00103DBB21A46134800F04F
:101280002FFD114B1B68198AFB7903F00103DBB2B8
:101290001A460E4800F024FD0B4B1B681B890122E7
:1012A00019460A4800F01CFD012000F06BFE064BB9
:1012B0001B681B8900221946044800F011FD01201B
:1012C00000F060FE82E000BF54000020000C0140EE
:1012D000414B1B681B78082B78D13F4B1B68598901
:1012E000FB79DB09DBB21A463C4800F0F9FC3A4BCB
:1012F0001B689989FB799B09DBB203F00103DBB220
:101300001A46364800F0ECFC334B1B68D989FB7950
:101310005B09DBB203F00103DBB21A462F4800F091
:10132000DFFC2D4B1B68198AFB791B09DBB203F02C
:101330000103DBB21A46294800F0D2FC264B1B6899
:10134000598AFB79DB08DBB203F00103DBB21A46F2
:10135000224800F0C5FC204B1B68998AFB799B084A
:10136000DBB203F00103DBB21A461C4800F0B8FC04
:10137000194B1B68D98AFB795B08DBB203F00103C8
:10138000DBB21A46154800F0ABFC134B1B68198BF7
:10139000FB7903F00103DBB21A46104800F0A0FC11
:1013A0000D4B1B681B89012219460C4800F098FC64
:1013B000012000F0E7FD084B1B681B89002219463D
:1013C000064800F08DFC012000F0DCFDFB7B184698
:1013D0001037BD4680BD00BF54000020000C014006
:1013E00080B584B000AF78600123FB730EE00C4B36
:1013F0001B689B88012219460A4800F071FC7B6833
:101400005A1C7A601B781846FFF75AFE7B681B78D7
:10141000002BECD1FB7B18461037BD4680BD00BFCA
:1014200054000020000C014080B584B000AF03469A
:101430000A46FB711346BB710123FB731F4B1B68EC
:101440009B88002219461E4800F04AFCFB79012BBC
:1014500008D1BB79803BDBB21846FFF731FE002391
:10146000FB7325E0FB79022B08D1BB79403BDBB253
:101470001846FFF725FE0023FB7319E0FB79032BC9
:1014800008D1BB796C3BDBB21846FFF719FE00238D
:10149000FB730DE0FB79042B08D1BB792C3BDBB24D
:1014A0001846FFF70DFE0023FB7301E00123FB73D9
:1014B000FB7B18461037BD4680BD00BF540000209E
:1014C000000C014080B586B000AF78600123BB748A
:1014D00000237B610023FB747B68002B0DDA364B05
:1014E0001B689B8801221946344800F0F9FB2D2027
:1014F000FFF7E6FD7B685B427B607B68002B2CD1AD
:101500002D4B1B689B88012219462C4800F0E8FBF4
:101510003020FFF7D5FD20E07968294B83FB0123BC
:101520009A10CB17D21A13469B0013445B00CA1AB9
:10153000FA607A6913469B0013445B001A46FB6805
:1015400013447B61FB7C0133FB747B681C4A82FB88
:1015500003129210DB17D31A7B607B68002BDBDC55
:1015600022E07969174BA3FB0123DA0813469B009D
:1015700013445B00CA1A13467B740F4B1B689B888D
:10158000012219460D4800F0ABFB7B7C3033DBB207
:101590001846FFF795FDFB7C013BFB747B69094A0C
:1015A000A2FB0323DB087B61FB7C002BD9D1BB7C36
:1015B00018461837BD4680BD54000020000C01407D
:1015C00067666666CDCCCCCC80B584B000AF786061
:1015D0007B681B88BB817B689B78BB737B68DB78EF
:1015E000FB737B681A88084B1A8007F10C031946B5
:1015F000064800F0DFFA00220121054800F070FBE8
:1016000000BF1037BD4680BD58000020000C0140CF
:101610000008014080B584B002AF786008461146EA
:101620001A460346FB700B463B801346BB703B7D5E
:10163000002B02D0012B08D00FE00F4B1B8800229B
:1016400019460E4800F04CFB07E00B4B1B880122AB
:1016500019460A4800F044FB00BFB8783A88F97888
:10166000082301933B6900930346786801F06EF804
:1016700000BF0837BD4680BD58000020000C014067
:1016800080B586B000AF7860082000F03BFC0023F6
:10169000FB750023FB7524E0FB7DDB007A681344B7
:1016A0001B799BB23B820423BB740223FB7407F1BA
:1016B00010031946114800F07DFA0023FB60FB7D02
:1016C000DB007A6813445B799BB2BB810123BB7357
:1016D00007F10C031946094800F06CFAFB7D013351
:1016E000FB75074B1B78FA7D9A42D5D3054A7B6878
:1016F0001360002318461837BD4680BD000801401E
:101700001A0000205C00002080B582B000AF0346C4
:10171000FB710F4B1A68FB79DB0013441B799BB2FA
:10172000012219460B4800F0DBFA0A2000F014FCF5
:10173000074B1A68FB79DB0013441B799BB200222C
:101740001946044800F0CCFA00BF0837BD4680BDFA
:101750005C0000200008014080B586B000AF034661
:101760003960FB71FB791846FFF7CEFF2C4B1A68E6
:10177000FB79DB0013441868294B1A68FB79DB00FE
:1017800013445B799BB2194600F093FA0346FB754C
:10179000FB7D002BEAD000F0C1FF3861204B1A68B6
:1017A000FB79DB00134418681D4B1A68FB79DB00DA
:1017B00013445B799BB2194600F07BFA0346FB7534
:1017C000FB7D012BEAD000F0A9FFF860FA683B69C5
:1017D000D31ABB60B868FEF7C1FE0FA3D3E900239C
:1017E000FEF736FF02460B46104619464FF0000240
:1017F0004FF08043FFF756F802460B461046194655
:10180000FFF738F902463B681A600023184618377C
:10181000BD4680BDAFF30080006F8104C58FA13F3E
:101820005C00002080B500AF054B5B69044A43F0C3
:1018300001035361034B1B68984700BF80BD00BF85
:10184000000401406000002080B500AF054B5B69DB
:10185000044A43F002035361034B5B68984700BF9F
:1018600080BD00BF000401406000002080B500AFD3
:10187000054B5B69044A43F004035361034B9B68C7
:10188000984700BF80BD00BF0004014060000020F9
:1018900080B500AF054B5B69044A43F00803536110
:1018A000034BDB68984700BF80BD00BF00040140C8
:1018B0006000002080B500AF054B5B69044A43F02F
:1018C00010035361034B1B69984700BF80BD00BFE5
:1018D000000401406000002080B500AF264B5B692A
:1018E00003F02003002B08D0234B5B69224A43F00E
:1018F00020035361214B5B6998471F4B5B6903F0E1
:101900004003002B08D01C4B5B691B4A43F040038B
:1019100053611A4B9B699847174B5B6903F080032F
:10192000002B08D0144B5B69134A43F080035361CA
:10193000124BDB699847104B5B6903F48073002BF3
:1019400008D00D4B5B690C4A43F4807353610B4B19
:101950001B6A9847084B5B6903F40073002B08D09F
:10196000054B5B69044A43F400735361034B5B6AA4
:10197000984700BF80BD00BF000401406000002008
:1019800080B500AF2D4B5B6903F48063002B08D05A
:101990002A4B5B69294A43F480635361284B9B6A55
:1019A0009847264B5B6903F40063002B08D0234B58
:1019B0005B69224A43F400635361214BDB6A984719
:1019C0001E4B5B6903F48053002B08D01B4B5B69F3
:1019D0001A4A43F480535361194B1B6B9847174BBA
:1019E0005B6903F40053002B08D0144B5B69134A66
:1019F00043F400535361124B5B6B98470F4B5B6989
:101A000003F48043002B08D00C4B5B690B4A43F472
:101A1000804353610A4B9B6B9847084B5B6903F407
:101A20000043002B08D0054B5B69044A43F4004394
:101A30005361034BDB6B984700BF80BD000401403E
:101A40006000002080B483B000AF0346FB80FB88B9
:101A5000B3F5004F00F0A580B3F5004F00F3A3806D
:101A6000B3F5804F00F09B80B3F5804F00F39B806F
:101A7000B3F5005F00F09180B3F5005F00F3938051
:101A8000B3F5805F00F08780B3F5805F00F38B8053
:101A9000B3F5006F7DD0B3F5006F00F38480B3F52C
:101AA000806F74D0B3F5806F7DDCB3F5007F6CD0B0
:101AB000B3F5007F77DCB3F5807F64D0B3F5807F2A
:101AC00071DC802B5DD0802B6DDC202B48DC002B63
:101AD00069DD013B1F2B66D801A252F823F000BF3D
:101AE000671B00086B1B0008A71B00086F1B000882
:101AF000A71B0008A71B0008A71B0008731B0008F2
:101B0000A71B0008A71B0008A71B0008A71B0008AD
:101B1000A71B0008A71B0008A71B0008771B0008CD
:101B2000A71B0008A71B0008A71B0008A71B00088D
:101B3000A71B0008A71B0008A71B0008A71B00087D
:101B4000A71B0008A71B0008A71B0008A71B00086D
:101B5000A71B0008A71B0008A71B00087B1B000889
:101B6000402B0CD01FE000231EE004231CE00823C0
:101B70001AE00C2318E0102316E0142314E01823B5
:101B800012E01C2310E000230EE004230CE00823E5
:101B90000AE00C2308E0102306E0142304E01823D5
:101BA00002E01C2300E0002318460C37BD4680BC31
:101BB000704700BF90B585B000AF786039600023F2
:101BC000BB600023FB733B681B88FF2B01D87B683D
:101BD00001E07B680433BB603B681B881846FFF755
:101BE00031FF03461A460F239340DA43BB681B6854
:101BF0001A40BB681A603B689B78072B0BD03B6888
:101C00009B78062B07D03B689B78052B03D03B685D
:101C10009B78042B0ED13B689B78043B9B005AB207
:101C20003B68DB785BB213435BB2DBB203F00F03BC
:101C3000FB732CE03B689B78012B03D03B689B78BF
:101C4000002B07D13B689B789B00DBB203F00F03AE
:101C5000FB731CE03B689B78082B02D10423FB73C9
:101C600015E00823FB733B689B78022B07D17B6848
:101C7000DB683A6812881A437B68DA6007E07B68A1
:101C8000DB683A681288D2431A407B68DA60FC7BD2
:101C90003B681B881846FFF7D5FE034604FA03F29B
:101CA000BB681B681A43BB681A6000BF1437BD4687
:101CB00090BD80B485B000AF78600B467B807B68B8
:101CC0009A687B881340002B02D00123FB7301E04C
:101CD0000023FB73FB7B18461437BD4680BC70475E
:101CE00080B483B000AF78600B467B8013467B7076
:101CF0007B78002B03D07A887B681A6102E07A88AF
:101D00007B685A6100BF0C37BD4680BC704700003D
:101D100080B586B000AF0023FB71384B7B617B69D7
:101D20005B6803F400733B617B695B6803F4806369
:101D3000FB607B695B6903F01003BB603B69002BB0
:101D40000AD0BB68002B07D07B691A687B691A60D0
:101D50000021786900F066F87B695B6903F0020393
:101D6000BB603B69002B14D0BB68002B11D07B6992
:101D70009B6903F00103002B0BD17B695B69DBB22C
:101D8000FB717B699B69DBB2FB710221786900F012
:101D900049F87B695B6903F08003BB603B69002BFA
:101DA0000FD0FB68002B0CD0BB68002B09D07B69DF
:101DB0009B6903F00103002B03D10321786900F034
:101DC00031F87B695B6903F04003BB603B69002B22
:101DD0000FD0FB68002B0CD0BB68002B09D07B69AF
:101DE0009B6903F00103002B03D10421786900F003
:101DF00019F800BF1837BD4680BD00BF0054004031
:101E000080B400AF00BFBD4680BC704780B400AF57
:101E100000BFBD4680BC704780B400AF00BFBD4668
:101E200080BC704780B584B000AF78600B46FB7013
:101E30007B68324A934214BF01230023DBB2FB7359
:101E4000FB78042B56D801A252F823F0671E000835
:101E5000611E00088B1E0008A31E0008C71E000894
:101E60007B689B6946E07B689B6903F00403002B59
:101E70003BD0FA7B22491346DB0013449B000B4402
:101E800020331B68002098472FE0FA7B1C4913463B
:101E9000DB0013449B000B4420331B68022098474F
:101EA00028E07B689B6903F00403002B1FD0FA7BBA
:101EB00013491346DB0013449B000B4420331B687B
:101EC0000320984713E07B689B6903F00403002B11
:101ED0000FD1FA7B0A491346DB0013449B000B44E5
:101EE00020331B680420984703E000BF02E000BFD6
:101EF00000E000BF00BF1037BD4680BD0054004069
:101F00009C00002080B483B000AF0346FB71104BEF
:101F1000DB690F4A43F00203D361FB795A1E0D4B74
:101F20009A620C4B4CF25032DA620A4B1B68094A37
:101F300043F00103136000BF064B1B6903F001036C
:101F4000002BF9D000BF00BF0C37BD4680BC7047E6
:101F5000001002400004004080B483B000AF7860FD
:101F6000074B00225A6200BF054B5A6A7B689A42AF
:101F7000FAD300BF00BF0C37BD4680BC704700BF1E
:101F80000004004080B584B000AF78600023FB609F
:101F900006E04FF47A70FFF7DFFFFB680133FB6068
:101FA000FA687B689A42F4DB00BF00BF1037BD4679
:101FB00080BD000080B598B000AFF8607B600B4634
:101FC000FB721346BB72012387F85F300023BB65A9
:101FD00001237B6517E097F86830914A02FB03F311
:101FE00019467B687A6D02FB03F3B1FBF3F3BB6523
:101FF000BB6DB3F5FA4F03D37B6D02337B6502E013
:10200000002387F85F3097F85F30012BE3D0FB683F
:10201000844A934240F0D880834B9B69824A43F4C0
:1020200000639361804B9B697F4A43F00403936193
:102030007D4B9B697C4A43F001039361FB681B68FD
:1020400023F00102FB681A60FB7A032B00F236834F
:1020500001A252F823F000BF69200008C120000847
:102060001921000871210008704B1B683B6507F1BE
:10207000500319466E48FFF79DFDFB689B6943F0CE
:102080000802FB689A61FB681B6A43F00102FB6867
:102090001A62FB689B6943F06002FB689A61BB7A35
:1020A000BA6D02FB03F3634AA2FB03235A09FB68E0
:1020B0005A63FB685B6C43F40042FB685A64FDE2C0
:1020C0005D4B1B68FB6407F14C0319465848FFF74A
:1020D00071FDFB689B6943F40062FB689A61FB68D1
:1020E0001B6A43F01002FB681A62FB689B6943F4A9
:1020F000C042FB689A61BB7ABA6D02FB03F34D4A9A
:10210000A2FB03235A09FB689A63FB685B6C43F4E8
:102110000042FB685A64D1E2484B1B68BB6407F17C
:10212000480319464248FFF745FDFB68DB6943F069
:102130000802FB68DA61FB681B6A43F48072FB6883
:102140001A62FB68DB6943F06002FB68DA61BB7A04
:10215000BA6D02FB03F3374AA2FB03235A09FB685B
:10216000DA63FB685B6C43F40042FB685A64A5E2E7
:10217000334B1B687B6407F1440319462C48FFF777
:1021800019FDFB68DB6943F40062FB68DA61FB68F8
:102190001B6A43F48052FB681A62FB68DB6943F4F4
:1021A000C042FB68DA61BB7ABA6D02FB03F3214AD5
:1021B000A2FB03235A09FB681A64FB685B6C43F4B7
:1021C0000042FB685A6479E2FB68B3F1804F40F04B
:1021D000D180154BDB69144A43F00103D361124BE4
:1021E0009B69114A43F0040393610F4B9B690E4AAC
:1021F00043F001039361FB681B6823F00102FB6855
:102200001A60FB7A032B00F2598201A252F823F0E4
:102210004522000891220008DD2200082923000839
:1022200040420F00002C014000100240BC34000866
:10223000000801401F85EB51C0340008C434000879
:10224000C83400089D4B1B683B6407F140031946E6
:102250009B48FFF7AFFCFB689B6943F00802FB68F3
:102260009A61FB681B6A43F00102FB681A62FB6813
:102270009B6943F06002FB689A61BB7ABA6D02FB0E
:1022800003F3904AA2FB03235A09FB685A6315E241
:102290008D4B1B68FB6307F13C0319468848FFF729
:1022A00089FCFB689B6943F40062FB689A61FB68E8
:1022B0001B6A43F01002FB681A62FB689B6943F4D7
:1022C000C042FB689A61BB7ABA6D02FB03F37D4A98
:1022D000A2FB03235A09FB689A63EFE17B4B1B685F
:1022E000BB6307F1380319467548FFF763FCFB68C9
:1022F000DB6943F00802FB68DA61FB681B6A43F4A0
:102300008072FB681A62FB68DB6943F06002FB685D
:10231000DA61BB7ABA6D02FB03F36A4AA2FB0323BC
:102320005A09FB68DA63C9E1694B1B687B6307F1F3
:10233000340319466248FFF73DFCFB68DB6943F450
:102340000062FB68DA61FB681B6A43F48052FB6839
:102350001A62FB68DB6943F4C042FB68DA61BB7A4E
:10236000BA6D02FB03F3574AA2FB03235A09FB6829
:102370001A64A3E1FB68574A934240F0DB80564B56
:10238000DB69554A43F00203D361534B9B69524AC0
:1023900043F004039361504B9B694F4A43F0080399
:1023A00093614D4B9B694C4A43F001039361FB6879
:1023B0001B6823F00102FB681A60FB7A032B00F212
:1023C0007D8101A252F823F0D923000825240008BA
:1023D00071240008E9240008404B1B683B6307F1A7
:1023E000300319463648FFF7E5FBFB689B6943F06D
:1023F0000802FB689A61FB681B6A43F00102FB68F4
:102400001A62FB689B6943F06002FB689A61BB7AC1
:10241000BA6D02FB03F32B4AA2FB03235A09FB68A4
:102420005A634BE12E4B1B68FB6207F12C031946E4
:102430002348FFF7BFFBFB689B6943F40062FB681E
:102440009A61FB681B6A43F01002FB681A62FB6822
:102450009B6943F4C042FB689A61BB7ABA6D02FB88
:1024600003F3184AA2FB03235A09FB689A6325E188
:10247000124B1B68BB6207F1280319461948FFF786
:1024800099FBFB68DB6943F00802FB68DA61FB68D3
:102490001B6A43F48072FB681A62FB68DB6943F0D5
:1024A0006002FB68DA61BB7ABA6D02FB03F3054A8E
:1024B000A2FB03235A09FB68DA63FFE0CC3400086F
:1024C000000801401F85EB51D0340008D4340008C7
:1024D000D83400080004004000100240DC3400083A
:1024E000E0340008000C0140834B1B687B6207F15D
:1024F000240319468148FFF75DFBFB68DB6943F461
:102500000062FB68DA61FB681B6A43F48052FB6877
:102510001A62FB68DB6943F4C042FB68DA61BB7A8C
:10252000BA6D02FB03F3764AA2FB03235A09FB6848
:102530001A64C3E0FB68734A934240F0BF80724B59
:10254000DB69714A43F00403D3616F4B9B696E4AA8
:1025500043F0080393616C4B9B696B4A43F00103A2
:102560009361FB681B6823F00102FB681A60FB7A29
:10257000032B00F2A38001A252F823F08D2500085E
:10258000D925000825260008712600085F4B1B6826
:102590003B6207F1200319465848FFF70BFBFB6825
:1025A0009B6943F00802FB689A61FB681B6A43F071
:1025B0000102FB681A62FB689B6943F06002FB68DA
:1025C0009A61BB7ABA6D02FB03F34D4AA2FB032367
:1025D0005A09FB685A6371E04D4B1B68FB6107F1B8
:1025E0001C0319464548FFF7E5FAFB689B6943F46D
:1025F0000062FB689A61FB681B6A43F01002FB688B
:102600001A62FB689B6943F4C042FB689A61BB7A1B
:10261000BA6D02FB03F33A4AA2FB03235A09FB6893
:102620009A634BE03B4B1B68BB6107F118031946EB
:102630003248FFF7BFFAFB68DB6943F00802FB682A
:10264000DA61FB681B6A43F48072FB681A62FB68FC
:10265000DB6943F06002FB68DA61BB7ABA6D02FBAA
:1026600003F3274AA2FB03235A09FB68DA6325E038
:10267000294B1B687B6107F1140319461F48FFF7BC
:1026800099FAFB68DB6943F40062FB68DA61FB6876
:102690001B6A43F48052FB681A62FB68DB6943F4EF
:1026A000C042FB68DA61BB7ABA6D02FB03F3144ADD
:1026B000A2FB03235A09FB681A6400BFFB681B686E
:1026C00043F08002FB681A60FB68BA6DDA627B6DCA
:1026D0005A1EFB689A62FB685B6943F00102FB6863
:1026E0005A61FB681B6843F00102FB681A6000BF77
:1026F0006037BD4680BD00BFD0340008000C0140EB
:102700001F85EB510008004000100240DC34000837
:10271000E0340008BC340008C034000880B400AFC6
:10272000024B5B6A1846BD4680BC704700040040FF
:1027300080B400AF044B1B68034A23F0010313600D
:1027400000BFBD4680BC70470008004080B596B011
:1027500000AF7860084611461A460346FB700B46E8
:102760003B801346BB709B4B01221A709A4A3B88F0
:102770001380012387F8573000233B650123FB6456
:1027800017E097F86430954A02FB03F319463B6E55
:10279000FA6C02FB03F3B1FBF3F33B653B6DB3F55E
:1027A000FA4F03D3FB6C0233FB6402E0002387F88B
:1027B000573097F85730012BE3D07B68884A934213
:1027C00040F02081874B9B69864A43F40063936104
:1027D000844B9B69834A43F004039361814B9B695B
:1027E000804A43F0010393617F4B1B687E4A43F0AC
:1027F000807313607C4B1B687B4A43F0007313604B
:10280000794B1B68784A43F080631360764B1B68F2
:10281000754A43F0006313607B681B6823F0010274
:102820007B681A60FB78032B00F2C28301A252F886
:1028300023F000BF45280008A92800080D2900083A
:1028400071290008694B1B68BB6407F148031946EE
:102850006748FFF7AFF97B689B6943F008027B6824
:102860009A617B681B6A43F001027B681A627B688D
:102870009B6943F060027B689A61BB783A6D02FB0A
:1028800003F35C4AA2FB03235A097B685A637B6803
:102890005B6C43F400427B685A647B68DB6843F0FE
:1028A00003027B68DA6083E3534B1B687B6407F1A8
:1028B000440319464E48FFF77DF97B689B6943F452
:1028C00000627B689A617B681B6A43F010027B6838
:1028D0001A627B689B6943F4C0427B689A61BB784B
:1028E0003A6D02FB03F3434AA2FB03235A097B68B8
:1028F0009A637B685B6C43F400427B685A647B6834
:10290000DB6843F005027B68DA6051E33B4B1B68F0
:102910003B6407F1400319463548FFF74BF97B68E4
:10292000DB6943F008027B68DA617B681B6A43F469
:1029300080727B681A627B68DB6943F060027B68A7
:10294000DA61BB783A6D02FB03F32A4AA2FB032348
:102950005A097B68DA637B685B6C43F400427B68EE
:102960005A647B68DB6843F009027B68DA601FE326
:10297000234B1B68FB6307F13C0319461C48FFF718
:1029800019F97B68DB6943F400627B68DA617B6874
:102990001B6A43F480527B681A627B68DB6943F4EC
:1029A000C0427B68DA61BB783A6D02FB03F3114ADF
:1029B000A2FB03235A097B681A647B685B6C43F4AF
:1029C00000427B685A647B68DB6843F011027B68D5
:1029D000DA60EDE2E5000020E600002040420F0052
:1029E000002C01400010024000E100E0BC3400086F
:1029F000000801401F85EB51C0340008C4340008B2
:102A0000C83400087B68B3F1804F40F0DD80A04BF4
:102A1000DB699F4A43F00103D3619D4B9B699C4A4C
:102A200043F0040393619A4B9B69994A43F0010375
:102A30009361984B1B68974A43F0805313607B68FF
:102A40001B6823F001027B681A60FB78032B00F2FD
:102A5000AF8201A252F823F0692A0008C12A0008B7
:102A6000192B0008712B00088B4B1B68BB6307F107
:102A7000380319468948FFF79DF87B689B6943F046
:102A800008027B689A617B681B6A43F001027B68DD
:102A90001A627B689B6943F060027B689A61BB782D
:102AA0003A6D02FB03F37E4AA2FB03235A097B68BB
:102AB0005A637B68DB6843F003027B68DA6077E285
:102AC000784B1B687B6307F1340319467348FFF7A3
:102AD00071F87B689B6943F400627B689A617B684C
:102AE0001B6A43F010027B681A627B689B6943F49F
:102AF000C0427B689A61BB783A6D02FB03F3684A77
:102B0000A2FB03235A097B689A637B68DB6843F066
:102B100005027B68DA604BE2634B1B683B6307F19D
:102B2000300319465D48FFF745F87B68DB6943F0E1
:102B300008027B68DA617B681B6A43F480727B68F9
:102B40001A627B68DB6943F060027B68DA61BB78FC
:102B50003A6D02FB03F3524AA2FB03235A097B6836
:102B6000DA637B68DB6843F009027B68DA601FE2A6
:102B70004E4B1B68FB6207F12C0319464748FFF7D1
:102B800019F87B68DB6943F400627B68DA617B6873
:102B90001B6A43F480527B681A627B68DB6943F4EA
:102BA000C0427B68DA61BB783A6D02FB03F33C4AB2
:102BB000A2FB03235A097B681A647B68DB6843F035
:102BC00011027B68DA60F3E17B68394A934240F096
:102BD000F7802F4BDB692E4A43F00203D3612C4B65
:102BE0009B692B4A43F004039361294B9B69284A54
:102BF00043F008039361264B9B69254A43F0010388
:102C00009361244B1B68234A43F0005313607B6895
:102C10001B6823F001027B681A60FB78032B00F22B
:102C2000C78101A252F823F0392C0008B92C000802
:102C3000112D0008692D00081E4B1B68BB6207F1AF
:102C4000280319461548FEF7B5FF7B689B6943F0DA
:102C500008027B689A617B681B6A43F001027B680B
:102C60001A627B689B6943F060027B689A61BB785B
:102C70003A6D02FB03F30A4AA2FB03235A097B685D
:102C80005A637B68DB6843F003027B68DA608FE19C
:102C90000010024000E100E0CC34000800080140D0
:102CA0001F85EB51D0340008D4340008D834000814
:102CB00000040040DC3400089C4B1B687B6207F179
:102CC000240319469A48FEF775FF7B689B6943F415
:102CD00000627B689A617B681B6A43F010027B6824
:102CE0001A627B689B6943F4C0427B689A61BB7837
:102CF0003A6D02FB03F38F4AA2FB03235A097B6858
:102D00009A637B68DB6843F005027B68DA604FE119
:102D1000894B1B683B6207F1200319468748FEF781
:102D200049FF7B68DB6943F008027B68DA617B68F6
:102D30001B6A43F480727B681A627B68DB6943F02C
:102D400060027B68DA61BB783A6D02FB03F3794A73
:102D5000A2FB03235A097B68DA637B68DB6843F0D4
:102D600009027B68DA6023E1754B1B68FB6107F1A0
:102D70001C0319467148FEF71DFF7B68DB6943F4AD
:102D800000627B68DA617B681B6A43F480527B686F
:102D90001A627B68DB6943F4C0427B68DA61BB7806
:102DA0003A6D02FB03F3634AA2FB03235A097B68D3
:102DB0001A647B68DB6843F011027B68DA60F7E035
:102DC0007B68604A934240F0F3805F4BDB695E4A68
:102DD00043F00403D3615C4B9B695B4A43F00803F7
:102DE0009361594B9B69584A43F001039361574BD8
:102DF0001B68564A43F0804313607B681B6823F0CE
:102E000001027B681A60FB78032B00F2D18001A2DB
:102E100052F823F0252E00087D2E0008D52E00083C
:102E2000592F00084A4B1B68BB6107F1180319466C
:102E30004248FEF7BFFE7B689B6943F008027B684F
:102E40009A617B681B6A43F001027B681A627B68A7
:102E50009B6943F060027B689A61BB783A6D02FB24
:102E600003F3344AA2FB03235A097B685A637B6845
:102E7000DB6843F003027B68DA6099E02B4B1B6848
:102E80007B6107F1140319462C48FEF793FE7B681B
:102E90009B6943F400627B689A617B681B6A43F01C
:102EA00010027B681A627B689B6943F4C0427B68AE
:102EB0009A61BB783A6D02FB03F31E4AA2FB03231F
:102EC0005A097B689A637B68DB6843F005027B687C
:102ED000DA606DE01F4B1B683B6107F11003194678
:102EE0001648FEF767FE7B68DB6943F008027B68E3
:102EF000DA617B681B6A43F480727B681A627B68C4
:102F0000DB6943F060027B68DA61BB783A6D02FBF3
:102F100003F3084AA2FB03235A097B68DA637B6840
:102F2000DB6843F009027B68DA6041E0E0340008C6
:102F3000000801401F85EB51CC340008000C014013
:102F4000D0340008000800400010024000E100E01A
:102F5000DC340008BC340008274B1B68FB6007F119
:102F60000C0319462548FEF725FE7B68DB6943F410
:102F700000627B68DA617B681B6A43F480527B687D
:102F80001A627B68DB6943F4C0427B68DA61BB7814
:102F90003A6D02FB03F31A4AA2FB03235A097B682A
:102FA0001A647B68DB6843F011027B68DA6000BF5B
:102FB0007B681B6843F080027B681A607B683A6D0F
:102FC000DA62FB6C5A1E7B689A627B68DB6843F0AE
:102FD00001027B68DA607B685B6943F001027B6811
:102FE0005A617B681B6843F001027B681A6000BF6E
:102FF0005837BD4680BD00BFC0340008000C0140FA
:103000001F85EB5180B400AF184B1B78012B28D1E2
:103010004FF080431B694FF0804223F0010313619E
:103020004FF080431B694FF0804223F0020313618D
:103030000F4B1B88002B06D00D4B1B88013B9AB20F
:103040000B4B1A800DE0094B00221A704FF08043A1
:103050001B684FF0804223F001031360054B0122EF
:103060001A7000BFBD4680BC704700BFE50000205D
:10307000E6000020E400002080B500AF024B1B6991
:10308000984700BF80BD00BFE800002080B500AFBA
:10309000024B5B6A984700BF80BD00BFE80000207C
:1030A00080B500AF024B9B6B984700BF80BD00BF4F
:1030B000E800002090B597B002AF9F4B07F12004C5
:1030C0000FCB84E80F009D4B07F110040FCB84E871
:1030D0000F009B4B1B68FB609A4B9B69994A43F01E
:1030E00008039361974B9B69964A43F004039361ED
:1030F000944BDB69934A43F00203D3610820FEF747
:1031000001FF07F120031846FDF77EFE07F11003CB
:103110001846FDF779FE8C48FDF7E8FE8B48FEF770
:10312000AFFA07F10C031846FEF74EFA0023BB6016
:1031300000237B604FF00003FB644FF00003FB6350
:103140004FF00003BB644FF000037B6400233B643B
:103150007F4B1B78012B07D1002201217D48FEF710
:10316000BFFD7B4B00221A7000210120FEF75CF9A5
:103170007948FEF735F907F1080319460020FEF7F4
:10318000EBFA3B1D19460120FEF7E6FA002101206B
:10319000FEF74AF97148FEF723F900210220FEF7F5
:1031A00043F96F48FEF71CF905210220FEF73CF9B0
:1031B000BB681846FEF786F909210220FEF734F9AC
:1031C0006848FEF70DF90D210220FEF72DF97B6806
:1031D0001846FEF777F9BB68052B00F20F81002235
:1031E00080216148FEF77CFD002240215E48FEF709
:1031F00077FD07F1200364211846FDF751FE07F122
:10320000100364211846FDF74BFE4FF4FA60FEF7F9
:10321000B9FE07F120031846FDF71CFE07F1100365
:103220001846FDF717FE4FF47A70FEF7ABFE7B6889
:10323000022B0DD8012301934FF4FA73009332232C
:103240004FF4FA5200214FF08040FEF7E3F9D5E049
:103250007B68032B0DD9002301934FF4FA7300937D
:1032600032234FF4FA5200214FF08040FEF7D2F99A
:10327000C4E07B68C3F104031846FDF7D1FC0346A4
:10328000BB643A4B1B681946B86CFCF771FF0346E8
:10329000BB63374B1B684FF000011846FDF75CFD20
:1032A0000346002B19D1B96CF86CFDF709FC0346F5
:1032B000FB643049F86CFDF777FD0346002B02D024
:1032C0002C4BFB640CE02C49F86CFDF74FFD0346DA
:1032D000002B05D0284BFB6402E04FF00003FB6499
:1032E000234B1B681946F86CFCF742FF03467B63CF
:1032F000796CB86CFDF7E2FB0346FB631F4B1B6860
:103300001946F86BFCF734FF03463B63796BB86BE7
:10331000FDF7D6FB0346396B1846FDF7D1FB034694
:103320001846FDF74BFD03463B643B6C642B27DDE1
:1033300064233B642BE000BF1035000820350008F3
:103340003035000800100240000000201C00002062
:10335000E400002000080140E4340008EC340008D8
:10336000F834000804350008000C01402C0000204F
:10337000300000200000C8420000C8C23400002015
:103380003B6C13F1640F02DA6FF063033B643B6C38
:103390009BB203F2DC539AB2012301934FF4FA7308
:1033A0000093322300214FF08040FEF733F9BB6CCD
:1033B0007B643B1D19460120FEF7CEF9092102204E
:1033C000FEF732F80F48FEF70BF80D210220FEF74A
:1033D0002BF87B681846FEF775F87B68C3F1040389
:1033E0001846FDF71DFC0346BB644FF00001B86CA6
:1033F000FDF7B2FC0346002B3FF443AF0A20FEF773
:10340000C1FDA5E6043500080D488546AFF30080F0
:103410000C480D490D4A002302E0D458C45004332F
:10342000C4188C42F9D30A4A0A4C002301E0136005
:103430000432A242FBD300F011F8FFF73BFEFEE797
:103440000050002000000020380000203C3500081B
:103450003800002024010020FEE7000070B500269F
:103460000C4D0D4C641BA410A64209D100F01AF8B3
:1034700000260A4D0A4C641BA410A64205D170BD5B
:1034800055F8043B98470136EEE755F8043B98475A
:103490000136F2E7343500083435000834350008C9
:1034A00038350008F8B500BFF8BC08BC9E46704728
:0C34B000F8B500BFF8BC08BC9E46704791
:1034BC0000010601000206010004060100080601D5
:1034CC0001000601020006010400060108000601C5
:1034DC004000060180000601535441525400000084
:1034EC0052656164696E6720000000003173743AA4
:1034FC002020202000000000326E643A2020202082
:10350C000000000000020004000801400008004018
:10351C0001000000000800100008014000080040F5
:08352C0000000000000204028F
:043534005501000835
:043538003101000855
:10353C000400000000100000002001000200000444
:10354C00000800000000000000000200000801401C
:10355C000408000000080140102000000000003F9B
:08356C006F12833ACDCC4C3DF7
:0400000508003409B2
:00000001FF
