:020000040800F2
:1000000000500020AD2E0008FD2E0008FD2E000837
:10001000FD2E0008FD2E0008FD2E00080000000047
:10002000000000000000000000000000FD2E00089D
:10003000FD2E000800000000FD2E0008FD2E000827
:10004000FD2E0008FD2E0008FD2E0008FD2E0008E4
:10005000FD2E0008FD2E0008591500087D1500082A
:10006000A1150008C5150008E9150008FD2E0008B7
:10007000FD2E0008FD2E0008FD2E0008FD2E0008B4
:10008000FD2E0008FD2E0008FD2E0008FD2E0008A4
:10009000FD2E0008FD2E0008FD2E00080D1600089C
:1000A000FD2E0008FD2E0008FD2E0008FD2E000884
:1000B000B5230008FD2E0008FD2E0008591F00087A
:1000C000492000085520000861200008FD2E000886
:1000D000FD2E00086D2700088127000895270008DD
:1000E000B5160008FD2E000800000000FD2E0008D7
:1000F000FD2E0008FD2E0008FD2E0008FD2E000834
:10010000FD2E0008FD2E0008FD2E0008FD2E000823
:10011000FD2E0008FD2E0008FD2E0008FD2E000813
:10012000FD2E0008FD2E0008FD2E0008FD2E000803
:1001300010B5054C237833B9044B13B10448AFF321
:1001400000800123237010BD680000200000000023
:10015000C449000808B5034B1BB103490348AFF37A
:10016000008008BD000000006C000020C4490008A9
:1001700081F0004102E000BF83F0004330B54FEA58
:1001800041044FEA430594EA050F08BF90EA020FC5
:100190001FBF54EA000C55EA020C7FEA645C7FEA58
:1001A000655C00F0E2804FEA5454D4EB5555B8BF7B
:1001B0006D420CDD2C4480EA020281EA030382EAEC
:1001C000000083EA010180EA020281EA0303362D7E
:1001D00088BF30BD11F0004F4FEA01314FF4801C51
:1001E0004CEA113102D0404261EB410113F0004F63
:1001F0004FEA03334CEA133302D0524263EB43031A
:1002000094EA050F00F0A780A4F10104D5F1200EB7
:100210000DDB02FA0EFC22FA05F2801841F1000112
:1002200003FA0EF2801843FA05F359410EE0A5F1E6
:1002300020050EF1200E012A03FA0EFC28BF4CF017
:10024000020C43FA05F3C01851EBE37101F00045CD
:1002500007D54FF0000EDCF1000C7EEB00006EEBDA
:100260000101B1F5801F1BD3B1F5001F0CD3490864
:100270005FEA30004FEA3C0C04F101044FEA4452BB
:1002800012F5800F80F09A80BCF1004F08BF5FEA42
:10029000500C50F1000041EB045141EA050130BD22
:1002A0005FEA4C0C404141EB0101013C28BFB1F534
:1002B000801FE9D291F0000F04BF01460020B1FA7F
:1002C00081F308BF2033A3F10B03B3F120020CDA52
:1002D0000C3208DD02F1140CC2F10C0201FA0CF030
:1002E00021FA02F10CE002F11402D8BFC2F1200C95
:1002F00001FA02F120FA0CFCDCBF41EA0C0190404B
:10030000E41AA2BF01EB0451294330BD6FEA040493
:100310001F3C1CDA0C340EDC04F11404C4F120027E
:1003200020FA04F001FA02F340EA030021FA04F390
:1003300045EA030130BDC4F10C04C4F1200220FAE7
:1003400002F001FA04F340EA0300294630BD21FA25
:1003500004F0294630BD94F0000F83F4801306BFEB
:1003600081F480110134013D4EE77FEA645C18BFDF
:100370007FEA655C29D094EA050F08BF90EA020F76
:1003800005D054EA000C04BF1946104630BD91EA6E
:10039000030F1EBF0021002030BD5FEA545C05D171
:1003A0004000494128BF41F0004130BD14F58004B0
:1003B0003CBF01F5801130BD01F0004545F0FE4124
:1003C00041F470014FF0000030BD7FEA645C1ABF59
:1003D000194610467FEA655C1CBF0B46024650EA90
:1003E000013406BF52EA033591EA030F41F40021BC
:1003F00030BD00BF90F0000F04BF0021704730B542
:100400004FF4806404F132044FF000054FF0000116
:1004100050E700BF90F0000F04BF0021704730B5D7
:100420004FF4806404F1320410F0004548BF4042AC
:100430004FF000013EE700BF42004FEAE2014FEA01
:1004400031014FEA02701FBF12F07F4393F07F4FDC
:1004500081F06051704732F07F4208BF704793F0DF
:100460007F4F04BF41F40021704730B54FF46074F2
:1004700001F0004521F000411CE700BF50EA0102F5
:1004800008BF704730B54FF000050AE050EA01029E
:1004900008BF704730B511F0004502D5404261EB0E
:1004A00041014FF4806404F132045FEA915C3FF44F
:1004B000D8AE4FF003025FEADC0C18BF03325FEAEC
:1004C000DC0C18BF033202EBDC02C2F1200300FA9D
:1004D00003FC20FA02F001FA03FE40EA0E0021FAC2
:1004E00002F11444BDE600BF70B54FF0FF0C4CF4B0
:1004F000E06C1CEA11541DBF1CEA135594EA0C0F62
:1005000095EA0C0F00F0DEF82C4481EA030621EA9C
:100510004C5123EA4C5350EA013518BF52EA0335D7
:1005200041F4801143F4801338D0A0FB02CE4FF089
:100530000005E1FB02E506F00042E0FB03E54FF0B9
:100540000006E1FB03569CF0000F18BF4EF0010EB1
:10055000A4F1FF04B6F5007F64F5407404D25FEAAD
:100560004E0E6D4146EB060642EAC62141EA555160
:100570004FEAC52040EA5E504FEACE2EB4F1FD0CA2
:1005800088BFBCF5E06F1ED8BEF1004F08BF5FEA20
:10059000500E50F1000041EB045170BD06F00046D2
:1005A00046EA010140EA020081EA0301B4EB5C047F
:1005B000C2BFD4EB0C0541EA045170BD41F4801177
:1005C0004FF0000E013C00F3AB8014F1360FDEBF9C
:1005D000002001F0004170BDC4F10004203C35DA78
:1005E0000C341BDC04F11404C4F1200500FA05F3FB
:1005F00020FA04F001FA05F240EA020001F000429C
:1006000021F0004110EBD37021FA04F642EB060111
:100610005EEA430E08BF20EAD37070BDC4F10C043B
:10062000C4F1200500FA04F320FA05F001FA04F2FF
:1006300040EA020001F0004110EBD37041F10001EB
:100640005EEA430E08BF20EAD37070BDC4F12005F6
:1006500000FA05F24EEA020E20FA04F301FA05F25E
:1006600043EA020321FA04F001F0004121FA04F206
:1006700020EA020000EBD3705EEA430E08BF20EAD6
:10068000D37070BD94F0000F0FD101F00046400010
:1006900041EB010111F4801F08BF013CF7D041EA92
:1006A000060195F0000F18BF704703F00046520096
:1006B00043EB030313F4801F08BF013DF7D043EA67
:1006C0000603704794EA0C0F0CEA135518BF95EA1D
:1006D0000C0F0CD050EA410618BF52EA4306D1D1A4
:1006E00081EA030101F000414FF0000070BD50EAC3
:1006F000410606BF1046194652EA430619D094EA4D
:100700000C0F02D150EA013613D195EA0C0F05D136
:1007100052EA03361CBF104619460AD181EA03018A
:1007200001F0004141F0FE4141F470014FF0000042
:1007300070BD41F0FE4141F4780170BD70B54FF0DD
:10074000FF0C4CF4E06C1CEA11541DBF1CEA13555D
:1007500094EA0C0F95EA0C0F00F0A7F8A4EB05043F
:1007600081EA030E52EA03354FEA013100F0888036
:100770004FEA03334FF0805545EA131343EA1263FF
:100780004FEA022245EA111545EA10654FEA0026B4
:100790000EF000419D4208BF964244F1FD0404F56D
:1007A000407402D25B084FEA3202B61A65EB0305C9
:1007B0005B084FEA32024FF480104FF4002CB6EB86
:1007C000020E75EB030E22BFB61A754640EA0C0006
:1007D0005B084FEA3202B6EB020E75EB030E22BF46
:1007E000B61A754640EA5C005B084FEA3202B6EB87
:1007F000020E75EB030E22BFB61A754640EA9C0046
:100800005B084FEA3202B6EB020E75EB030E22BF15
:10081000B61A754640EADC0055EA060E18D04FEAD3
:10082000051545EA16754FEA06164FEAC30343EA73
:1008300052734FEAC2025FEA1C1CC0D111F4801F40
:100840000BD141EA00014FF000004FF0004CB6E739
:1008500011F4801F04BF01430020B4F1FD0C88BFD8
:10086000BCF5E06F3FF6AFAEB5EB030C04BFB6EBE3
:10087000020C5FEA500C50F1000041EB045170BDD6
:100880000EF0004E4EEA113114EB5C04C2BFD4EB03
:100890000C0541EA045170BD41F480114FF0000E87
:1008A000013C90E645EA060E8DE60CEA135594EA03
:1008B0000C0F08BF95EA0C0F3FF43BAF94EA0C0F06
:1008C0000AD150EA01347FF434AF95EA0C0F7FF47B
:1008D00025AF104619462CE795EA0C0F06D152EACF
:1008E00003353FF4FDAE1046194622E750EA4106B3
:1008F00018BF52EA43067FF4C5AE50EA41047FF4C4
:100900000DAF52EA43057FF4EBAE12E74FF0FF3C28
:1009100006E000BF4FF0010C02E000BF4FF0010CF9
:100920004DF804CD4FEA410C7FEA6C5C4FEA430C72
:1009300018BF7FEA6C5C1BD001B050EA410C0CBFC1
:1009400052EA430C91EA030F02BF90EA020F002023
:10095000704710F1000F91EA030F58BF994208BF8A
:1009600090422CBFD8176FEAE37040F00100704747
:100970004FEA410C7FEA6C5C02D150EA013C07D19E
:100980004FEA430C7FEA6C5CD6D152EA033CD3D0E9
:100990005DF8040B704700BF8446104662468C46E3
:1009A0001946634600E000BF01B5FFF7B7FF002816
:1009B00048BF10F1000F01BD4DF808EDFFF7F4FF3F
:1009C0000CBF012000205DF808FB00BF4DF808EDCA
:1009D000FFF7EAFF34BF012000205DF808FB00BFED
:1009E0004DF808EDFFF7E0FF94BF012000205DF80F
:1009F00008FB00BF4DF808EDFFF7CEFF94BF0120C4
:100A000000205DF808FB00BF4DF808EDFFF7C4FFBC
:100A100034BF012000205DF808FB00BF4FEA410C05
:100A20007FEA6C5C02D150EA013C0AD14FEA430CE8
:100A30007FEA6C5C02D152EA033C02D14FF0000025
:100A400070474FF0010070474FEA410212F5001263
:100A500015D211D56FF47873B3EB625212D94FEA05
:100A6000C12343F0004343EA505311F0004F23FAEF
:100A700002F018BF404270474FF00000704750EA44
:100A8000013005D111F0004008BF6FF00040704701
:100A90004FF00000704700BF4FEA4102B2F1E0435F
:100AA00024BFB3F5001CDCF1FE5C0DD901F0004C55
:100AB0004FEAC0024CEA5070B2F1004F40EB8300A5
:100AC00008BF20F00100704711F0804F21D113F1D1
:100AD0003872BCBF01F00040704741F480114FEA0A
:100AE0005252C2F11802C2F1200C10FA0CF320FA93
:100AF00002F018BF40F001004FEAC1234FEAD323B0
:100B000003FA0CFC40EA0C0023FA02F34FEA430319
:100B1000CCE77FEA625307D150EA01331EBF4FF0A2
:100B2000FE4040F44000704701F0004040F0FE40BD
:100B300040F40000704700BF80F0004002E000BFBA
:100B400081F0004142001FBF5FEA410392EA030FB8
:100B50007FEA226C7FEA236C6AD04FEA1262D2EB02
:100B60001363C1BFD218414048404140B8BF5B4207
:100B7000192B88BF704710F0004F40F4000020F0A0
:100B80007F4018BF404211F0004F41F4000121F0B6
:100B90007F4118BF494292EA030F3FD0A2F1010200
:100BA00041FA03FC10EB0C00C3F1200301FA03F13E
:100BB00000F0004302D5494260EB4000B0F5000F61
:100BC00013D3B0F1807F06D340084FEA310102F120
:100BD0000102FE2A51D2B1F1004F40EBC25008BFD2
:100BE00020F0010040EA03007047490040EB00009C
:100BF000013A28BFB0F5000FEDD2B0FA80FCACF19D
:100C0000080CB2EB0C0200FA0CF0AABF00EBC250C9
:100C100052421843BCBFD0401843704792F0000FB7
:100C200081F4000106BF80F400000132013BB5E70A
:100C30004FEA41037FEA226C18BF7FEA236C21D080
:100C400092EA030F04D092F0000F08BF08467047E5
:100C500090EA010F1CBF0020704712F07F4F04D1B3
:100C6000400028BF40F00040704712F100723CBFC6
:100C700000F50000704700F0004343F0FE4040F4F0
:100C8000000070477FEA226216BF08467FEA2363AE
:100C90000146420206BF5FEA412390EA010F40F499
:100CA000800070474FF0000304E000BF10F00043E5
:100CB00048BF40425FEA000C08BF704743F09643CC
:100CC00001464FF000001CE050EA010208BF7047E7
:100CD0004FF000030AE000BF50EA010208BF70476E
:100CE00011F0004302D5404261EB41015FEA010C83
:100CF00002BF84460146002043F0B64308BFA3F17B
:100D00008053A3F50003BCFA8CF2083AA3EBC2535C
:100D100010DB01FA02FC634400FA02FCC2F120027B
:100D2000BCF1004F20FA02F243EB020008BF20F0B2
:100D30000100704702F1200201FA02FCC2F1200218
:100D400050EA4C0021FA02F243EB020008BF20EA0D
:100D5000DC7070474FF0FF0C1CEAD0521EBF1CEA3B
:100D6000D15392EA0C0F93EA0C0F6FD01A4480EA29
:100D7000010C400218BF5FEA41211ED04FF0006312
:100D800043EA501043EA5111A0FB01310CF000403E
:100D9000B1F5000F3EBF490041EAD3715B0040EA64
:100DA000010062F17F02FD2A1DD8B3F1004F40EB34
:100DB000C25008BF20F00100704790F0000F0CF007
:100DC000004C08BF49024CEA502040EA51207F3ACB
:100DD000C2BFD2F1FF0340EAC250704740F40000A6
:100DE0004FF00003013A5DDC12F1190FDCBF00F097
:100DF00000407047C2F10002410021FA02F1C2F145
:100E0000200200FA02FC5FEA310040F1000053EAE0
:100E10004C0308BF20EADC70704792F0000F00F02E
:100E2000004C02BF400010F4000F013AF9D040EA34
:100E30000C0093F0000F01F0004C02BF490011F4C8
:100E4000000F013BF9D041EA0C018FE70CEAD153C6
:100E500092EA0C0F18BF93EA0C0F0AD030F0004C46
:100E600018BF31F0004CD8D180EA010000F00040FA
:100E7000704790F0000F17BF90F0004F084691F0B8
:100E8000000F91F0004F14D092EA0C0F01D14202F2
:100E90000FD193EA0C0F03D14B0218BF084608D1BB
:100EA00080EA010000F0004040F0FE4040F4000005
:100EB000704740F0FE4040F4400070474FF0FF0C98
:100EC0001CEAD0521EBF1CEAD15392EA0C0F93EADF
:100ED0000C0F69D0A2EB030280EA010C49024FEA31
:100EE000402037D04FF0805343EA111143EA1013EA
:100EF0000CF000408B4238BF5B0042F17D024FF4A2
:100F0000000C8B4224BF5B1A40EA0C00B3EB510F7C
:100F100024BFA3EB510340EA5C00B3EB910F24BF65
:100F2000A3EB910340EA9C00B3EBD10F24BFA3EBEA
:100F3000D10340EADC001B0118BF5FEA1C1CE0D1B2
:100F4000FD2A3FF650AF8B4240EBC25008BF20F065
:100F5000010070470CF0004C4CEA50207F32C2BFB9
:100F6000D2F1FF0340EAC250704740F400004FF056
:100F70000003013A37E792F0000F00F0004C02BF87
:100F8000400010F4000F013AF9D040EA0C0093F051
:100F9000000F01F0004C02BF490011F4000F013BAB
:100FA000F9D041EA0C0195E70CEAD15392EA0C0F13
:100FB00008D142027FF47DAF93EA0C0F7FF470AF4B
:100FC000084676E793EA0C0F04D14B023FF44CAF8E
:100FD00008466EE730F0004C18BF31F0004CCAD123
:100FE00030F000427FF45CAF31F000437FF43CAF5F
:100FF0005FE700BF4FEA4002B2F1FE4F0FD34FF060
:101000009E03B3EB12620DD94FEA002343F0004375
:1010100010F0004F23FA02F018BF404270474FF023
:101020000000704712F1610F01D1420205D110F0AA
:10103000004008BF6FF0004070474FF0000070475D
:1010400080B58CB000AF022387F82F3000237B627D
:1010500000233B62234BBB6000233B610023BB6248
:101060000023FB60204800F047FD07F10803194604
:101070001D4800F0B9FC0023FB710023BB71FB1D70
:1010800001221946752000F06BF8FB79682B00D01F
:10109000FEE70523BB71BB1D012219461A2000F093
:1010A00025F80823BB71BB1D012219461B2000F047
:1010B0001DF81023BB71BB1D012219461C2000F036
:1010C00015F80023BB71BB1D012219466B2000F0EF
:1010D0000DF8032387F82F3097F82F301846303754
:1010E000BD4680BDA08601000054004080B586B09A
:1010F00002AF03463960FB711346BB710023BB731B
:101100000023FB73FB793B720123FB730CE0FB7B39
:10111000013B3A681A44FB7B127810333B4403F8D6
:10112000082CFB7B0133FB73BA79FB7B9A42EED22E
:10113000BB790133194607F108020023019300230C
:1011400000930B466821054800F020FD0123BB7386
:10115000BB7B18461037BD4680BD00BF0054004021
:1011600080B586B002AF03463960FB8013467B71C1
:101170000423FB73FB88DBB23B7307F10C020023F3
:10118000019301230093012368210A4800F0FEFC2B
:101190007B7901220192002200923A686821054879
:1011A00000F04AFD0523FB73FB7B18461037BD4654
:1011B00080BD00BF005400402DE9B04F00AF06E1F4
:1011C000062293493B20FFF7CBFF914B1B781B0274
:1011D0008F4A527813431846FFF71CF94FF000026C
:1011E0008C4BFFF7ABFA02460B4610461946FFF749
:1011F00053FC0346884A1360854B9B781B02844A44
:10120000D27813431846FFF705F94FF00002814BDF
:10121000FFF794FA02460B4610461946FFF73CFCCE
:1012200003467E4A13607A4B1B791B02784A527937
:1012300013431846FFF7EEF84FF00002754BFFF727
:101240007DFA02460B4610461946FFF725FC034679
:10125000734A1360734B1B681846FFF7EDF804469A
:101260000D466E4B1B681846FFF7E6F88046894628
:10127000694B1B681846FFF7DFF84FF000024FF08C
:10128000804302F0E7FA82468B46654B1B6818469E
:10129000FFF7D2F84FF000024FF0804302F0DAFA85
:1012A00002460B4650465946FEF768FF02460B467B
:1012B0001046194602F036FB02460B4640464946A8
:1012C000FFF73CFA02460B461046194602F050FB67
:1012D0004FF00002544BFFF707F902460B46104649
:1012E000194649A3D3E90023FFF728FA02460B4623
:1012F00020462946FEF742FF02460B461046194695
:10130000FFF7CAFB0346474A1360484B1B68184661
:10131000FFF792F804460D463F4B1B6883F00043ED
:101320001846FFF789F8804689463C4B1B681846EB
:10133000FFF782F84FF000024FF0804302F08AFA84
:1013400082468B46364B1B681846FFF775F84FF000
:1013500000024FF0804302F07DFA02460B465046F1
:101360005946FEF70BFF02460B461046194602F09F
:10137000D9FA02460B4640464946FFF7DFF90246D6
:101380000B461046194602F0F3FA4FF00002264BC6
:10139000FFF7AAF802460B46104619461AA3D3E9EE
:1013A0000023FFF7CBF902460B4620462946FEF7FD
:1013B000E5FE02460B4610461946FFF76DFB034655
:1013C0001A4A13601A4B1B680133194A1360184BF1
:1013D0001B68C72B7FF7F4AE124B1B6815491846E4
:1013E000FFF76CFD03461A460E4B1A600F4B1B6845
:1013F00010491846FFF762FD03461A460B4B1A6068
:101400000B4B00221A606FE01F85EB51B81E09409C
:10141000A80000200000B0409C000020A000002098
:10142000A400002088000020008066408C0000207E
:101430008400002000004843062241494320FFF772
:101440008FFE3F4B1B781B021AB23D4B5B781BB2E1
:1014500013431BB21846FEF7DDFF37A3D3E9002381
:10146000FFF76CF902460B4610461946FFF7ECFAF7
:101470000346344A1360324B9B781B021AB2304B3E
:10148000DB781BB213431BB21846FEF7C3FF2AA337
:10149000D3E90023FFF752F902460B4610461946DE
:1014A000FFF7D2FA0346284A1360254B1B791B022B
:1014B0001AB2234B5B791BB213431BB21846FEF7DB
:1014C000A9FF1DA3D3E90023FFF738F902460B4615
:1014D00010461946FFF7B8FA03461C4A13601C4B26
:1014E0001B6801331A4A1360194B1B68C72BA3DD15
:1014F000144B1B68174A82FB03129211DB17D31A95
:10150000104A1360104B1B68124A82FB031292119F
:10151000DB17D31A0C4A13600B4B1B680D4A82FB76
:1015200003129211DB17D31A084A136000BFBDE8FB
:10153000B08F00BFAFF3008000000000006050409B
:10154000A8000020900000209400002098000020B7
:10155000840000201F85EB5180B500AF054B5B690F
:10156000044A43F001035361034B1B68984700BFD3
:1015700080BD00BF00040140B000002080B500AF76
:10158000054B5B69044A43F002035361034B5B68FC
:10159000984700BF80BD00BF00040140B00000209C
:1015A00080B500AF054B5B69044A43F00403536107
:1015B000034B9B68984700BF80BD00BF00040140FB
:1015C000B000002080B500AF054B5B69044A43F0D2
:1015D00008035361034BDB68984700BF80BD00BF21
:1015E00000040140B000002080B500AF054B5B69EE
:1015F000044A43F010035361034B1B69984700BF33
:1016000080BD00BF00040140B000002080B500AFE5
:10161000264B5B6903F02003002B08D0234B5B694A
:10162000224A43F020035361214B5B6998471F4BCB
:101630005B6903F04003002B08D01C4B5B691B4A1D
:1016400043F0400353611A4B9B699847174B5B6902
:1016500003F08003002B08D0144B5B69134A43F05E
:1016600080035361124BDB699847104B5B6903F4AD
:101670008073002B08D00D4B5B690C4A43F48073D8
:1016800053610B4B1B6A9847084B5B6903F400736B
:10169000002B08D0054B5B69044A43F40073536187
:1016A000034B5B6A984700BF80BD00BF0004014048
:1016B000B000002080B500AF2D4B5B6903F4806360
:1016C000002B08D02A4B5B69294A43F4806353619D
:1016D000284B9B6A9847264B5B6903F40063002BF9
:1016E00008D0234B5B69224A43F400635361214BCA
:1016F000DB6A98471E4B5B6903F48053002B08D0CC
:101700001B4B5B691A4A43F480535361194B1B6BA3
:101710009847174B5B6903F40053002B08D0144B18
:101720005B69134A43F400535361124B5B6B984758
:101730000F4B5B6903F48043002B08D00C4B5B69B3
:101740000B4A43F4804353610A4B9B6B9847084B09
:101750005B6903F40043002B08D0054B5B69044A26
:1017600043F400435361034BDB6B984700BF80BDDC
:1017700000040140B000002080B483B000AF0346F5
:10178000FB80FB88B3F5004F00F0A580B3F5004F58
:1017900000F3A380B3F5804F00F09B80B3F5804F3A
:1017A00000F39B80B3F5005F00F09180B3F5005F1C
:1017B00000F39380B3F5805F00F08780B3F5805F1E
:1017C00000F38B80B3F5006F7DD0B3F5006F00F3AD
:1017D0008480B3F5806F74D0B3F5806F7DDCB3F592
:1017E000007F6CD0B3F5007F77DCB3F5807F64D0E9
:1017F000B3F5807F71DC802B5DD0802B6DDC202BDE
:1018000048DC002B69DD013B1F2B66D801A252F892
:1018100023F000BF9B1800089F180008DB18000881
:10182000A3180008DB180008DB180008DB18000804
:10183000A7180008DB180008DB180008DB180008F0
:10184000DB180008DB180008DB180008DB180008AC
:10185000AB180008DB180008DB180008DB180008CC
:10186000DB180008DB180008DB180008DB1800088C
:10187000DB180008DB180008DB180008DB1800087C
:10188000DB180008DB180008DB180008DB1800086C
:10189000AF180008402B0CD01FE000231EE00423EB
:1018A0001CE008231AE00C2318E0102316E0142390
:1018B00014E0182312E01C2310E000230EE00423A0
:1018C0000CE008230AE00C2308E0102306E01423B0
:1018D00004E0182302E01C2300E0002318460C3724
:1018E000BD4680BC704700BF90B585B000AF786042
:1018F00039600023BB600023FB733B681B88FF2B10
:1019000001D87B6801E07B680433BB603B681B88BF
:101910001846FFF731FF03461A460F239340DA4378
:10192000BB681B681A40BB681A603B689B78072B32
:101930000BD03B689B78062B07D03B689B78052B28
:1019400003D03B689B78042B0ED13B689B78043B0B
:101950009B005AB23B68DB785BB213435BB2DBB2ED
:1019600003F00F03FB732CE03B689B78012B03D043
:101970003B689B78002B07D13B689B789B00DBB2D0
:1019800003F00F03FB731CE03B689B78082B02D12C
:101990000423FB7315E00823FB733B689B78022B41
:1019A00007D17B68DB683A6812881A437B68DA6083
:1019B00007E07B68DB683A681288D2431A407B688C
:1019C000DA60FC7B3B681B881846FFF7D5FE0346B0
:1019D00004FA03F2BB681B681A43BB681A6000BFB5
:1019E0001437BD4690BD0000B0B586B000AF78603A
:1019F00039600023FB820023BB82394B3B6100230B
:101A0000FB817B68374A934210D1374A3B681446C2
:101A10001D460FCD0FC40FCD0FC42B682360334B71
:101A2000DB69324A43F40013D36110E02E4B3A686D
:101A300003F1240415460FCD0FC40FCD0FC42B683E
:101A400023602A4BDB69294A43F48003D3617B6816
:101A50001B6823F001027B681A607B685B6823F0D7
:101A60003F027B685A607B685A683B692049A1FB4A
:101A700003139B0C1A437B685A607B68DB6923F471
:101A8000FF6323F007037A68D3617B68DA693B69F7
:101A90009B091849A1FB03139B091A437B68DA6170
:101AA0007B681B6A03F03F027B681A627B681A6AD4
:101AB0003B690F49A1FB03139B0C01331A437B685D
:101AC0001A627B681B6843F001027B681A6001217F
:101AD000786800F026FA00BF1837BD46B0BD00BFD9
:101AE0000051250200540040EC000020001002408C
:101AF00083DE1B43632D3E0580B584B000AF786064
:101B00007B681F4A934218D14023BB810723BB73D4
:101B10000123FB7307F10C0319461A48FFF7E4FE93
:101B20008023BB810723BB730123FB7307F10C03E5
:101B300019461448FFF7D8FE1DE07B68124A93420D
:101B400019D14FF48063BB810723BB730123FB735F
:101B500007F10C0319460B48FFF7C6FE4FF400636C
:101B6000BB810723BB730123FB7307F10C031946E9
:101B70000448FFF7B9FE00BF1037BD4680BD00BF67
:101B800000540040000C01400058004080B586B071
:101B900000AFF8607A603B600B467B8100237B617D
:101BA00097F824301A460121F86800F0B9F800BF10
:101BB0000121F86800F0E8F80346002BF8D07B8993
:101BC00000221946F86800F067F900BF0221F868A2
:101BD00000F0DAF80346002BF8D000BF1549F8688A
:101BE00000F0D2F80346002BF8D000237B6111E00F
:101BF0007B697A6813441B781A46FB681A6100BF38
:101C00000321F86800F0C0F80346002BF8D07B6988
:101C100001337B617B693A689A42E9D897F82030B2
:101C2000002B03D10121F86800F060F900BF1837DC
:101C3000BD4680BD8000070080B586B000AFF8606B
:101C40007A603B600B467B8100237B61FB68334AF3
:101C5000934214BF01230023DBB2FB740121F86817
:101C600000F05FF997F824301A460121F86800F077
:101C700057F800BF0121F86800F086F80346002BF2
:101C8000F8D07B8901221946F86800F005F900BFF9
:101C90000221F86800F078F80346002BF8D03B6882
:101CA000012B04D80021F86800F03BF903E0012182
:101CB000F86800F036F93B68002B1FD03B687B6169
:101CC00019E000BF0521F86800F05EF80346002B1C
:101CD000F8D0FB681B69DAB27B681A707B68013345
:101CE0007B607B69022B03D10021F86800F019F9B1
:101CF0007B69013B7B617B69002BE2DC0121F86899
:101D000000F00FF997F82030002B03D10121F8687B
:101D100000F0ECF800BF1837BD4680BD005400400D
:101D200080B582B000AF78600B46FB701346BB7085
:101D3000BB78012B07D000BF0021786800F024F8A1
:101D40000346002BF8D1FB78002B12D07B681B6870
:101D500023F400627B681A607B681B6843F480622E
:101D60007B681A607B681B6843F480727B681A602A
:101D700005E07B681B6823F480727B681A6000BFF3
:101D80000837BD4680BD000080B489B000AF7860E0
:101D900039600023BB6100237B6100233B6100238A
:101DA000FB773B68052B11D83B68052B6BD801A24C
:101DB00052F823F0D71D0008EF1D0008071E000889
:101DC000571E0008571E00086F1E00083B68314A66
:101DD000934227D057E07B689B6903F00203002BF6
:101DE00002D00123FB774EE00023FB774BE07B68BA
:101DF0005B6903F00103002B02D00123FB7742E073
:101E00000023FB773FE07B685B6903F00203002B54
:101E100002D00123FB7701E00023FB777B689B69FD
:101E2000FB6030E07B685B69BB617B689B697B61C1
:101E30007B691B047B61BA697B6913433B613A6927
:101E40003B6813403A689A4202D10123FB771AE0BB
:101E50000023FB7717E07B685B6903F08003002BAE
:101E600002D00123FB770EE00023FB770BE07B68B9
:101E70005B6903F04003002B02D00123FB7701E0F4
:101E80000023FB7700BFFB7F18462437BD4680BC8C
:101E9000704700BF8000070080B485B000AF786055
:101EA0000B467B8013467B707B680F4A934214BFBE
:101EB00001230023DBB2FB737B885B007B807B7894
:101EC000002B04D07B8843F001037B8003E07B88F8
:101ED00023F001037B807A887B681A6100BF143786
:101EE000BD4680BC704700BF0054004080B483B042
:101EF00000AF78600B46FB70FB78002B06D07B6848
:101F00001B6843F400727B681A6005E07B681B68FD
:101F100023F400727B681A6000BF0C37BD4680BC9A
:101F2000704780B483B000AF78600B46FB70FB78DD
:101F3000002B06D07B681B6843F480627B681A60C4
:101F400005E07B681B6823F480627B681A6000BF31
:101F50000C37BD4680BC704780B586B000AF00230B
:101F6000FB71384B7B617B695B6803F400733B61F9
:101F70007B695B6803F48063FB607B695B6903F0EA
:101F80001003BB603B69002B0AD0BB68002B07D055
:101F90007B691A687B691A600021786900F066F82D
:101FA0007B695B6903F00203BB603B69002B14D0C3
:101FB000BB68002B11D07B699B6903F00103002BE8
:101FC0000BD17B695B69DBB2FB717B699B69DBB21F
:101FD000FB710221786900F049F87B695B6903F0C5
:101FE0008003BB603B69002B0FD0FB68002B0CD03B
:101FF000BB68002B09D07B699B6903F00103002BB0
:1020000003D10321786900F031F87B695B6903F043
:102010004003BB603B69002B0FD0FB68002B0CD04A
:10202000BB68002B09D07B699B6903F00103002B7F
:1020300003D10421786900F019F800BF1837BD46B4
:1020400080BD00BF0054004080B400AF00BFBD465B
:1020500080BC704780B400AF00BFBD4680BC7047F5
:1020600080B400AF00BFBD4680BC704780B584B06F
:1020700000AF78600B46FB707B68324A934214BF16
:1020800001230023DBB2FB73FB78042B56D801A29B
:1020900052F823F0AF200008A9200008D320000840
:1020A000EB2000080F2100087B689B6946E07B68F5
:1020B0009B6903F00403002B3BD0FA7B22491346B3
:1020C000DB0013449B000B4420331B68002098471F
:1020D0002FE0FA7B1C491346DB0013449B000B44A2
:1020E00020331B680220984728E07B689B6903F037
:1020F0000403002B1FD0FA7B13491346DB00134463
:102100009B000B4420331B680320984713E07B6837
:102110009B6903F00403002B0FD1FA7B0A49134695
:10212000DB0013449B000B4420331B6804209847BA
:1021300003E000BF02E000BF00E000BF00BF1037B7
:10214000BD4680BD00540040EC00002080B485B046
:1021500000AF03460A46FB711346BB710023FB73B5
:10216000FB79022B49D0022B00F3CC80002B00F02E
:10217000C880012B40F0C680654B1B68644A23F47D
:1021800080231360624B1B68614A43F48033136001
:102190005F4B5B685E4A43F480335360BB79482BE6
:1021A00006D15B4B5B685A4A43F4E013536000BFAF
:1021B000574B1B68564A43F080731360544B5B685F
:1021C000534A23F003035360514B5B68504A43F07A
:1021D000020353604E4B5B684D4A43F080035360EB
:1021E0004B4B5B684A4A23F460535360484B5B682F
:1021F000474A23F4E063536084E0454B1B68444A3C
:1022000023F001031360424B5B68414A23F480339F
:102210005360BB79103B142B5DD801A252F823F018
:1022200075220008D7220008D7220008D72200080C
:1022300083220008D7220008D7220008D7220008EE
:1022400091220008D72200089F220008D722000808
:10225000AD220008D7220008D7220008D7220008A4
:10226000BB220008D7220008D7220008D722000886
:10227000C9220008264B5B68254A43F400235360BB
:1022800029E0234B5B68224A43F44023536022E059
:102290001F4B5B681E4A43F4801353601BE01C4BCA
:1022A0005B681B4A43F45013536014E0184B5B689F
:1022B000174A43F4A01353600DE0154B5B68144AB2
:1022C00043F4C013536006E0114B5B68104A43F4BB
:1022D000E013536000BF0E4B1B680D4A43F0807340
:1022E000136000BF0A4B1B6803F00073002BF9D08A
:1022F000074B5B68064A43F0020353600123FB73FC
:1023000000E000BFFB7B18461437BD4680BC704719
:102310000010024080B483B000AF0346FB71104B45
:10232000DB690F4A43F00203D361FB795A1E0D4B60
:102330009A620C4B4CF25032DA620A4B1B68094A23
:1023400043F00103136000BF064B1B6903F0010358
:10235000002BF9D000BF00BF0C37BD4680BC7047D2
:10236000001002400004004080B400AF024B5B6AE2
:102370001846BD4680BC70470004004080B400AFE2
:10238000044B1B68034A23F00103136000BFBD46E2
:1023900080BC70470004004080B400AF044B1B6851
:1023A000034A43F00103136000BFBD4680BC704781
:1023B0000004004080B400AF184B1B78012B28D1DB
:1023C0004FF080431B694FF0804223F001031361FB
:1023D0004FF080431B694FF0804223F002031361EA
:1023E0000F4B1B88002B06D00D4B1B88013B9AB26C
:1023F0000B4B1A800DE0094B00221A704FF08043FE
:102400001B684FF0804223F001031360054B01224B
:102410001A7000BFBD4680BC704700BF3501002068
:10242000360100203401002080B483B000AF786012
:102430007B680B4A934201D100230CE07B68094A78
:10244000934201D1012306E07B68074A934201D100
:10245000022300E0032318460C37BD4680BC7047BA
:10246000003801400044004000480040B0B485B04E
:1024700000AF786039605E4BFB607B685D4A9342D9
:102480000ED15D4A3B6814461D460FCD0FC42B6824
:1024900023605A4B9B69594A43F48043936126E079
:1024A0007B68574A93420FD1534B3A6803F11404A7
:1024B00015460FCD0FC42B682360504BDB694F4A84
:1024C00043F40033D36112E07B684E4A93420ED14D
:1024D000494B3A6803F1280415460FCD0FC42B6809
:1024E0002360464BDB69454A43F48023D3617B6814
:1024F000DB6843F400527B68DA607B68DB683A682B
:1025000012781A437B68DA607B68DB683A68127A73
:102510001A437B68DA607B68DB683A68527A1A4350
:102520007B68DA607B681B693A68927A1A437B6839
:102530001A617B685B693A68D27A1A437B685A6190
:102540003B685B681B01FA68B2FBF3F31901FA6898
:1025500013469B0013449A001A443B685B689B0037
:10256000B2FBF3F23B685B681B01F868B0FBF3F366
:10257000642000FB03F3D31A1B01234AA2FB0323AD
:102580005B0903F00F030B43BB607B68BA689A607A
:102590003B681B7B002B26D07B68DB683A68127B8C
:1025A0001A437B68DA607B68124A934206D1174B64
:1025B0001B68164A43F02003136014E07B68104A3E
:1025C000934206D1114B1B68104A43F0400313603D
:1025D00009E07B680B4A934205D10C4B1B680B4A00
:1025E00043F08003136000BF1437BD46B0BC704792
:1025F000005125020038014038010020001002403F
:1026000000440040004800401F85EB5104E100E019
:1026100080B586B000AFF860B9601346FB71FB79F6
:10262000012B06D100BFFB681B6803F08003002B61
:10263000F9D0F868FFF7F8FE0346FB75BB681B8806
:10264000DAB2FB685A6000BF1837BD4680BD80B55E
:1026500086B000AFF860B9601346FB710D23BB82F2
:102660000023FB750AE0FB7DBA681344FA7919462A
:10267000F868FFF7CDFFFB7D0133FB75FB7DBA6882
:1026800013441B78002BEED1FA7907F11403194695
:10269000F868FFF7BDFF00BF1837BD4680BD0000DA
:1026A00080B584B000AF78607B682B4A934218D124
:1026B0004FF40073BB810623BB730123FB7307F147
:1026C0000C0319462548FFF70FF94FF48063BB81CF
:1026D0000823BB7307F10C0319462048FFF704F9E0
:1026E00036E07B681E4A934216D10423BB81062341
:1026F000BB730123FB7307F10C0319461748FFF75F
:10270000F3F80823BB810823BB7307F10C031946B8
:102710001248FFF7E9F81BE07B68124A934217D191
:102720004FF48063BB810623BB730123FB7307F166
:102730000C0319460C48FFF7D7F84FF40063BB8130
:102740000823BB7307F10C0319460748FFF7CCF8C1
:1027500000BF1037BD4680BD003801400008014071
:102760000044004000480040000C014080B500AF2C
:10277000024B1B69984700BF80BD00BF3801002095
:1027800080B500AF024B5B6A984700BF80BD00BFB9
:102790003801002080B500AF024B9B6B984700BF0B
:1027A00080BD00BF380100202DE9B04386B000AFE6
:1027B00048210120FFF7CAFCC34B9B69C24A43F082
:1027C00010039361C04B9B69BF4A43F480439361FC
:1027D000BD4B9B69BC4A43F008039361BA4B9B69AC
:1027E000B94A43F004039361B74B9B69B64A43F07F
:1027F00001039361B44BDB69B34A43F00203D36135
:10280000B14BDB69B04A43F40013D3614FF4165364
:10281000BB600023FB7300233B7400237B61002318
:102820007B7300233B730023BB730C233B713B1D65
:102830001946A648FFF71AFEA448FFF731FF2420E7
:10284000FFF768FDFEF7FCFBFEF7B6FCA04B00228D
:102850001A7001229E496B20FEF748FC9C4B052212
:102860001A7001229A491A20FEF740FC984B102258
:102870001A70012296491C20FEF738FC0622954961
:102880003B20FEF76DFC934B1B781B021AB2914B59
:102890005B781BB213431BB21846FDF7BBFD4FF02C
:1028A00000028D4BFDF74AFF02460B4610461946C3
:1028B000FEF7F2F80346894A1360864B9B781B02A9
:1028C0001AB2844BDB781BB213431BB21846FDF7D8
:1028D000A1FD4FF00002804BFDF730FF02460B4692
:1028E00010461946FEF7D8F803467D4A1360794B27
:1028F0001B791B021AB2774B5B791BB213431BB2D5
:102900001846FDF787FD4FF00002734BFDF716FFE9
:1029100002460B4610461946FEF7BEF80346714ABA
:1029200013606F4B1B681846FDF786FD04460D4685
:102930006A4B1B681846FDF77FFD4FF000024FF011
:10294000804300F087FF80468946664B1B68184627
:10295000FDF772FD4FF000024FF0804300F07AFF68
:1029600002460B4640464946FDF708FC02460B4628
:102970001046194600F0D6FF02460B46204629466F
:10298000FDF7DCFE02460B461046194600F0F0FF4C
:102990004FF00002544BFDF7A7FD02460B461046D0
:1029A000194643A3D3E90023FDF7C8FE02460B46B0
:1029B0001046194640A3D3E90023FDF7DDFB02468C
:1029C0000B4610461946FEF767F80346474A136060
:1029D000424B1B6883F000431846FDF72DFD04466B
:1029E0000D463F4B1B681846FDF726FD4FF00002D1
:1029F0004FF0804300F02EFF80468946394B1B681C
:102A00001846FDF719FD4FF000024FF0804300F02B
:102A100021FF02460B4640464946FDF7AFFB024602
:102A20000B461046194600F07DFF02460B46204635
:102A30002946FDF783FE02460B461046194600F074
:102A400097FF4FF00002284BFDF74EFD02460B4664
:102A50001046194616A3D3E90023FDF76FFE024680
:102A60000B461046194616A3D3E90023FDF786FB53
:102A700002460B4610461946FEF70EF803461C4A5E
:102A80001360134B08221A70012211491B20FEF714
:102A90002DFB06220F494320FEF762FB0D4B1B78EE
:102AA0001B021AB20B4B5B781BB213431AB221E024
:102AB0001F85EB51B81E09408FC2F5285C8FE23F9D
:102AC00048E17A14AE47F93F001002400038014057
:102AD000B8010020740100200000B0407C010020FB
:102AE0008001002084010020008066409C010020BD
:102AF000A0010020B24B1A80B24B9B781B021AB285
:102B0000B04BDB781BB213431AB2AF4B1A80AD4BFC
:102B10001B791B021AB2AB4B5B791BB213431AB27F
:102B2000AA4B1A80A64BB3F900301846FDF772FC89
:102B30009DA3D3E90023FDF701FE02460B46144690
:102B40001D46A34B1B681846FDF764FC02460B4666
:102B500020462946FDF710FB02460B461046194653
:102B6000FDF79AFF03469B4A1360974BB3F9003079
:102B70001846FDF74FFC8CA3D3E90023FDF7DEFDDB
:102B800002460B4614461D46934B1B681846FDF73C
:102B900041FC02460B4620462946FDF7EDFA024667
:102BA0000B4610461946FDF777FF03468B4A136024
:102BB000864BB3F900301846FDF72CFC7AA3D3E915
:102BC0000023FDF7BBFD02460B4614461D46844B11
:102BD0001B681846FDF71EFC02460B462046294698
:102BE000FDF7CAFA02460B4610461946FDF754FF98
:102BF00003467C4A1360FFF7B7FB03461846FEF70F
:102C000051F80346784A1360774B1B68774918469A
:102C1000FEF754F903461A46734B1A60FFF7AEFBF2
:102C20006C4B1B68704A126811461846FEF792F802
:102C300003461A466E4B1B6819461046FDF782FF85
:102C400003461A466A4B1A60644B1B68664A126850
:102C500011461846FEF77EF803461A46654B1B6878
:102C600019461046FDF76EFF03461A46614B1A607F
:102C70005C4B1B685C4A126811461846FEF76AF8FE
:102C800003461A465C4B1B6819461046FDF75AFF6F
:102C900003461A46584B1A60FFF77EFB544B1B68DD
:102CA0001846FDF7C9FB42A3D3E90023FDF71CFC3E
:102CB00002460B4614461D46504B1B681846FDF74E
:102CC000BBFB3DA3D3E90023FDF70EFC02460B46F8
:102CD00020462946FDF752FA02460B461046194691
:102CE000FDF7DAFE0346464A1360424B1B6818465E
:102CF000FDF7A2FB2EA3D3E90023FDF7F5FB024667
:102D00000B4614461D463F4B1B681846FDF794FBC7
:102D100029A3D3E90023FDF7E7FB02460B46204633
:102D20002946FDF72BFA02460B4610461946FDF7D9
:102D3000B3FE0346344A1360012234493448FFF796
:102D400086FC2F4B1B681846FEF754F903461A46BB
:102D50003049314800F0D4F801222F492C48FFF7C0
:102D600076FC01222D492A48FFF771FC264B1B688F
:102D70001846FEF73FF903461A462649264800F052
:102D8000BFF8012224492248FFF761FC01222449AF
:102D90001F48FFF75CFC1A4B1B681846FEF72AF920
:102DA00003461A461B493DE0000000000060504009
:102DB000B81E85EB51B8EE3F7B14AE47E17AA43FD5
:102DC00088010020740100208A0100208C0100206D
:102DD0009000002090010020940000209401002029
:102DE0009800002098010020000000200024744971
:102DF000A4010020A8010020AC0100209C010020BB
:102E0000B0010020A0010020B4010020E04900082A
:102E100000380140E8490008BC010020EC490008E6
:102E2000F4490008044800F06BF801220249034805
:102E3000FFF70DFC0AE500BFBC010020003801408F
:102E400080B586B000AF7860144A154BD31A7B6109
:102E50007B693B61134B1B68002B02D1114B124A5B
:102E60001A60104B1A687B6813443A699A4207D279
:102E700000F066F803460C221A604FF0FF3309E0B9
:102E8000084B1B68FB60074B1A687B681344054AB4
:102E90001360FB6818461837BD4680BD00500020FF
:102EA00000040000C4010020100300200D488546E6
:102EB000AFF300800C480D490D4A002302E0D458BE
:102EC000C4500433C4188C42F9D30A4A0A4C002374
:102ED00001E013600432A242FBD300F037F8FFF7A1
:102EE00063FCFEE700500020000000206800002086
:102EF000A84A00086800002010030020FEE7000038
:102F00000EB46FF0004100B59CB01DAB029006906E
:102F1000079104910848094953F8042B059100686A
:102F200002A9019300F086F90022029B1A701CB0DE
:102F30005DF804EB03B07047500000200802FFFF6B
:102F4000014B1868704700BF5000002070B5002684
:102F50000C4D0D4C641BA410A64209D101F032FDAA
:102F600000260A4D0A4C641BA410A64205D170BD70
:102F700055F8043B98470136EEE755F8043B98476F
:102F80000136F2E7A04A0008A04A0008A04A00085B
:102F9000A44A00087047704738B50546002940D05C
:102FA00051F8043C0C1F002BB8BFE41800F0DCF80B
:102FB0001C4A136833B9636014602846BDE8384082
:102FC00000F0D8B8A34208D9206821188B4201BF6D
:102FD00019685B6809182160EDE71A465B680BB158
:102FE000A342FAD911685018A0420BD120680144BD
:102FF000501883421160E0D118685B680844106083
:103000005360DAE702D90C232B60D6E72068211839
:103010008B4201BF19685B680918216063605460C6
:10302000CBE738BD0803002070B50E4E0C46316862
:10303000054611B900F0AAFB30602146284600F091
:10304000A5FB431C0AD0C41C24F00304A04207D0F3
:10305000211A284600F09AFB013001D14FF0FF34CD
:10306000204670BD0C0300202DE9F843CD1C25F04F
:10307000030508350C2D38BF0C25002D074601DB54
:10308000A94205D90C2300263B603046BDE8F883F1
:10309000DFF8D08000F068F8D8F800301C465CBB40
:1030A00029463846FFF7C0FF431C044655D1D8F8DF
:1030B00000402646002E45D1002C48D023683146DA
:1030C000384604EB030900F061FB81453FD12168DC
:1030D00038466D1A2946FFF7A7FF013037D023681D
:1030E0002B442360D8F80030002B38D05A68A24215
:1030F0002BD100225A600FE02268521B1FD40B2AEA
:1031000017D96119A342256018BF5960636808BFC9
:10311000C8F8001062514B60384604F10B0600F00D
:1031200029F826F00706231DF21AAED09B1BA350E8
:10313000ABE7A3426268DDD1C8F80020ECE7234684
:103140006468ACE734467668B4E71346CCE70C23F2
:1031500038463B6000F00EF897E72560DCE75B60DF
:10316000FFDE00BF080300200148FFF713BF00BFC8
:10317000040300200148FFF70EBF00BF0403002036
:103180002DE9F0471F468E688246BE420C469046A7
:103190000B682CD88A8912F4906F26D0656909696A
:1031A00005EB4505A3EB010905EBD5757B1C4B44ED
:1031B0006D109D4238BF1D46530527D52946FFF7A0
:1031C00053FF064660B34A46216900F0FDFAA38921
:1031D00023F4906343F08003A38126614E4426606C
:1031E0003E466561A5EB0905A560BE4200D93E4695
:1031F00032464146206800F0AFFA0020A3689B1BCE
:10320000A360236833442360BDE8F0872A4600F0BA
:10321000E9FA06460028E0D150462169FFF7BCFED6
:103220000C23CAF80030A3894FF0FF3043F040036D
:10323000A381E9E72DE9F04F98468B8907461B06E5
:103240000D4614469DB00ED50B6963B94021FFF7BA
:103250000BFF2860286120B90C233B604FF0FF3042
:10326000D0E040236B610023099320238DF829309F
:1032700030234FF00109CDF80C80DFF8A0818DF8E4
:103280002A3023469A4613F8012B0AB1252AF9D190
:10329000BAEB040B0BD05B46224629463846FFF7B3
:1032A0006FFF013000F0A980099A5A4409929AF8F8
:1032B0000030002B00F0A18000234FF0FF32CDE959
:1032C00005230AF1010A049307938DF853301A93EA
:1032D0005446052214F8011B504800F067FA049A7E
:1032E000D8B9D00644BF20238DF85330110744BF0E
:1032F0002B238DF853309AF800302A2B15D05446E2
:1033000000204FF00A0C079A214611F8013B303B90
:10331000092B4DD9B0B1079214E0A0EB080309FACC
:1033200003F31343A2460493D2E7039B191D1B68C2
:103330000391002BBBBF5B4242F00202079307934D
:10334000B8BF049223782E2B0CD163782A2B34D16A
:10335000039B02341A1D1B680392002BB8BF4FF069
:10336000FF330593DFF8B8A003225046217800F020
:103370001DFA38B14022049BA0EB0A00824013439F
:103380000134049314F8011B062226488DF82810F6
:1033900000F00CFA002838D0234B1BBB039B0733EB
:1033A00023F0070308330393099B3344099368E729
:1033B0000C4601200CFB0232A6E700234FF00A0C5A
:1033C000194601340593204610F8012B303A092A9A
:1033D00003D9002BC6D00591C4E7044601230CFB9A
:1033E0000121F0E703AB00932A4638460F4B04A9AE
:1033F000AFF30080421C0646D6D1AB895B063FF591
:103400002DAF09981DB0BDE8F08F03AB00932A469D
:103410003846064B04A900F07DF8EBE7FA490008AE
:10342000004A0008044A000800000000813100083A
:103430002DE9F047164699468A680B69074693427C
:10344000B8BF1346336091F843200C46DDF8208066
:103450000AB1013333602368990642BF33680233EF
:103460003360256815F0060506D104F1190AE368F2
:1034700032689B1AAB422BDC94F84320131E22685F
:1034800018BF0123920630D44946384604F143025E
:10349000C047013023D02368226903F00603042BC0
:1034A00014BF002533684FF0000608BFE56804F13B
:1034B0001A0408BFED1A54F8123C08BF25EAE57556
:1034C0009342C4BF9B1AED18B5421AD1002008E000
:1034D0000123524649463846C047013003D14FF0D8
:1034E000FF30BDE8F0870135C1E73020E11881F8F1
:1034F00043005A1C94F845102244023382F84310CA
:10350000C2E70123224649463846C0470130E6D08B
:103510000136D9E72DE9FF470F7E9146782F804687
:103520000C469A460C9D01F1430207D8622F0AD837
:10353000002F00F0D580582F00F0C18004F1420523
:1035400084F842703AE0A7F16303152BF6D801A185
:1035500051F823F0AD350008C13500083D350008AD
:103560003D3500083D3500083D350008C1350008EF
:103570003D3500083D3500083D3500083D35000863
:10358000C7360008ED350008813600083D350008D3
:103590003D350008E93600083D350008ED350008E6
:1035A0003D3500083D350008893600082B681A1D96
:1035B0001B682A6004F1420584F842300123A0E030
:1035C00020682B68070603F10401296001D51E68F5
:1035D00003E04606FBD5B3F90060002E03DA2D2385
:1035E000764284F843300A23594812E02B68206859
:1035F000191D2960050601D51E6802E04106FBD5AC
:103600001E886F2F0CBF08230A235148002184F81D
:1036100043106568002DA8BF2168A560A4BF21F0F4
:10362000040121600EB9002D4BD01546B6FBF3F115
:1036300003FB1167C75D05F8017D3746BB420E46A7
:10364000F4D9082B0BD12368DE0708D523696168FC
:103650009942DEBF302305F8013C05F1FF35521BCE
:1036600022614B4621464046CDF800A003AAFFF751
:10367000DFFE01304AD14FF0FF3004B0BDE8F087E3
:10368000236843F0200323607827324884F845708C
:10369000236829681F0651F8046B02D45F0648BFEF
:1036A000B6B2DF0748BF43F02003296048BF23605C
:1036B0001EB9236823F0200323601023A6E72448C3
:1036C000E4E71546BDE72B682668181D6169286088
:1036D00035061B6801D5196002E07006FBD519801C
:1036E000002315462361BCE72B6800211A1D2A60C0
:1036F0001D686268284600F059F808B1401B6060F8
:1037000063682361002384F84330AAE72A464946C8
:1037100040462369D0470130ADD023689B0713D4BE
:10372000E068039B9842B8BF1846A6E701233246DB
:1037300049464046D04701309DD00135E3680399A2
:103740005B1AAB42F2DCEBE7002504F11906F5E762
:103750000B4A00081C4A0008884210B501EB02041D
:1037600002D98442234607D8431EA14208D011F84B
:10377000012B03F8012FF8E7014602448A4200D1E9
:1037800010BD13F8014D02F8014DF7E738B50023DD
:10379000054D044608462B60FFF752FB431C02D13F
:1037A0002B6803B1236038BD00030020034610B529
:1037B000C9B202449342184601D1002003E00478C4
:1037C00001338C42F6D110BD0A44914200F1FF331F
:1037D00000D1704710B511F8014B914203F8014F29
:1037E000F9D110BD2DE9F041804614460E4621B9AD
:1037F0001146BDE8F041FFF737BC2AB9FFF7CCFB13
:1038000025462846BDE8F08100F01BF884420746B3
:1038100002D8B4EB500F12D821464046FFF724FCE3
:1038200005460028EDD0BC422246314628BF3A4624
:10383000FFF7CAFF31464046FFF7AEFBE1E73546EA
:10384000DFE751F8043C181F002BBCBF0B58C01811
:10385000704700002DE9F84314461D46804689460E
:1038600000F0F2FA224606460F462B46204629462D
:10387000FDF7D4F8C8BB0022002340464946FDF7B7
:103880009BF8B8B10022002320462946FDF794F8A2
:10389000002841D12046294600F0F8F928B300223B
:1038A000002320462946FDF791F8F0B1FFF748FBC9
:1038B000222319E03046394600F0E8F9C8B94046FD
:1038C000494600F0E3F9A0B12046294600F0DEF9B0
:1038D00078B132463B4630463946FDF79FF800281E
:1038E000E4D0FFF72DFB2123036030463946BDE8C5
:1038F000F8830022002330463946FDF75DF80028A2
:10390000F3D04046494600F0C1F90028EDD02046EA
:10391000294600F0BBF9C8E70026014FE5E700BFE4
:103920000000F03FF8B506460F4600F0B5F9324604
:1039300004460D463B4630463946FDF76FF890B9D0
:103940000022002330463946FDF740F858B1FFF712
:10395000F7FA212300220360002310461946FCF7E2
:10396000EDFE04460D4620462946F8BD0000000045
:103970002DE9F84FB64B21F000469E4204460D4615
:103980008B4617DDB34B9E4201DC09D140B1224684
:103990002B4620462946FCF7F1FB04460D4605E080
:1039A000BBF1000FAC4C00F32181AC4D2046294601
:1039B000BDE8F88FAA4B9E4211DCA3F1DE739E4254
:1039C0000ADC8BA3D3E90023FCF7D8FB0022A54B2C
:1039D000FDF71AF80028E9D14FF0FF3A27E000F090
:1039E00051F9A14B04469E420D4600F3B880A3F561
:1039F00050239E4200F39C8002460B46FCF7BEFB20
:103A00000022984BFCF7B8FB002206460F464FF009
:103A1000804320462946FCF7B1FB02460B46304660
:103A20003946FCF78BFE4FF0000A04460D4622464D
:103A30002B4620462946FCF757FD02460B4680469A
:103A40008946FCF751FD6CA3D3E9002306460F46D7
:103A5000FCF74AFD6AA3D3E90023FCF78FFB32464B
:103A60003B46FCF741FD68A3D3E90023FCF786FB46
:103A700032463B46FCF738FD65A3D3E90023FCF74B
:103A80007DFB32463B46FCF72FFD63A3D3E90023C1
:103A9000FCF774FB32463B46FCF726FD60A3D3E9F6
:103AA0000023FCF76BFB42464B46FCF71DFD5EA373
:103AB000D3E900238046894630463946FCF714FD99
:103AC0005BA3D3E90023FCF757FB32463B46FCF7E8
:103AD0000BFD59A3D3E90023FCF74EFB32463B46CE
:103AE000FCF702FD56A3D3E90023FCF745FB324661
:103AF0003B46FCF7F9FC54A3D3E90023FCF73CFB5D
:103B000032463B46FCF7F0FC02460B46404649462F
:103B1000FCF734FB22462B46FCF7E6FCBAF1FF3FEC
:103B200002460B4644D120462946FCF725FB34E7E4
:103B300000224C4BFCF720FB002206460F46204695
:103B40002946484BFCF71AFB02460B4630463946DD
:103B5000FCF7F4FD4FF0010A04460D4667E7434BBE
:103B60009E421ADA0022424BFCF706FB0022064670
:103B70000F46204629463E4BFCF7B6FC0022394B47
:103B8000FCF7FCFA02460B4630463946FCF7D6FDF8
:103B90004FF0020A04460D4649E702460B46002054
:103BA0003449FCF7CBFD4FF0030A04460D463EE7CF
:103BB000314B324E03EBCA03D3E90023FCF7DCFAA6
:103BC00022462B46FCF7D8FA06EBCA0602460B46FD
:103BD000D6E90001FCF7D0FABBF1000F04460D4610
:103BE000BFF6E4AE01F100431D46DFE6244DDDE6FD
:103BF0009C7500883CE4377E11DA22E33AAD903FB1
:103C0000EB0D76244B7BA93F513DD0A0660DB13F13
:103C10006E204CC5CD45B73FFF8300922449C23F7B
:103C20000D5555555555D53F2F6C6A2C44B4A2BF40
:103C30009AFDDE522DDEAD3F6D9A74AFF2B0B33F08
:103C4000711623FEC671BC3FC4EB98999999C93F80
:103C5000FFFF0F440000F07F182D4454FB21F9BFF3
:103C6000FFFFDB3F0000F03FFFFFF23F008003401B
:103C70000000F83F0000F0BF504A0008304A00083A
:103C8000FB21F93F21F000431946704741F0004005
:103C900000F58010C00F7047DFF8A0C12DE9F84F84
:103CA0003CEA010C0B4606460D460A4604460ED178
:103CB0000246FCF719FC02460B4630462946FCF743
:103CC0005DFA06460D4630462946BDE8F88F0029C4
:103CD0000DDC21F0004C5CEA000CF4D039B1024656
:103CE000FCF74AFA02460B46FCF728FDE9E71215F5
:103CF00000F089800025C3F31303A2F2FF3643F4DA
:103D00008013D2075CBF5B0003EBD4734FEA43031D
:103D100058BF640003EBD4736200162029464FF4A9
:103D2000001476100F199F42DEBFDB1B39192D19C5
:103D30005B00013803EBD2734FEA54044FEA4202AE
:103D4000F0D1044620274FF0004C8B420CEB000EC4
:103D500002DC13D1964511D8BEF1000F0EEB0C001A
:103D600056DA002854DB01F101085B1A41469645FA
:103D700088BF03F1FF33A2EB0E0264445B00013FF6
:103D800003EBD2734FEA5C0C4FEA4202DDD11343DE
:103D90001BD0DFF8ACA0DFF8ACB0DAE90001DBE95A
:103DA0000023FCF7E9F9DAE9008902460B464046B0
:103DB0004946FCF715FE40B1DAE90001DBE90023D2
:103DC000B4F1FF3F26D13C4601356B10640803F186
:103DD0007F53EA0703F5001348BF44F00044204630
:103DE00003EB06516DE7E30A15396405002BFAD0A1
:103DF000D8020AD5C2F1200024FA00F0551E9440E2
:103E000003434A1B76E71146F0E75B000132EFE718
:103E10008846AAE7FCF7B2F9DAE9008902460B46C0
:103E200040464946FCF7D2FD20B1A11C08BF013530
:103E30000234CAE7013424F00104C6E70000F07F31
:103E400058000020600000202DE9F04F93B0CDE92C
:103E50000223DDE9022727F00046894656EA0201DF
:103E6000804611D1031889F4002252419942824BB5
:103E7000934180F0BA84DDE9022340464946FCF7CD
:103E80007DF983468C466FE07C4B29F000449C42D0
:103E90004D46824606DC01D10028ECD19E4201DC71
:103EA0000FD172B105F1404505F5801555EA0A05B7
:103EB000E1D1DDE90232DB1882F4002252419D4259
:103EC000D5E7002D39DA6E4B9E4252DCA3F15473D4
:103ED0009E4240F39D843315A3F2FF33142B0FDD74
:103EE000C3F1340322FA03F101FA03F3934240F0E1
:103EF0008F8401F00101C1F10203009382B15DE002
:103F0000002A59D1C3F1140346FA03F101FA03F36D
:103F1000B34240F07A8401F00101C1F10203009341
:103F2000584B9E4232D1002F80F26B8442464B4662
:103F300000205449FCF702FCA3E700230093002A69
:103F40003CD14E4B9E42EBD104F1404303F580132C
:103F500053EA0A0300F049844B4B9C420BDD002FCF
:103F6000C0F24984DDE902BC5846614613B0BDE8A1
:103F7000F08F0223E2E7002F4FF0000B4FF0000C10
:103F8000F2DADDE902B303F1004CEDE7B7F1804F5F
:103F900006D142464B4640464946FCF7A5FA70E733
:103FA0003A4B9F420AD1002D08DB4046494613B0E8
:103FB000BDE8F04FFFF770BE00230093404649462E
:103FC000FFF760FE83468C46BAF1000F28D124B17A
:103FD0002C4B25F040429A4222D1002F07DA5A4654
:103FE000634600202749FCF7A9FB83468C46002D39
:103FF000BADA009B04F1404404F580141C4308D154
:104000005A46634658466146FCF7B6F802460B46E8
:1040100090E7009B012BA7D10CF100439C46A3E73E
:10402000EB0F013B0C930C9A009B134304D14246C7
:104030004B4640464946E7E7154B9E4240F3F68023
:1040400003F104739E42104B09DD9C420CDC002FEF
:104050000CDA002013B0BDE8F04F00F0AEBC9C427B
:10406000F5DB084B9C4215DD002FF2DC002013B07D
:10407000BDE8F04F00F09CBC0000F0FF0000F07FB6
:10408000FFFF3F430000F03FFFFFEF3F0000E03F36
:104090000000E0416146002258465F4BFCF76CF897
:1040A00055A3D3E9002304460D46FCF71DFA54A39B
:1040B000D3E9002306460F4620462946FCF714FAAA
:1040C000002282468B4620462946544BFCF70CFAC8
:1040D00002460B464CA1D1E90001FCF74DF82246FF
:1040E0002B46FCF701FA02460B4600204C49FCF730
:1040F00043F822462B468046894620462946FCF74F
:10410000F3F902460B4640464946FCF7EDF940A359
:10411000D3E90023FCF7E8F902460B46504659461E
:10412000FCF72AF802460B4604460D46304639464F
:10413000FCF724F8002032463B4682468B46FCF7CB
:104140001BF802460B4620462946FCF715F8DDE928
:104150000267009B0C9A013B13434FF000064FF09F
:1041600000020CBF2F4B2C4B04460D46DDE902012B
:10417000CDE9002332463B46FBF7FEFF52465B4645
:10418000FCF7B2F9DDE9022380468946204629463C
:10419000FCF7AAF902460B4640464946FBF7EEFFFC
:1041A00032463B468046894650465946FCF79CF9C4
:1041B00004460D460B46024649464046CDE90245B7
:1041C000FBF7DCFF184B824699420F460E4640F340
:1041D000E78201F13F4303F5E003034300F0E2818E
:1041E000DDE9000100220023FCF7F0FB003818BFD6
:1041F00001202FE7AFF30080000000604715F73F74
:1042000044DF5DF80BAE543E555555555555D53FD9
:10421000FE822B654715F73F0000F03F0000D03FBE
:104220000000E03F0000F0BFFFFF8F40D44B0022B2
:104230002B4043B958466146D24BFCF755F96FF015
:10424000340283460C462315A3F2FF3313440B9329
:10425000CD4BC4F3130444F07F559C4245F4401504
:1042600008DDCA4B9C4240F364810B9BA5F5801589
:1042700001330B930026F3000D93C54B584603EB17
:10428000C603D3E9003429461A46CDE9083423464B
:10429000FBF772FFDA462B465246CDE90E01DDE907
:1042A0000801FBF76BFF02460B460020B949FCF7FB
:1042B00045FA02460B46CDE91001DDE90E01FCF797
:1042C00013F9CDE90601DDE90634CDE90434002314
:1042D0000022AB466D1045F00055049305F500250E
:1042E000DDE9048905EB86434046494614461D46F0
:1042F000FCF7FAF802460B46DDE90E01FBF73CFF3E
:10430000DDE9082306460F4620462946FBF734FF21
:1043100002460B4650465946FBF72EFF42464B4697
:10432000FCF7E2F802460B4630463946FBF724FF1D
:10433000DDE91023FCF7D8F8DDE9062382468B4639
:1043400010461946FCF7D0F87BA3D3E900230446B6
:104350000D46FCF7C9F87AA3D3E90023FBF70EFF5B
:1043600022462B46FCF7C0F877A3D3E90023FBF7DE
:1043700005FF22462B46FCF7B7F875A3D3E90023C7
:10438000FBF7FCFE22462B46FCF7AEF872A3D3E9FE
:104390000023FBF7F3FE22462B46FCF7A5F870A39B
:1043A000D3E90023FBF7EAFE224606460F462B46DA
:1043B00020462946FCF798F802460B463046394617
:1043C000FCF792F804460D46DDE9060142464B46ED
:1043D000FBF7D4FE52465B46FCF786F822462B4696
:1043E000FBF7CCFE424606460F464B464046494642
:1043F000FCF77AF802460B46CDE908230022664B0B
:10440000FBF7BCFE32463B46FBF7B8FE00240D46E8
:1044100022460B4640464946FCF766F80022804695
:104420008946204629465C4BFBF7A6FEDDE90823BA
:10443000FBF7A2FE02460B4630463946FBF79CFED0
:10444000DDE90623FCF750F8224606460F462B46C8
:1044500050465946FCF748F802460B463046394666
:10446000FBF78CFE002406460F4602460B464046EC
:104470004946FBF783FE3CA3D3E9002320460D46C3
:10448000FCF732F842464B46CDE906012046294664
:10449000FBF772FE02460B4630463946FBF76CFED0
:1044A00033A3D3E90023FCF71FF833A3D3E9002398
:1044B00006460F4620462946FCF716F802460B46EC
:1044C00030463946FBF75AFE0D9A344B1344D3E974
:1044D0000023FBF753FE80460B988946FBF79AFFB3
:1044E00004460D46DDE906010D9A2D4B1344D3E930
:1044F000006742464B46FBF741FE32463B46FBF720
:104500003DFE22462B46FBF739FE002022462B4675
:1045100082468B46FBF730FE32463B46FBF72CFECD
:10452000DDE90623FBF728FE02460B4640464946D6
:104530000BE601269FE600BFEF4E454A287ECA3FA4
:1045400065DBC9934A86CD3F01411DA96074D13F07
:104550004D268F515555D53FFFAB6FDBB66DDB3F19
:10456000033333333333E33F000000E009C7EE3F4A
:10457000FD033ADC09C7EE3FF5015B14E02F3EBEB8
:104580000000F07F000040438E98030079B60B00D6
:10459000704A00080000F03F00000840904A000800
:1045A000804A00089CA3D3E9002340464946FBF714
:1045B000E5FD2246CDE904012B4650463946FBF77E
:1045C000DBFD02460B46DDE90401FCF71DFA00287D
:1045D0007FF406AEA24A26F00043934240F30081E6
:1045E0004FF4801A1B15A3F2FE334AFA03FAB244C1
:1045F000CAF30A519B48A1F2FF31084100EA0A03BD
:10460000CAF3130AC1F114014AF4801A4AFA01FAF2
:10461000002E4FF0000220462946B8BFCAF1000A1A
:10462000FBF7AAFDCDE90201DDE9020100244246C3
:104630004B46FBF7A3FD7AA3D3E9002320460D46A2
:10464000FBF752FFDDE9022306460F4620462946C6
:10465000FBF792FD02460B4640464946FBF78CFDB0
:1046600071A3D3E90023FBF73FFF71A3D3E9002334
:104670008046894620462946FBF736FF02460B4610
:1046800040464946FBF77AFD04460D4602460B4676
:1046900030463946FBF772FD32463B468046894636
:1046A000FBF76AFD02460B4620462946FBF764FDF0
:1046B000424606460F464B4640464946FBF714FF26
:1046C0005DA3D3E9002304460D46FBF70DFF5CA371
:1046D000D3E90023FBF750FD22462B46FBF704FFEE
:1046E00059A3D3E90023FBF749FD22462B46FBF7EC
:1046F000FBFE57A3D3E90023FBF73EFD22462B46E2
:10470000FBF7F2FE54A3D3E90023FBF737FD224663
:104710002B46FBF7E9FE02460B4640464946FBF7AF
:104720002BFD04460D4602460B4640464946FBF724
:10473000DBFE0022CDE902014FF0804320462946EE
:10474000FBF71AFD02460B46DDE90201FBF7F6FF17
:10475000324604460D463B4640464946FBF7C4FEFA
:1047600032463B46FBF70AFD02460B4620462946E9
:10477000FBF702FD42464B46FBF7FEFC02460B46AA
:1047800000203949FBF7F8FC01EB0A54B4F5801F0F
:1047900029DA524600F070F8DDE90023FFF7FDBB8F
:1047A000324B21F000479F427FF714AF304B0B4450
:1047B000034309D0DDE9000100220023FCF706F9DC
:1047C000003818BF012052E422462B46FBF7D4FCE8
:1047D00042464B46FCF70EF900283FF4FBAEE9E7F2
:1047E0004FF0000A20E72146D6E74FF0000BDFF834
:1047F00078C0FFF7B9BB4FF0000B4FF0000CFFF78C
:10480000B3BB40464946FFF73CBB0092FFF788BB6D
:104810000023FFF772BB00BFFE822B654715973C54
:1048200000000000432EE63FEF39FAFE422EE63F3D
:10483000396CA80C615C20BED0A4BE726937663E9C
:10484000F16BD2C541BDBB3E2CDE25AF6A56113F90
:1048500093BDBE166CC1663F3E5555555555C53F77
:104860000000E03F0000F0FF0000F03FFFCB904071
:1048700000346F3F00000000F8B51646C1F30A523D
:1048800004460D460B4692B921F0004303433CD049
:10489000314B0022FBF728FE304B04469E420D466A
:1048A0000FDA29A3D3E90023FBF71EFE06E040F24E
:1048B000FF77BA4209D10246FBF760FC04460D4679
:1048C00023E00B46C1F30A52363A4CF250318E4285
:1048D0000EDD1FA3D3E9002305F0004444F0FC41A2
:1048E00041F45F1141F410511D4841F03C01DBE7F8
:1048F00040F2FE7132448A42EBDC002A08DD23F0EC
:10490000FF4323F4E00343EA025520462946F8BD5D
:1049100012F1350F0CDA0CA3D3E9002305F00044A3
:1049200044F0D27141F4B7310E4841F01F01BBE7AA
:1049300023F0FF43363223F4E00343EA02552046D6
:1049400029460022084BAFE759F3F8C21F6EA501B4
:104950009C7500883CE4377E00005043B03CFFFF6C
:104960009C75008859F3F8C20000903C70B504466D
:104970000D461646FEF7E4FA29460660204670BD4D
:1049800037B515461C4680B1104603F10041CDE90C
:104990000001DDE9002328462146FBF7A5FD222280
:1049A00003B0BDE83040FFF7E1BF10461946EEE71F
:1049B00000224FF08053FFF7E3BF00224FF0E043A7
:1049C000FFF7DEBFF8B500BFF8BC08BC9E467047D5
:0C49D000F8B500BFF8BC08BC9E4670475C
:1049E000526F6C6C3A20000025640A0050697463B1
:1049F000683A20005961773A2000232D302B20009F
:104A0000686C4C0065666745464700303132333488
:104A10003536373839414243444546003031323328
:104A200034353637383961626364656600000000EA
:104A30004FBB610567ACDD3F182D4454FB21E93FB6
:104A40009BF681D20B73EF3F182D4454FB21F93FA5
:104A5000E2652F227F2B7A3C075C143326A6813C2B
:104A6000BDCBF07A8807703C075C143326A6913CD6
:104A7000000000000000F03F000000000000F83FD0
:104A800000000000000000000000004003B8E23F0A
:104A9000000000000000000006D0CF43EBFD4C3EBC
:044AA00055010008B4
:044AA40031010008D4
:104AA8008FC2753C00000000C801002030020020C1
:104AB8009802002000000000000000000000000034
:104AC80000000000000000000000000000000000DE
:104AD80000000000000000000000000000000000CE
:104AE80000000000000000000000000000000000BE
:104AF8000400002000000000000000000000F03F5B
:084B080059F3F8C21F6EA5016C
:0400000508002EAD14
:00000001FF
