:020000040800F2
:1000000000500020151E0008651E0008651E00082F
:10001000651E0008651E0008651E0008000000003F
:10002000000000000000000000000000651E000845
:10003000651E000800000000651E0008651E00081F
:10004000651E0008651E0008651E0008651E000884
:10005000651E0008651E0008E90200080D0300087F
:10006000310300085503000879030008651E0008E5
:10007000651E0008651E0008651E0008651E000854
:10008000651E0008651E0008651E0008651E000844
:10009000651E0008651E0008651E00089D03000817
:1000A000651E0008651E0008651E0008651E000824
:1000B000C513000839140008A5140008D507000866
:1000C000C5080008D1080008DD080008651E000802
:1000D000651E0008AD180008C1180008D5180008F2
:1000E00045040008651E000800000000651E0008A9
:1000F000651E0008651E0008651E0008651E0008D4
:10010000651E0008651E0008651E0008651E0008C3
:10011000651E0008651E0008651E0008651E0008B3
:10012000651E0008651E0008651E0008651E0008A3
:1001300010B5054C237833B9044B13B10448AFF321
:1001400000800123237010BD040000200000000087
:10015000B01E000808B5034B1BB103490348AFF3B9
:10016000008008BD0000000008000020B01E00084C
:1001700080B584B000AF78607B681B88BB810423A6
:10018000BB730223FB737B685B6807F10C021146AB
:10019000184600F071FA7B685B883B810423BB72D0
:1001A0000223FB727B689B6807F108021146184620
:1001B00000F062FA00BF1037BD4680BD80B582B046
:1001C00000AF78607B6858687B681B8800221946FE
:1001D00000F0E8FA7B6898687B685B880022194623
:1001E00000F0E0FA00220221064800F0DBFA0022CB
:1001F0004021054800F0D6FA01F0D6F800BF0837D4
:10020000BD4680BD000C01400008014080B584B0AF
:1002100002AF78600B46FB707B68D8687B68197CFE
:10022000FA78242300934FF47A7300F009FD7B6879
:1002300058687B681B880122194600F0B3FA7B6876
:1002400098687B685B880022194600F0ABFA00BF13
:100250000837BD4680BD80B584B002AF78600B46DC
:10026000FB707B68D8687B68197CFA78242300933C
:100270004FF47A7300F0E4FC7B6858687B681B8855
:100280000022194600F08EFA7B6898687B685B88CC
:100290000122194600F086FA00BF0837BD4680BD2E
:1002A00080B584B000AF78607B681B88BB817B68B9
:1002B0009B78BB737B68DB78FB737B681A88084B81
:1002C0001A8007F10C031946064800F0D5F9002200
:1002D0000221044800F066FA00BF1037BD4680BD19
:1002E00020000020000C014080B500AF054B5B6989
:1002F000044A43F001035361034B1B68984700BF56
:1003000080BD00BF000401402400002080B500AF84
:10031000054B5B69044A43F002035361034B5B687E
:10032000984700BF80BD00BF0004014024000020AA
:1003300080B500AF054B5B69044A43F00403536189
:10034000034B9B68984700BF80BD00BF000401407D
:100350002400002080B500AF054B5B69044A43F0E0
:1003600008035361034BDB68984700BF80BD00BFA3
:10037000000401402400002080B500AF054B5B69FC
:10038000044A43F010035361034B1B69984700BFB5
:1003900080BD00BF000401402400002080B500AFF4
:1003A000264B5B6903F02003002B08D0234B5B69CD
:1003B000224A43F020035361214B5B6998471F4B4E
:1003C0005B6903F04003002B08D01C4B5B691B4AA0
:1003D00043F0400353611A4B9B699847174B5B6985
:1003E00003F08003002B08D0144B5B69134A43F0E1
:1003F00080035361124BDB699847104B5B6903F430
:100400008073002B08D00D4B5B690C4A43F480735A
:1004100053610B4B1B6A9847084B5B6903F40073ED
:10042000002B08D0054B5B69044A43F40073536109
:10043000034B5B6A984700BF80BD00BF00040140CA
:100440002400002080B500AF2D4B5B6903F480636E
:10045000002B08D02A4B5B69294A43F4806353611F
:10046000284B9B6A9847264B5B6903F40063002B7B
:1004700008D0234B5B69224A43F400635361214B4C
:10048000DB6A98471E4B5B6903F48053002B08D04E
:100490001B4B5B691A4A43F480535361194B1B6B26
:1004A0009847174B5B6903F40053002B08D0144B9B
:1004B0005B69134A43F400535361124B5B6B9847DB
:1004C0000F4B5B6903F48043002B08D00C4B5B6936
:1004D0000B4A43F4804353610A4B9B6B9847084B8C
:1004E0005B6903F40043002B08D0054B5B69044AA9
:1004F00043F400435361034BDB6B984700BF80BD5F
:10050000000401402400002080B483B000AF034603
:10051000FB80FB88B3F5004F00F0A580B3F5004FDA
:1005200000F3A380B3F5804F00F09B80B3F5804FBC
:1005300000F39B80B3F5005F00F09180B3F5005F9E
:1005400000F39380B3F5805F00F08780B3F5805FA0
:1005500000F38B80B3F5006F7DD0B3F5006F00F32F
:100560008480B3F5806F74D0B3F5806F7DDCB3F514
:10057000007F6CD0B3F5007F77DCB3F5807F64D06B
:10058000B3F5807F71DC802B5DD0802B6DDC202B60
:1005900048DC002B69DD013B1F2B66D801A252F815
:1005A00023F000BF2B0600082F0600086B0600088A
:1005B000330600086B0600086B0600086B0600088F
:1005C000370600086B0600086B0600086B0600087B
:1005D0006B0600086B0600086B0600086B06000837
:1005E0003B0600086B0600086B0600086B06000857
:1005F0006B0600086B0600086B0600086B06000817
:100600006B0600086B0600086B0600086B06000806
:100610006B0600086B0600086B0600086B060008F6
:100620003F060008402B0CD01FE000231EE00423EF
:100630001CE008231AE00C2318E0102316E0142312
:1006400014E0182312E01C2310E000230EE0042322
:100650000CE008230AE00C2308E0102306E0142332
:1006600004E0182302E01C2300E0002318460C37A6
:10067000BD4680BC704700BF90B585B000AF7860C4
:1006800039600023BB600023FB733B681B88FF2B92
:1006900001D87B6801E07B680433BB603B681B8842
:1006A0001846FFF731FF03461A460F239340DA43FB
:1006B000BB681B681A40BB681A603B689B78072BB5
:1006C0000BD03B689B78062B07D03B689B78052BAB
:1006D00003D03B689B78042B0ED13B689B78043B8E
:1006E0009B005AB23B68DB785BB213435BB2DBB270
:1006F00003F00F03FB732CE03B689B78012B03D0C6
:100700003B689B78002B07D13B689B789B00DBB252
:1007100003F00F03FB731CE03B689B78082B02D1AE
:100720000423FB7315E00823FB733B689B78022BC3
:1007300007D17B68DB683A6812881A437B68DA6005
:1007400007E07B68DB683A681288D2431A407B680E
:10075000DA60FC7B3B681B881846FFF7D5FE034632
:1007600004FA03F2BB681B681A43BB681A6000BF37
:100770001437BD4690BD80B485B000AF78600B469D
:100780007B807B689A687B881340002B02D0012312
:10079000FB7301E00023FB73FB7B18461437BD4657
:1007A00080BC704780B483B000AF78600B467B801C
:1007B00013467B707B78002B03D07A887B681A61A4
:1007C00002E07A887B685A6100BF0C37BD4680BC66
:1007D0007047000080B586B000AF0023FB71384B36
:1007E0007B617B695B6803F400733B617B695B68D9
:1007F00003F48063FB607B695B6903F01003BB60FB
:100800003B69002B0AD0BB68002B07D07B691A68B4
:100810007B691A600021786900F066F87B695B6982
:1008200003F00203BB603B69002B14D0BB68002BB4
:1008300011D07B699B6903F00103002B0BD17B690D
:100840005B69DBB2FB717B699B69DBB2FB710221E7
:10085000786900F049F87B695B6903F08003BB604D
:100860003B69002B0FD0FB68002B0CD0BB68002B22
:1008700009D07B699B6903F00103002B03D103219D
:10088000786900F031F87B695B6903F04003BB6075
:100890003B69002B0FD0FB68002B0CD0BB68002BF2
:1008A00009D07B699B6903F00103002B03D104216C
:1008B000786900F019F800BF1837BD4680BD00BF49
:1008C0000054004080B400AF00BFBD4680BC7047FC
:1008D00080B400AF00BFBD4680BC704780B400AF9D
:1008E00000BFBD4680BC704780B584B000AF786063
:1008F0000B46FB707B68324A934214BF01230023EE
:10090000DBB2FB73FB78042B56D801A252F823F01C
:100910002B090008250900084F090008670900088D
:100920008B0900087B689B6946E07B689B6903F044
:100930000403002B3BD0FA7B22491346DB0013440F
:100940009B000B4420331B68002098472FE0FA7B64
:100950001C491346DB0013449B000B4420331B68E7
:100960000220984728E07B689B6903F00403002B72
:100970001FD0FA7B13491346DB0013449B000B4442
:1009800020331B680320984713E07B689B6903F0C2
:100990000403002B0FD1FA7B0A491346DB001344F2
:1009A0009B000B4420331B680420984703E000BFE2
:1009B00002E000BF00E000BF00BF1037BD4680BDB1
:1009C000005400406000002080B485B000AF0346B2
:1009D0000A46FB711346BB710023FB73FB79022BA4
:1009E00049D0022B00F3CC80002B00F0C880012BF3
:1009F00040F0C680654B1B68644A23F48023136073
:100A0000624B1B68614A43F4803313605F4B5B6841
:100A10005E4A43F480335360BB79482B06D15B4B6D
:100A20005B685A4A43F4E013536000BF574B1B689E
:100A3000564A43F080731360544B5B68534A23F06B
:100A400003035360514B5B68504A43F00203536009
:100A50004E4B5B684D4A43F0800353604B4B5B68E1
:100A60004A4A23F460535360484B5B68474A23F477
:100A7000E063536084E0454B1B68444A23F0010364
:100A80001360424B5B68414A23F480335360BB7967
:100A9000103B142B5DD801A252F823F0F10A000894
:100AA000530B0008530B0008530B0008FF0A000803
:100AB000530B0008530B0008530B00080D0B0008E4
:100AC000530B00081B0B0008530B0008290B0008F0
:100AD000530B0008530B0008530B0008370B00089A
:100AE000530B0008530B0008530B0008450B00087C
:100AF000264B5B68254A43F40023536029E0234BCF
:100B00005B68224A43F44023536022E01F4B5B683A
:100B10001E4A43F4801353601BE01C4B5B681B4A66
:100B200043F45013536014E0184B5B68174A43F4C6
:100B3000A01353600DE0154B5B68144A43F4C013D7
:100B4000536006E0114B5B68104A43F4E0135360B6
:100B500000BF0E4B1B680D4A43F08073136000BF4B
:100B60000A4B1B6803F00073002BF9D0074B5B683E
:100B7000064A43F0020353600123FB7300E000BF09
:100B8000FB7B18461437BD4680BC704700100240FE
:100B900080B483B000AF0346FB71104B9B690F4AD2
:100BA00043F400639361FB795A1E0D4B9A620C4B20
:100BB0004CF25032DA620A4B1B68094A43F00103D7
:100BC000136000BF064B1B6903F00103002BF9D033
:100BD00000BF00BF0C37BD4680BC7047001002400C
:100BE000002C014080B483B000AF7860074B002236
:100BF0005A6200BF054B5A6A7B689A42FAD300BF1B
:100C000000BF0C37BD4680BC704700BF002C0140C0
:100C100080B584B000AF78600023FB6006E04FF43D
:100C20007A70FFF7DFFFFB680133FB60FA687B68CF
:100C30009A42F4DB00BF00BF1037BD4680BD000004
:100C400080B598B000AFF8607B600B46FB7213462E
:100C5000BB72012387F85F300023BB6501237B65EE
:100C600017E097F86830914A02FB03F319467B6856
:100C70007A6D02FB03F3B1FBF3F3BB65BB6DB3F518
:100C8000FA4F03D37B6D02337B6502E0002387F8C4
:100C90005F3097F85F30012BE3D0FB68844A9342C2
:100CA00040F0D880834B9B69824A43F40063936190
:100CB000804B9B697F4A43F0040393617D4B9B69A2
:100CC0007C4A43F001039361FB681B6823F0010237
:100CD000FB681A60FB7A032B00F2368301A252F8FC
:100CE00023F000BFF50C00084D0D0008A50D00080D
:100CF000FD0D0008704B1B683B6507F1500319465A
:100D00006E48FFF7B9FCFB689B6943F00802FB687B
:100D10009A61FB681B6A43F00102FB681A62FB6878
:100D20009B6943F06002FB689A61BB7ABA6D02FB73
:100D300003F3634AA2FB03235A09FB685A63FB6867
:100D40005B6C43F40042FB685A64FDE25D4B1B6838
:100D5000FB6407F14C0319465848FFF78DFCFB680C
:100D60009B6943F40062FB689A61FB681B6A43F06D
:100D70001002FB681A62FB689B6943F4C042FB687F
:100D80009A61BB7ABA6D02FB03F34D4AA2FB0323BF
:100D90005A09FB689A63FB685B6C43F40042FB688A
:100DA0005A64D1E2484B1B68BB6407F148031946FB
:100DB0004248FFF761FCFB68DB6943F00802FB680F
:100DC000DA61FB681B6A43F48072FB681A62FB6895
:100DD000DB6943F06002FB68DA61BB7ABA6D02FB43
:100DE00003F3374AA2FB03235A09FB68DA63FB6863
:100DF0005B6C43F40042FB685A64A5E2334B1B680A
:100E00007B6407F1440319462C48FFF735FCFB6867
:100E1000DB6943F40062FB68DA61FB681B6A43F438
:100E20008052FB681A62FB68DB6943F4C042FB68CE
:100E3000DA61BB7ABA6D02FB03F3214AA2FB0323FA
:100E40005A09FB681A64FB685B6C43F40042FB6858
:100E50005A6479E2FB68B3F1804F40F0D180154BC2
:100E6000DB69144A43F00103D361124B9B69114AB9
:100E700043F0040393610F4B9B690E4A43F0010357
:100E80009361FB681B6823F00102FB681A60FB7A20
:100E9000032B00F2598201A252F823F0D10E000870
:100EA0001D0F0008690F0008B50F000840420F0031
:100EB000002C014000100240C81E0008000801403C
:100EC0001F85EB51CC1E0008D01E0008D41E000860
:100ED0009D4B1B683B6407F1400319469B48FFF795
:100EE000CBFBFB689B6943F00802FB689A61FB68D7
:100EF0001B6A43F00102FB681A62FB689B6943F0BE
:100F00006002FB689A61BB7ABA6D02FB03F3904AF8
:100F1000A2FB03235A09FB685A6315E28D4B1B6839
:100F2000FB6307F13C0319468848FFF7A5FBFB6804
:100F30009B6943F40062FB689A61FB681B6A43F09B
:100F40001002FB681A62FB689B6943F4C042FB68AD
:100F50009A61BB7ABA6D02FB03F37D4AA2FB0323BD
:100F60005A09FB689A63EFE17B4B1B68BB6307F18F
:100F7000380319467548FFF77FFBFB68DB6943F0D0
:100F80000802FB68DA61FB681B6A43F48072FB6845
:100F90001A62FB68DB6943F06002FB68DA61BB7AC6
:100FA000BA6D02FB03F36A4AA2FB03235A09FB68EA
:100FB000DA63C9E1694B1B687B6307F134031946A7
:100FC0006248FFF759FBFB68DB6943F40062FB688A
:100FD000DA61FB681B6A43F48052FB681A62FB68A3
:100FE000DB6943F4C042FB68DA61BB7ABA6D02FB8D
:100FF00003F3574AA2FB03235A09FB681A64A3E1CF
:10100000FB68574A934240F0DB80564BDB69554AF8
:1010100043F00203D361534B9B69524A43F00403EC
:101020009361504B9B694F4A43F0080393614D4BCA
:101030009B694C4A43F001039361FB681B6823F0F2
:101040000102FB681A60FB7A032B00F27D8101A28A
:1010500052F823F065100008B1100008FD100008D8
:1010600075110008404B1B683B6307F130031946BC
:101070003648FFF701FBFB689B6943F00802FB68F9
:101080009A61FB681B6A43F00102FB681A62FB6805
:101090009B6943F06002FB689A61BB7ABA6D02FB00
:1010A00003F32B4AA2FB03235A09FB685A634BE163
:1010B0002E4B1B68FB6207F12C0319462348FFF7F0
:1010C000DBFAFB689B6943F40062FB689A61FB688A
:1010D0001B6A43F01002FB681A62FB689B6943F4C9
:1010E000C042FB689A61BB7ABA6D02FB03F3184AEF
:1010F000A2FB03235A09FB689A6325E1124B1B6884
:10110000BB6207F1280319461948FFF7B5FAFB68D7
:10111000DB6943F00802FB68DA61FB681B6A43F491
:101120008072FB681A62FB68DB6943F06002FB684F
:10113000DA61BB7ABA6D02FB03F3054AA2FB032313
:101140005A09FB68DA63FFE0D81E00080008014076
:101150001F85EB51DC1E0008E01E0008E41E00089D
:101160000004004000100240E81E0008EC1E0008C9
:10117000000C0140834B1B687B6207F12403194676
:101180008148FFF779FAFB68DB6943F40062FB688A
:10119000DA61FB681B6A43F48052FB681A62FB68E1
:1011A000DB6943F4C042FB68DA61BB7ABA6D02FBCB
:1011B00003F3764AA2FB03235A09FB681A64C3E0CF
:1011C000FB68734A934240F0BF80724BDB69714AFF
:1011D00043F00403D3616F4B9B696E4A43F00803ED
:1011E00093616C4B9B696B4A43F001039361FB680D
:1011F0001B6823F00102FB681A60FB7A032B00F2E4
:10120000A38001A252F823F0191200086512000809
:10121000B1120008FD1200085F4B1B683B6207F12A
:10122000200319465848FFF727FAFB689B6943F0EB
:101230000802FB689A61FB681B6A43F00102FB68C5
:101240001A62FB689B6943F06002FB689A61BB7A93
:10125000BA6D02FB03F34D4AA2FB03235A09FB6854
:101260005A6371E04D4B1B68FB6107F11C03194683
:101270004548FFF701FAFB689B6943F40062FB688D
:101280009A61FB681B6A43F01002FB681A62FB68F4
:101290009B6943F4C042FB689A61BB7ABA6D02FB5A
:1012A00003F33A4AA2FB03235A09FB689A634BE013
:1012B0003B4B1B68BB6107F1180319463248FFF727
:1012C000DBF9FB68DB6943F00802FB68DA61FB6865
:1012D0001B6A43F48072FB681A62FB68DB6943F0A7
:1012E0006002FB68DA61BB7ABA6D02FB03F3274A3E
:1012F000A2FB03235A09FB68DA6325E0294B1B682C
:101300007B6107F1140319461F48FFF7B5F9FB6825
:10131000DB6943F40062FB68DA61FB681B6A43F433
:101320008052FB681A62FB68DB6943F4C042FB68C9
:10133000DA61BB7ABA6D02FB03F3144AA2FB032302
:101340005A09FB681A6400BFFB681B6843F08002FF
:10135000FB681A60FB68BA6DDA627B6D5A1EFB6827
:101360009A62FB685B6943F00102FB685A61FB68A3
:101370001B6843F00102FB681A6000BF6037BD467E
:1013800080BD00BFDC1E0008000C01401F85EB5132
:101390000008004000100240E81E0008EC1E000893
:1013A000C81E0008CC1E000880B400AF044B1B68A8
:1013B000034A23F00103136000BFBD4680BC7047A1
:1013C0000004004080B400AF184B1B78012B28D1DB
:1013D0004FF080431B694FF0804223F001031361FB
:1013E0004FF080431B694FF0804223F002031361EA
:1013F0000F4B1B88002B06D00D4B1B88013B9AB26C
:101400000B4B1A800DE0094B00221A704FF08043FD
:101410001B684FF0804223F001031360054B01224B
:101420001A7000BFBD4680BC704700BFA9000020F5
:10143000AA000020A800002080B400AF154B1B7844
:10144000012B22D1144B1B69134A23F001031361B2
:10145000114B1B69104A23F0020313610F4B1B88C9
:10146000002B06D00D4B1B88013B9AB20B4B1A8008
:101470000BE0084B00221A70074B1B68064A23F04A
:1014800001031360064B01221A7000BFBD4680BCE9
:10149000704700BFA900002000040040AA000020FF
:1014A000A800002080B400AF154B1B78012B22D17F
:1014B000144B1B69134A23F001031361114B1B6981
:1014C000104A23F0020313610F4B1B88002B06D038
:1014D0000D4B1B88013B9AB20B4B1A800BE0084B5B
:1014E00000221A70074B1B68064A23F001031360A1
:1014F000064B01221A7000BFBD4680BC704700BF7A
:10150000A900002000080040AA000020A800002038
:1015100080B483B000AF78607B680B4A934201D1FE
:1015200000230CE07B68094A934201D1012306E0C5
:101530007B68074A934201D1022300E00323184647
:101540000C37BD4680BC7047003801400044004065
:101550000048004080B400AF044BDB68034A23F02E
:101560002003D36000BFBD4680BC704700440040EC
:1015700080B400AF044BDB68034A43F02003D36020
:1015800000BFBD4680BC704700440040B0B485B089
:1015900000AF786039605E4BFB607B685D4A9342C8
:1015A0000ED15D4A3B6814461D460FCD0FC42B6813
:1015B00023605A4B9B69594A43F48043936126E068
:1015C0007B68574A93420FD1534B3A6803F1140496
:1015D00015460FCD0FC42B682360504BDB694F4A73
:1015E00043F40033D36112E07B684E4A93420ED13C
:1015F000494B3A6803F1280415460FCD0FC42B68F8
:101600002360464BDB69454A43F48023D3617B6802
:10161000DB6843F400527B68DA607B68DB683A6819
:1016200012781A437B68DA607B68DB683A68127A62
:101630001A437B68DA607B68DB683A68527A1A433F
:101640007B68DA607B681B693A68927A1A437B6828
:101650001A617B685B693A68D27A1A437B685A617F
:101660003B685B681B01FA68B2FBF3F31901FA6887
:1016700013469B0013449A001A443B685B689B0026
:10168000B2FBF3F23B685B681B01F868B0FBF3F355
:10169000642000FB03F3D31A1B01234AA2FB03239C
:1016A0005B0903F00F030B43BB607B68BA689A6069
:1016B0003B681B7B002B26D07B68DB683A68127B7B
:1016C0001A437B68DA607B68124A934206D1174B53
:1016D0001B68164A43F02003136014E07B68104A2D
:1016E000934206D1114B1B68104A43F0400313602C
:1016F00009E07B680B4A934205D10C4B1B680B4AEF
:1017000043F08003136000BF1437BD46B0BC704780
:101710000051250200380140AC00002000100240BA
:1017200000440040004800401F85EB5104E100E008
:1017300080B586B000AFF860B9601346FB71FB79E5
:10174000012B06D100BFFB681B6803F08003002B50
:10175000F9D0F868FFF7DCFE0346FB75BB681B8811
:10176000DAB2FB685A6000BF1837BD4680BD000082
:1017700080B586B000AFF860B9601346FB71FB79A5
:10178000012B06D100BFFB681B6803F02003002B70
:10179000F9D0F868FFF7BCFE0346FB75FA7D0F49E8
:1017A00013469B0013449B000B4409331B78002B0A
:1017B00007D1FB685B689BB2DBB29AB2BB681A8048
:1017C00007E0FB685B689BB203F07F039AB2BB68DB
:1017D0001A8000BF1837BD4680BD00BFAC00002096
:1017E00080B584B000AF78607B682B4A934218D1F3
:1017F0004FF40073BB810623BB730123FB7307F116
:101800000C0319462548FEF737FF4FF48063BB8170
:101810000823BB7307F10C0319462048FEF72CFF81
:1018200036E07B681E4A934216D10423BB8106230F
:10183000BB730123FB7307F10C0319461748FEF72E
:101840001BFF0823BB810823BB7307F10C03194658
:101850001248FEF711FF1BE07B68124A934217D132
:101860004FF48063BB810623BB730123FB7307F135
:101870000C0319460C48FEF7FFFE4FF40063BB81D2
:101880000823BB7307F10C0319460748FEF7F4FE63
:1018900000BF1037BD4680BD003801400008014040
:1018A0000044004000480040000C014080B500AFFB
:1018B000024B1B69984700BF80BD00BFAC000020F1
:1018C00080B500AF024B5B6A984700BF80BD00BF88
:1018D000AC00002080B500AF024B9B6B984700BF67
:1018E00080BD00BFAC00002080B500AF00221449CD
:1018F0001448FFF73DFF124B1B78DBB2452B04D099
:101900000F4B1B78DBB24C2B13D10F4B01221A70FB
:101910000B4B1B78DBB2452B03D10C4B01221A7009
:1019200007E0074B1B78DBB24C2B02D1084B01229E
:101930001A70012207490348FFF7FAFE00BF80BD75
:10194000F700002000440040F6000020F2000020D4
:10195000F100002000000020B0B594B000AF00F00E
:1019600027FA4FF4E1333B64002387F84730202304
:1019700087F84830A54BFB64002387F845300023E7
:1019800087F84430002387F846300C2387F83C3032
:1019900007F13C0319469E48FFF7F8FD9C48FFF706
:1019A0001FFF9C4B07F128041D460FCD0FC42B6869
:1019B0002360994B07F114041D460FCD0FC42B680B
:1019C000236007F128031846FEF7D2FB07F1140342
:1019D0001846FEF7CDFB914B1B683B61904B1B6893
:1019E000FB60904B1B68BB6007F1080319468E48EB
:1019F000FEF742FE8D4B1B687B603B1D19468C48F1
:101A0000FEF73AFE8B4B1B683B603B461946884805
:101A1000FEF732FE07F110031846FEF741FC07F10E
:101A20000C031846FEF73CFC834B1B78DBB2002B03
:101A300009D0814B00221A70804B1B78062B02D1F3
:101A40007E4B00221A707D4B1B78062BECD801A22E
:101A500052F823F0711A0008051B0008331B000818
:101A6000CD1C0008011D0008491D0008291A0008A6
:101A7000734B1B78DBB2452B0DD0714B1B78DBB25F
:101A80004C2B08D06F4B1B78452B04D06D4B1B782B
:101A90004C2B40F06B816A4B1B78DAB2694B1A70A1
:101AA000FFF758FD684B00221A70684B00221A702D
:101AB000674B44221A80012265495548FFF738FEDA
:101AC000012264495248FFF753FE624B1B78DBB298
:101AD000303BDAB25F4B1A705E4B1B78DBB2002BE7
:101AE00000F044815B4B1B78DBB2062B00F23E8199
:101AF000584B1B78DBB21A46574B1A604F4B0122EA
:101B00001A7033E1524B59221A8001225049404841
:101B1000FFF70EFE01224F493D48FFF729FE4D4BCE
:101B20001B78DBB2462B40F02381444B02221A7013
:101B30001EE1474B00221A80484B1B78DBB2002B7A
:101B400002D0434B42221A80454B1B78DBB2002B5C
:101B500002D03F4B4D221A8001223D492C48FFF70D
:101B6000E7FD33E03C4B1B68012B28D03A4B1B6848
:101B7000022B19D0032B18D107F128035021184646
:101B8000FEF744FB07F1140350211846FEF73EFB15
:101B900002E00A20FFF73CF802212548FEF7EBFDA2
:101BA0000346002BF5D100E000BF07F128031846DB
:101BB000FEF704FB07F114031846FEF7FFFA40F6A0
:101BC000B830FFF725F8204B01221A701E4B1B7806
:101BD000002BC7D01E4B48221A8001221C490C48FA
:101BE000FFF7A6FD01221B490948FFF7C1FD194B6C
:101BF0001B78DBB24A2B05D0164B1B78DBB24F2B80
:101C000040F0B8800D4B03221A70B3E0E9180008C9
:101C100000440040F01E0008041F0008181F0008C0
:101C20001C1F0008201F000800100140241F00088E
:101C300000080140281F0008F600002002000020D4
:101C4000F7000020F0000020F8000020F90000203C
:101C5000F4000020E8000020EC000020F20000204A
:101C6000F1000020474B1B68012B28D0454B1B6817
:101C7000022B19D0032B18D107F128035021184645
:101C8000FEF7E9FA07F1140350211846FEF7E3FACC
:101C900002E00A20FEF7BCFF01213B48FEF76BFD86
:101CA0000346002BF5D100E000BF07F128031846DA
:101CB000FEF784FA07F114031846FEF77FFA40F6A0
:101CC000B830FEF7A5FF314B01221A702F4B1B785D
:101CD000002BC7D02E4B49221A8001222C492D48B7
:101CE000FFF726FD01222C492A48FFF741FD2A4B28
:101CF0001B78DBB2472B3FD1284B04221A703BE004
:101D0000274B1B78DBB2002B03D0214B43221A80D8
:101D100007E0244B1B78DBB2002B02D01C4B4E2279
:101D20001A8001221A491B48FFF702FD01221A49B5
:101D30001848FFF71DFD184B1B78DBB24B2B1DD14C
:101D4000164B05221A7019E0154B00221A70154B1C
:101D500000221A70114B00221A70134B00221A70C5
:101D6000124B00221A70FFF703FC09E000BF5BE68C
:101D700000BF59E600BF57E600BF55E600BF53E677
:101D800052E600BFEC00002000080140F9000020EE
:101D9000F400002000440040E80000200200002081
:101DA000F2000020F1000020F7000020F0000020E9
:101DB00080B500AF48210120FEF706FE144B9B6959
:101DC000134A43F010039361114BDB69104A43F44B
:101DD0000033D3610E4B9B690D4A43F008039361B6
:101DE0000B4B9B690A4A43F004039361084B9B69C0
:101DF000074A43F001039361054BDB69044A43F44E
:101E00000013D3612420FEF7C3FE00BF80BD00BFD6
:101E1000001002400D488546AFF300800C480D4984
:101E20000D4A002302E0D458C4500433C4188C4235
:101E3000F9D30A4A0A4C002301E013600432A2429B
:101E4000FBD300F011F8FFF787FDFEE700500020FC
:101E50000000002004000020341F000804000020BF
:101E6000FC000020FEE7000070B500260C4D0D4C74
:101E7000641BA410A64209D100F01AF800260A4DEE
:101E80000A4C641BA410A64205D170BD55F8043B52
:101E900098470136EEE755F8043B98470136F2E7DC
:101EA0002C1F00082C1F00082C1F0008301F0008E2
:101EB000F8B500BFF8BC08BC9E467047F8B500BF37
:081EC000F8BC08BC9E46704707
:101EC80000010601000206010004060100080601DF
:101ED80001000601020006010400060108000601CF
:101EE80040000601800006011000200000080140A3
:101EF80000080140000400400000000080000100CC
:101F080000080140000C01400004004003000000EC
:101F18000001040240000402002004020200020240
:041F280001000202B0
:041F2C005501000853
:041F30003101000873
:041F34005A00060049
:0400000508001E15BC
:00000001FF
