:020000040800F2
:1000000000500020E9260008392700083927000899
:1000100039270008392700083927000800000000A8
:100020000000000000000000000000003927000868
:100030003927000800000000392700083927000888
:100040003927000839270008392700083927000810
:1000500039270008392700085503000879030008EC
:100060009D030008C1030008E503000839270008C4
:1000700039270008392700083927000839270008E0
:1000800039270008392700083927000839270008D0
:100090003927000839270008392700080904000813
:1000A00039270008392700083927000839270008B0
:1000B000151D0008891D0008F51D0008110800081D
:1000C000010900080D09000819090008392700086E
:1000D00039270008C5210008D9210008ED210008B2
:1000E000B104000839270008000000003927000883
:1000F0003927000839270008392700083927000860
:10010000392700083927000839270008392700084F
:10011000392700083927000839270008392700083F
:10012000392700083927000839270008392700082F
:1001300010B5054C237833B9044B13B10448AFF321
:1001400000800123237010BD040000200000000087
:100150008427000808B5034B1BB103490348AFF3DC
:10016000008008BD0000000008000020842700086F
:1001700080B584B000AF78607B681B88BB810423A6
:10018000BB730223FB737B685B6807F10C021146AB
:10019000184600F0A7FA7B685B883B810423BB729A
:1001A0000223FB727B689B6807F108021146184620
:1001B00000F098FA00BF1037BD4680BD80B582B010
:1001C00000AF78607B6858687B681B8800221946FE
:1001D00000F007FB7B6898687B685B880022194603
:1001E00000F0FFFA00220221064800F0FAFA00228D
:1001F0004021054800F0F5FA01F022F900BF083768
:10020000BD4680BD000C01400008014080B584B0AF
:1002100002AF78600B46FB707B68D8687B68197CFE
:10022000FA78242300934FF47A7300F055FD7B682D
:1002300058687B681B880122194600F0D2FA7B6857
:1002400098687B685B880022194600F0CAFA00BFF4
:100250000837BD4680BD80B584B002AF78600B46DC
:10026000FB707B68D8687B68197CFA78242300933C
:100270004FF47A7300F030FD7B6858687B681B8808
:100280000022194600F0ADFA7B6898687B685B88AD
:100290000122194600F0A5FA00BF0837BD4680BD0F
:1002A00080B584B000AF78607B681B88BB817B68B9
:1002B0009B78BB737B68DB78FB737B681A88084B81
:1002C0001A8007F10C031946064800F00BFA0022C9
:1002D0000221044800F085FA00BF1037BD4680BDFA
:1002E00020000020000C014080B584B002AF78608F
:1002F000084611461A460346FB700B463B801346E0
:10030000BB703B7D002B02D0012B08D00FE00F4BC0
:100310001B88002219460E4800F063FA07E00B4BD9
:100320001B88012219460A4800F05BFA00BFB87822
:100330003A88F978242301933B690093034678684F
:1003400001F08CF800BF0837BD4680BD20000020BA
:10035000000C014080B500AF054B5B69044A43F0D7
:1003600001035361034B1B68984700BF80BD00BF6A
:10037000000401402400002080B500AF054B5B69FC
:10038000044A43F002035361034B5B68984700BF84
:1003900080BD00BF000401402400002080B500AFF4
:1003A000054B5B69044A43F004035361034B9B68AC
:1003B000984700BF80BD00BF00040140240000201A
:1003C00080B500AF054B5B69044A43F008035361F5
:1003D000034BDB68984700BF80BD00BF00040140AD
:1003E0002400002080B500AF054B5B69044A43F050
:1003F00010035361034B1B69984700BF80BD00BFCA
:10040000000401402400002080B500AF264B5B694A
:1004100003F02003002B08D0234B5B69224A43F0F2
:1004200020035361214B5B6998471F4B5B6903F0C5
:100430004003002B08D01C4B5B691B4A43F0400370
:1004400053611A4B9B699847174B5B6903F0800314
:10045000002B08D0144B5B69134A43F080035361AF
:10046000124BDB699847104B5B6903F48073002BD8
:1004700008D00D4B5B690C4A43F4807353610B4BFE
:100480001B6A9847084B5B6903F40073002B08D084
:10049000054B5B69044A43F400735361034B5B6A89
:1004A000984700BF80BD00BF000401402400002029
:1004B00080B500AF2D4B5B6903F48063002B08D03F
:1004C0002A4B5B69294A43F480635361284B9B6A3A
:1004D0009847264B5B6903F40063002B08D0234B3D
:1004E0005B69224A43F400635361214BDB6A9847FE
:1004F0001E4B5B6903F48053002B08D01B4B5B69D8
:100500001A4A43F480535361194B1B6B9847174B9E
:100510005B6903F40053002B08D0144B5B69134A4A
:1005200043F400535361124B5B6B98470F4B5B696D
:1005300003F48043002B08D00C4B5B690B4A43F457
:10054000804353610A4B9B6B9847084B5B6903F4EC
:100550000043002B08D0054B5B69044A43F4004379
:100560005361034BDB6B984700BF80BD0004014023
:100570002400002080B483B000AF0346FB80FB88DA
:10058000B3F5004F00F0A580B3F5004F00F3A38052
:10059000B3F5804F00F09B80B3F5804F00F39B8054
:1005A000B3F5005F00F09180B3F5005F00F3938036
:1005B000B3F5805F00F08780B3F5805F00F38B8038
:1005C000B3F5006F7DD0B3F5006F00F38480B3F511
:1005D000806F74D0B3F5806F7DDCB3F5007F6CD095
:1005E000B3F5007F77DCB3F5807F64D0B3F5807F0F
:1005F00071DC802B5DD0802B6DDC202B48DC002B48
:1006000069DD013B1F2B66D801A252F823F000BF21
:10061000970600089B060008D70600089F060008FA
:10062000D7060008D7060008D7060008A30600086A
:10063000D7060008D7060008D7060008D706000826
:10064000D7060008D7060008D7060008A706000846
:10065000D7060008D7060008D7060008D706000806
:10066000D7060008D7060008D7060008D7060008F6
:10067000D7060008D7060008D7060008D7060008E6
:10068000D7060008D7060008D7060008AB06000802
:10069000402B0CD01FE000231EE004231CE00823A5
:1006A0001AE00C2318E0102316E0142314E018239A
:1006B00012E01C2310E000230EE004230CE00823CA
:1006C0000AE00C2308E0102306E0142304E01823BA
:1006D00002E01C2300E0002318460C37BD4680BC16
:1006E000704700BF90B585B000AF786039600023D7
:1006F000BB600023FB733B681B88FF2B01D87B6822
:1007000001E07B680433BB603B681B881846FFF739
:1007100031FF03461A460F239340DA43BB681B6838
:100720001A40BB681A603B689B78072B0BD03B686C
:100730009B78062B07D03B689B78052B03D03B6842
:100740009B78042B0ED13B689B78043B9B005AB2EC
:100750003B68DB785BB213435BB2DBB203F00F03A1
:10076000FB732CE03B689B78012B03D03B689B78A4
:10077000002B07D13B689B789B00DBB203F00F0393
:10078000FB731CE03B689B78082B02D10423FB73AE
:1007900015E00823FB733B689B78022B07D17B682D
:1007A000DB683A6812881A437B68DA6007E07B6886
:1007B000DB683A681288D2431A407B68DA60FC7BB7
:1007C0003B681B881846FFF7D5FE034604FA03F280
:1007D000BB681B681A43BB681A6000BF1437BD466C
:1007E00090BD80B483B000AF78600B467B80134629
:1007F0007B707B78002B03D07A887B681A6102E0DB
:100800007A887B685A6100BF0C37BD4680BC704750
:1008100080B586B000AF0023FB71384B7B617B69EC
:100820005B6803F400733B617B695B6803F480637E
:10083000FB607B695B6903F01003BB603B69002BC5
:100840000AD0BB68002B07D07B691A687B691A60E5
:100850000021786900F066F87B695B6903F00203A8
:10086000BB603B69002B14D0BB68002B11D07B69A7
:100870009B6903F00103002B0BD17B695B69DBB241
:10088000FB717B699B69DBB2FB710221786900F027
:1008900049F87B695B6903F08003BB603B69002B0F
:1008A0000FD0FB68002B0CD0BB68002B09D07B69F4
:1008B0009B6903F00103002B03D10321786900F049
:1008C00031F87B695B6903F04003BB603B69002B37
:1008D0000FD0FB68002B0CD0BB68002B09D07B69C4
:1008E0009B6903F00103002B03D10421786900F018
:1008F00019F800BF1837BD4680BD00BF0054004046
:1009000080B400AF00BFBD4680BC704780B400AF6C
:1009100000BFBD4680BC704780B400AF00BFBD467D
:1009200080BC704780B584B000AF78600B46FB7028
:100930007B68324A934214BF01230023DBB2FB736E
:10094000FB78042B56D801A252F823F0670900085F
:10095000610900088B090008A3090008C7090008FD
:100960007B689B6946E07B689B6903F00403002B6E
:100970003BD0FA7B22491346DB0013449B000B4417
:1009800020331B68002098472FE0FA7B1C49134650
:10099000DB0013449B000B4420331B680220984764
:1009A00028E07B689B6903F00403002B1FD0FA7BCF
:1009B00013491346DB0013449B000B4420331B6890
:1009C0000320984713E07B689B6903F00403002B26
:1009D0000FD1FA7B0A491346DB0013449B000B44FA
:1009E00020331B680420984703E000BF02E000BFEB
:1009F00000E000BF00BF1037BD4680BD005400407E
:100A00006000002080B485B000AF03460A46FB7149
:100A10001346BB710023FB73FB79022B49D0022BD9
:100A200000F3CC80002B00F0C880012B40F0C68082
:100A3000654B1B68644A23F480231360624B1B6878
:100A4000614A43F4803313605F4B5B685E4A43F452
:100A500080335360BB79482B06D15B4B5B685A4AA5
:100A600043F4E013536000BF574B1B68564A43F0F2
:100A700080731360544B5B68534A23F00303536045
:100A8000514B5B68504A43F0020353604E4B5B6826
:100A90004D4A43F0800353604B4B5B684A4A23F452
:100AA00060535360484B5B68474A23F4E0635360EC
:100AB00084E0454B1B68444A23F001031360424B1A
:100AC0005B68414A23F480335360BB79103B142B9D
:100AD0005DD801A252F823F02D0B00088F0B0008FF
:100AE0008F0B00088F0B00083B0B00088F0B0008D2
:100AF0008F0B00088F0B0008490B00088F0B0008B4
:100B0000570B00088F0B0008650B00088F0B0008BF
:100B10008F0B00088F0B0008730B00088F0B000869
:100B20008F0B00088F0B0008810B0008264B5B68B9
:100B3000254A43F40023536029E0234B5B68224A93
:100B400043F44023536022E01F4B5B681E4A43F48A
:100B5000801353601BE01C4B5B681B4A43F450132B
:100B6000536014E0184B5B68174A43F4A0135360BA
:100B70000DE0154B5B68144A43F4C013536006E064
:100B8000114B5B68104A43F4E013536000BF0E4BF7
:100B90001B680D4A43F08073136000BF0A4B1B684B
:100BA00003F00073002BF9D0074B5B68064A43F053
:100BB000020353600123FB7300E000BFFB7B184678
:100BC0001437BD4680BC70470010024080B483B02B
:100BD00000AF0346FB71104B9B690F4A43F400635F
:100BE0009361FB795A1E0D4B9A620C4B4CF25032BA
:100BF000DA620A4B1B68094A43F00103136000BF25
:100C0000064B1B6903F00103002BF9D000BF00BFA6
:100C10000C37BD4680BC704700100240002C0140DC
:100C200080B483B000AF0346FB71134BDB69124AFB
:100C300043F00103D361FB795A1E4FF080439A625F
:100C40004FF080434CF25032DA624FF080431B6821
:100C50004FF0804243F00103136000BF4FF0804328
:100C60001B6903F00103002BF8D000BF00BF0C3755
:100C7000BD4680BC704700BF0010024080B483B006
:100C800000AF7860074B00225A6200BF054B5A6ADA
:100C90007B689A42FAD300BF00BF0C37BD4680BCC8
:100CA000704700BF002C014080B584B000AF786071
:100CB0000023FB6006E04FF47A70FFF7DFFFFB686C
:100CC0000133FB60FA687B689A42F4DB00BF00BF27
:100CD0001037BD4680BD000080B598B000AFF86009
:100CE0007B600B46FB721346BB72012387F85F30B3
:100CF0000023BB6501237B6517E097F86830914AB4
:100D000002FB03F319467B687A6D02FB03F3B1FB28
:100D1000F3F3BB65BB6DB3F5FA4F03D37B6D0233C1
:100D20007B6502E0002387F85F3097F85F30012B86
:100D3000E3D0FB68844A934240F0D880834B9B69A0
:100D4000824A43F400639361804B9B697F4A43F07E
:100D5000040393617D4B9B697C4A43F001039361DB
:100D6000FB681B6823F00102FB681A60FB7A032B07
:100D700000F2368301A252F823F000BF8D0D000867
:100D8000E50D00083D0E0008950E0008704B1B682D
:100D90003B6507F1500319466E48FFF7A3FCFB685B
:100DA0009B6943F00802FB689A61FB681B6A43F089
:100DB0000102FB681A62FB689B6943F06002FB68F2
:100DC0009A61BB7ABA6D02FB03F3634AA2FB032369
:100DD0005A09FB685A63FB685B6C43F40042FB688A
:100DE0005A64FDE25D4B1B68FB6407F14C03194636
:100DF0005848FFF777FCFB689B6943F40062FB6887
:100E00009A61FB681B6A43F01002FB681A62FB6878
:100E10009B6943F4C042FB689A61BB7ABA6D02FBDE
:100E200003F34D4AA2FB03235A09FB689A63FB684C
:100E30005B6C43F40042FB685A64D1E2484B1B6888
:100E4000BB6407F1480319464248FFF74BFCFB68B7
:100E5000DB6943F00802FB68DA61FB681B6A43F454
:100E60008072FB681A62FB68DB6943F06002FB6812
:100E7000DA61BB7ABA6D02FB03F3374AA2FB0323A4
:100E80005A09FB68DA63FB685B6C43F40042FB6859
:100E90005A64A5E2334B1B687B6407F1440319468F
:100EA0002C48FFF71FFCFB68DB6943F40062FB681A
:100EB000DA61FB681B6A43F48052FB681A62FB68C4
:100EC000DB6943F4C042FB68DA61BB7ABA6D02FBAE
:100ED00003F3214AA2FB03235A09FB681A64FB6847
:100EE0005B6C43F40042FB685A6479E2FB68B3F13F
:100EF000804F40F0D180154BDB69144A43F0010369
:100F0000D361124B9B69114A43F0040393610F4B69
:100F10009B690E4A43F001039361FB681B6823F051
:100F20000102FB681A60FB7A032B00F2598201A2CE
:100F300052F823F0690F0008B50F000801100008EF
:100F40004D10000840420F00002C014000100240EC
:100F50009C270008000801401F85EB51A0270008CE
:100F6000A4270008A82700089D4B1B683B6407F1D5
:100F7000400319469B48FFF7B5FBFB689B6943F0AC
:100F80000802FB689A61FB681B6A43F00102FB6878
:100F90001A62FB689B6943F06002FB689A61BB7A46
:100FA000BA6D02FB03F3904AA2FB03235A09FB68C4
:100FB0005A6315E28D4B1B68FB6307F13C0319462E
:100FC0008848FFF78FFBFB689B6943F40062FB686E
:100FD0009A61FB681B6A43F01002FB681A62FB68A7
:100FE0009B6943F4C042FB689A61BB7ABA6D02FB0D
:100FF00003F37D4AA2FB03235A09FB689A63EFE1DE
:101000007B4B1B68BB6307F1380319467548FFF734
:1010100069FBFB68DB6943F00802FB68DA61FB6887
:101020001B6A43F48072FB681A62FB68DB6943F059
:101030006002FB68DA61BB7ABA6D02FB03F36A4AAD
:10104000A2FB03235A09FB68DA63C9E1694B1B68F9
:101050007B6307F1340319466248FFF743FBFB68E3
:10106000DB6943F40062FB68DA61FB681B6A43F4E6
:101070008052FB681A62FB68DB6943F4C042FB687C
:10108000DA61BB7ABA6D02FB03F3574AA2FB032372
:101090005A09FB681A64A3E1FB68574A934240F07F
:1010A000DB80564BDB69554A43F00203D361534B57
:1010B0009B69524A43F004039361504B9B694F4A2A
:1010C00043F0080393614D4B9B694C4A43F0010385
:1010D0009361FB681B6823F00102FB681A60FB7ACE
:1010E000032B00F27D8101A252F823F0FD100008CD
:1010F00049110008951100080D120008404B1B68AB
:101100003B6307F1300319463648FFF7EBFAFB68FB
:101110009B6943F00802FB689A61FB681B6A43F015
:101120000102FB681A62FB689B6943F06002FB687E
:101130009A61BB7ABA6D02FB03F32B4AA2FB03232D
:101140005A09FB685A634BE12E4B1B68FB6207F19F
:101150002C0319462348FFF7C5FAFB689B6943F443
:101160000062FB689A61FB681B6A43F01002FB682F
:101170001A62FB689B6943F4C042FB689A61BB7AC0
:10118000BA6D02FB03F3184AA2FB03235A09FB685A
:101190009A6325E1124B1B68BB6207F128031946CD
:1011A0001948FFF79FFAFB68DB6943F00802FB6808
:1011B000DA61FB681B6A43F48072FB681A62FB68A1
:1011C000DB6943F06002FB68DA61BB7ABA6D02FB4F
:1011D00003F3054AA2FB03235A09FB68DA63FFE025
:1011E000AC270008000801401F85EB51B02700081C
:1011F000B4270008B827000800040040001002408F
:10120000BC270008C0270008000C0140834B1B6866
:101210007B6207F1240319468148FFF763FAFB68F4
:10122000DB6943F40062FB68DA61FB681B6A43F424
:101230008052FB681A62FB68DB6943F4C042FB68BA
:10124000DA61BB7ABA6D02FB03F3764AA2FB032391
:101250005A09FB681A64C3E0FB68734A934240F082
:10126000BF80724BDB69714A43F00403D3616F4B5B
:101270009B696E4A43F0080393616C4B9B696B4A10
:1012800043F001039361FB681B6823F00102FB68D4
:101290001A60FB7A032B00F2A38001A252F823F01C
:1012A000B1120008FD120008491300089513000848
:1012B0005F4B1B683B6207F1200319465848FFF754
:1012C00011FAFB689B6943F00802FB689A61FB68AE
:1012D0001B6A43F00102FB681A62FB689B6943F0DA
:1012E0006002FB689A61BB7ABA6D02FB03F34D4A58
:1012F000A2FB03235A09FB685A6371E04D4B1B683C
:10130000FB6107F11C0319464548FFF7EBF9FB6841
:101310009B6943F40062FB689A61FB681B6A43F0B7
:101320001002FB681A62FB689B6943F4C042FB68C9
:101330009A61BB7ABA6D02FB03F33A4AA2FB03231C
:101340005A09FB689A634BE03B4B1B68BB6107F192
:10135000180319463248FFF7C5F9FB68DB6943F00B
:101360000802FB68DA61FB681B6A43F48072FB6861
:101370001A62FB68DB6943F06002FB68DA61BB7AE2
:10138000BA6D02FB03F3274AA2FB03235A09FB6849
:10139000DA6325E0294B1B687B6107F114031946CA
:1013A0001F48FFF79FF9FB68DB6943F40062FB68A5
:1013B000DA61FB681B6A43F48052FB681A62FB68BF
:1013C000DB6943F4C042FB68DA61BB7ABA6D02FBA9
:1013D00003F3144AA2FB03235A09FB681A6400BFF3
:1013E000FB681B6843F08002FB681A60FB68BA6DFB
:1013F000DA627B6D5A1EFB689A62FB685B6943F098
:101400000102FB685A61FB681B6843F00102FB683C
:101410001A6000BF6037BD4680BD00BFB02700081E
:10142000000C01401F85EB510008004000100240F5
:10143000BC270008C02700089C270008A027000838
:1014400080B400AF044B1B68034A23F00103136010
:1014500000BFBD4680BC70470004004080B596B018
:1014600000AF7860084611461A460346FB700B46EB
:101470003B801346BB709B4B01221A709A4A3B88F3
:101480001380012387F8573000233B650123FB6459
:1014900017E097F86430954A02FB03F319463B6E58
:1014A000FA6C02FB03F3B1FBF3F33B653B6DB3F561
:1014B000FA4F03D3FB6C0233FB6402E0002387F88E
:1014C000573097F85730012BE3D07B68884A934216
:1014D00040F02081874B9B69864A43F40063936107
:1014E000844B9B69834A43F004039361814B9B695E
:1014F000804A43F0010393617F4B1B687E4A43F0AF
:10150000807313607C4B1B687B4A43F0007313604D
:10151000794B1B68784A43F080631360764B1B68F5
:10152000754A43F0006313607B681B6823F0010277
:101530007B681A60FB78032B00F2C28301A252F889
:1015400023F000BF55150008B91500081D16000846
:1015500081160008694B1B68BB6407F148031946F4
:101560006748FFF7BFF87B689B6943F008027B6818
:101570009A617B681B6A43F001027B681A627B6890
:101580009B6943F060027B689A61BB783A6D02FB0D
:1015900003F35C4AA2FB03235A097B685A637B6806
:1015A0005B6C43F400427B685A647B68DB6843F001
:1015B00003027B68DA6083E3534B1B687B6407F1AB
:1015C000440319464E48FFF78DF87B689B6943F446
:1015D00000627B689A617B681B6A43F010027B683B
:1015E0001A627B689B6943F4C0427B689A61BB784E
:1015F0003A6D02FB03F3434AA2FB03235A097B68BB
:101600009A637B685B6C43F400427B685A647B6836
:10161000DB6843F005027B68DA6051E33B4B1B68F3
:101620003B6407F1400319463548FFF75BF87B68D8
:10163000DB6943F008027B68DA617B681B6A43F46C
:1016400080727B681A627B68DB6943F060027B68AA
:10165000DA61BB783A6D02FB03F32A4AA2FB03234B
:101660005A097B68DA637B685B6C43F400427B68F1
:101670005A647B68DB6843F009027B68DA601FE329
:10168000234B1B68FB6307F13C0319461C48FFF71B
:1016900029F87B68DB6943F400627B68DA617B6868
:1016A0001B6A43F480527B681A627B68DB6943F4EF
:1016B000C0427B68DA61BB783A6D02FB03F3114AE2
:1016C000A2FB03235A097B681A647B685B6C43F4B2
:1016D00000427B685A647B68DB6843F011027B68D8
:1016E000DA60EDE2A9000020AA00002040420F00CD
:1016F000002C01400010024000E100E09C2700089F
:10170000000801401F85EB51A0270008A42700080E
:10171000A82700087B68B3F1804F40F0DD80A04B24
:10172000DB699F4A43F00103D3619D4B9B699C4A4F
:1017300043F0040393619A4B9B69994A43F0010378
:101740009361984B1B68974A43F0805313607B6802
:101750001B6823F001027B681A60FB78032B00F200
:10176000AF8201A252F823F079170008D1170008C0
:1017700029180008811800088B4B1B68BB6307F110
:10178000380319468948FEF7ADFF7B689B6943F033
:1017900008027B689A617B681B6A43F001027B68E0
:1017A0001A627B689B6943F060027B689A61BB7830
:1017B0003A6D02FB03F37E4AA2FB03235A097B68BE
:1017C0005A637B68DB6843F003027B68DA6077E288
:1017D000784B1B687B6307F1340319467348FEF7A7
:1017E00081FF7B689B6943F400627B689A617B6838
:1017F0001B6A43F010027B681A627B689B6943F4A2
:10180000C0427B689A61BB783A6D02FB03F3684A79
:10181000A2FB03235A097B689A637B68DB6843F069
:1018200005027B68DA604BE2634B1B683B6307F1A0
:10183000300319465D48FEF755FF7B68DB6943F0CE
:1018400008027B68DA617B681B6A43F480727B68FC
:101850001A627B68DB6943F060027B68DA61BB78FF
:101860003A6D02FB03F3524AA2FB03235A097B6839
:10187000DA637B68DB6843F009027B68DA601FE2A9
:101880004E4B1B68FB6207F12C0319464748FEF7D5
:1018900029FF7B68DB6943F400627B68DA617B685F
:1018A0001B6A43F480527B681A627B68DB6943F4ED
:1018B000C0427B68DA61BB783A6D02FB03F33C4AB5
:1018C000A2FB03235A097B681A647B68DB6843F038
:1018D00011027B68DA60F3E17B68394A934240F099
:1018E000F7802F4BDB692E4A43F00203D3612C4B68
:1018F0009B692B4A43F004039361294B9B69284A57
:1019000043F008039361264B9B69254A43F001038A
:101910009361244B1B68234A43F0005313607B6898
:101920001B6823F001027B681A60FB78032B00F22E
:10193000C78101A252F823F049190008C91900080B
:10194000211A0008791A00081E4B1B68BB6207F1B8
:10195000280319461548FEF7C5FE7B689B6943F0CE
:1019600008027B689A617B681B6A43F001027B680E
:101970001A627B689B6943F060027B689A61BB785E
:101980003A6D02FB03F30A4AA2FB03235A097B6860
:101990005A637B68DB6843F003027B68DA608FE19F
:1019A0000010024000E100E0AC2700080008014000
:1019B0001F85EB51B0270008B4270008B82700089E
:1019C00000040040BC2700089C4B1B687B6207F1A9
:1019D000240319469A48FEF785FE7B689B6943F409
:1019E00000627B689A617B681B6A43F010027B6827
:1019F0001A627B689B6943F4C0427B689A61BB783A
:101A00003A6D02FB03F38F4AA2FB03235A097B685A
:101A10009A637B68DB6843F005027B68DA604FE11C
:101A2000894B1B683B6207F1200319468748FEF784
:101A300059FE7B68DB6943F008027B68DA617B68EA
:101A40001B6A43F480727B681A627B68DB6943F02F
:101A500060027B68DA61BB783A6D02FB03F3794A76
:101A6000A2FB03235A097B68DA637B68DB6843F0D7
:101A700001027B68DA6023E1754B1B68FB6107F1AB
:101A80001C0319467148FEF72DFE7B68DB6943F4A1
:101A900000627B68DA617B681B6A43F480527B6872
:101AA0001A627B68DB6943F4C0427B68DA61BB7809
:101AB0003A6D02FB03F3634AA2FB03235A097B68D6
:101AC0001A647B68DB6843F001027B68DA60F7E048
:101AD0007B68604A934240F0F3805F4BDB695E4A6B
:101AE00043F00403D3615C4B9B695B4A43F00803FA
:101AF0009361594B9B69584A43F001039361574BDB
:101B00001B68564A43F0804313607B681B6823F0D0
:101B100001027B681A60FB78032B00F2D18001A2DE
:101B200052F823F0351B00088D1B0008E51B000848
:101B3000691C00084A4B1B68BB6107F11803194672
:101B40004248FEF7CFFD7B689B6943F008027B6843
:101B50009A617B681B6A43F001027B681A627B68AA
:101B60009B6943F060027B689A61BB783A6D02FB27
:101B700003F3344AA2FB03235A097B685A637B6848
:101B8000DB6843F003027B68DA6099E02B4B1B684B
:101B90007B6107F1140319462C48FEF7A3FD7B680F
:101BA0009B6943F400627B689A617B681B6A43F01F
:101BB00010027B681A627B689B6943F4C0427B68B1
:101BC0009A61BB783A6D02FB03F31E4AA2FB032322
:101BD0005A097B689A637B68DB6843F001027B6883
:101BE000DA606DE01F4B1B683B6107F1100319467B
:101BF0001648FEF777FD7B68DB6943F008027B68D7
:101C0000DA617B681B6A43F480727B681A627B68C6
:101C1000DB6943F060027B68DA61BB783A6D02FBF6
:101C200003F3084AA2FB03235A097B68DA637B6843
:101C3000DB6843F001027B68DA6041E0C0270008FE
:101C4000000801401F85EB51AC270008000C014043
:101C5000B0270008000800400010024000E100E04A
:101C6000BC2700089C270008274B1B68FB6007F176
:101C70000C0319462548FEF735FD7B68DB6943F404
:101C800000627B68DA617B681B6A43F480527B6880
:101C90001A627B68DB6943F4C0427B68DA61BB7817
:101CA0003A6D02FB03F31A4AA2FB03235A097B682D
:101CB0001A647B68DB6843F001027B68DA6000BF6E
:101CC0007B681B6843F080027B681A607B683A6D12
:101CD000DA62FB6C5A1E7B689A627B68DB6843F0B1
:101CE00001027B68DA607B685B6943F001027B6814
:101CF0005A617B681B6843F001027B681A6000BF71
:101D00005837BD4680BD00BFA0270008000C014029
:101D10001F85EB5180B400AF184B1B78012B28D1E5
:101D20004FF080431B694FF0804223F001031361A1
:101D30004FF080431B694FF0804223F00203136190
:101D40000F4B1B88002B06D00D4B1B88013B9AB212
:101D50000B4B1A800DE0094B00221A704FF08043A4
:101D60001B684FF0804223F001031360054B0122F2
:101D70001A7000BFBD4680BC704700BFA90000209C
:101D8000AA000020A800002080B400AF154B1B78EB
:101D9000012B22D1144B1B69134A23F00103136159
:101DA000114B1B69104A23F0020313610F4B1B8870
:101DB000002B06D00D4B1B88013B9AB20B4B1A80AF
:101DC0000BE0084B00221A70074B1B68064A23F0F1
:101DD00001031360064B01221A7000BFBD4680BC90
:101DE000704700BFA900002000040040AA000020A6
:101DF000A800002080B400AF154B1B78012B22D126
:101E0000144B1B69134A23F001031361114B1B6927
:101E1000104A23F0020313610F4B1B88002B06D0DE
:101E20000D4B1B88013B9AB20B4B1A800BE0084B01
:101E300000221A70074B1B68064A23F00103136047
:101E4000064B01221A7000BFBD4680BC704700BF20
:101E5000A900002000080040AA000020A8000020DF
:101E600080B483B000AF78607B680B4A934201D1A5
:101E700000230CE07B68094A934201D1012306E06C
:101E80007B68074A934201D1022300E003231846EE
:101E90000C37BD4680BC704700380140004400400C
:101EA00000480040B0B485B000AF786039605E4B48
:101EB000FB607B685D4A93420ED15D4A3B681446E5
:101EC0001D460FCD0FC42B6823605A4B9B69594A9E
:101ED00043F48043936126E07B68574A93420FD1D5
:101EE000534B3A6803F1140415460FCD0FC42B6809
:101EF0002360504BDB694F4A43F40033D36112E057
:101F00007B684E4A93420ED1494B3A6803F128044C
:101F100015460FCD0FC42B682360464BDB69454A3D
:101F200043F48023D3617B68DB6843F400527B6811
:101F3000DA607B68DB683A6812781A437B68DA609B
:101F40007B68DB683A68127A1A437B68DA607B68E0
:101F5000DB683A68527A1A437B68DA607B681B69EF
:101F60003A68927A1A437B681A617B685B693A68BF
:101F7000D27A1A437B685A613B685B681B01FA6836
:101F8000B2FBF3F31901FA6813469B0013449A005D
:101F90001A443B685B689B00B2FBF3F23B685B68EA
:101FA0001B01F868B0FBF3F3642000FB03F3D31AC2
:101FB0001B01234AA2FB03235B0903F00F030B431E
:101FC000BB607B68BA689A603B681B7B002B26D09D
:101FD0007B68DB683A68127B1A437B68DA607B684F
:101FE000124A934206D1174B1B68164A43F020034E
:101FF000136014E07B68104A934206D1114B1B68B2
:10200000104A43F04003136009E07B680B4A934297
:1020100005D10C4B1B680B4A43F08003136000BFD3
:102020001437BD46B0BC704700512502003801404E
:10203000AC00002000100240004400400048004076
:102040001F85EB5104E100E080B586B000AFF86079
:10205000B9601346FB71FB79012B06D100BFFB6809
:102060001B6803F08003002BF9D0F868FFF7F8FE37
:102070000346FB75BB681B88DAB2FB685A6000BF79
:102080001837BD4680BD000080B586B000AFF8604F
:10209000B9601346FB71FB79012B06D100BFFB68C9
:1020A0001B6803F02003002BF9D0F868FFF7D8FE77
:1020B0000346FB75FA7D0F4913469B0013449B00B2
:1020C0000B4409331B78002B07D1FB685B689BB27C
:1020D000DBB29AB2BB681A8007E0FB685B689BB210
:1020E00003F07F039AB2BB681A8000BF1837BD4661
:1020F00080BD00BFAC00002080B584B000AF786028
:102100007B682B4A934218D14FF40073BB8106239E
:10211000BB730123FB7307F10C0319462548FEF737
:10212000E1FA4FF48063BB810823BB7307F10C0312
:1021300019462048FEF7D6FA36E07B681E4A9342DD
:1021400016D10423BB810623BB730123FB7307F164
:102150000C0319461748FEF7C5FA0823BB8108236C
:10216000BB7307F10C0319461248FEF7BBFA1BE0DC
:102170007B68124A934217D14FF48063BB810623D8
:10218000BB730123FB7307F10C0319460C48FEF7E0
:10219000A9FA4FF40063BB810823BB7307F10C035A
:1021A00019460748FEF79EFA00BF1037BD4680BDAE
:1021B0000038014000080140004400400048004051
:1021C000000C014080B500AF024B1B69984700BF6F
:1021D00080BD00BFAC00002080B500AF024B5B6A41
:1021E000984700BF80BD00BFAC00002080B500AFA5
:1021F000024B9B6B984700BF80BD00BFAC00002026
:1022000080B500AF012214491448FFF73DFF124B7F
:102210001B78DBB2442B04D00F4B1B78DBB2452B71
:1022200013D10F4B01221A700B4B1B78DBB2442BDE
:1022300003D10C4B01221A7007E0074B1B78DBB26D
:10224000452B02D1084B01221A700122074903488D
:10225000FFF7FAFE00BF80BDE80000200044004008
:10226000EE000020EA000020E9000020000000202D
:10227000B0B594B002AF00F0FDF94FF4E133BB63A9
:10228000002387F83F30202387F84030B64B7B642B
:10229000002387F83D30002387F83C30002387F87F
:1022A0003E300C2387F8343007F134031946AF4829
:1022B000FFF7F8FDAD48FFF71FFFAD4B07F1200416
:1022C0001D460FCD0FC42B682360AA4B07F10C04E9
:1022D0001D460FCD0FC42B68236007F1200318465D
:1022E000FDF746FF07F10C031846FDF741FFA24B2F
:1022F0001B68BB60A14B1B687B60A14B1B683B60EC
:102300003B4619469F48FEF7EDF907F108031846CA
:10231000FDF7C6FF3B1D1846FDF7C2FF9A4B1B7821
:10232000DBB2002B00F09281974B00221A70974B82
:102330001B78DBB2442B04D0944B1B78DBB2452BCB
:1023400012D1934B00221A70924B00221A70924BBA
:1023500043221A80012290498448FFF775FE01222A
:102360008A498248FFF790FE884B1B78DBB2462BE8
:102370006FD1864B00221A70874B00221A80874B40
:102380001B78DBB2002B05D0834B55221A80844B7F
:1023900001221A70834B1B78DBB2002B05D07E4BD9
:1023A0004C221A807E4B02221A7001227A496F4811
:1023B000FFF74AFE38E007F1200364211846FDF7D5
:1023C00025FF07F10C0364211846FDF71FFF40F6B7
:1023D000B830FEF769FC07F120031846FDF7EEFE62
:1023E00007F10C031846FDF7E9FE6A4B01221A704B
:1023F000012301934FF42F73009332234FF448725B
:1024000003216948FDF770FF012301934FF42F73F7
:10241000009332234FF4487201216348FDF764FFB3
:1024200040F6B830FEF740FC5A4B1B78002BC2D068
:10243000594B48221A80012257494C48FFF704FEA5
:10244000574B03221A70012250494848FFF71CFEDF
:102450000CE0514B43221A8001224F494348FFF7B9
:10246000F3FD012249494148FFF70EFE474B1B7817
:10247000DBB24A2B04D0454B1B78DBB24E2B51D13B
:10248000424B00221A7038E007F1200364211846FD
:10249000FDF7E1FE07F10C0364211846FDF7DBFEB2
:1024A00040F6B830FEF700FC07F120031846FDF7B0
:1024B00085FE07F10C031846FDF780FE002301930B
:1024C0004FF42F73009332234FF4487203213648A0
:1024D000FDF70AFF002301934FF42F73009332237B
:1024E0004FF4487201213048FDF7FEFE40F6B83047
:1024F000FEF7DAFB264B01221A70254B1B78002BC6
:10250000C2D0254B49221A80012223491748FFF7E0
:102510009BFD234B04221A7001221C491348FFF72C
:10252000B3FD0CE01C4B48221A8001221A490F48C7
:10253000FFF78AFD012215490C48FFF7A5FD134B53
:102540001B78DBB2472B4AD1104B00221A70134B79
:102550001B78DBB2002B29D00F4B42221A80104B84
:1025600005221A702DE000BF01220008004400403F
:10257000C4270008D8270008EC270008F027000827
:10258000F427000800100140EE000020E8000020C1
:10259000F1000020F0000020EC000020EA00002004
:1025A000EF000020E9000020000800402A4B1B78C3
:1025B000DBB2002B05D0294B4D221A80284B062276
:1025C0001A70012225492748FFF73EFD01222649BE
:1025D0002448FFF759FD244B00221A700CE01F4BD2
:1025E00049221A8001221D491E48FFF72DFD0122B4
:1025F0001D491C48FFF748FD1B4B1B78DBB24B2BDA
:1026000009D1194B00221A70184B00221A70124B74
:1026100000221A7015E0154B1B78DBB2002B03D09B
:102620000E4B42221A8007E00B4B1B78DBB2002BCB
:1026300002D00A4B4D221A80012208490948FFF7AF
:1026400003FD01220A490748FFF7FEFC40F6B830B7
:10265000FEF72AFB62E600BFE9000020EC00002044
:10266000EF00002000440040E8000020EA000020C5
:102670000000002080B500AF48210120FEF7C2F91C
:10268000184B9B69174A43F010039361154BDB69A4
:10269000144A43F40033D361124B9B69114A43F04F
:1026A000080393610F4B9B690E4A43F00403936147
:1026B0000C4B9B690B4A43F001039361094BDB69A7
:1026C000084A43F00103D361064BDB69054A43F432
:1026D0000013D3612420FEF779FA2420FEF7A0FA34
:1026E00000BF80BD001002400D488546AFF300805A
:1026F0000C480D490D4A002302E0D458C45004335D
:10270000C4188C42F9D30A4A0A4C002301E0136032
:102710000432A242FBD300F011F8FFF7A9FDFEE757
:1027200000500020000000200400002000280008C5
:1027300004000020F4000020FEE7000070B5002631
:102740000C4D0D4C641BA410A64209D100F01AF8E0
:1027500000260A4D0A4C641BA410A64205D170BD88
:1027600055F8043B98470136EEE755F8043B984787
:102770000136F2E7F8270008F8270008F8270008D4
:10278000FC270008F8B500BFF8BC08BC9E4670479F
:0C279000F8B500BFF8BC08BC9E467047BE
:10279C000001060100020601000406010008060102
:1027AC0001000601020006010400060108000601F2
:1027BC0040000601800006011000200000080140C6
:1027CC0000080140000400400000000080000100EF
:1027DC0000080140000C0140000400400300000010
:0C27EC0000010402400004020020010271
:0427F800550100087F
:0427FC00310100089F
:042800005A0000007A
:04000005080026E9E0
:00000001FF
